:0400000500000B9F4D
:020000040000FA
:1000000000370020890B0000990B00009B0B0000BB
:100010009D0B00009D0B00009D0B000000000000E8
:100020000000000000000000000000009D0B000028
:100030009D0B0000000000009D0B00009D0B0000C8
:100040009D0B00009D0B00009D0B00009D0B000010
:100050009D0B00009D0B00009D0B00009D0B000000
:100060009D0B00009D0B00009D0B00009D0B0000F0
:100070009D0B00009D0B00009D0B00009D0B0000E0
:100080009D0B00009D0B00009D0B00009D0B0000D0
:100090009D0B00009D0B00009D0B00009D0B0000C0
:1000A0009D0B00009D0B00009D0B00009D0B0000B0
:1000B0009D0B00009D0B00009D0B00009D0B0000A0
:1000C0009D0B00009D0B000038B514460D1800F084
:1000D000F5FA401E8041C00FDFF82C150A68002A8F
:1000E000FCD02C6001220A6000281CBFBDE8314012
:1000F00000F0E8BA31BD38B5DFF81005DFF810556B
:10010000046814F1010F08BF002400F03BFBDFF886
:100110000415002008600120DFF8FC140860DFF8F7
:10012000FC14086028680028FCD1DFF8F404DFF82C
:10013000F424416812688908890041F0005141F0B7
:100140000401520748BF41F001010BD4026812F0CC
:10015000030F07D041F003024260026802F003027D
:10016000032AFAD14160DFF8C004006828B1DFF843
:10017000BC040068204600F031F8DFF8B414DFF862
:10018000B42400200860DFF8B00401686FF31B415D
:1001900011430160DFF8A4040168C1F301310129B2
:1001A00007D10168DFF89824114041F40032026061
:1001B000016028680028FCD131BDDFF8881482B2C4
:1001C0000A60C0F30740486001208860DFF87804C7
:1001D00000680028FAD00020886070472DE9F84FA9
:1001E0000446DFF8680401210160DFF8641409683F
:1001F0000029FAD0C021DFF85C24DFF85C54DFF876
:100200005C941160A968890705D46968090C41F0FC
:10021000F00189F8001000210163EF68DFF8406405
:10022000DFF8408407F04070B0F1807F10D1DFF834
:100230003804802101744FF6D801A9F810108021EC
:100240000170384600F0AFF9B06BC0F3042003E052
:10025000D8F80000C0F3046000F0A1F93917491C78
:1002600008181628A8BF152004DA6FF00901884283
:10027000B8BF084600F01F0040F4F850A9F8180075
:10028000DFF8E8030068800748BF47F04067DFF801
:10029000E003C7F3C06181F001010160BA03C7F355
:1002A000806181F0010181603068C0F38361C0F337
:1002B0008F2020D43A0412164FF6FF7307E040084F
:1002C00004D11846490804BF01210120521C002A0C
:1002D000F5D4012A0FDB400040F00100B0F5803F6B
:1002E00021BF0120490041F00101102924BF0F2145
:1002F0001846521EEDE7DFF87CA3DFF87C9340EA56
:100300000142182100F049F930683168C0F38700D4
:1003100001F0030140EA012000900023D9F804C055
:10032000DCF804C040F2FF322C215046E047F06A6E
:100330008204920C1C2100F030F9706A20F0033224
:10034000142100F02AF9306ACC4901EA0002102198
:1003500000F023F9B06AAB68DB07C0F30351C0F3C8
:1003600003420BD46B684FEA035C01EB2C711B0456
:1003700081F3040102EB237282F30402120442EAC5
:10038000015182B20A43222C24BF00F08040024374
:100390000C2100F002F90120222C03D3F06B000F96
:1003A00000F00100DFF8D8B2400040F020008BF8E8
:1003B00008000120222C03D3F06B400F00F0010055
:1003C000002240F01000202C8BF8080007D3B06CFE
:1003D000C10C01F44071C0F3845040EA01022821AD
:1003E00000F0DBF80020202C03D3B06C000D00F0EF
:1003F0000300400040F060008BF80B000020222C2E
:1004000003D3F06BC00E00F00100C00040F080008C
:100410008BF800000020222C03D3F06B400D00F07D
:100420003F008000974940F47C40202C0880964A89
:100430000AD3B06C0203810A02F47C1242EA8151B1
:1004400000F00F0041EA0032082100F0A6F88F4CBE
:100450004FF48000206040F21E22D8F85C108C48D7
:1004600089B2914214D2D8F80410D8F80420C1F30C
:100470000361C2F3034201B1491E072A05D0062ACF
:100480000EBF0722921C02F00F0241EA0211017016
:10049000B90C01F00301012902D0022927D023E081
:1004A000F16B8A0320D44FF4804222604B0AD0F8CB
:1004B0000A2022F08F0203F080031A43C1F30333B2
:1004C0001A43C0F80A20C1F30323D0F80920120907
:1004D00043EA0212C0F8092001F0E701826822F025
:1004E000E7021143816002E04FF0004020604FF4CA
:1004F000007020646749F06BC00C00F0030040F00E
:1005000030000870B80D10F0030003D0022826D088
:1005100008D326E00121042000F040F95E48FFF7EF
:100520004CFE22E0012000F064F907463946042021
:1005300000F034F9042000F05CF9B842FAD12D68DB
:100540002802000AFFF739FED9F814301B684FF073
:1005500060220721280E98474FF480602060032115
:1005600000E00221042000F019F9F0694B4900F085
:100570003F00087047F6180049490880494800685C
:10058000D9F80010C9680220884732494020086025
:10059000012045490860BDE8F18F504694E51628D2
:1005A000A8BF2038704770B540480068C0F30460A9
:1005B000FFF7F5FF04463E48007800F01F00FFF704
:1005C000EEFFA0421ED03B493B4E00220A606FF076
:1005D0000103344A251A032DA8BF022502DA9D42E1
:1005E000B8BF1D462818156800F01F0545F4F855DA
:1005F00035800125A0421560ECD1106815601068A7
:100600000D60106870BD000000800C401C1300508D
:100610000C006842840460425C600C400822044381
:1006200000400340B03F00508001284300012043B8
:100630008C21084000003901482003400400094093
:10064000FFFFFCFC3C600C4084088C431010094008
:100650009402224300600C40A83F005056620840BC
:1006600050130050B81200501562084000000940B5
:100670000000204300A00C40A0010010FFFFFC0080
:1006800041A10C40DCA10C4000803F4040A00C4048
:100690000260084008A10C40BD3786000BB00C403A
:1006A00070B00C402C200940940460428813005024
:1006B00006620840980020436C620840EFF3108007
:1006C00072B67047EFF3108062B670472B490A6824
:1006D000C2F30F324BF69A139A424FF0FF3007D114
:1006E0000868000F0B2801D10420704700207047D4
:1006F0004BF6BE118A4201D1012070474BF64131C1
:100700008A4201D1032070474BF620318A4208BF4C
:10071000022070471948F8B50068050F18480068AE
:10072000C6B2802E28BF0026FFF7D0FF4FF0FF345F
:1007300006F10A0730B102281BD012D3042819D0C1
:1007400017D318E0012D12D0032D06D0072D06D0A7
:10075000082D08BF06F116040DE014240BE0152443
:1007600009E025B1022D08BF06F1140403E00A24B4
:1007700001E005B93C4660B2F2BD0000181300501C
:10078000A010005080B5FFF7A1FF012803D1FFF7AB
:10079000C1FF142800DAFEE701BD0506F8B50446DE
:1007A000E0070D461D4E1E4F0AD5A8B2009000234B
:1007B000D6F800C0DCF804C0012200213846E0472A
:1007C000A0070AD5A8B200900123D6F800C0DCF833
:1007D00004C0022200213846E047600708D5ADB2C8
:1007E00000950223346864680C2200213846A04733
:1007F000F1BD10B5014609480068C46808480429DD
:1008000005D11D234FF0C0423421A04710BD1C2349
:100810004FF080523421A04710BD0000A401001009
:1008200000A00C4080B507490968496905E080B51A
:10083000044B1B689B69984700E08847024A0021E7
:10084000116002BDA80100108404604280B51EF052
:1008500097FE002801D0002001E05FF0FF3002BDCC
:1008600080B51EF0BFFE01BD70B504000D0016007E
:100870003200290020001EF0BDFE002801D000201B
:1008800001E05FF0FF3070BD70B504000D00160090
:100890003200290020001EF0DEFE002801D00020DA
:1008A00001E05FF0FF3070BD62B38B0708D0521ECD
:1008B00011F8013B00F8013B00F024808B07F6D1D2
:1008C000830740F0208000BF103A07D330B4B1E86E
:1008D0003810103AA0E83810F9D230BC530724BFC2
:1008E000B1E80810A0E8081044BF51F8043B40F8F4
:1008F000043BD20724BF31F8022B20F8022B44BF5F
:100900000B7803707047083A07D3B1E80810083A2B
:1009100040F8043B40F804CBF7D25307E4E700006B
:10092000416851F002014160704742698A43426167
:10093000704701627047012063490860704763484F
:100940000068400810F00100704738B504000D0041
:10095000002D10D021785FF080405D4A1268526807
:10096000904769465FF08040594A1268D2689047C4
:100970006D1E641CECE7002032BD38B504000D008C
:10098000002D17D000215FF08040514A1268926814
:100990009047002802D15FF0FF300CE069465FF01D
:1009A00080404B4A1268D2689047009820706D1EB4
:1009B000641CE5E7002032BD80B569465FF08040E9
:1009C000434A1268126990470028F6D101BD7CB5F0
:1009D00004000D0006203F49096849698847062040
:1009E0003C490968496B88470128F8D14FF4A06059
:1009F00038490968C9698847FFF79DFFFFF79FFFDE
:100A00000028FBD04FF4807032490968C9698847D3
:100A1000FFF791FFFFF793FF0028FBD00F215FF056
:100A20008040FFF782FF03215FF08040FFF781FFE6
:100A30000820019000940023002227495FF08040A5
:100A4000234E36683668B04700955FF0FF330922C1
:100A500008215FF08040214E3668766CB0475FF029
:100A60008040FFF75DFF69465FF08040184A1268DA
:100A7000126990470028F6D173BD80B54FF480709D
:100A800014490968096A8847FFF755FFFFF757FFC0
:100A90000028FBD04FF4A0600E490968096A884716
:100AA000FFF749FFFFF74BFF0028FBD0062009495D
:100AB000096889698847062006490968496B88479B
:100AC0000228F8D101BD0000282008602820084035
:100AD000C4010010B8010010006CDC02B401001069
:100AE00010B450F8041B79B102684368121808303A
:100AF000DC0744BFA9F10104E31852F8044B43F8A2
:100B0000044B091FF9D1ECE710BC704710B5074939
:100B100079441831064C7C44163404E00A68081DF8
:100B2000511888470146A142F8D110BD08000000C5
:100B300018000000ADFFFFFF30000000740000004F
:100B400000000020000000000120C046002801D065
:100B5000FFF7DCFF0020C046C0461EF021FC00F07D
:100B600000F800F001B800000746384600F002F82F
:100B7000FBE7000080B5C046C046024A11001820BD
:100B8000ABBEFBE72600020080B5FFF7B4FA00F029
:100B900006F800F002F801BDFEE7FEE7FEE7C046FA
:100BA000C046C046C046FFF7CFFF000090FFFF00E1
:100BB00000002000C215000000001000C214000058
:100BC00000000800EF12000000000400EF11000018
:100BD0000000000000000000000000000000000015
:10100000FFFFFFFFFFFFFFFFFFFFFFFFFFFFFFFFF0
:101010006043002095BA000065B2000065B2000090
:1010200065B2000065B2000065B2000065B2000064
:1010300065B2000065B2000065B2000065B2000054
:0C10400065B2000065B2000031B2000093
:10105000DFF88008007D7047DFF87828117D107573
:1010600008467047DFF86C18D1E90023C0E9002377
:101070007047DFF86008C0690047DFF85818096A50
:10108000084743E110B501F0F9FB38B1DFF8A84893
:10109000A06801F0FCFBA0614FF0FF3010BD10B55F
:1010A000FFF7EFFF0446DFF890088068002101F0A9
:1010B000F2FB00F024BC38B5FFF7E3FFDFF8785807
:1010C0000446A868002101F0E6FB6969081AA969CD
:1010D000814238BF002084F3118832BD70B5DFF83B
:1010E000E86804460D46B068214601F0D2FB346141
:1010F000756170BD2DE9F8438846DFF8C0180968AE
:101100000446DFF8C4080F184FF0FF393D680BE0C4
:10111000F069B1698847B08A012805D1F068A0EB71
:101120000800484598BF8146BD4211D02E462D6823
:10113000B08A0128F8D1012C04BFF0684045EAD1FB
:101140003169002907BF0020B0820818F060DFE78E
:101150004846BDE8F2832DE9F041FFF792FFDFF842
:1011600068580446A868012101F095FB0121A98374
:101170000021E9836E6929682A68871B801A711A21
:10118000884204D20020A88384F311882BE084F3E2
:101190001188002406E0A61931460120FFF7AAFFB6
:1011A0003F1B0446A742F6D2FFF76BFF8046E88B51
:1011B000012804D131460020FFF79CFF0446A969AD
:1011C00014F1010F08BF084603D0E01B814238BF6D
:1011D00008468119FFF782FF012028840020A88398
:1011E0002E6088F31188BDE8F08138B504461D46AD
:1011F000A2606869DFF8C4272061A1612146A8695F
:10120000E0610020A0821268DFF8BC07101800F02F
:101210009AF8288A18B12046BDE8324046E031BD30
:1012200038B50446FFF72DFF0546204600F09AF832
:1012300000F089BC8260816100220261C361828208
:101240000146DFF87827DFF88007126810187AE087
:1012500038B5DFF874570446288C012804BFA88BE2
:10126000002817D1A868012101F015FB29686A69D7
:101270002B68D21A411A8A420CD3A2681118E16075
:101280000123A3826B69181A82420ED21046BDE870
:10129000344023E7FFF703FFA1680818E06001204E
:1012A000A082A88B012808BFE88331BD38B5044669
:1012B000FFF7E7FE05462046FFF7CAFF00F043BCF4
:1012C00000218182DFF87016C0684969884203D125
:1012D000DFF81C080068E9E77047816070477047D5
:1012E000808A7047704780B500F001F8FCE738B598
:1012F0000024DFF8005804E0686850F824008047B4
:10130000641C28688442F7DB31BD00BFEFF3118015
:10131000202181F31188704712E001680A68026099
:10132000506008467047016881420CBF01200020D0
:101330007047426808604A6011604160704700BFB2
:1013400040600060704738B504460D46FFF7DDFF8A
:101350002C606168696061680D606560FFE780F31B
:10136000118831BD016842681160416800684160C0
:101370007047CBE710B50446107E207261810021D2
:10138000DFF834080068001901F080FB00202060BD
:101390000120606010BDDFF820180968081801F00E
:1013A00089BB38B50446FFF7E4FF0546207C0228D8
:1013B00008D12046FFF7D6FF002020742946A068F8
:1013C00000F0C4FB00F0BFBBF0B50E468FB016F1C5
:1013D000010F18BF002E05460AD06B463246DFF8D3
:1013E000DC1705A8FFF726FF05A80390022002E0FE
:1013F0000020039003208DF81000DFF8BC07006880
:101400004719FFF7B6FF0446688968BB16B984F32D
:10141000118835E000F034FA00F0C9FAC0F818D0AD
:10142000029800F06BFB69463846FFF782FF9DF893
:101430001000022804BF0398FFF70AFF84F3118805
:10144000284600F024FAFFF794FF0446039818B1E9
:10145000FFF788FF0020039000200299886184F341
:1014600011889DF810000BE06889401E6881039880
:1014700018B1FFF777FF0020039084F31188012053
:101480000FB0F0BD70B50546DFF82C0700684619AF
:10149000FFF76FFF04463046FFF745FF38B1287A63
:1014A000C0074EBF01206889401C688135E100F00B
:1014B000E7F905463046FFF730FF06460120307455
:1014C000F06808B1FFF7FCFEB068214600F03EFB73
:1014D00084F311882846BDE87040D8E116E7EFF3A1
:1014E0001180002115E72DE9F8430446DFF8305755
:1014F000A06AD5F81080EF68AE682861EC60606A79
:10150000A860206A60620020A08328800120FFF785
:10151000A3FD8146FFF7E3FF2169E068A2689047D9
:10152000FFF7DCFF4846FFF797FD01202880C5F84C
:101530001080EF60AE60BDE8F1830000F8B5DFF821
:10154000E04625696068B0FA80F0C0F11F0061696B
:1015500001EBC0063046FFF7E0FE07463046FFF7D6
:10156000E2FE00F095F8606840B1B0FA80F0C0F19A
:101570001F00616901EBC006B542EBD3F1BD00006D
:1015800070B5DFF89C462669FFF7A8FF054660683E
:10159000B0FA80F0C0F11F00616901EBC000864223
:1015A0000ED200F06DF90646DFF8A80701F086FBC1
:1015B0000020208085F311883046BDE8704066E148
:1015C0000020208085F3118870BD10B5002404E050
:1015D0002146002001F0C3FA641CDFF820070068F0
:1015E0008442F5DB002000E0401CDFF89817096812
:1015F0008842F9D300F03DBB09E0DFF824060188FA
:10160000481E8041C00F7047DFF814163AE10020F1
:1016100080B590B9FFF762FFDFF804164A6822B17F
:1016200080F31188FFF7ACFF02E00A8080F3118895
:1016300000F026F9BDE8024029E101BD00B1704784
:10164000F8B5DFF8DC456068F8B1FFF748FFFFF751
:1016500045FF25696068B0FA80F0C0F11F0003E023
:10166000B0FA80F0C0F11F00616901EBC006B5421D
:101670000BD23046FFF751FE07463046FFF753FEC8
:1016800000F006F860680028EAD100202080F1BD53
:1016900018B16068B96988436060384623E7DFF8AD
:1016A000800580687047F8B504460F4616461D460B
:1016B000FFF745FEA76000F04AF808BF052000F0DC
:1016C00040F80020A08300F04AF8A062284600F00D
:1016D0007AFE00B10220F2BD704770B50546FFF7F3
:1016E000FDFE0446A88B00B117E00120A883FFF798
:1016F0008BFF0646A86A2946FFF71BFEDFF8200588
:10170000AA6941681143416084F31188002E04BF27
:10171000BDE87040FFF734BF70BD84F3118870BD21
:10172000616280F311882046704738B504460D4643
:10173000FFF7D4FE616A2943FFF7F2FFBDE83240AC
:10174000CBE76061012061698840A0617047306922
:10175000E06070692061B06910F1010F7047F069B5
:1017600060622062DFF8B8046169406901F087B9FE
:10177000CCE5EFF311800021CBE5000010B5DFF8D8
:10178000A8470020208101E000F0F7F960680028F8
:10179000FAD06068B0FA80F0C0F11F00A16901EBD7
:1017A000C0006169814209D22269606100682061DC
:1017B00000F1100102F1100001F073F820890028F7
:1017C000DFD110BD10B5DFF86047208908B1FFF701
:1017D000D5FF00202080BDE81040CAE738B501F0F1
:1017E0005CF800B3002407E02146002001F0EBF98B
:1017F000002100F040F9641CDFF8480700688442CB
:10180000F2DB0024DFF8205706E0286B50F82400B4
:10181000002100F030F9641CDFF82C0700688442D6
:10182000F3D34FF0FF3032BD5FF0000010B594B03D
:10183000FFF79EFFDFF8F04601E000F09EF96068D8
:101840000028FAD06068B0FA80F0C0F11F00A169EA
:1018500001EBC0006061006820610020208102204F
:10186000FFF7FAFBFFF785FFFFF782FF01F000F8B3
:10187000206900F1100104A801F013F814B010BDA4
:10188000DFF8A416088801220A807047002010B5EE
:1018900058B9FFF76DFFDFF89046208920B1FFF7B8
:1018A000ACFE08B1FFF76AFF93E710BD00B17047C7
:1018B00010B5DFF87446208920B1FFF79EFE08B10D
:1018C000FFF75CFF0020208010BDDFF85C06006998
:1018D0007047000094100020808F012800D07047CE
:1018E00010B5FFF745FF0446DFF83C06C168491E06
:1018F000C16004D184F311880020FFF7BEFB84F39C
:10190000118810BD70B5DFF820060469FFF7B8FF35
:101910000546FFF72DFF0646204600F0EFF80320AE
:1019200020752046FFF7D8FF86F311882046FFF781
:1019300006FD284644E00000F410002038B500F011
:10194000DBF80546A0682946FBE000B9704730B5D2
:101950008DB002466B46DFF8F41504A8FFF76AFC69
:1019600004A80390FFF704FF0446FFF789FF00F087
:101970001EF800F0C3F80398FFF76AFC6846FFF70B
:10198000DEFC0299C1F818D084F311882846FFF7CD
:101990007EFFFFF7EDFE04460398FFF7E3FC00200F
:1019A000039084F31188029988610DB030BD05461B
:1019B000DFF87405006902907047000020BB00004A
:1019C000BDE8704063E70000F41000202DE9F0410D
:1019D00016460446B069A0600D46706A984610B974
:1019E000DFF86C0500686062376A17B9DFF86405D4
:1019F000076800F058FFF26941424AB340B1401E07
:101A0000801808402062381A10180840E06101E090
:101A10002262E7614FF0FF306062A5623069E062E8
:101A200070692063B06A6063B08DA087012804D11B
:101A3000DFF8F404C168491CC1604146204600F04B
:101A40001AF80446404600F0BEFC90B1E01C10E0DD
:101A500020B1C219521E1140E16100E0E761024667
:101A6000E169606A434600F0D0FC00282062D4D1CE
:101A70000120BDE8F08170B50D4604462B46DFF825
:101A8000D824DFF8D81400F00AFF2061284600F0BF
:101A90009AFC38BB012020750020A061A168DFF806
:101AA000880400290AD50021E160DFF8B414096830
:101AB000081820642146FFF746FC13E0A2680121C4
:101AC0009140E160A168806900F0D9FF2064FFF7D0
:101AD000D7FE0546FFF74CFE0646204600F02BF8E1
:101AE00000F002F8002070BD86F311882846CEE68B
:101AF00028BB0000E0BA0000044639E62DE9F041B9
:101B00000446DFF82454266C6F68D4F80C80FFF785
:101B100029FC3046FFF707FC10B127EA080068608F
:101B20002869A04204BF00206861022020750120BE
:101B30002881BDE8F08138B5FFF7DEFF054629466C
:101B4000204600F003F885F3118831BD2DE9F041FE
:101B5000DFF8D463776804468846E568206C214640
:101B6000FFF7E7FB45EA0700706001202075308130
:101B700088F31188BDE8F041FAE580B5DFF8E403A9
:101B8000DFF8E4230068904204D1FFF7F2FDFFF78D
:101B9000AEFB0DE001000AD1FFF7EBFD002001E0F4
:101BA0000098401C009000980028F9D000E0804781
:101BB000BDE80140DCE5000030BB0000A3130000DD
:101BC00080B500F029FE08B14FF0FF3002BD00F0F3
:101BD00051BE00F051BE00F047BE38B5044608467D
:101BE0001146049D1A462B4600F01FFE60602846F1
:101BF00000F0E9FB00B1012032BD00B585B0002145
:101C000001A8FFF7E8FF039804E00099BE200870E0
:101C10000098401C009000986845F6D305B000BDC0
:101C20002011002000F022BEFFF770BBEFF31180FF
:101C30000021FFF76EBB10B5FFF7F6FFDFF82C03AE
:101C400041698269C90802EBC101083901610024B8
:101C50004FF0FF31016007E02146002000F037FE21
:101C6000002100F04DF8641CDFF804030068844292
:101C7000F2DB4FF0FF3010BDFEB51746DFF8F4225F
:101C800005460846DFF8E41268821E46C9691268F4
:101C900051F82010089C914210D001900021DFF8EB
:101CA000D8020068009002918F23DFF8D0020188EB
:101CB0000022204600F095FB0120FEBD00F0AAF8AE
:101CC000AF6070696860306A10F1010F08BFFF20D3
:101CD00028740020318B01B10120B18C09B140F092
:101CE0000200E8602146284600F00AF80546204632
:101CF00000F069FB00B1E81CFEBD000034BB000031
:101D000038B50446217BB4F912008907054602D58F
:101D1000217C202907D2A16800F0C0F8B4F9120094
:101D20004042608209E0DFF84402DFF85412406A62
:101D300040F82540284600F0B1F8217C284600F004
:101D4000DBF8207BC00744BF284600F085F8002060
:101D5000E06032BD3D150000012900D1704710B58B
:101D6000B0F91240204600F055F8DFF8080201688B
:101D7000204600F093F8DFF8F411496A002041F89A
:101D8000240010BD38BB000010B5DFF8E001DFF81B
:101D9000F421C169DFF8F00101600368934211D0BA
:101DA000002302E041F823405B1CDFF8E041246897
:101DB000A34207D20F2B32BF52F82340DFF8B441C1
:101DC0002468EFE7DFF8C8214168126821F47F41F9
:101DD00001EB0221DFF8BC215118416020218176FE
:101DE000DFF8B4110968C16010BD1FE700000000F2
:101DF0002021EFF3118081F31188704780F311885F
:101E00007047000040F2000CEFF311808CF3118852
:101E1000704700001028DFF884110FD3A0F11002E2
:101E200052091038012300F01F0011EB820183409A
:101E3000D1F80001C1F8803118400AE00F2807D11D
:101E400008690A6932F0020200F002000A6100E04B
:101E5000002000BF704700001028DFF840110FD3AA
:101E6000A0F1100252091038012300F01F0011EBFD
:101E700082018340D1F80001C1F8003118400AE026
:101E80000F2807D108690A6952F0020200F0020027
:101E90000A6100E0002000BF70470000DFF8CC209E
:101EA000D26902EB800002688A4218BF0160704765
:101EB00010B5DFF8EC40206900F010FF0020206032
:101EC00010BD30B5DFF8D820936943605469846051
:101ED00025462A78BE2A04D001220021016010463E
:101EE00030BD00220029F8D015F8011BBE29FBD017
:101EF000691E591A6118F1E7DFF8A020821810282E
:101F000002D382F8F0137047042828BF82F8141D0A
:101F10007047816042607047102804D3DFF87C105E
:101F20001038C1F8000F70473C110020DFF83C303A
:101F30005B6801221A80DFF8642112681300FED06A
:101F40001047000040BB000050BB00003D190000DE
:101F500048BB00004CBB000005190000C51700007D
:101F60003CBB000044BB0000EF120000C01000208A
:101F700004BB000010BB0000FCBA00004E3500009E
:101F800075B100001010000008ED00E000BB00007B
:101F900014BB00000000FA0508BB000000E000E0F0
:101FA000C01000202DE9F0410446FFF73DFEFFF789
:101FB00067FC0546FFF728FB06460020FFF74CF8B4
:101FC0008046DFF864059849406AD1F8041DC9B21B
:101FD00050F82170FC60FFF729FE7868B9688847DF
:101FE000FFF722FE4046FFF737F806EB0520BDE875
:101FF000F081C0B2FFF722BB000AFFF757BC7CB5E7
:1020000004460D46E169164619B1206ABE2200F069
:1020100089FE206B01902B46E06A00903246A16A4F
:10202000206AE4692018001F00F0EAFE76BDDFF8A0
:102030004805006870477047FFF768B9FFF769B94E
:102040000020704710B50446DFF830050068002214
:102050000121001900F059FD0020606010BD38B565
:102060000446524D6068296988420BD0DFF80C05A0
:1020700000684FF0FF310019FFF7A6F9286960608A
:10208000002032BD012032BD31B94160DFF8EC14CF
:1020900009680818FFF7F6B9704700000CBB00008C
:1020A0000120704700F0F9BEFFF730B9DFF89C154A
:1020B000C20744BF01220A60820744BF4FF4807206
:1020C0000A60400744BF4FF480300860704700004A
:1020D000DFF8B425C30748BF1160830748BF5160CC
:1020E000400748BF91607047000010B504460020CB
:1020F000D4E90A2347F6906101F0B2F9012928BF1B
:102100004FF0FF3010BD10B50C4601F021FA011D53
:10211000201AB0F1004F05D8081BB0F1004F38BFAE
:102120008C4200D20C462146BDE810400120CFE78A
:102130002DE9F04180460A46D8E90A01D8E90C4564
:10214000A0FB026701FB0277A6196F41340C002245
:1021500044EA07414046FFF7D6FFC8E90E67BDE8ED
:10216000F08180B5DFF8E804006800281EBFDFF8C2
:1021700068054068002804D0818811B1002100F072
:1021800082F84FF0FF3002BDDFF8C4040068002879
:102190001EBFDFF844054068002806D0818821B1C1
:1021A000017B002908BF00F003B870473C110020F4
:1021B000F8B50646FFF778FF0446DFF82055DFF84C
:1021C00020750120E861FFF771FFF96A096A1420A0
:1021D00088473069B0F5802F34BF0421010C0120FD
:1021E000FFF776FF3A681268232100209047DFF856
:1021F000F41401200860DFF8F004016821F4E02104
:1022000041F4803101600120286084F31188F1BD20
:10221000000010B5DFF8C004446800F007F86069FA
:10222000A169BDE81040084700E000E001203DE75B
:10223000F8B504460D4601F095F9D4E90A6732462F
:102240003B4601F00DF93DB1A6FB002306FB01332F
:1022500007FB0033C4E90C23F2BD10B5DFF87C04A2
:10226000DFF88844002101600121C16121602068FC
:10227000FFF7DCFFDFF878140968096A1420884743
:10228000206810BD000038B50446FFF70DFF054675
:102290002046FFF7E2FF85F31188002032BD2DE9CB
:1022A000F04105461646EA69984630460F46A96948
:1022B00001F064F9B8F1000F3C46766005D0EA6998
:1022C00008234146304600F05CF8F6686969CFB9EA
:1022D000079BAA68E86800F0CBF8070008BF002059
:1022E0001BD000F0AEF96968396007F1080469682D
:1022F00049687960696849680F6069684F6000F0F3
:102300007EF803E00839204601F074F9286810F1DE
:10231000010F18BF206000F023F8BDE8F081F8B588
:1023200005460C461646EA69A9691F46304601F083
:1023300025F976602FB1EA6908233946304600F066
:1023400020F86869F668A0F10801204601F052F90A
:10235000286810F1010F18BF206000F001F8F2BDED
:10236000286908B171680151204670470800194674
:1023700006D0130004D011F1010F08BF1047104719
:1023800070472DE9F843D1F80C80D8F80090044646
:10239000086815461E46AF1BA0EB0902BA4288BF6B
:1023A0003A46204601F0EAF8256064603D19E56090
:1023B000B14588BFB1464A464146284601F0EEF88D
:1023C0002E60BDE8F183DFF840130978012904D1BC
:1023D00018B1C06810B1012000E00020C0B2704701
:1023E000000010B584B0089C0294079C0194069CE0
:1023F0000094DFF818432468A0471FBDFEE701469C
:10240000DFF8F002006800F057BA2DE9F041054608
:10241000984684B00E4617464046FFF7D4FF044660
:1024200017B9DFF8EC020768002D12BF2846DFF865
:10243000E402006843463A46314600F036FA0700A7
:1024400012D11CB94046FFF7BEFF68B9DFF8C802D9
:1024500000680090029601953423DFF8C0020188DD
:1024600000224046FFF7BDFF384604B0BDE8F081CA
:1024700080B50093002300F001F802BD70B51D4641
:10248000049B0C46FFF7C1FF060003D02A462146F5
:1024900000F048FC304670BD0A6942604A698260BB
:1024A0004969C1607047F8B50446DFF874020068F6
:1024B0000D46174600F0FEF9616800267A1E0A40B4
:1024C00018BFBE1AA26873199A4203D2FFF797FF8A
:1024D0000020F2BD7718521B921B5918A260616050
:1024E000FFF78DFF3846F2BDDFF83802008801287B
:1024F00000D07047E0B50020029001905523DFF82E
:102500002802006800900022DFF8200201880020E5
:10251000FFF767FF07BD00207047C2680A60806848
:102520004860886070470000C0100020DFF800029B
:10253000818801B1704738B5012181800024DFF81E
:10254000F45104E0686850F824008047641C28684F
:102550008442F7DBDFF8E001DFF8E05100688047F4
:10256000002404E0686850F824008047641C286850
:102570008442F7DB31BD000018BB00001CBB00002B
:102580002DE9F0470D4600268246012DA4BFA90083
:1025900001F034F8DFF89871DFF8A401C7F800A063
:1025A0000024D0F800800CE0DFF89801006830F8D3
:1025B000140028B158F82410002088474AF8240055
:1025C000641CAC42F0DB0120F880B14601E009F167
:1025D0000109DFF874010068814518DA012600243A
:1025E00002E000200640641CAC420EDA5AF82400D7
:1025F00010F1010F07D058F8241088474AF824003A
:1026000010F1010FEDD10120ECE73000DFD01EB951
:102610000FF2501000F008F800203860BDE8F08795
:1026200000BF4FF0FF30704710B5044600F009F8C6
:10263000204600F043F9DFF814010068BDE81040BF
:102640000047DFF8DC00006800F034B904200940DE
:10265000F8BA000038B50546FFF7F3FFDFF8F010D1
:10266000DFF8F0304A681B6801249A4206DA0B68EA
:1026700043F822504A68521C4A6000E00024FFF7E9
:10268000BEFE204632BD00001820094010B50446A9
:1026900000F00AF82046DFF8C0100968BDE81040D5
:1026A00008470000FEE7FEE770B50446DFF8440087
:1026B000DFF89C50FFF7C7FF6E6806E0296801EB62
:1026C0008601761E51F8041C8847012E2046F5DA53
:1026D000BDE8704000F0F4B8B810002000002443BA
:1026E0008401001080022443002009402C2009406E
:1026F000B001001088BB0000184909680847184954
:1027000009680847FEE77047FA36000058BB00002A
:10271000801100206CBB000054BB0000023600009A
:1027200088BB0000FA3500005CBB0000F2350000F9
:1027300084110020E8BA000070BB0000F0BA00006D
:102740007CBB000078BB000074BB00008CBB0000A9
:102750008C11002094BB000090BB000080BB0000E7
:1027600084BB00007864632E72756E74696D652E8B
:10277000537461727475703A20276D61785061737B
:102780007365732720657863656564656400000080
:1027900000B587B007216846FFF7F2FE07B000BD1D
:1027A000FFF780BC00B581B0FEF799FDDFF8B001FE
:1027B000C06801B05DF804EBFEF78FBF00B581B0D3
:1027C0000FF21D00FFF746FFFFF7DEFCFFF72AFAC6
:1027D000FEF712FF01B05DF804EBFFF725B800002B
:1027E00000B581B0FEF710FFFFF74AF801B05DF8C1
:1027F00004EB0320FEF730BC10B504460320FEF7BF
:102800002BFC2046BDE81040FFF740BFDFF8541115
:10281000DFF8540188617047DFF814010068002870
:102820001ABF4069C00F01207047F0B50446302040
:102830008FB00D4600901E461346019602AA002155
:10284000DFF8A401FFF72BFD070009D0009602ABCB
:102850002A462146FFF710FA3046FFF7B4FD00B1D3
:10286000002738460FB0F0BDFFF72BBBFFF7BDBA0E
:10287000FFF71EBBFFF7CEBAFFF7EEBADFF8B000E6
:10288000006800281ABF8069C00F01207047FFF759
:102890002CBCFFF74DBCFFF7CBBC01207047FFF706
:1028A000AEBB00F0D3BAFFF7C2BB10B50468A46892
:1028B000A04710BDFFF7C0BBFFF7C0BBFFF71CBFB1
:1028C000FFF71DBF09B9DFF83011FFF75ABD01EB63
:1028D000410208B9DFF8380300EBC2007047F0B5D9
:1028E0008FB004463020149F00900D461646019785
:1028F00002AA2146DFF8F000FFF711FD009702ABB6
:10290000324629462046FFF7B7F93846FFF75BFD08
:102910000FB0F0BD00B581B0012100910023014648
:10292000DFF82423DFF8C000FFF720FD01B000BD71
:102930008411002010B588B002AA0B9901911821CA
:1029400000910146DFF84001FFF7A9FC040008BF31
:10295000002003D002A9FFF76EFB204608B010BD8F
:10296000F4100020C01000200004000010B588B052
:1029700002AA0B9901911821009101460848FFF71E
:102980008EFC040008BF002003D002A9FFF75AFB09
:10299000204608B010BD09B9DFF8DC12FFF7F1BC22
:1029A0006CB80000F0B504462C208DB00D460090A8
:1029B0001E461346019602AA0021DFF8C002FFF767
:1029C0006EFC070009D0009602AB2A462146FFF7AD
:1029D00004F93046FFF7F7FC10B100200DB0F0BD50
:1029E00038460DB0F0BD00002CB8000009B9DFF882
:1029F0009012FFF7C6BC0000A8B6000070B58CB0FE
:102A000004460193242000900D46134602AA00219B
:102A1000DFF87002FFF743FC060008BF002005D076
:102A200002AB2A462146FEF7E0FB30460CB070BDF3
:102A3000000070B58CB00446002001900D462420A3
:102A40000090164602AA2146DFF83802FFF767FC1D
:102A500002AB324629462046FEF7C7FB0CB070BDDC
:102A600000B581B0012100914FF0FF330146DFF83E
:102A70001822DFF81002FFF779FC01B000BD08B1A1
:102A800000EBC100704700004CB8000010B588B0E2
:102A90000446002001900B461820009002AA21460F
:102AA000DFF8E801FFF73BFC02A92046FEF734FC03
:102AB00008B010BD00B581B0012100914FF0FF3387
:102AC00001460022DFF8C401FFF750FC01B000BD51
:102AD00009B9DFF8BC11FFF754BC30B58BB0044620
:102AE0002420019200900B4602AA0021DFF8A401E5
:102AF000FFF7D5FB050008BF002004D002AA21463D
:102B0000FEF738FC28460BB030BD30B58BB004461C
:102B1000002001900D4624200090134602AA214671
:102B2000DFF87001FFF7FBFB02AA29462046FEF7FB
:102B300021FC0BB030BD00B581B0012100914FF0F8
:102B4000FF330146DFF85021DFF84801FFF70EFCA4
:102B500001B000BD09B9DFF84411FFF712BC01EB69
:102B6000410208B9DFF8380100EB0210704770B578
:102B7000044628208CB00D4600901E461346019650
:102B800002AA2146DFF81C01FFF7C9FB334602AA5F
:102B900029462046FEF787FD3046FFF714FC0CB0AF
:102BA00070BD00B581B00121009100230146DFF81E
:102BB000F820DFF8F000FFF7D9FB01B000BD01B944
:102BC0003A49FFF7DEBB4C22514300B93848081898
:102BD000704770B504463C2092B0154600900B46F5
:102BE000019502AA00213348FFF759FB060008D0DF
:102BF0002B4602AA2146FEF7E9FE2846FFF7E3FB33
:102C000010B1002012B070BD304612B070BD00008F
:102C1000F80D002070B504463C2092B00D4600909F
:102C20001E461346019602AA21462248FFF777FB6B
:102C3000334602AA29462046FEF7C8FE3046FFF773
:102C4000C2FB12B070BD0000591D000010B58AB063
:102C500002AA0D9901912021009101461648FFF723
:102C60001EFB040008BF002003D002A9FFF714FCDC
:102C700020460AB010BD0000D8B600008CB8000095
:102C8000C4B70000ACB8000021120000CCB80000AE
:102C9000E8B70000ECB800009713000004B700008C
:102CA000880E00200CB90000D916000034B60000D0
:102CB000F00E00202CB900004CB9000010B5EFF365
:102CC0001484002C1CBF002181F314888047002C41
:102CD0001CBF022181F3148810BD000000B5EFF382
:102CE000038212F0FF0F0DD06A46A2F1200282F398
:102CF00009886FF0020E10604FF08071D1610849B1
:102D0000916170475DF804EB694681F3098880F3AF
:102D100008884FF00200EFF3148180F314887047A5
:102D2000052D000062F30F2262F31F42401810F0DD
:102D3000030308D0C91A1FD3DB0748BF00F8012DD1
:102D400028BF20F8022D130030B414461546103960
:102D500028BF20E93C00FAD8490728BF20E90C0029
:102D600048BF40F8042D890028BF20F8022D48BF35
:102D700000F8012D30BC7047C91818BF00F8012DAC
:102D8000CB0728BF00F8012D7047F0B401684468F4
:102D90008368091801EB5402E40748BF4B440C3028
:102DA00091422BD011F8014B14F0030504BF11F828
:102DB000015BED1C26090F2E07D111F8016B0F36B0
:102DC00003E011F8017B03F8017B6D1EF9D1002EA1
:102DD000E6D0A40811F8015B04F00304032C08BF3B
:102DE00011F8014B05EB04241C1BB51CD8D014F8BA
:102DF000016B03F8016B6D1EF9D1D1E7F0BC704790
:102E000040F8043D40F8042D40F8041D019940F8B5
:102E1000041D009940F8041D0B4940F8041D81EA87
:102E20000101A1F1010140F8041D40F8041D40F822
:102E3000041D40F8041D40F8041D40F8041D40F82E
:102E4000041D40F8041D70475D2E00002DE9F04F71
:102E5000C0F800D0D1F800D0BDE8F08F04988047CA
:102E600000980199029ADDF80CE0104738B5144635
:102E70000D1800F0C7FB401E8041C00FDFF82C1575
:102E80000A68002AFCD02C6001220A6000281CBFBE
:102E9000BDE8314000F0BABB31BD38B5DFF81005F0
:102EA000DFF81055046814F1010F08BF002400F08A
:102EB00019FCDFF80415002008600120DFF8FC147D
:102EC0000860DFF8FC14086028680028FCD1DFF8EF
:102ED000F404DFF8F424416812688908890041F09D
:102EE000005141F00401520748BF41F001010BD4E9
:102EF000026812F0030F07D041F00302426002683B
:102F000002F00302032AFAD14160DFF8C00400682E
:102F100028B1DFF8BC040068204600F031F8DFF883
:102F2000B414DFF8B42400200860DFF8B0040168AE
:102F30006FF31B4111430160DFF8A4040168C1F382
:102F40000131012907D10168DFF89824114041F4CB
:102F500000320260016028680028FCD131BDDFF832
:102F6000881482B20A60C0F307404860012088607C
:102F7000DFF8780400680028FAD0002088607047E5
:102F80002DE9F84F0446DFF8680401210160DFF8FD
:102F9000641409680029FAD0C021DFF85C24DFF846
:102FA0005C54DFF85C941160A968890705D46968EE
:102FB000090C41F0F00189F8001000210163EF686D
:102FC000DFF84064DFF8408407F04070B0F1807FA4
:102FD00010D1DFF83804802101744FF6D801A9F828
:102FE000101080210170384600F0AFF9B06BC0F3CB
:102FF000042003E0D8F80000C0F3046000F0A1F959
:103000003917491C08181628A8BF152004DA6FF0D4
:1030100009018842B8BF084600F01F0040F4F8508C
:10302000A9F81800DFF8E8030068800748BF47F0F8
:103030004067DFF8E003C7F3C06181F00101016080
:10304000BA03C7F3806181F0010181603068C0F389
:103050008361C0F38F2020D43A0412164FF6FF7319
:1030600007E0400804D11846490804BF01210120A7
:10307000521C002AF5D4012A0FDB400040F0010069
:10308000B0F5803F21BF0120490041F00101102926
:1030900024BF0F211846521EEDE7DFF87CA3DFF8AE
:1030A0007C9340EA0142182100F049F93068316808
:1030B000C0F3870001F0030140EA012000900023E3
:1030C000D9F804C0DCF804C040F2FF322C2150468D
:1030D000E047F06A8204920C1C2100F030F9706A1B
:1030E00020F00332142100F02AF9306ACC4901EAB9
:1030F0000002102100F023F9B06AAB68DB07C0F3CF
:103100000351C0F303420BD46B684FEA035C01EB3D
:103110002C711B0481F3040102EB237282F304027D
:10312000120442EA015182B20A43222C24BF00F069
:10313000804002430C2100F002F90120222C03D32D
:10314000F06B000F00F00100DFF8D8B2400040F053
:1031500020008BF808000120222C03D3F06B400FD5
:1031600000F00100002240F01000202C8BF8080035
:1031700007D3B06CC10C01F44071C0F3845040EA35
:103180000102282100F0DBF80020202C03D3B06CD2
:10319000000D00F00300400040F060008BF80B00D1
:1031A0000020222C03D3F06BC00E00F00100C00001
:1031B00040F080008BF800000020222C03D3F06B3D
:1031C000400D00F03F008000974940F47C40202CE7
:1031D0000880964A0AD3B06C0203810A02F47C127A
:1031E00042EA815100F00F0041EA0032082100F06C
:1031F000A6F88F4C4FF48000206040F21E22D8F8D1
:103200005C108C4889B2914214D2D8F80410D8F8D6
:103210000420C1F30361C2F3034201B1491E072A2E
:1032200005D0062A0EBF0722921C02F00F0241EAC7
:1032300002110170B90C01F00301012902D0022929
:1032400027D023E0F16B8A0320D44FF48042226020
:103250004B0AD0F80A2022F08F0203F080031A43B1
:10326000C1F303331A43C0F80A20C1F30323D0F893
:103270000920120943EA0212C0F8092001F0E7010F
:10328000826822F0E7021143816002E04FF00040C3
:1032900020604FF4007020646749F06BC00C00F0B0
:1032A000030040F030000870B80D10F0030003D0A8
:1032B000022826D008D326E00121042000F01EFABF
:1032C0005E48FFF74CFE22E0012000F042FA07467C
:1032D0003946042000F012FA042000F03AFAB8420D
:1032E000FAD12D682802000AFFF739FED9F8143008
:1032F0001B684FF060220721280E98474FF480602A
:103300002060032100E00221042000F0F7F9F069B9
:103310004B4900F03F00087047F618004949088003
:1033200049480068D9F80010C96802208847324926
:1033300040200860012045490860BDE8F18F5046F3
:1033400094E51628A8BF2038704770B5404800683B
:10335000C0F30460FFF7F5FF04463E48007800F034
:103360001F00FFF7EEFFA0421ED03B493B4E00225C
:103370000A606FF00103344A251A032DA8BF022505
:1033800002DA9D42B8BF1D462818156800F01F05D7
:1033900045F4F85535800125A0421560ECD1106840
:1033A000156010680D60106870BD000000800C4052
:1033B0001C1300500C006842840460425C600C40A6
:1033C0000822044300400340B03F005080012843DE
:1033D000000120438C2108400000390148200340AF
:1033E00004000940FFFFFCFC3C600C4084088C4357
:1033F000101009409402224300600C40A83F005086
:103400005662084050130050B81200501562084030
:10341000000009400000204300A00C40A001001063
:10342000FFFFFC0041A10C40DCA10C4000803F40AC
:1034300040A00C400260084008A10C40BD37860047
:103440000BB00C4070B00C402C200940940460423A
:103450008813005006620840980020436C620840C0
:103460001B4213D1094236D12AB18446B0FBF2F097
:1034700002FB10C2704700F02BBAFCD300220023DD
:1034800070470B000200002100207047904271EB52
:10349000030CF6D370B5B1FA81F4B3FA83F52C1BA3
:1034A000A340C4F1200532FA05F63343A2405FF091
:1034B0000046E64002E05B085FEA3202841A71EBE4
:1034C000030524BF204629467641F4D302000B00B1
:1034D0003000002170BD012ACFD970B5140C20D066
:1034E000B1FA81F4B2FA82F5C4F120046419B4F19E
:1034F0002006D6D3B2405FF00044F440002502E03D
:1035000052085FEA3303C61A71EB020E24BF30463D
:10351000714664416D41F3D302000B002000290085
:1035200070BD0C46B1FBF2F102FB11452D0445EADA
:103530001045B5FBF2F402FB145580B240EA054594
:10354000B5FBF2F002FB105240EA044070BD2200CD
:1035500009480168426803689942FAD1100C40EAB0
:103560000140704710B5044A136850681468A342BC
:103570001946F9D110BD00000820094062B38B073D
:1035800008D0521E11F8013B00F8013B00F02480E6
:103590008B07F6D1830740F0208000BF103A07D395
:1035A00030B4B1E83810103AA0E83810F9D230BC85
:1035B000530724BFB1E80810A0E8081044BF51F831
:1035C000043B40F8043BD20724BF31F8022B20F81B
:1035D000022B44BF0B7803707047083A07D3B1E859
:1035E0000810083A40F8043B40F804CBF7D25307E0
:1035F000E4E70A000022FFF799BB0100002200F077
:103600006DB90900EFF3108072B67047EFF31080C8
:1036100062B6704730480068000C00F007000528CB
:1036200028BF4FF0FF3070472C490A68C2F30F32B1
:103630004BF69A139A424FF0FF3007D10868000FFB
:103640000B2801D104207047002070474BF6BE11B3
:103650008A4201D1012070474BF641318A4201D1A3
:10366000032070474BF620318A4208BF0220704782
:103670001A48F8B50068050F19480068C6B2802ED0
:1036800028BF0026FFF7D0FF4FF0FF3406F10A07EE
:1036900030B102281BD012D3042819D017D318E058
:1036A000012D12D0032D06D0072D06D0082D08BFFE
:1036B00006F116040DE014240BE0152409E025B1F1
:1036C000022D08BF06F1140403E00A2401E005B945
:1036D0003C4660B2F2BD0000941200501813005036
:1036E000A010005080B5FFF79FFF012803D1FFF71E
:1036F000BFFF142800DAFEE701BD0100F8B504465B
:10370000E0070D466A4E6B4F0AD5A8B20090002321
:10371000D6F800C0DCF804C0012200213846E0479A
:10372000A0070AD5A8B200900123D6F800C0DCF8A3
:1037300004C0022200213846E047600708D5ADB238
:1037400000950223346864680C2200213846A047A3
:10375000F1BD10B5014656480068C46855480429B3
:1037600005D11D234FF0C0423421A04710BD1C23BA
:103770004FF080523421A04710BD70B50546FFF7C9
:10378000E7FE4D4CA168401A4FF47A714843060C8D
:1037900000F0BEF82169401A48BF4042711940F656
:1037A000B932914207D2062805DAA068E168814261
:1037B00001D3226852B941494A68D2074FF4FA60EE
:1037C00016D40868C0B27D21484308E0081A3C4975
:1037D0004843000C00EB9000904238BF1046C828C8
:1037E00001D2C82070BDB0F57A6F88BF4FF47A60FF
:1037F00070BD80B501210320FFF780FFFFF7A8FE11
:103800002D49886001BD10B50120FFF7A2FF0128F6
:103810001BD0274C27482468E46800230122342168
:10382000A04798B100F026F8FFF792FE22498B6876
:103830000A68C860A2EB9202C01A214B5843000CE0
:103840000860904238BF10460860012010BD10B5D6
:1038500000210320FFF752FF0120FFF77AFF08B194
:1038600000F008F8144CFFF773FE606000F050F8A9
:10387000206110BD1348006800F05EB810B5124911
:103880000A6812490968140424161B384443E410DA
:1038900004EB2244120600FB00F3121609065A43F9
:1038A0005843091604EBA222484302EBA04010BD86
:1038B000A401001000A00C4010280020AC3F0050D4
:1038C00040420F008000001090130050A4100050E0
:1038D0007047000062F30F2262F31F4200B500BF81
:1038E000130096469446103928BFA0E80C50FAD829
:1038F0005FEA417C28BF0CC048BF40F8042BC907D1
:1039000028BF20F8022B48BF00F8012B00BD0000A3
:103910000748084A816812780068C90352B2A0F5C6
:103920004070C9135043A1EB201080300012704743
:10393000285009400C13005070B50446FFF762FE92
:10394000451EAD41ED0F074E30680028FCD0A04762
:1039500001203060002D1CBFBDE87040FFF756BE4F
:1039600070BD000000800C4020B1082328220021F7
:10397000FFF7F0B8704720B1082330220021FEF78E
:10398000A1BF704738B500F0DDFF25680DB129688B
:103990002160FEF733FA284632BD70B504460D4665
:1039A0002668002028601EB9FEF722FA25600DE087
:1039B000FEF71EFA00E0366831680029FBD1AE42FE
:1039C00003D1FEF71BFA002070BD3560FEF716FA32
:1039D000012070BDDFF8FC1C10B100200870202011
:1039E00088707047F8B50546FEF702FADFF8E07B0D
:1039F0000446387EE8B1401E3876C0B2C8B9082106
:103A000007F15000FDF791FE9DB1B86B6830FDF7EE
:103A100057FCB86BDFF8341DC0680968281A07F135
:103A2000F006B0FBF1F13046FDF757FC3046FDF7EC
:103A30003DFC2046BDE8F240FEF7E0B938B504464B
:103A4000207B00F00F00022802BFDFF8845B287D96
:103A5000002815D100F0E6FCA1688908A1EB9000D0
:103A60006FF0704188420BDA10F1805FBCBFDFF865
:103A7000E01C0818A96BC96801F57A71814200DB66
:103A8000002032BD38B5DFF8500CDFF8502C01684B
:103A9000DFF83C5B02EA0104E1430160A10606D5C0
:103AA0004068800603D54FF4005100F060FB14F429
:103AB000602F0DD0DFF89C0CC16904F46022114323
:103AC000C16105F1A000BDE834400021FDF72DBE25
:103AD00031BDF8B5FEF78CF9DFF8787C3C1D064661
:103AE000A06910F4602F25D0C5012D0EE80748BF4E
:103AF000002506D4A80748BF012502D4680748BF9F
:103B00000225681D40B200F0A5FFA069012105F162
:103B1000110291408843A06100F06CFD07EB850025
:103B20008668300008D0206800224FF00063691DCD
:103B3000B04701E000F05EFDA06920B10021DFF890
:103B4000180CFDF7F2FD607F80070DD52569280070
:103B500006D0206800224FF000436FF00101A84713
:103B6000607F00F0FD006077F1BD70B501F08CF86A
:103B7000DFF85C5ADFF8584DAB6A024690071DD457
:103B8000D3E90601104007D0EB62196A08431862B6
:103B90004FF4804100F0EBFAA86A002849D16E6A20
:103BA000002E46D0F068A96B884224D005F1500061
:103BB000BDE870404FF48051FDF7B7BD0BB9A86A5E
:103BC000EAE70020A862D3E906011E6A024042F03B
:103BD000020232431A62626982436261E26822EA47
:103BE0000100E060194605F13000FFF7D6FE022122
:103BF00000F0BDFAE3E7B068FFF720FFE86418B112
:103C0000E86CBDE87040EDE6D6E906016269024362
:103C10006261E26841EA0200E0600020E061B068B1
:103C20002060E0690028FCD005F12400FFF7AAFE1F
:103C3000AE6270BD0020D5E6F8B506461446B76DF5
:103C40001D4607B1B847A00706D4D6E914012040A5
:103C5000294008BF002807D0C6E9184506F1300002
:103C6000BDE8F240FDF70EBCF1BD80B5FDF717FDD4
:103C7000DFF85C290146906BD26BBDE80840104725
:103C800010B5DFF84C49FFF76DFC2064042104F106
:103C90005000BDE81040FDF748BD80B500F0F4FFCE
:103CA000DFF8301C084207D0BDE804404FF0005157
:103CB000DFF84C0DFDF739BD01BD10B504294AD11F
:103CC000DFF80C49606AA16B08B1C16805E0DFF854
:103CD0006C0C427FD20748BF0168A1630846DFF839
:103CE000601C426812780A60096840680078814266
:103CF00000D0FEE7022001F000FA112001F012FAD4
:103D000001206077A06BE17E007C084204BF0E209A
:103D100001F008FAA06BDFF8B81B40688268002A3F
:103D200004BFC068002804D00020C861DFF82C0C54
:103D3000086040F2FF70DFF8282C106000208861D6
:103D4000DFF8900B48610FF21100E0631920BDE825
:103D50001040FEF781B810BD10B5044688002CD580
:103D600060684068010018BF80476068816800296A
:103D700004BFC068002814D0DFF8340C01680029A3
:103D8000FAD00021016060688068010018BF804798
:103D90006068C068010018BF8047DFF8180C00F0A9
:103DA0007BFFDFF82C080FF21501C1634FF00051C3
:103DB000BDE810405030FDF7B8BC10BDF0B504466A
:103DC000880085B074D5DFF8085BDFF80468002050
:103DD000E861DFF8180D2860707E10B10120FFF750
:103DE000F9FD002171800FF20910317BF06301F0C1
:103DF000F001317340F60A00002171603080717B60
:103E000001F0F00141F0010171730021A768798090
:103E100000E00F46796800291CBF0A888242F8D169
:103E2000787B7E6000F0F000787340F60301706AE2
:103E30008068008888421CBF40F60401884202D195
:103E40000020306415E0208B98B104F118000021A7
:103E500041804160017B01F0F0010173417B01F081
:103E6000F00141F0010141737060707B00F0F000DF
:103E700070736946A06800F036FF684600F0F2FFF4
:103E8000A06800F08DFFE8690028FCD00020E86100
:103E90000120FFF75EFC012808D0787B00F0F000DD
:103EA00040F0010078730FF20D00F063A068286005
:103EB00005B0F0BD012010B5FFF74BFC0128DFF87D
:103EC000104708D10FF22900E063DFF8040A04600C
:103ED0000020206410BDDFF8741809683220F03427
:103EE00000F083FB2046BDE81040FDF7DFB900007D
:103EF000FEB506460C466004DFF8D45617D5FDF72C
:103F000077FFEE6A376AFDF779FFB8070CD45EB128
:103F1000306AB8433062706830B1B6F91010F0689A
:103F200076683A460023B04724F480441AE1A0079B
:103F300070D52F6B002F65D03E1D2020716801E0E9
:103F40004968401E79B1C0B268B10A8840F60303DF
:103F50009A421CBF40F604039A42F1D1B06818227D
:103F60001830FFF71BFBF0690021F1613168D1B116
:103F700040F0020297F824000023012807D002280D
:103F800009D0042804BF00224FF0805306E000222D
:103F90004FF0005302E000224FF08043B6F90C10BE
:103FA000B0683768B847E88E401C0005000DE88609
:103FB00005F13000FFF7E6FCB5F93610B06800F106
:103FC0008C02B2F90030994204BF297D002919D131
:103FD000917809B9016821B900209070FFF702FDBE
:103FE00010E0AA6B126812F1010F0BD0DFF85C270A
:103FF0001268B1FBF2F16830FDF76FF9B068683014
:10400000FDF754F9286B002824F0020401D044F095
:104010000204A7E0A00005F184073FD50022DFF8E5
:10402000EC1B3846FDF775FFF06840F6C411884276
:1040300018D10420FFF78DFB00281CBF286C002836
:1040400010D0686C70B9FFF78DFA6864696C286CE1
:10405000884228BF491E081A000BF060F06800F57E
:104060008D70F060287F60B10220ADF800006846D6
:1040700000F012FEBDF80800DFF8D8160883002013
:1040800028770120687524F00054287E401C28768B
:10409000002068771920FDF73FFF63E095F82000C6
:1040A00024F0080628B1200703D5002085F8200059
:1040B00045E0200745D5002068750120A877687E77
:1040C00010B10020FFF786FC0FF2AD00DFF8401BB7
:1040D000E86300223846FDF71CFF297FE87EDFF801
:1040E000847881F00101084240F6090402D10120E0
:1040F000E8760FE0E86CF0B1FFF734FA296CAA6CAF
:10410000401A02EB1030A864E96CB0EBC11F12D367
:104110000020A8642C80687B00F0F00040F00100D3
:10412000687300206880287B00F0F000287300206E
:1041300068603D6003E04FF0005100F018F834462D
:1041400010E0A0040ED5AE6A002E1CBF70680028D7
:1041500006D0B6F91010F068766800222023B04728
:1041600024F4005414B1214600F001F8F7BD05F124
:104170005000FDF7DABA000038B50546880028D5AA
:1041800000F097FDDFF84844DFF8880AE063A07D7F
:1041900018B905F13000FDF775F9DFF8C4170020F4
:1041A0000860022000F03FFF112000F050FF287C43
:1041B00010B90E2000F04BFF0020E083A07E40B13C
:1041C0000020A076042104F15000BDE83440FDF742
:1041D000ACBA31BD30B58DB000F0ABFEDFF8380AB7
:1041E000DFF8385A0168DFF8E84341F00201016066
:1041F00001A8FFF7B9FBA878DFF8241A079000237D
:1042000001AA04F15000FEF7B2FC01A8FFF7B3FBCE
:104210000020ADF81C0001AB2878DFF8F4290990E4
:1042200019210020009004F18400FEF758FB01A83A
:10423000FFF79AFBE878DFF8EC190790002301AA52
:1042400004F1A000FEF793FC01A8FFF794FB012006
:10425000ADF81C0001AB6878DFF8CC2909901A2171
:104260000020009004F1D400FEF739FB0023002267
:10427000DFF8B81904F1F000FEF7DBFBDFF8940972
:10428000E063FFF7D1F9012818BF002060764FF6F0
:10429000FF71DFF89C090180012121770021417223
:1042A000E1766177E18384F820100DB030BD2DE90F
:1042B000F041C74E8CB00446B07D0F4690461D4677
:1042C00018B9FFF787FF0120B075002F1CBF67608A
:1042D000B8F1000F3FD0C4F80880FDF789FDF17DEB
:1042E000B9BB0121F175FDF789FD2DB90FF68C11D0
:1042F0002CC968462CC06D46286820607821686803
:10430000E060287A207404F11800FFF777F9082399
:104310002422002103A8FEF7DBFB01208DF82400F6
:1043200003AA002104F13000FEF7EFFB082324224A
:10433000002103A8FEF75AFB099403AB0022DFF823
:10434000F41804F16800FEF774FB20460CB0BDE8D9
:10435000F081FDF753FD0020F8E738B5DFF8D858B5
:104360000446A87D00285CD0B5F93400B5F93610B4
:10437000884207D0B4F98C1002224FF0E043204667
:1043800000F03BF9FDF734FDE97D002938D0491EE6
:10439000E975C9B2A1BBFDF731FD0020A875687DA4
:1043A00040B10020FFF71EFB4FF0FF3104F1300059
:1043B000FDF70AF804F13000FEF7BDFB04F16800D8
:1043C000FEF74EFB05F15000FEF7EBFB05F1840014
:1043D000FEF7A0FA05F1A000FEF7E3FB05F1D4001B
:1043E000FEF798FA05F1F000FEF73AFB0020A8630B
:1043F0002875207CA8B1BDE832400E2000F027BE11
:10440000FDF7FCFCA86BA04204BF0020A86304F1E8
:104410003000FEF790FB04F16800BDE83240FEF783
:104420001FBB31BDD0B5FDF7E3FC694C617D31B1F7
:10443000DFF808180C68FDF7E1FC2046D0BDFDF759
:10444000DDFCFFF78FF810F50030DFF8F42741F1BD
:104450000001A2FB006702FB0177216900203218EE
:1044600047EB01031846D0BD2DE9F84F04460E4630
:1044700092469B46FDF7BCFC554D0246B5F934000B
:10448000B5F93610401A0005000D08286FF0010933
:1044900044DAA88E401C0005000DA886B5F934004A
:1044A000ADF800001046FDF7A9FCBDF90000DFF8EB
:1044B0009417821000EB5272D210A0EBC200282297
:1044C00002FB001804F16800FCF7FAFE08F104078B
:1044D00020217E6087F80EA0C7F800B008F118060A
:1044E000BDF80000B881BC60DDE90A23DFF8580799
:1044F00010401940C6E900010020307304F18C0619
:10450000686A40F6FF7490B1FDF772FC074600F050
:1045100067F838B900F05EF8384600E01046FDF75D
:104520006DFC09E0BDF800003080384644E000F042
:1045300057F818B900F04EF8484647E0BDF80000BB
:104540003080FDF755FC0021B1706A7DE97F114292
:1045500008D0012185F820100021E9772977297EEC
:10456000491C2976FDF74AFCA86A68BB687D18B12A
:104570001920FDF7D1FC27E0687F28BBFDF738FC48
:104580000646A87F20B100F035F80120A8761BE090
:104590007868FFF753FAE86488B1E86CA96BC968DA
:1045A000401ADFF8A816096805F1F00400F01DF8BC
:1045B0002046FCF77BFE3046FDF720FC04E000F0CF
:1045C00019F80421FFF7D3FDBDF90000BDE8F28F13
:1045D000FC260020A88E20180005000DA886704734
:1045E000414605F12400FFF7D8B9B0FBF1F12046B0
:1045F000FCF773BE3046FDF701BCF8B506460F4622
:1046000014461D46FDF700F8DFF82C26B2F93430C9
:10461000DB1BB2F936301FD5BB42BEBFB2F9343016
:10462000B2F9362093421FDABB1007EB5373DB104D
:10463000A7EBC301DFF80C26282303FB0127072281
:1046400097F82410114214D0FCF7E2FF072197F8E5
:1046500024000842FBD109E0BB42A2BFB2F93430CA
:10466000B2F936209342DFDBFCF7D2FF02200021B3
:10467000F4BD7A68DFF8D8158A4202D07A68B2654C
:104680007960C6E91445FCF7C3FF4FF0FF3106F12E
:104690003000FCF799FED6E91801F4BDDCB50446FC
:1046A000180008BFDFF8A835DDE90667CDE9006727
:1046B0002046FFF7D9FE002803D500204FF0004127
:1046C000DCBD0146204602B0BDE8D04002224FF0DA
:1046D000E04392E7006208400810044020000E000A
:1046E00070B500F02FF90546DFF84C6501203077F2
:1046F00004F18C01B6F93400B1F90020801A0CD510
:10470000B6F93600B1F900209042BEBFB6F93400C8
:10471000B6F93620904210DB05E0B1F90000B6F999
:104720003620904209D104F16800FCF7C9FD002051
:10473000FFF758F90120F07703E00120887000208E
:1047400030752846BDE87040FDF758BB24BB00001B
:10475000F6FFFF1FD82600209C27002001E042F032
:1047600002022DE9F047DFF8D04482B0606A009081
:104770008A46002603271546FDF73AFB1AF1010F7A
:1047800005F0010881460CD1A06ADFF8C8140028A2
:1047900019BFA06AB0F910A0E08E00F1010A81F8FB
:1047A00021600FFA8AF2911002EB5171C910A2EB4D
:1047B000C101DFF89004282202FB010AA06A8245A9
:1047C00005F0020527D115B1606A009066620121EB
:1047D0009AF8240001FA08F108438AF82400FCF74B
:1047E00013FF0646B8F1000F14BFDFF86C04DFF8C2
:1047F0006C0400F051FA00F0BFF925B906E000F0B2
:104800006CF800F074F800980028F8D13046FCF7F6
:10481000FFFE832759E00098504504F1F0081BD1B2
:104820004046FCF74DFD002D11BF6662606A0068CE
:10483000606200F0A1F900F04FF800F058F800981D
:10484000002818BF002DF6D183272FE001268327EB
:1048500000F042F800F04BF8009810B300685045A3
:1048600019D14046FCF72CFD00980068009A002101
:104870001160009000F080F9002DE7D1009890F8C9
:104880002400009940F0040081F82400832700F000
:104890002BF800F02CF8002EDAD100980068009078
:1048A000DAE7832F1CBF4846FDF7A8FA607F10B1F6
:1048B00000F022F809E0DFF8A803E06300F01CF83C
:1048C000607D10B9DFF84C03E0633846BDE8F68739
:1048D0000010044002000040009890F82400009965
:1048E00040F0040081F824006846FFF74BB8014609
:1048F00004F13000FFF751B8022104F15000FCF739
:1049000014BF10B50FF274311CC91CC010BD38B5EE
:1049100000F018F80546C848407D58B1204600F020
:10492000BBF9044600F048F8E0B201280CBF812032
:10493000022032BD00F040F8012032BDDC2600200C
:10494000D02108400446FDF753BA0A46BA49896B9C
:10495000884201D0032070470DE000005100070697
:1049600000000460001004400A46B349896B884285
:1049700001D00320704700211046C8E770B5AE494A
:104980008A6B90426FF07F0410D1487D70B1FDF7C3
:104990002FFA0546B34800F07FF9064600F00CF800
:1049A000F0B2012802D13002001670BD204670BD61
:1049B0001C100440010007062846FDF71FBA70B519
:1049C0000E461546FDF714FA83249B491EB1022EAC
:1049D0000ED005D30FE08A6A42B1896A098A03E0E2
:1049E000097F19B99B49098B298005E0802403E0E0
:1049F000497D297000E00324FDF700FA204670BDD0
:104A00004C2700208A1001EB5272D210A1EBC20198
:104A10008C48282202FB01008068704710B5864947
:104A2000097FA1B9028B012303FA01F422420AD0C3
:104A3000A243028301F10C048B480268A3401A438D
:104A40000260084610BD491C49B20F29ECDB6FF02B
:104A5000010010BD38B5FFF775FF75494A7A520756
:104A600002D50B7A9C4210D001220B8802FA04F581
:104A70002B430B800C347C490B68A24023EA0202D2
:104A80000A60096809B96C4A1175BDE83240FDF742
:104A9000B5B92DE9F041684D0E46A96B884298469C
:104AA00018BF032020D10A2131807260694C6060F8
:104AB00026602046FFF7B2FF070014D4B77000212C
:104AC0003046FFF724FF022818BF012805D13846D9
:104AD000FFF7C0FF6FF0010705E004EB870040F827
:104AE0000C8C012028753846BDE8F08101010E04C8
:104AF0002DE9F047504E8046B06B80450D469246FA
:104B000018BF032036D1534F3846FFF787FF0446BE
:104B1000002C2ED4FDF76CF98146200200F4706061
:104B200005434FF6FC702840504908433860386808
:104B300000F0B2F8C0B2012814D1E80409D500F0A1
:104B40005BF887F8204097F8210040F0040087F8D0
:104B5000210007EB8400C7F8048040F80CAC01206A
:104B6000307504E02046FFF775FF6FF0010400F098
:104B700003F82046BDE8F0874846FDF73FB90A46EE
:104B80002D49896B884201D0032070474FF6FC7095
:104B90001040374A00211043B9E670B50C4626494B
:104BA000896B884201D0032070BD324841784A07A2
:104BB00007D503789C4204D101F0FB01417000212C
:104BC0000170FDF715F905462046FFF743FF4FF644
:104BD000FC7000EA042040F0816040F0010000F029
:104BE0005BF8064600F008F8FFF7E6FEF0B2012891
:104BF0000CBF8120022070BD1F480122016804F112
:104C00000C039A4091430160704700006B3B000029
:104C10009B3C0000BB3C00000020094004B40000A5
:104C20006B3C0000D33A0000853A0000813C000054
:104C3000F0260020353C0000FC2600200430044013
:104C400000093D00381A0020F1EFFF9F24BB00004F
:104C5000393C0000D82600200100020401000104B4
:104C6000F13E0000010003040C10044001000306A3
:104C700001000406F826002008100440FFFFFFFF93
:104C8000C40900000100000079490868C2430A60B5
:104C90000A680242FAD1704776490A68002AFCD1B4
:104CA000CA610860C8690028FCD00020C861486853
:104CB00070477148016821F0020141F40071016000
:104CC00003216E48816041F2300141610121C160E0
:104CD000502141610121C1604FF4CA61416101214C
:104CE000C1600160704710B5028840F602039A4225
:104CF00004D043F607039A4202D004E0C07B03E0ED
:104D000090F8240000E000205D4B5E4C1A680A60B9
:104D100005280AD0062810D00A2816D00C281CD046
:104D20000F2822D01E2828D02FE02068A269236BEC
:104D30005B015B0943F020532EE06068E269636B1E
:104D40005B015B0943F0405326E0A068226AA36B35
:104D50005B015B0943F0A0431EE0E068626AE36B1D
:104D60005B015B0943F0C04316E02069A26A236C33
:104D70005B015B0943F0F0430EE06069E26A636C3B
:104D80005B015B0943F0704306E09868DA685B6B8F
:104D90005B015B0943F08053CB608A60486010BDC3
:104DA00070B5018840F60202891A06D043F2040267
:104DB000891A06D0491E07D070BDC17B406930B941
:104DC00070BD0221C069FAE790F82410FAE70022CA
:104DD00044F2380550F822309CB2AC4214D1C3F3EF
:104DE0000344002C3DD00229274D284E1ED0052912
:104DF0000ED0062910D00A2910D00C2910D00F2966
:104E000010D01E2910D011E0521C052AE2DB70BD23
:104E10002D68C5F303250CE0356808E0756806E0E9
:104E2000B56804E0F56802E0356900E02D6EC5F371
:104E300083450F2D23F470230DD1052918BF0A29AE
:104E400003D00F2918BF1E2902D143F4E02106E048
:104E500043F4802103E0AC4203D243EA054140F829
:104E6000221070BD014610220948FEF787BB0000E2
:104E70001010044000100440000004600041044091
:104E80004C130050C410005020130050F810005074
:104E90001800002120B1082324220021FDF7A6BD1F
:104EA000704710B5DFF8244782B001200090092335
:104EB0002468DFF81C0764684FF400720021A047E3
:104EC00013BD10B5DFF80447DFF804072468E46871
:104ED000002301223421A04700B10120C0B210BD3F
:104EE000DFF8F00680687047DFF8E816401890F8A1
:104EF000ED0070470022022904D1012806D140F2BA
:104F0000EE2203E0012808BF4FF47A721046704782
:104F1000DFF8C006D0F8DC007047DFF8B80690F87C
:104F2000E60028B1DFF8B0064068010018BF00476E
:104F300070472DE9F041DFF89C4604F1E1058AB0A5
:104F4000A87900285CD10120A871DFF88C66DFF811
:104F50008C86307B687101A8FFF79CFF00200690CB
:104F6000ADF81400079001AB00220FF2F14104F1FB
:104F70000C00FDF75EFD01AB00220FF2A95104F118
:104F80003000FDF756FD01AB00220FF2D54104F1D0
:104F90005400FDF74EFDB16801208847DFF8400658
:104FA0000078D8F80400C0F38157707B20B1032F3C
:104FB00002D10120287003E0032F18BF022F11D166
:104FC000022000F09AF8032FDFF818160CBF4FF4F8
:104FD0007A7042F2107000F069FA04F15400FCF7A4
:104FE00065F906E0012F04D100F067FAA047FFF74A
:104FF00058FFD8F8000040075CBF002000F07DF8A3
:105000000AB0BDE8F08110B508B1140001D102204A
:1050100010BD8160C26003610146DFF8B80500F091
:105020002FFB002010BD10B50446FCF7E1FEDFF8B1
:10503000A415621892F8E8305B1E82F8E830DBB203
:1050400023B98A680123A3409A438A6066E02DE968
:10505000F0410546FCF7CCFE8046DFF8781568186D
:1050600090F8ED20521E80F8ED20D2B2002A3FD1F8
:105070000FF2AC50DFF8704500EB85052E786F8895
:10508000300615D52168096A384688472168896A3B
:10509000384688472168096B38468847DFF84C1541
:1050A00001200860DFF8480500688007FAD512E0A3
:1050B000700606D501EB87010020D1F80011884762
:1050C00009E021688969384688472168496B384674
:1050D00088470228F9D106F03F003F2818BFFFF7A4
:1050E000B6FF687800F03F003F2818BFFFF7AFFF1A
:1050F0004046BDE8F041FCF781BE10B50446FCF720
:1051000077FEDFF8D0148A680123A3401A438A602F
:10511000611891F8E820521C81F8E820BDE81040A1
:10512000FCF76CBEF8B50646FCF762FE0446DFF8F5
:10513000A454701990F8ED104A1C002980F8ED2055
:1051400039D10FF2DC4000EB8607387800F03F00E1
:105150003F2818BFFFF7E6FF787800F03F003F28B0
:1051600018BFFFF7DFFF7E883878DFF87C74010610
:105170000ED53968C969304688473968496A30466A
:1051800088473968C96A3046884700F019F812E044
:10519000400606D505EB86010120D1F800118847AD
:1051A00009E039684969304688473968496B3046B3
:1051B00088470128F9D12046BDE8F240FCF71EBE21
:1051C000DFF8281401200860DFF824040068800755
:1051D000FAD570472DE9F04F002483B04FF0000A54
:1051E0000128D04618BF012664D1DFF8E893D9F82A
:1051F000DC0001285DD10220C9F8DC00FCF740FB8F
:105200000090012000F066F9060054D1FCF7FCF98B
:10521000DFF8E81301900C600120FEF79AFA0128EC
:1052200004D1002000F0ACF94FF0010ADFF8C413FC
:10523000DFF8C4030C6000681120FFF755FE08B1C9
:105240004FF001081020FFF74FFE08B148F00208A8
:105250000F20FFF749FE08B148F004080B20FFF7C4
:1052600043FEDFF8846320B13168096B4FF480603E
:1052700088470A20FFF738FE20B13168096B4FF4E8
:1052800081608847DFF86413DFF87473DFF874B364
:105290000120086048F02000316889698847DFF8FC
:1052A00068130120086099F80800C00707D5012499
:1052B00016E0042673E00120C9F8DC006CE05846D3
:1052C00000F000FA0546042DF9D0012D04D1326A10
:1052D000526803215846904738688008800038603B
:1052E000002000F0F7F9C44800683068806B804700
:1052F00054B9012D04D1326A5268012158469047B1
:10530000386840F0030038600120BA490860404620
:105310003168496988470B20FFF7E6FD20B1316805
:10532000C96A4FF4806088470A20FFF7DDFD20B18D
:105330003168C96A4FF481608847AC490120086030
:105340000020B14908600320C9F8DC003168496BCE
:10535000404688470128F9D1042000F0BBF8A7494E
:1053600001200860A4480068A84800688006FBD5B2
:10537000BAF1000F1CBF012000F002F9FEF746F958
:10538000082000F0A7F806460120C9F8DC000198C3
:10539000FCF73EF900F080FA0098FCF778FA304606
:1053A000BDE8FE8F38B50446FCF722FD05462146D0
:1053B000884800F079F928464BE030B500240128F0
:1053C0008BB004D021D303281DD018D31DE001A831
:1053D000FFF760FD7F4D8E490694ADF814400794A9
:1053E00001AB012205F17800FDF723FB00940023B7
:1053F000884A2C2105F19C00FDF771FA05E000F0C8
:10540000D9FA044601E000F08BFB20460BB030BD1A
:10541000FEF7B3B938B5FCF7EBFC05466D4890F8DC
:10542000E000012410B1FFF74CFD04462846FCF7CC
:10543000E5FC204632BD38B5FCF7DAFC654D044684
:1054400095F8E00020B1FEF7DEF9002085F8E000D5
:105450002046BDE83240FCF7D1BC00007047000098
:1054600010B582B00420FEF774F9022818BF032893
:1054700008D100F022F8A047FFF713FDBDE8164061
:105480000220D0E5644857490068524CC0F381506F
:1054900003280CBF4FF47A7041F2883000F006F810
:1054A00004F15400BDE81640FBF700BF0968B0FBEB
:1054B000F1F104F15400FBF710BF444C03200090BD
:1054C0001C232468424864684FF040520021704712
:1054D0000020704770B504463E4E304600F0C6F8D6
:1054E000002598B9304600F0C7F80646B06820425B
:1054F00007D03269F3680021204698470546012D00
:1055000005D0304600F0BAF80600EFD1284670BD4D
:10551000424901280CBF40F2FF70002008600020C3
:105520007047000070B5FCF763FC2A4E2A4D044614
:1055300096F8E00028B1FEF766F968B1002086F819
:10554000E0000220AD68A84706461020FFF7C2FF22
:105550008EB10320A8470EE0224909683220B0FB33
:10556000F1F101B9012106F13000FBF7B6FE06F1B9
:105570003000FBF79BFE2046BDE87040FCF73EBCC8
:1055800038B501281ED1FEF7E4F801281CD0FEF73B
:1055900030F9104C1349012084F8E00032200968EA
:1055A000B0FBF1F505B9012504F13000FBF788FEE9
:1055B000294604F13000FBF790FE04F13000FBF7C0
:1055C00075FE01E0FEF743F9002032BDA401001092
:1055D00000A00C40880F002080B30000B03F0050B6
:1055E0003128002024BB0000B801001028200860EA
:1055F00028200840000222432C2009400C4009408A
:105600002422084000400340800104431410094054
:10561000615C00000D5A0000B43F005000000460BF
:105620008F3F00008F3F01008F3F02008F3F03003C
:10563000903F00018F3F0101903F0002903F000327
:105640008F3F01048F3F00058F1208048F3F000435
:105650008F3F0006513F00007F3F01003F3F0400A5
:105660003F3F02003F3F01007F3F020000680028EB
:105670000CBF012000207047006870470068704729
:1056800038B504460D4600F0BDFB00212960616875
:1056900069606168002914BF0D6025606560FFE7DF
:1056A000BDE8324000F0B0BB0B684A68002B0CBF6D
:1056B00042605A604A680968002A0CBF01601160A4
:1056C000704700000068010701D50420704700F012
:1056D000030070472DE9F84F04469C48DFF87082BC
:1056E00000689C4E800705D50820B0719A48C8F81C
:1056F0000000CFE0FEF70CF981469848076838179C
:10570000002500F1010AB80208D4C9F13E00C0101A
:105710000928A8BF08208245B8BF824607F040701C
:10572000B0F1807F0BD18E480068C0F30420FDF7F4
:1057300008FE83468A480068C0F304600AE089488E
:105740000068C0F30460FDF7FCFD834686480068EE
:10575000C0F30440FDF7F5FD0AEB0B011629A8BFC5
:10576000152104DA6FF009029142B8BF114601F029
:105770001F027E4B42F4F8521A807D4A126812F0E2
:10578000030F18BF0125520748BF45F002050CB1B1
:1057900045F0040596F90720A9EB0202052A02DA72
:1057A000B27995425CD0A9F10F030024002B4FF091
:1057B000000C05F00402DFF8BCE124D403EB031372
:1057C0001C12082C28BF0724A446BCF1070F28BFD1
:1057D0004FF0060C0EEB8C0A5EF82CC0DAF804A031
:1057E000AAEB0C0A5FFA8AFC12B1CAF3072BDC445D
:1057F0005FEA857B44BFCAF3074BDC445FEAC57BA5
:1058000048BF0CEB1A6C5EF824E05FFA8EFA12B116
:10581000CEF307229244AA0744BFCEF30742924434
:10582000EA07A3EB042248BF0AEB1E6A401A02FBF8
:105830000CF280320128B8BF01203423F9B258435A
:105840000AEB12224843B0FBF2F0B0F5803F28BFCC
:105850004FF6FF7009F30709B08086F80790B5711D
:1058600045480068B188306000201F2904D21F21FC
:10587000B18004E04908401CB1F5007FFAD20F392D
:10588000090940EAC1003D490843C8F8000000206A
:10589000C8F80400BDE8F18F10B53948006884B23B
:1058A00024B3FEF735F82B4991F90720904205DA29
:1058B0006FF07F029042B8BF1046C871888884425A
:1058C00001D28C8010BD2C4A12680B68D21A921C2F
:1058D000202A28BF1F22231A520823FA02F4201874
:1058E000B0F5803F28BF4FF6FF70888010BD254877
:1058F000026802B9704710B5234B986800F0406108
:10590000B1F1406F20D011490C68A4071CD45C6829
:10591000A40719D40C681B68C3F303531C331B0181
:1059200014F0050F05D09A420ED224F0050008604D
:1059300010BD934208D2020158BF44F00104400157
:1059400058BF44F004040C6010BD00000000094082
:105950003010094024280020FDFDA400B43F005071
:1059600088130050B81200503C1100506E6208407D
:10597000242208409C1300500820094000E7A4801E
:105980003410094028500940AC3F005010B50C18A5
:10599000FDF738FE401E8041C00FDFF82C140A6866
:1059A000002AFCD0246801220A6008B1FDF72EFE0F
:1059B000204610BD38B5DFF81444DFF81414207801
:1059C000897B002508430AD0FCF712FAA178002948
:1059D00006BF0121A1700125FCF710FA0DB10020CE
:1059E00032BD0220FFF789FB0E20FFF79BFBDFF89B
:1059F000E403016809B1012032BDDFF8DC23402156
:105A000011600121C1610020607032BDF8B5DFF87E
:105A1000C803002101604821C160DFF8C00300F124
:105A2000D804A17A002979D00129DFF8B4232BD139
:105A300010684BF2F5214843050ADFF8A803006817
:105A4000C0F38140012806D1FDF762FFFDF716FF84
:105A5000684305EB9055607B10B10020607306E051
:105A6000DFF884030068000215EB10204508DFF81A
:105A70007C030560290C416001218160D448807B52
:105A8000002849D0052048E0022909D11568284698
:105A900000F008F9A5F2FF5003283DD308203CE0B0
:105AA00003293BD1116800F1B805A1F5C061286850
:105AB000E961002848BF4042002948BF4942884266
:105AC000A8BF002027DACA4E6868CA4F80B200908B
:105AD0000823D6F800C0DCF804C04FF47F42302120
:105AE0003846E047A86880B200901223D6F800C07C
:105AF000DCF804C04FF4F80204213846E047A869F6
:105B000080B200900A2335686D684FF4406220210E
:105B10003846A847012020700B202073BDE8F140D3
:105B20002DE9F843DFF8B482B34EDFF8C892B34CE6
:105B3000B34FA94808F1E105E9784A1E0B2A63D85A
:105B4000DFE802F00626374E63374E63374E6B763A
:105B500031680968202088470F20E060072341F65C
:105B60001D5020614FF4C072022000900021746823
:105B7000D4F804C04846E0477668F66807234FF437
:105B8000C07200214846B04701203860022048E03A
:105B90000120E061287800281DBF00203861032023
:105BA0000620E87003202060002078607868800775
:105BB00038D470684668E878032805D1022000F0E0
:105BC00048F8B047042008E0002000F042F8B04751
:105BD000E87806280CBF07200A20E87001201AE0A8
:105BE000042903D12021A161012105E00122A26144
:105BF0000A290CBF032102216970002121600821BC
:105C0000C16001600120206021E005290CBF062051
:105C10000920E8700020786004E000203860786097
:105C20000C20E87008F17800BDE8F243FBF73EBBBA
:105C3000002101600120674908600E20FFF707FA84
:105C40000220FFF7F0F90120E8700020A870BDE8FD
:105C5000F183009005236022002148467047000030
:105C60005E49674891F8E410891E0A2919D8DFE8CF
:105C700001F0060A0E180A0E180A0E181200016822
:105C80008907FCD50DE041688907FCD409E041682B
:105C90008907FCD505E001688907FCD441688907BC
:105CA000FCD43DE7F8B50746524C30212046FFF7BB
:105CB0006DFE4A4E06F1B805C0F307206860042166
:105CC0002046FFF763FEC0F38440A86020212046F1
:105CD000FFF75CFEC0F38120A861B7F5C0602860C3
:105CE00002D186F8D800F1BD296996F8D8202AB9E2
:105CF0006A68A968EA60E861AA696A61E8690028D7
:105D00004CBF6FF00102022200EB4000101842105D
:105D100000EB927001EBA0006968E960012810DADD
:105D20006A69032A04D1153001281DDA01201BE01D
:105D30000B300128B8BF0120491E48BF0021E9608F
:105D400007E01F2812DB6A692AB915381F28A8BF87
:105D50001E20032109E00B381F28A8BF1E20491C64
:105D60004029A8BF3F21E96000216961286108231B
:105D70001F4EE86880B200904FF47F4237687F681A
:105D800030212046B84701200090112337687F68F2
:105D90004FF4003204212046B847286980B20090B1
:105DA000122337687F684FF4F80204212046B84771
:105DB000686980B200900A232046346864684FF412
:105DC00040622021A047F1BD00800C4069100020F6
:105DD00080B3000004800C402C500C40880F002041
:105DE00008400C40B43F0050102009403C600C407B
:105DF000A401001000A00C40A001001000400C40C5
:105E000034600C40FBF7F4BFFBF7F8BF20B1082368
:105E10002C220021FCF7BFBD704720B108233C2293
:105E20000021FCF7CCBE704780B5FBF729FDADF82B
:105E30000000FBF7DDFFADF80200009802BD01B5E0
:105E4000BDF80200FBF7DAFFBDF80000BDE8024034
:105E5000FBF71DBD38B5DFF89808DFF89818DFF8B4
:105E6000984880088000091A2161E060034602E03A
:105E7000002523F8025B0D18AB42F9D38B0800EB29
:105E80008303002223F8042CE82220F8E82B4FF6A5
:105E9000FC721140EC3901806060002000F004F8D1
:105EA000A060E068606031BDF8B500240025061DE3
:105EB00016F003001CBF311D0E1AFFF7B5FFDFF807
:105EC0003818B6B20860112EB4BF4F688F68398891
:105ED0000B0403D581F40041002519E0A5B1238806
:105EE0003A88134423809BB2B34211D32746194604
