:20000000004E002021A50000FDC90110FDC90110FDC90110FDC90110FDC90110FDC90110A2
:1C002000FDC90110FDC90110FDC90110FDC90110FDC90110FDC901103BCA0110A4
:20004000001313DC00011307000101131A0041B50000F99D000035B9000084200020842072
:2000600000208C2000208C20002013080055B3000003000000FF0014130700C04613080054
:20008000B8200020B82000201C110000C4200020C4200020CC200020CC200020D42000200F
:2000A000D4200020CC10000008000000A00F002013050004000008000000F4200020F4200D
:2000C00000209C0100209C0100200100000001130B00A3941306001C2100201C2100201349
:2000E000040028210020282100203021002030210020382100203821002040210020402174
:20010000002048210020482100205021002050210020582100205821002060210020602137
:20012000002068210020682100207021002070210020302300200DB913060021B7130E00A0
:2001400041B7130E0031B700000D5D00001171130A007D650000E9711310000112435C681C
:20016000727A8186890208130B0001050508003F02002400200308130B00016403CC4C1387
:2001800006000138130B0001181EDE510B931304004138130B00010613B500E4220020E477
:2001A000220020010000000213070004130800040000200500201304008D25131200011376
:2001C0000F0030230020302300201304000113070004130800020000200900201304000770
:2001E000C2011013100001130F001304FF01131500903C130E00F07F130E00F07F130E009A
:20020000F87F13080001130500F07F130E00403E130E0032401308000711000002000F7DD1
:2002200002009F84020044C738403A002040007F64404000A3040600030507B1230533054A
:200240008305480A0306B87A63841000030401024302B00483880300310004C0C02100208B
:20026000210004C035000000A3880300B4506666B8500C001304FF0711000038403A002052
:2002800040007F64404000A3840600410104C007B133058305480A0306B87A02009F84025C
:2002A0000044C703040102638410004302B0048460F135838803008860190098600072B8FE
:2002C000527880045202000200DF7D1304FF0786000038403A002040007F64404000A384DF
:2002E0000600410104C007B133058305480A0306B87A02009F84020044C7030401026384CA
:2003000010004302B0048460F13583880300A388FB0088601A005C503C070200F80C130488
:20032000FF38403A002040007F64404000A3840600410104C007B133058305480A0306B88B
:200340007A02009F84020044C703040102638410004302B0048460F13583880300A388FBB9
:200360000088601A000200DF7D0200F80C1308FF13040001130B00C5A7130600A9B61308C8
:2003800000010094200020C5A7130E00C5A7130600C5A7130A000A1307000A00000064005B
:2003A0000000E8030000102700003836382E3000640300003931352E300093030000527853
:2003C0000054780042544E2D310042544E2D320000004011130A000113050001000026001E
:2003E00020002600204011130A000113050001001C2600201C260020242600202426002077
:200400002C2600202C26002034260020342600203C2600203C2600204426002044260020EC
:200420004C2600204C2600205426002054260020E984130A000500000020130F004C260021
:20044000201304000738130B000121030F0080002404A00008003FA70C2500206403008066
:20046000050000000738130B0001A0000F9A19002005200808003FA7B82400206403008099
:20048000050000000738130B000102000F4A0C002004A0200800000060240020640300801B
:2004A000050000000238130B00011888DE510B937DAABB01130C004238130B0001060213BB
:2004C000070001130C00322D4746534B2000004C52204D6F646500004F4F4B1304200000E8
:2004E0004853204D6F646500000D2005800E200580FE0000008FB600008FB600003D130B74
:2005000000FF7F13060001130800C0130600400013000000000000000003030400AC200026
:2005200020B0200020B42000200305004E002000020305002001010000C0180020030C000E
:200540000300000000000000000301030B0002030B0058210020031000782100200304000A
:2005600034010020340100203C0100203C0100200300000000000000000202080060250083
:2005800020542600200100000001020F00FC200020FC200020020000000000000000000014
:2005A00000010105006CDC02010800082600200301070079B000002DB6000001000000007B
:2005C000000201021300242600200204000200000000000000000000000101040060250006
:2005E000200100000000000019B90000CBB7000049B800000000000000010800000001007B
:200600000000000000000000000101040001000000000000000000000001010800010000C8
:2006200000000000000000000001010800010000000000000000000002000000100000009D
:2006400002000000100000000200000010000000020000001000000002000000551A0000F3
:2006600002000000DC00000040000000781F002018050000440100204805000000010020B5
:200680007805000078010020A0050000A4010020C0050000C8010020D8050000E40100204A
:2006A000F80500000002002008060000EC01002018060000F001002028060000F80100208A
:2006C0003806000030040020400600000005002048060000400400205006000010050020E0
:1006E00058060000200500206006000000000020E1
:201000003C000000000000000000000034100000000000000000000001000000000000004F
:1C10200000000000000000000000000001000000000000000800000000000000AB
:20103C003400000000000000000000006810000000000000000000000100000000000000E7
:14105C00010000000000000000000000080000000000000077
:2010700030000000000000000000000098100000040000000000000001000000FFFFFFFF87
:10109000FF00000001000000080000000000000048
:2010A0002C0000000000000000000000C4100000040000000000000001000000FFFFFFFF2F
:0C10C000FFFFFFFF080000000000000020
:2010CC0038140000E410000095A1011091A70110A1C2011009B2011041B80110A5BC011078
:0810EC0085BC01102F0000007B
:2010F400280000000000000000000000141100000000000000000000FFFFFFFF0000000093
:081114000800000000000000CB
:20111C00341400003011000065C2011069C101101BC2011091BA011005BC0110E5BB0110EA
:04113C002D00000082
:20114000341400005411000071C20110A5B6011099BF011045B60110B5BA011025BC01104B
:041160002E0000005D
:201164002400000000000000000000008011000000000000000000000000000008000000AE
:041184000000000067
:20118800240000000000000000000000A41100000000000000000000000000000800000066
:0411A8000000000043
:2011AC00240000000000000000000000C8110000000000000100000000000000080000001D
:0411CC00000000001F
:2011D000000000008C2000200400000000000000000000002000000070100000300000005F
:2011F0001C110000B82000200400000000000000000000000C00000030130000180000004F
:2012100040110000C4200020040000000000000000000000240000004813000018000000CE
:2012300000000000CC20002004000000000000000000000010000000A01000002C000000A2
:20125000CC100000D4200020040000000000000000000000200000006411000024000000D1
:20127000FFFFFFFFF420002004000000000000000000000028000000881100002400000045
:20129000FFFFFFFF30210020040000000000000000000000580000003C10000034000000F5
:2012B000FFFFFFFF382100200400000000000000000000001000000060130000180000000A
:2012D000FFFFFFFF402100200400000000000000000000001C000000AC1100002400000080
:2012F000FFFFFFFF4821002004000000000000000000000038000000F410000028000000F1
:20131000FFFFFFFF5021002004000000000000000000000054000000001000003C0000008C
:1813300018000000000000000000000040130000080000000000000032
:1813480018000000000000000000000058130000080000000000000002
:18136000180000000000000000000000701300000800000000000000D2
:081378000100000094E10000F7
:041384000100000064
:0413880000000C0055
:04138C0000000D0050
:041390003700000022
:041394000100000054
:04139800942000207D
:04139C00000200004B
:0413A0000000000049
:0413A400FDC901106E
:0413A8000000000041
:0413AC00000000003D
:0413B0000800000031
:0413B4000000210014
:0413B800EC25002000
:0413BC00010000002C
:0413C000DC2000200D
:0413C400080000001D
:0413C8000000000021
:0413CC00000000001D
:0413D0000000000019
:0413D400080000000D
:0413D8000000000011
:0413DC00000000000D
:0413E0000100000008
:0413E400542600206B
:0413E80006000000FB
:0413EC0002000000FB
:0413F000E4220020D3
:0413F40000000000F5
:0413F80000000000F1
:0413FC0000020000EB
:0414000000000000E8
:021406002800BC
:021408000100E1
:02140A002400BC
:02140C002D00B1
:02140E002E00AE
:021410002F00AB
:021412000100D7
:0114140001D6
:081418000300000064E1000084
:081420000000000000000000C4
:0414280000000100BF
:04142C0000000300B9
:0414300083C4011060
:041434003C14000064
:041438003C14000060
:04143C0000000000AC
:041440009000000018
:041444009000000014
:0414480000000000A0
:04144C00DC20002080
:04145000BDB6000025
:041454002000000074
:0414580020E100008F
:04145C002CE0000080
:0414600009C30110AB
:04146400FB9C0000ED
:04146800479F00009A
:04146C0095C801100E
:0414700097C8011008
:041474000000000074
:04147800A8E10000E7
:04147C009CDE0000F2
:04148000B4DE0000D6
:0414840084DE000002
:0214880008005A
:02148A00090057
:02148C0001005D
:02148E0000005C
:01149000015A
:041494000000000054
:041498000000000050
:04149C00000000004C
:0414A0000000000048
:0414A40039B9000052
:0414A800C1A80000D7
:0414AC0051AF00003C
:0414B000B9AB0000D4
:0414B40037AA000053
:0414B800E9AB00009C
:0414BC006D9500002A
:0414C000D9B7000098
:0414C400D9990000B2
:0414C8000DC801103A
:0414CC001DC8011026
:0414D0000800000010
:0414D40024000000F0
:0414D80018000000F8
:0414DC0028000000E4
:0414E00020000000E8
:0414E4003C000000C8
:0414E8000C000000F4
:0414EC0034000000C8
:2014F0002DE9F843089C582B804617460CBFA7A5ABA5002908BFB8F1000F05D12068411E75
:201510002160302707702AE04FEAE7793E460246083E13D0083E0DD0002908BFB2F1FF3FE0
:2015300004D94B463A4603F08FFA0BE0B2FBF7F0002107E008071209090902E04807D20863
:20155000C9081043226800FB1783561E0029EB5C26608046137008BFB8F1000FD6D12068D7
:201570000AF090F8401EBDE8F883F8B50546A8688C461446002804D4286820F010002860EF
:2015900001E00120A8602F7BB7F1580007D0173807D0401E03D0083818BF0A2202D1102211
:2015B00000E00822702F73D02E680020002106F4EC66203E4CD0203E3DD0C03E25D0B6F589
:2015D00080760CD0583F64D00C3F57D07F1F55D0BF1F5ED0BF1F5CD0FF1E62D159E0583FF3
:2015F0000AD00C3F4AD07F1F48D0BF1F04D0BF1F18BFB7F1030754D11868C01C20F0030039
:20161000001D186010F8040C4BE0583F0AD00C3F08D07F1F06D0BF1F04D0BF1F18BFB7F1CB
:2016300003073ED11868C01D20F0070008301860083803C835E0583F2BD00C3F1ED07F1FD4
:201650001CD0BF1F25D0BF1F23D0FF1E29D120E0583F0AD00C3F11D07F1F0FD0BF1F04D007
:20167000BF1F18BFB7F103071BD11868C01C20F00300001D186030F8040C12E01868C01C7D
:2016900020F00300001D186050F8040CC11708E000211868C01C20F00300001D186050F80D
:2016B000040CAB68DE1741EA0607002F40EA030308BF002B02D12B681B093DD32B7B642BAA
:2016D00018BF692B09D1002907DA012700234042CCF8007063EB01012B7B0094FFF700FF2B
:2016F000302103E02268531E23601170AA68401C8242F7DA287B782803D0582818BF70289F
:201710000ED12A6812090BD3702808BF78202268531E236010702068421E22600170287BDC
:201730006F2809D12868000906D320684278302A02D0421E22600170F8BD7CB5054614466A
:201750000E46002DD8BF684264230A22C1170094FFF7C6FE702E0BD0502E09D00A2D09DAF4
:2017700015F10A0F04DD2068411E216030230370002D01D42B2100E02D212068421E226045
:2017900001702068411E216006707CBD3031323334353637383941424344454600C046C049
:2017B0003031323334353637383961626364656600C0F8B51D4617460E46044609F062FF92
:2017D000324603460021002A284603DD9342A4BF1119491E27B105686E1E06602E272F70AB
:2017F000934208DAD71A30251A4603685E1E06607F1E1D70F9D1002A0CDD8C420FD80F1B49
:201810007F1C026811F80139541E04607F1E1370F7D1F8BD01684A1E026030270F70F8BD3F
:201830002DE9F04F8246ADF16C0D884690681A920028199302D004D5062000E001201146F5
:2018500088603021C7A68DF8001096E80C00471C5046414607F0A0F938BF88F000480024C8
:2018700012E03020087059E099E80C0005F08EF8641E8846824611E099E80C00504604F03D
:2018900029FC641C88468246BAA20CCA414607F0C6F90FF2D829EFD34FF0000B96E80C00F6
:2018B000504607F079F909D0B4A20CCA504607F073F95D4638BF0125002DD5D1504608F0FA
:2018D000DFFD05460DF1010108F0E4F900EB0D060419874206F1010619DD3F1A284609F064
:2018F000C2F90B4602464146504603F06FFD99E80C0005F04BF88846824608F0C1FD0546AC
:2019100005F130007F1E06F8010BE7D101E06F447E1C16F8010D35280ADB314611F8010D18
:20193000401CC2B23A2A08709BDA6D468D4204D058460DF10105307002E0641C06F801BCC1
:2019500014F1030F08DB1A988068A04213DA022CA4BF641EA34405DA002C04DCC4F1010475
:20197000ABEB040B01241A98199A007B801EC1B25846FFF7E2FE284609F084FE0027401EBA
:20199000844217DC021B521C002803D4295C302901D005E030211FB91A9B1B681B0905D303
:2019B000199F3B685E1E3E6001271970521EA0F10100E9D11A980068002200F00800384386
:2019D00018BF0122199B21462846FFF7F2FE1BB0BDE8F08F2DE9FE4F0D99441C994692467F
:2019F00001900FF2801B02940C9F009130210170194610469BE80C0007F0CEF838BF89F0A5
:201A10000049002512E03020087053E098E80C0004F0BCFF6D1E8946824610E098E80C0082
:201A3000504604F057FB6D1C8946824651A20CCA494607F0F4F80FF23418EFD37F1C9BE832
:201A50000C00504607F0A8F80AD04CA20CCA504607F0A2F84FF0000638BF0126002ED5D141
:201A7000504608F00DFD0646214608F013F9041941190098EF19016017DD304609F0F3F841
:201A90000B4602464946504603F0A0FC98E80C0004F07CFF8946824608F0F2FC064606F12E
:201AB00030007F1E04F8010BE7D114F8010D352810DB214611F8010D401CC2B23A2A0870FD
:201AD000A1DA0198884205D10099019A08680292401C0860002102982170BDE8FE8F2DE9B2
:201AF000F0431646B5681C46ADF5FE7D0246ADF1100D002D44BF0625B560D4F8009002A832
:201B100000950B46019003A8FFF764FF029FB568804609F0B7FDE9196A1EA1F1010110D407
:201B3000521C002904D48842C8BF18F8015000DC302523685F1E521E2760A1F101011D7023
:201B5000EFD120680122484503D13068000938BF0022029940462346FFF72BFE7FB004B063
:201B7000BDE8F083000000000000000000000000000024400000C0FFFFFFDF4100000000FC
:201B90000000F03F2DE9F0471646B468994688460746ADF1700D002C44BF0624B4600FF2BE
:201BB000702A9AE80C0007F03AF84FF000050DD90FF2443A9AE80C00384606F0EDFF05D94F
:201BD000CFA20CCA06F0E8FF12D11FE09AE880010EE09AE80C00384604F07CFA6D1C0746B2
:201BF0000FE09AE80C0004F0D1FE6D1E88460746C5A20CCA4146384606F0CEFF0FF2103A9F
:201C1000EFD39AE80C0007F00AF8E2D9009402A80B463A46019003A8FFF7DCFE04460298B1
:201C3000022809D1401E0290204609F02BFD6D1C0021201800F8011C317B28464A46FFF782
:201C50007CFD029FB568204609F01CFDE9196A1EA1F1010111D4521C002903D48842C8BF03
:201C7000655C00DC3025D9F800305F1E521EC9F80070A1F101011D70EED1204609F002FD05
:201C900002990122884203D13068000938BF002220464B46FFF78DFD1CB0BDE8F0872DE9A9
:201CB000F04F0746ADF1840D1E4600201E9258A4019094E80C00384606F0B1FF88460FF21D
:201CD00040290CD98CA494E80C00384606F064FF05D999E80C0006F05FFF02D109E094E820
:201CF00080014146384601AA09F0E1F90198401E01901E988568007BB5F1FF3F4FF0000403
:201D10001B9008BF01241B9A834B84482093A2461F90412A18BF181C1C9030208DF8080084
:201D300099E80C004146384606F036FF38BF88F0004899E80C00414606F02EFF0CD038468E
:201D50006A4609F0B4F9009A41463846C2F1010208F0BAFB88460746384608F091FB834635
:201D70000DF1090107F096FF0446584608F07BFF0B4602464146384603F028FB0FF20C3B69
:201D900004EB0D021D940746BAF1000F02F1090458D16D1C15D09BE80C0004F0F7FD0F461A
:201DB000804608F06DFB1C99095C04F8011B08F05AFF0B4602463946404603F007FB6D1E4C
:201DD000E9D11B98641E224641280CBF1F9D209D1178284609F017FC401B082837DB2746E2
:201DF0004FF000081B987F1E41280CBF1F9D209D3978284609F007FC401B401C1028B4BF12
:201E1000295C30211028397021DB87F80080E9E7000000000000F07F9BE80C00384604F0C0
:201E3000B5FD0D46074608F02BFB1C99095C04F8011B08F018FF0B4602462946384603F068
:201E5000C5FA074699E80C0006F0A6FEE4D11E980025007B2570412814BF702150210198C8
:201E70003246FFF76AFC1E988468B4F1FF3F06D10DF1090009F006FC441E1E9884600DF126
:201E9000090009F0FFFB1D99002C2144A1F1010110DD002905D48842C4BF01EB0D02527A58
:201EB00000DC302233685F1E641E3760A1F101011A70EED11E99086889682A4600F0080056
:201ED00001430DF1090018BF01221D993346FFF770FC1E98007B412814BF78215821306805
:201EF000421E3260017030683027411E316021B00770BDE8F08FC046000000000000F0FF2F
:201F10000000000000000000000000000000F03F0000000000002440B01700009C170000A4
:201F30002DE9F8430D460646317B14460F460846613F192F98BF20380027884208BF012781
:201F50001868C01D20F0070008301860A0F1080191E80003083803C808F063FF022879D05F
:201F70004946404608F05DFFC0A201283AD00CCA4946404606F010FE03D2012089F00049AC
:201F90002860307B413825D0001F1BD0401E11D0401E07D01A381DD0001F13D0401E09D09A
:201FB000401E71D14946404632462346FFF738FCBDE8F8834946404632462346FFF78FFDB9
:201FD000BDE8F8834946404632462346FFF7DAFDBDE8F8834946404632462346FFF75FFEA5
:201FF000BDE8F8830CCA4946404606F0D5FD16D3002F14BF462166212068421E2260002F8C
:20201000017014BF4E216E212068421E2260002F017014BF4920692003222B2115E0002F0A
:2020300014BF462166212068421E2260002F017014BF4E216E212068421E2260002F0170EA
:2020500014BF4920692004222D2123685E1E2660187014E0002F14BF4E216E212068421E46
:202070002260002F017014BF412161212068421E2260002F017014BF4E216E2102222068F0
:20209000431E236001702A60BDE8F88300000000000030402DE9FF479046044600220D46D0
:2020B00004F2FD1792460192202102976E68CDF800A04FF4FF7206F0B2FE029880F800A07A
:2020D0002A7BD146A6194346C84604F5FE70642A029010DC642A21D0B2F1250119D01C39E5
:2020F00022D0091F02291FD9133917D009391BD0891E1FD034E0A2F16500022814D9001F5B
:202110000CD0801F012809D9801F07D0C01E05D026E055A0018801202180A2E0284601A920
:2021300002AAFFF722FA1AE02846694602AAFFF7F7FE14E01968C91C21F00301091D196015
:2021500011F8043C494603B90121A0F1010C03702A68CDF808C0884622F002022A602A7B76
:20217000752A28D06F2A26D0782A24D0582A22D0702A20D0009B1BB15B1E1CD10120019016
:20219000019B286800F002091BB9800806D32B2000E02D2002994A1E02920870019850B9AA
:2021B000B9F1000F07D12868C00804D30298411E0291202303702868400808D202986968F0
:2021D0003A1A914203DBC01B37187F1C00E027460299384652464FF4FF73491C09F0DAF842
:2021F000B8F1000F029003D0411C029180F800A00298864207D3321A2021401E521C06F01F
:202210000EFE86F800A02868400921D3BC4224D03A1B2046302106F002FE287B78280FD0A1
:2022300058280DD070280BD0019859EA000002D12868C00811D33878207030263E700CE0A3
:202250002868000909D37878607030267E7004E03A1B2046202106F0E2FD204609F012FAD5
:2022700040440090BDE8FF872500C04600000000000000002DE9F04F0546ADF5FE7DADF189
:20229000300D0091949889902C6828689846164609F0F8F9014620468A96611800248142A6
:2022B000889140F26581A346CDF804B08DF810B0CDF808B04FF0FF3103910778252F08BF1C
:2022D0005B460ED0002F00F053812968491C296000788A99C04728680778641C252FF1D1B6
:2022F000019B29680098491C296011E043F010030AE043F0010307E043F0020304E043F08D
:20231000080301E043F0040301932968491C296029680A78B2F12001F4D0C91EEFD00839F2
:20233000EAD0891EE5D0C91EE0D02A2A1ED085A859460A2206F073FD2868017830290BDBF8
:2023500085AA3A2908DA0146401C2860097802F8011B01783029F4DA9DF8140218B185A8F6
:2023700007F0D6FE02900098296810E0C01C20F00300001D50F8041C0090002903D543F09F
:2023900001030193494202912968491C29600A782E2A33D12968491C296009782A2921D0D6
:2023B00085A859460A2206F03AFD2868017830290BDB85AA3A2908DA0146401C2860097880
:2023D00002F8011B01783029F4DA9DF81402002808BF584602D085A807F09AFE0246296898
:2023F000009809E02968C01C20F00300001D491C009050F8042C296003920A78019F4C3A7C
:202410001FD01C3A11D0121F21D12968491C29600A786C2A03D047F04007019717E029685B
:2024300047F48077491C2960F7E72968491C29600A78682A18BF47F02007EED147F4007755
:2024500001E047F0800701972968491C29602A68521C2A6009786E298DF8101054D09DF8B6
:202470001010732944D1039EC01C20F00300001D009050F804ACBAF1000F35D0DDF808901A
:20249000002E06D4504609F0FDF8B04288BF301C02D8504609F0F6F806464E45A8BF8146B7
:2024B0004C44B14509DD780807D2B9EB060704DD8A992020C0477F1EFAD1002E06DD374655
:2024D0001AF8010B8A99C0477F1EF9D10198B14549DD400847D3B9EB060744DD8A992020F1
:2024F000C0477F1EFAD13EE08A995846C0473AE005A801A96A46FFF7CDFD899B8A99024607
:2025100005A8984704192EE007F4EC67203F22D0E03F14D0B7F5807708D0C01C20F00300E8
:20253000001D009050F8040C04601CE0C01C20F00300001D009050F8040C047013E0C01CEF
:2025500020F00300001D009050F8040C2146E21780E8060007E0C01C20F00300001D009002
:2025700050F8040C04802868889981423FF69CAE7FB020460CB0BDE8F08F704700B5ADF1FD
:202590002C0D0691059001208DF81C0000208DF81D000DF11E0009F0A5F900208DF81E00CC
:2025B0004FF000400DF11E0107F092FEC04908604FF080400DF11E0107F08AFEA349086088
:2025D000BB48006809F007F9002100200091002101900020029100210390B54804910068A2
:2025F00066A30022002108F0BFFC994900200091002101900020029100210390AC48049197
:20261000006862A30022022108F0AEFC914900200091002101900020029100210390A448C6
:20263000049100685DA30022032108F09DFC002100200091002101900020029100210390CB
:202650009B480491006859A30022052108F08CFC002100200091002101900020029100216E
:20267000039093480491006854A30022062108F07BFC0021002000910021019000200291F9
:202690000021039071480491006850A30022002108F06AFC01210120009100210190002086
:2026B00002910021039069480491006849A30022002108F059FC0321012000916449019085
:2026D000002002910021039060480491006847A30022002108F048FC0421012000915D49F8
:2026F0000190002002910021039058480491006844A30022002108F037FC06210120009107
:202710000021019000200291002103904F480491006842A30022002108F026FC0721012071
:2027300000910021019000200291002103904748049100683FA30022002108F015FC5D4880
:202750000068002103224FF0FF3304F081FB5848006809F040F8002100200091002101901D
:20277000002002910021039038480491006817A30022002108F0F8FB6EE0C046434331333F
:2027900031302050455220544553540053656C6563743A202020257300C046C04E6176697B
:2027B000676174653A20257300C046C050757368206120627574746F6E00C046746F20705A
:2027D000726F636565642E2E2E00C0461B5B324A1B5B48001B5B25643B2564664343313324
:2027F0003130205045522054455354001B5B25643B25646653656C6563743A202020257346
:2028100000C046C01B5B25643B2564664E617669676174653A20257300C046C01B5B2564D3
:202830003B25646650757368206120627574746F6E00C0461B5B25643B256466746F2070DF
:20285000726F636565642E2E2E00C046641F0020DE250020E4250020002100200091002184
:2028700001900020029100210390114804910068B4A30022002108F077FBA748A5490078A1
:2028900000EBC000091800200091002101900020029100210390064804910068ACA30022D6
:2028B000012108F061FB9E489C490278500003E0281F002074E1000000EBC2000918002070
:2028D0000091002101900020029100210390964804910068A1A30022022108F045FB9148C9
:2028F0000168002000910021019000200291002103908D48049100689BA30022032108F047
:2029100033FBC948C449007800EB4000091800200091002101900020029100210390824803
:202930000491006893A30022042108F01DFB00210020009100210190002002910021039012
:202950007948049100688EA30022052108F00CFB9DF81C100020009100210190002002915A
:2029700000210390704804919DF81C10006887A3002208F0F9FA0121012000910021019060
:202990000020029100210390A9480491006880A30022002108F0E8FA0220012100905E4818
:2029B00001915C49007800EBC000091800200291002103909E48049100687AA300220021E2
:2029D00008F0D2FA0320012100905548019153490278500000EBC200091800200291002117
:2029F000039093480491006873A30022002108F0BBFA0420012100904A48019101680020D3
:202A10000291002103908A48049100686FA30022002108F0A9FA052001210090824801916D
:202A30007D49007800EB4000091800200291002103907F480491006869A30022002108F08A
:202A500093FA06210120009100210190002002910021039076480491006866A300220021E0
:202A700008F082FA9DF81C00401C0090012001909DF81C1000200291002103906C48049112
:202A9000006861A30022002108F06EFA69480068002103224FF0FF3304F0DAF90890089848
:202AB00040080BD39DF81C00401C8DF81C009DF81C00062802DB01208DF81C00089880088C
:202AD000FFF4CAAE87E314480078134A401C411000EB917121F00301401A1070BCE610485D
:202AF0000F4A0078401C00EBD07121F00101401A1070B1E69DF81D00401C00F003008DF863
:202B10001D004A4A9DF81D00064952F820000860A2E6C04644270020A8250020C425002012
:202B3000B0250020AC250020281F00203E483E4A0078401C00EBD07121F00101401A10703D
:202B50008AE6C0464D61696E204D656E7500C04620546573743A20257300C04620467265BA
:202B7000713A20257300C04620506B74733A20252D356400204D6F64653A20257300C04638
:202B90002053746172742E2E2E00C0463E00C0461B5B25643B2564664D61696E204D656E35
:202BB0007500C0461B5B25643B25646620546573743A20257300C0461B5B25643B25646680
:202BD00020467265713A20257300C0461B5B25643B25646620506B74733A20252D3564000F
:202BF0001B5B25643B256466204D6F64653A20257300C0461B5B25643B256466205374618E
:202C100072742E2E2E00C0461B5B25643B2564663E1B5B314100C046D82500209848007864
:202C3000002840F02F8107E0A9250020B4250020641F002074E10000B248006808F0CBFD94
:202C5000002100200091002101900020029100210390AC480491006885A30022002108F025
:202C700083F9B748B749B84A007800EBC00009180091B6491278500000EBC200091800202B
:202C9000019100210290002003919E4904900868A9A30022012108F067F900210020009186
:202CB000002101900020029100210390954804910068B2A30022022108F056F900210020EF
:202CD00000910021019000200291002103908D4804910068ADA30022032108F045F900217B
:202CF00000200091002101900020029100210390844804910068A9A30022042108F034F979
:202D10000021002000910021019000200291002103907C4804910068A74B0022062108F0C4
:202D300023F90021002000910021019000200291002103907348049100689CA3002207213B
:202D500008F012F9002100200091002101900020029100210390B24804910068974B00227A
:202D7000002108F001F9012101200091002101900020029100210390A94804910068BBA3F7
:202D90000022002108F0F0F80220012100906C486D4A01916B49007800EBC00009180291A4
:202DB0006A491278500000EBC2000918002003919B4904900868B3A30022002108F0D4F8AF
:202DD000032101200091002101900020029100210390934804910068AEA30022002108F090
:202DF000C3F80421012000910021019000200291002103908A4804910068ADA300220021B6
:202E100008F0B2F8052101200091002101900020029100210390824804910068AAA30022D9
:202E3000002108F0A1F8072101200091002101900020029100210390794804910068B14B23
:202E50000022002108F090F8082101200091002101900020029100210390714804910068F5
:202E7000A0A30022002108F07FF801F0D5F89BE1526563656976696E672E2E2E00C046C027
:202E9000A92500201F48006808F0A5FC002100200091002101900020029100210390194880
:202EB0000491006894A30022002108F05DF824482449254A007800EBC000091800912349B5
:202ED0001278500000EBC20009180020019100210290002003910B490490086816A30022EE
:202EF000012108F041F8002100200091002101900020029100210390024804910068C0A3DA
:202F1000002201E0281F0020032108F02DF80021002000910021019000200291002103900B
:202F30003F4804910068254B0022002108F01CF8012101200CE0C046257320257300C046B3
:202F5000A825002044270020B0250020C425002000910021019000200291002103903048C9
:202F700004910068AAA30022002107F0FDFF022001210090A148D34A019121E0506B7473B2
:202F9000206F6B3A202020252D35640052535349205B64426D5D3A6E2F6100C05045522077
:202FB000205B25255D3A20206E2F6100746F2061626F72742E00C046BC270000DC27000032
:202FD000BD49007800EBC00009180291BE491278500000EBC20009180020039110490490B4
:202FF000086828A30022002107F0BEFF04210120009100210190002002910021039008484F
:203010000491006887A30022002107F0ADFF00F037FB8DF824009DF82400002874D101E0C1
:20303000641F0020002100200091002101900020029100210390A5480491006880A30022C3
:20305000062107F091FF0721012000910021019000200291002103909848049100687BA3C4
:203070000022002107F080FF74E0C0461B5B25643B256466526563656976696E672E2E2EDE
:2030900000C046C01B5B25643B256466257320257300C0461B5B25643B2564665061636B33
:2030B000657473206F6B3A20252D356400C046C01B5B25643B25646652535349205B644224
:2030D0006D5D3A206E2F61001B5B25643B25646650455220205B25255D20203A206E2F61D4
:2030F00000C046C01B5B25643B256466746F2061626F72742E00C04653656E64696E672E8C
:203110002E2E00C02C2800009DF82400012821D10021002000910021019000200291002103
:2031300003906A48049100684DA30022062107F01BFF0721012000910021019000200291B4
:20315000002103905D480491006849A30022002107F00AFF00210020009100210190002036
:2031700002910021039059480491006846A30022072107F0F9FE08210120009100210190AC
:2031900000200291002103904C480491006843A30022002107F0E8FE4D48006800210322DE
:2031B0004FF0FF3303F054FE4848006808F013FB00210020009100210190002002910021F3
:2031D00003903E48049100683D4B0022002107F0CBFEFFF741BB9DF81C00401E3FF473ACEB
:2031F000401E3FF47CAC401E3FF484AC401E3FF49DAC401E3FF412ADFFF72EBBA82500204F
:20321000506B74732073656E743A20252D3564001B5B25643B25646653656E64696E672EBE
:203230002E2E00C01B5B25643B2564665061636B6574732073656E743A20252D356400C08F
:203250002E2E2E61626F727465642E001B5B25643B2564662E2E2E61626F727465642E0003
:203270002E2E2E66696E69736865642E00C046C01B5B25643B2564662E2E2E66696E6973AA
:203290006865642E00C046C050757368206120627574746F6E2E2E2E00C046C01B5B2564CD
:2032B0003B25646650757368206120627574746F6E2E2E2E00C046C044270020641F002079
:2032D000DC270000B0250020C4250020281F002074E10000CB4A2DE9F04F0127ADF1140DD0
:2032F0000490D94817600668002EFCD0D74844380290C0210160D748011D0968890805D2A5
:203310000168D34B090C41F0F00119700021001F1163D14ED14CD0F80CA001905FEA9A601E
:2033300013D25FEA5A6010D3802086F81B024FF6D801A6F85C1286F80B0205F057FEA14691
:20335000D9F8D000C0F3042004E0A146D9F80000C0F3046008F02AFA00EB2A70401C1628F7
:2033700005DA10F10A0FB8BF6FF0090000E01520BB4900F01F004FEADA6540F4F8504FEA10
:203390009A64A6F8640285F0010000F00100086084F0010000F001008860504606F012F868
:2033B00000220446154608F023FA00B93D462A46AC4D2B68002BFCD0DFF8B08208F10808E0
:2033D000C8F810402F600AB108F018FA07F03CFFA549496880B24C680090A44840F2FF32E3
:2033F00000232C21A04708F07BF9044608F000FA4FF0000B00B9BB462B68002BFCD0C8F870
:203410001440BBF1000F2F6001D008F0F7F907F00DFF044608F0ECF94FF0000B00B9BB4617
:203430002B68002BFCD0C8F80C40BBF1000F2F6001D008F0E3F907F0F7FF044608F0D8F9F7
:203450004FF0000B00B9BB462B68002BFCD0C8F80840BBF1000F2F6001D008F0CFF904984F
:2034700005F07CFF044608F0C3F94FF0000B00B9BB462B68002BFCD0C8F80440BBF1000F81
:203490002F6001D008F0BAF90499084607F0B4FF764C4000403440F0200084F809010846E2
:2034B00007F0B6FF40F0100084F80901084607F00FFE039008F09CF94FF0000B00B9BB4614
:2034D0002B68002BFCD00398C8F82000BBF1000F2F6001D008F092F90499084607F0B0FFA8
:2034F000400040F0600084F80C01084607F0B4FFC00040F0800084F80101084607F0B8FF81
:20351000800040F47C40A4F89C01084607F0C8FC039008F06DF94FF0000B00B9BB462B6861
:20353000002BFCD00398C8F80000BBF1000F2F6001D008F063F94FF48000CAF381452060F4
:20355000681E02D0401E28D024E0D9F8D400810C20D24FF480412160D6F80210420AC0F321
:20357000033502F0800221F08F010A4345EA0201C6F80210D6F80120031263F30302C6F882
:203590000120316800F0E70521F0E70145EA0100306002E04FF0004020604FF400702064B4
:2035B00008F096F840F0300084F8C800CAF3815050B3401E03D0401E1FD002211EE0384623
:2035D00007F080FB05460420294606F029F8042007F078FB8542FAD10198056825F07F407A
:2035F00007F082FA20484069036807214FF06022280E98474FF4806020600321042006F0ED
:203610000FF808E0101009400420394606F008F8174807F069FAD9F8B4001649164D47F66C
:20363000180600F03F0084F8CB0F0F4B0E8028681868C16802208847402102980F4C01600E
:2036500005B02760BDE8F08F9402224344600C4056620840AC3F00500A600840B812005008
:203670000000204300800C40A001001000A00C40BD37860070B00C402C20094094046042B9
:20369000D0B5ADF1280D03A808F03AF8AA491E200870AB48A9490860AA48AA49007820F08A
:2036B0000F0040F002000870A649087840F080000870A549002008607D20A5490090A3482E
:2036D0008822012304F002F800B1FEE79F48A1490860A148A049007820F00F0040F00200B4
:2036F00008709D49087840F0800008709B490020086097489A490860994800681E21C18055
:20371000974898490068083008604AE0984897490378954A580000EBC300085A10809648B7
:203730009649974A03AB04F07DFA924908609648944908603FE08E488C490378934A5800C0
:2037500000EBC300085A10808B489149914A03AB04F068FA874908608F488A4908602AE0D9
:203770008348824903788D4A580000EBC300085A108081488A498B4A03AB04F053FA7D4933
:20379000086089487F49086015E07B488749884A03AB04F047FA774908607B48794908605E
:2037B00009E0844800780028B0D0401EC3D0401ED6D0401EE9D06E480178480000EBC100F5
:2037D0006A49085A7C49088069480178480000EBC1007B49085A79490880002000218DE833
:2037F00003006448774900680122002302F05EF806F032F8029089E073485149594A0088B9
:203810005FFA90F00870116808706F4A6F4B554C1088411C1180C0B218702168487002205F
:203830008DF818009DF818001E2814DA06F0C7FC4C4C9DF81810424BC0B29DF81820585474
:20385000216850549DF81800401C8DF818009DF818001E28EADB4B4802990068401802904D
:203870003949029808603D49029808602FE0002000218DE803003F48554900680122002391
:2038900006F092FD08AA82E8030008A890E8C000002F00D1022E1FD0FEE7002000218DE8D2
:2038B000030034484B4900680122002306F07CFD08AA82E8030008A890E80C000221002032
:2038D00011401840002800D1002905D1FEE739480078C01ECBD0E0E73F48006805F020FA1B
:2038F0003E48006800210322002303F0B1FA10F0030F0BD0384900200860334900200880A9
:203910001C48006803F0C0F8002013E0324A344910680968401C81421060BFF46DAF2E4956
:20393000002008602849002008801248006803F0ABF801200AB0D0BD172200201C2200205F
:20395000D41D00201422002010220020001F0020C01A0020302200202C220020282200201B
:203970001C1F0020401F0020A4260020CA250020B0250020581F0020301A002080210020AD
:2039900084260020481F0020400D0300CC26002090210020AC260020009F2400F4260020A4
:2039B000A0210020D4260020801A0600B0210020D8210020A8250020FE21002000220020E4
:2039D000CC250020F0210020681F0020D51D002020220020082200209C27002074E10000F8
:2039F000AC2500202DE9F04F09AFADF13C0D00900292388801911E46ADF83400101C08BF2C
:203A1000002000F0828100274FF0010B00F10109B846DA466BE1252940F062811078521C55
:203A300002922D2818BFADF8228004D11078ADF822B0521C029230281CBF4246434605D17F
:203A5000114608785B465A46491C02912A284FF0FF3516D128460B93346809900299CDF8F9
:203A70001C80E01C4B1C20F00300001D306050F8044C08780293002C44BFADF822A064428E
:203A900012E0444609E0610001EBC40140180299A0F130040878491C0291302801DB3A28D9
:203AB000F1DB0B93294609912E282BD10299087843462A2801F10101029111D1099330689E
:203AD0000794C01C20F00300001D306050F8045C002D48BF454608780995491C029112E030
:203AF00045460AE0690001EBC50140180299A0F1300508782B46491C0291302801DB3A28EE
:203B1000F0DB099307940AB122460B926C2804D04C2818BFADF8208005D102990878ADF845
:203B300020A0491C029103A9CDF8288007AB0E9164280C9300F08B80692800F08880BDF8EF
:203B500034C0752872D078286ED06F286AD0702850D063283DD073281ED00198029901289D
:203B7000A1F10101029115D96B490C68B5F1FF3F03D0A84288BF6D1C00D8019D09956846C5
:203B900002A9324607ABA047C71902990A9801F1010974E040462AE030680299C01C20F03D
:203BB0000300001D306050F8040CBCF1000F01F10109014608B956A001460E9107F062FDFB
:203BD0000A90B5F1FF3F5BD0A842C4BF281C0A9056E03068C01C20F00300001D306010F86F
:203BF000040C5D468DF80C0002990A95584601F1010945E0082035680B90E81C20F0030001
:203C1000001D306050F8041C0822102307A805F095FA401E0E904021017002990E9801F1EE
:203C3000010929E0082302E0102300E00A230299306801F10109C01C20F00300001D306049
:203C500050F8041CAA42BCBF2A1C0B9210E00299306801F10109C01C20F00300001D3060E7
:203C700050F8041CAA42BCBF2A1C0B926FF0090307A805F063FA0E900C9D281A0A90079C50
:203C9000BDF82250241A65B906E06846202101AA07F0DCF8079C7F1C641E0794F5D50A987F
:203CB00000E007940546401E0A9075B9BDF82200E8B10798401E079019D46846202101AA7D
:203CD00007F0C4F807987F1CF4E70E98411C0E91017801AA684607F0B9F80A987F1CE1E7EB
:203CF000684601AA07F0B2F87F1C09F101094A46029812F8011C401C002902907FF48BAE07
:203D1000009808B14146017038460FB0BDE8F08F286E756C6C2900C0A0E100002DE9FF4740
:203D3000DFF8A4A2DFF8B4920F460546F80B80F01381B80880F0A980DFF868829B4A9E4EA7
:203D5000B80F57D296480578380913D2B80BC0F01F814846001D07F0E3FD0446606830B15A
:203D7000E068B4F910106468A3A20CCAA04727F400570DE140460024047015B1204607F0AF
:203D9000E7F9894807F02EFD89491046224607F0BEFD884D286828B307F04CFC3368884913
:203DB0002D68864E0A68C01A000B82183060B2EBC51F16D3834B0C60214640F60905187B27
:203DD0005A7B5C808B4E596000F0F0001D8002F0F002187342F001025A73A6F11C010B6083
:203DF00005E00A6050464FF0005107F0E9FB27F00807CDE075491046002207F088FDE8688E
:203E100040F6C411814213D1042006F05BFF78B1306868B16E4C206850B907F00BFC3168B0
:203E3000411A090BE960E968206001F58D71E960684C694D207850B10220ADF80000684634
:203E500007F056F900212170BDF808002880484607F066FD18B909352878400812D307F03A
:203E700035FE604D5E4B0024012102464046017019782C701046491C197007F023FE192062
:203E900007F05EFC27F0005782E04D4605F10C08404607F045FD061C55D006F041FD73683F
:203EB000326A00243462C3B196F8240042F002020023401E07D0401E03D0801E06D150A052
:203ED00002E051A000E052A090E80C007168B6F910E0F0688C467146E047B5F91200401C0D
:203EF0006FF31F30688296F8240000F0F80086F82400404607F0F8FAF068B6F91020B0F98C
:203F10008C1091421FD13849097801291BD090F88E509DB905688DB1344909680968B1F1B3
:203F3000FF3F10D0324909686830B5FBF1F107F0C5FDF068683007F0BDFD04E080F88E40B9
:203F5000204605F0D9FA404607F0EAFC27F0020708B147F002071BE007F0B8FD014648462B
:203F7000083007F0DDFC05462C6A084607F0AAFDA0080BD26868296AA143296230B16E684E
:203F9000E868B5F9101000232246B04727F480471FB15046394607F013FB0090BDE8FF87EA
:203FB000701F00206A1F0020158300004C1E0020E9AF0000241F00202C1F0020341F00209E
:203FD000101F0020981E0020E41C0020415A0000301F00206F1F0020881D0020841E00204D
:203FF000711F00206B1F0020EA250020381F002088E100001C1004400000000020000000B8
:2040100000000000000000100000000000000040000000000000002010B5ADF1200D02A8E6
:2040300007F06EFB7F2000908C498B484FF48A72022303F04BFB00B1FEE7874889490860FD
:20405000874908608849894808608A48884908608A497D20088088490870894A8949894B49
:2040700010780978012440F00800107064F3410119708449824A834B10780978012440F063
:204090001000107064F38201197080497E4A7F4B10780978012440F00100107064F341014A
:2040B00019707A49087840F0010008703EE07A4878490378764A580000EBC300085A1080A7
:2040D00077487849784A02AB03F0ACFD7349086036E071486F490378744A580000EBC3005B
:2040F000085A10806E487249724A02AB03F09AFD6A49086024E06848664903786E4A580051
:2041100000EBC300085A108065486C496C4A02AB03F088FD6149086012E0614869496A4A9F
:2041300002AB03F07FFD5D49086009E0674800780028BCD0401ECCD0401EDCD0401EECD063
:2041500055480178480000EBC1005249085A6049088051480178480000EBC1005E49085A08
:204170005C490880002000218DE803004B485B4900680122002306F017F929E04FF4000012
:2041900000218DE80300584B444856490068012201F08CFB52490880344854490860554864
:2041B0005349086019E04FF4000000218DE803004D4B3A4850490068012201F077FB4849E4
:2041D00008802C48494908604C484949086004E03E480078C01ED1D0E5E744480068002109
:2041F000018043480068002101704548007858B14349002008703D483D490068096800880B
:2042100091F9001000F0F6FF3E48006800210322002302F01DFE10F0030FE6D03048B0F9C2
:2042300000101E480068002200F008FD2C48B0F900101A4800684FF40002002303F050FDDA
:2042500006AA82E803001548006802F01DFC0020FFE708B010BDC046F81E002098160020CC
:20427000182700203C27002040270020E01E00201C270020EC1E002010270020302700204C
:204290002E2700200A2700202F2700200B270020A4260020CA250020B0250020541F0020FF
:2042B000A01900208021002084260020CC26002090210020AC260020F4260020A02100209A
:2042D000D4260020B0210020D8210020A8250020FE21002000220020CC250020F0210020FA
:2042F0009A2700202027002065A50000181F00205C1F0020E71E0020FC260020F31E0020D2
:204310009827002074E100002DE9F04FADF1540DDDF878C008901F9FCDF830C086460D977D
:20433000BEE8000FEC46ACE8000F9EE800438CE800430B9380690A920778099137F07F077A
:204350000ED0C26887680F9201791097467911912E29129602DC31462E290ADA007909E042
:2043700020277E261197D0F8C4101296001D10900F912E20139029E1119ABDF90810BA4289
:204390004FEA420002DC129ABA4203DA139AC0EB420003E0119A7800A0EB4200109A099E71
:2043B0000F9F105A721C38180E900B9E0992401C047807903019814200F3058100250226D4
:2043D000AA462F460E9890F80090B14540F3FB80BDF90E00B842C0F2F6800698007810F00A
:2043F0007F0F18D00E98835D7BB98019407830F07F0305D14FEAC008B61C4FF0000B87E030
:204410004006B61C4FEA905B89E04FEA231803F00F0B761C7CE04FF0000802E0761C4FF07E
:20443000000AB1450EDD0E98805D00FA0AF006F0A4FF0828C8BFCAF1080082448044BAF1C2
:20445000080FEBD04FF0000B02E0761C4FF0000AB1455DDD0E98805D00FA0AF0C04306F0D3
:204470008CFF0828C8BFCAF1080082448344BAF1080FEAD04CE0B8F1020F22DB681C8442F1
:204490001FDDBDF90A0008EB05018C42B4BFA4EB0509C146B84210DC0D9B73B108980B997C
:2044B0000C9B4069691809EB0102FB180490521E684605F0B9FD07980478A8EB09084D4464
:2044D00022E00B99BDF908006A18904219DCBDF90C00904215DBBDF90A00B84211DC0D9B4C
:2044F0007BB1089B58689C8AC1680C9B09680FFA82FEFB188C461AB271462346E047079896
:204510000478A8F101086D1CAC4204BF7F1C0025B8F1000F03D0BDF90E00B842ABDABBF1F9
:20453000000F3FF44FAFBDF90E00B842FFF64AAFBBF1020F20DB681C84421DDDBDF90A00C3
:204550000BEB05018C42B4BFA4EB0508D846B8420EDC08980B990C9B0069691808EB0102A5
:20457000FB180490521E684605F05EFD07980478ABEB080B454421E00B99BDF908006A18E4
:20459000904218DCBDF90C00904214DBBDF90A00B84210DC089B5868C168DDF830C009685A
:2045B0001B8A0FFA82FE07EB0C0422B28C467146E04707980478ABF1010B6D1CAC4204BF3A
:2045D0007F1C0025ABE70B9824180B94099807785FB10A98401EB0F1FF3F0A9005D0BDF9C7
:2045F0000C000B998842BFF6C7AE15B0BDE8F08F2DE9F84F82468548DFF8049235380068EA
:20461000800880F0ED8006F037FC064683480830D0F8008000254FEA2874641C5FEA9850BA
:204630000AD2C6F13E0016F10A0F4FEAE000D8BF08208442B8BF041C6E485FEA98610FD26B
:204650005FEA58610CD38346DBF80000C0F3042007F0ACF80746DBF80000C0F304600CE038
:2046700083465BF8D00CC0F3046007F09FF80746ABF513700068C0F3044007F097F8E71938
:204690008346162F05DA17F10A0FB8BF6FF0090700E01527584A594807F01F0141F4F85122
:2046B0001180006810F0030F18BF0125C00828BF45F00205BAF1000F18BF45F00405494699
:2046D00091F90700301A052804DA8879A84208BF888864D0DFF82CC10F2EA6F10F0225DB45
:2046F00002EB02124FEA222EBEF1070F88BF4FF0070E7446062C88BF06245CF824000423C4
:2047100003EB84036446E3581B1A03F0FF04E80824BFC3F307200444A80824BFC3F307407C
:204730000444680828BF04EB136401E00024A6465CF82EC0E8080CF0FF0324BFCCF307207A
:204750000344A80824BFCCF307400344680828BF03EB1C63A2EB0E22A4B25443BBEB070007
:2047700004F1800403EB1423D8BF012008F0FF07342242437A43B2FBF3F04FF6FF72824233
:2047900038BF101C802E80B2888005DA16F1800FB8BF6FF07F0600E07F26CE718D711A4A08
:2047B00012681F280A604FF0000208D340F2FF11814206D24008521C8142FBD301E01F205E
:2047D0008880134F11490F38000942EAC00247EA0200C1F8FB0F0026C1F8FF6FBDE8F88F58
:2047F0000D4F0C4E494608203760891D0870BDE8F88FC046881300506E62084024220840C4
:20481000081F00209C130050082009403500094000E7A48030100940FDFDA400AC3F0050E6
:204830002DE9F04F0128ADF1140D40F0F280DFF81492D9F8DC00012840F0E9800220C9F8BA
:20485000DC0007F033F90290012005F0F5FD20B101210646C9F8DC10D5E007F023F9039068
:204870006E484FF00008C0F80080012006F02AFA012818BFCDF8008004D1404605F0B4FA75
:204890000120009066486E4CC0F800801934D4F8FF0F112006F0C4FF00280CBF4646012600
:2048B000102006F0BDFF08B146F002060F2006F0B7FF08B146F004060B2006F0B1FF30B189
:2048D000584800685849006B0246088890470A2006F0A6FF0028404618BF01204FF0805B80
:2048F0000BF5DC7528B128685049006B0246088890474F480127076028688069014646F01F
:20491000200088474B48076006F084FF00F001010191400815D2484806F03AFF8246BAF140
:20493000040FF8D0BAF1010F06D1DBF8D801406802464148032190474049086820F00300CE
:2049500008604046FFF754FE2868D4F8FF1F806B8047019801280ED0BAF1010F06D1DBF8E0
:20497000D801406802463448394690473349086840F0030008602A480760286840690146AC
:20499000304688470B2006F04BFF28B128682649C06A0246088890470A2006F041FF28B16D
:2049B00028682249C06A024608889047204807600322C9F8DC201F4BC3F800802868406B82
:2049D0000146304688470128F8D1042005F034FD124807601A48D4F8FF1F01688909FCD328
:2049F0000098012802D1384605F0FEF906F006FF082005F021FD06460398C9F8DC7007F088
:204A10004DF804F057FF029807F044F802E0042600E00126304605B0BDE8F08F0C40094033
:204A300000022243B801001066DE000062DE00002820086080010443004003402422084029
:204A500014100940781F00202DE9F0411C4615468C4208BF854282BF00230022E5E0002C4B
:204A700008BF002D0AD100290EBF00286FF000006FF0000100F0E1F8BDE8F0815FF0000844
:204A90005FF0000E002C08BF8D429CBF2C1C0025070C47EA01470E0CB44208BFBD429EBF60
:204AB0005FEA044444EA15445FEA0545070A47EA01670E0AB44208BFBD429EBF5FEA0424EF
:204AD00044EA15645FEA0525470847EAC1774E08B44208BFBD4200F29380870847EA817725
:204AF0008E08B44208BFBD427CD8C70847EA4177CE08B44208BFBD4266D8070947EA0177BF
:204B10000E09B44208BFBD4250D8470947EAC1674E09B44208BFBD423AD8870947EA816713
:204B30008E09B44208BFBD4224D8C70947EA4167CE09B44208BFBD420DD8E60146EA556623
:204B5000EF01B14208BFB84201D3C01BB14158EB08085EEB0E0EA60146EA95664FEA8517A1
:204B7000B14208BFB84201D3C01BB14158EB08084EEB0E0E660146EAD5666F01B14208BF2C
:204B9000B84201D3C01BB14158EB08084EEB0E0E260146EA15762F01B14208BFB84201D328
:204BB000C01BB14158EB08085EEB0E0EE60046EA5576EF00B14208BFB84201D3C01BB1413B
:204BD00058EB08084EEB0E0EA60046EA9576AF00B14208BFB84201D3C01BB14158EB0808E5
:204BF0004EEB0E0E660046EAD5766F00B14208BFB84201D3C01BB14158EB08085EEB0E0EF3
:204C1000A14208BFA84201D3401BA14158EB08085EEB0E0EA34208BFAA423EBF2D0A45EA2C
:204C30000465240A89D3734642461E4617460B46024631463846BDE8F08170472DE9F84FB7
:204C5000764C204606F06CFE15460E46009006F03DFF05F0010780463046B0F1FF3F0DD155
:204C7000606820B9B4F91200401C00B202E06068B0F910006A49002209310A70694E626849
:204C9000811000EB517121F00701083E401AC10001EB40117618B2427CD00098DFF860B1C1
:204CB000864248D000284FF003073ED04FF00009CA46006886421FD1584606F069FA00987E
:204CD0000168C0F800A00091404606F0FBFEA8080FD2009991F8240040F0040081F8240055
:204CF000684606F001FC014604F10C0006F016F801E04FF001098327B9F1010F03D00098BE
:204D1000006800900EE0009991F8240040F0040081F82400684606F0E7FB014604F10C00B8
:204D300005F0FCFF00980028C3D1832F23D0404606F0C8FE1FE0584606F02AFAA8083ABFD8
:204D50002068006800202060404606F0BBFE0C34009991F8240040F0040081F82400684679
:204D700006F0C2FB0146204605F0D8FF009808B1A808EDD28327234806F034FD224802216E
:204D900006F01EFC21480078012836D0204806F029FD32E0A80803D3206800900023236009
:204DB00096F824100120B840084386F8240006F079FE002F064614BF1648174806F098F91C
:204DD000404606F07FFEA80813D3009888B10C34014691F8240040F0040081F824006846B0
:204DF00006F082FB0146204605F098FF00980028EED1304606F052FE83273846BDE8F88F68
:204E10004C1D00202D3D0000E41C00206A1F0020357900000100020401000104841E002049
:204E3000881D0020601500202DE9F843814606F0DFFC002100B90121724E30680028FCD0D7
:204E5000734D01242D1DEF6A346009B106F0D6FCDFF8B481C7F3072008F1BC01086006F0A3
:204E7000C7FC002100B9214630680028FCD02F68346009B106F0C2FCC7F38440C8F8C000FB
:204E900006F0B6FC0146002001B92046014630680028FCD0ED69346009B106F0AFFCC5F303
:204EB0008120C8F8D000B9F5C061C8F8B81000F0A48098F8D80068B9C8F8D410D8F8C00089
:204ED000C8F8C800D8F8BC70C8F8C470D8F8D060C8F8CC60D8F8D410D8F8BC60002954BF82
:204EF00002206FF00100454605F1C8031A6801EB41014018411000EB917002EBA0021A6086
:204F1000D5F8C810C5F8C46000291CDD1E293DDDD5F8CC0030B93429B4BF15391E21C5F8DC
:204F3000C81025E02A29BABFD5F8C8000B381E20C5F8C800D5F8C4003F28B4BF401C3F20F7
:204F5000C5F8C4001FE0D5F8CC00032812D011F10B0FC6BFD5F8C8000B30201CC5F8C800E9
:204F7000D5F8C4000028CCBF401E0020C5F8C400032009E011F1150FC6BFD5F8C80015304D
:204F9000201CC5F8C8000020C5F8CC004FF08058D8F8A401B5F8C4101C4E40684FF47F4274
:204FB00008230746009130463021B847D8F8A401406804214FF400321123074600943046D0
:204FD000B847D8F8A401B5F8C81040684FF4F80212230446009130460421A047D8F8A401DC
:204FF000B5F8CC1040684FF440620A230446009120213046A047BDE8F883002088F8D8004D
:20501000BDE8F88300800C40781F002000A00C4000A00C402DE9F04F8346ADF1840D01F0C7
:20503000F5F805F031F90026012804D106F0CCF9022808BF01265F490868C0F38150012898
:2050500005D151F80C1C0120090E884006435A495A485B4C09780068C0F34600206005F06D
:2050700013F9A046012809D106F0AEF9022805D1D8F80000401CC8F8000001E0D8F80000F1
:20509000DFF840A130B15246FF2107467F1E02F8011BFBD1DBF80020002702F0FF01FE29B0
:2050B00019D094465146DE463B4601250CF0FF02904203D905FA02F4264201D0022076E06A
:2050D0000CF0FF025EF804CF8B5427435B1C0CF0FF02FE2AECD1092002F090FA42480021A8
:2050F00024220823C0F800B001A806F0CFFC4FF0010901AA3D488DF81C90494606F0C2FC70
:20511000D8F8003023B33A4C0025AA4609FA05F0064217D1074204BF05F0FF0141F4C041AF
:2051300003D02848405D5BF82010274802F0F2FEE8B24FF0FF3106F095F8D8F80030C4F863
:2051500000A001E0042020606D1C241D9D42DDD30AA800213022082306F090FC1B4D1D4A20
:205170002878002410210AAB12901948009406F081FC16A828220823214606F077FC686898
:2051900016AA16491C9014481D94234606F06AFC134A52F80D0C494620F4F85040F4005033
:2051B00042F80D0C0F4BC2F8FF1F2046196021B0BDE8F08FB43F00506E1F002080120840BC
:2051D0009C190020941D0020007FC76778E10000141E002091B20000B01C002071A300007E
:2051F0000D30094008000940441F0020301E0020C81B002010B5ADF1280D8DF818100590FA
:20521000062200210DF1190003F009FE6C490598096888421ED86A4805990068401A05F09A
:20523000EDFE664903F0BAFD04466548006805F0E5FE0146204603F0C3FA0990099805F057
:205250001BFB43A28DE803000DF11900052103F0D9F911E06E208DF819002F208DF81A00BE
:2052700061208DF81B0020208DF81C0020208DF81D0000208DF81E00059900200091002107
:20529000019000200291002103904E480491006831A30B22022105F067FE9DF91810002017
:2052B00000910021019000200291002103904548049100682AA30B22032105F055FE0DF146
:2052D0001901002000910021019000200291002103903C480491006823A30B22042105F04C
:2052F00043FE0320009001200190059900200291002103903448049100681CA30022002178
:2053100005F032FE04200090012001909DF9181000200291002103902B48049100681AA3A0
:205330000022002105F020FE0521012000910DF11901019000200291002103902248049120
:20535000006818A30022002105F00EFE0AB010BD252E326600C046C0252D356400C046C0ED
:20537000252D356900C046C0257300C01B5B25643B2564665061636B657473206F6B3A20C7
:20539000252D356400C046C01B5B25643B25646652535349205B64426D5D3A20252D3569AD
:2053B00000C046C01B5B25643B25646650455220205B25255D20203A202573000000C84289
:2053D000AC250020281F0020641F00202DE9FC4F83F0004301E02DE9FC4F1F03FF0847EA0F
:2053F000D2574FEA42284FEA43095FEA595906D147EA080A1CBF00210020BDE8FC8F57F0A4
:2054100000575FF4E06E1EF1FF0EF14505D14FF00000190D0905BDE8FC8F002B05D55FF065
:20543000000AD8F100086AEB07070C03E40844EAD0544FEA40254FEA4106760D08D144EA29
:20545000050A19BF00210020191C101CBDE8FC8F44F00054764504D10020090D0905BDE882
:20547000FC8F002904D55FF0000A6D426AEB0404B6EB090E08D5A2463C465746AA46454613
:20549000D046CEF1000E4E46BEF1360F5CBF4FF0000B23E0BEF1000F04BF4FF0000B1AE064
:2054B000CEF1390ABAF120092EBF08FA09FB07FA0AFB4BEA080BDEF1200A07FA0AFA38BFD0
:2054D000BA4647FA0EF72DBF28FA0EF8AEF1200E4AFA0EF8D04415EB08057C4154EA050A20
:2054F00002BF00210020BDE8FC8F002C58BF4FF0000A06D55FF0010A5FF0000E6D426EEB44
:205510000404A6F101066D006441FAD515F4806E11D005F480794BEA090B15F5806554F1AD
:20553000000428BF761C0BD205F400795BEA090B08BF25F4006525F4E0656D0044EB0404EF
:20555000B61CDEBF00210020BDE8FC8F5FF4E06E1EF1FF0E76450AD34FF0000013F0004381
:20557000FF21C900C91D09051943BDE8FC8F270547EA1530210B41EA065141EACA71BDE857
:20559000FC8F70472DE9FC41634C5C4D5C4EDFF87881604F94F8E410481E0B2800F2AC80AE
:2055B000DFE800F07C2C43062343062343067765042907D001220A2945F8212C14BF0220A6
:2055D000032004E02021012045F8211C024684F8E200002045F8390C0827C5F8FF7FC5F869
:2055F000F37F45F8392CBDE8FC81052914BF09200620002584F8E400356079E094F8E170C5
:205610000120383D002FC5F81B0004BF0620002102D00021F160032084F8E400032045F8AC
:20563000010C31603068800862D294F8E4103548012503290FD0006840680021602205235F
:20565000074600914046B84794F8E400062814BF0A200720CEE70068406802216022052383
:205670000746009140460021B8470420C2E72749002627480E60012505600E2001F082FE2C
:20569000022005F0E9F984F8E45084F8E360BDE8FC81002038600C25786027E04FF0805693
:2056B000D6F8A00100680146202088472C3D0F2045F8010C41F61D53C5F80330D6F8A401C1
:2056D000406800214FF4C07202250723844640460095E047D6F8A401C06800214FF4C072EE
:2056F000072306464046B0470120386084F8E45004F1780006F0DEF9BDE8FC8139400C401D
:2057100038600C40A401001000A00C402C500C4004800C4034600C40781F00202DE9F0437C
:205730008046D8F80460D8F808700C46ADF1340D06F0CCF93178012903D106F0C3F90020B2
:20575000A3E04FF0010986F8009006F0BBF9207870706078B07060687060A068B060E0684D
:20577000F06020693061207D3075607D7075A07DB075A069B061207F3077607F002570771E
:20579000A07F35623563102186F83C10B0772C4674627463B462B46386F82C4086F82D4068
:2057B00086F83D40786801F029FF404601F0F4FF404603F097F878B935480068C0680146EE
:2057D00038688847786801F0DDFD06F07FF9347006F078F9A04657E001A82146302208237C
:2057F00006F04CF9CDF818803A7B09920095294AB96806F1680001AB06F03CF901A828225F
:205810000823214606F032F9396907912249CDF8148006F1840001AA234606F023F901A87D
:2058300024220823214606F031F9B0788DF81C9038B906F1B800214601AA06F023F91748E4
:205850003061707838B906F1D400214601AA06F019F91348F06001A821462422082306F0C7
:20587000FDF80694ADF8144006F1F0000D49CDF81C800A2201AB06F0EDF80B4A06F154009F
:205890000421434605F020FB40460DB0BDE8F083D0010010756D0000D5A00000D9B8000016
:2058B000D1B80000A986000061B700002DE9FC471E4692460C46814606F008F9554D0AAF08
:2058D000B5F91220B5F910100094891A8A1001EB527222F00702891AB8BF494240F6F87229
:2058F0000A40082A06DAB5F91220B5F91010891A082905D106F0E6F86FF00100BDE8FC8788
:20591000B5F91010491C6FF31F312982B5F9108006F0D8F83A4C4046811000EB517121F088
:205930000701401AC10001EB401109F16800641805F02EFC84F812A06660C4F80C90A4F812
:2059500010800098A06097E80C0037A696E803000026104084F824602A6804F118071940B1
:2059700087E8030032B12846214605F0D7F9A9F88C8042E02846214605F0D0F9A9F88C8019
:20599000686889F88E60002837D123480078002830D106F09BF81B4A1168814601204908DC
:2059B00002D2116DC90800D308BBA06804F046FA164B1A4A14491B681268086038B94846DC
:2059D00006F080F81648042105F0FAFD15E0D06809680F4C091AB1FBF3F1204606F06EF86C
:2059F000204606F067F8484606F06CF805E00D490870F8E7192005F0A3FE4046BDE8FC87E5
:205A1000581500202C210840241F002088E100004C1D0020841E00206A1F0020381F00201D
:205A3000E41C00206B1F0020F1EFFF9F200000002DE9F04105F034FD514D044695F82100EB
:205A5000400820D3286805F053FB95F8211000F0FF00012801F0FE0185F8211013D0286841
:205A700090F9020005EB800151F80C2C95F821706A6147F0020185F8211004F0DFF8414874
:205A9000002105F09DFD414D3F4EDFF80481A00820D330464168E9B1002242600B6A8A694F
:205AB0008F6922401A4342F0020205F108030A621A68BA4301F118071A6097E80C002A6855
:205AD0000C301B1C9A432A6005F028F94046022105F076FD7068A10815D200F1180191E8CA
:205AF0000C00002702EA04013B40002B08BF002909D0016A1440B0600C4304624FF480417B
:205B1000404605F05DFD7068002837D1304605F007FF071C32D01F48F9680068884228D10F
:205B3000B86804F08BF91C490860E8B905F10801B8690A68104308602B6807F1180494E8DF
:205B50000300081C1843286000222A61B86845F80C0C05F1100000680028FAD0304605F03E
:205B7000C3FC7760BDE8F081086803F0C5FCBDE8F08140464FF4805105F022FDBDE8F0816B
:205B9000701D0020181D0020841E00200C100440E41C0020381F0020241F0020B0B54568C5
:205BB00084685148297BADF1180D01291AD001462F7E227E637E4D4837F0010741EA02026D
:205BD00040EA030001904A48009218BF011CA27E1143029195F88D200323FF2A13D0014625
:205BF00010460DE0A17E627E237E41F00041024343F00043029195F88D0000933D4901922C
:205C1000014304230391FE2105F190004DF82310694602F0ADFCC5F89C00002808BF0020A6
:205C30005FD0287B344951F8200001282BD02068B0F1804F14BF22220A22217ED5F89C0035
:205C500005F056F82068B0F1804F14BF21220922617ED5F89C0005F04BF82068B0F1804F40
:205C700014BF24220C22A17ED5F89C0005F040F895F88D10FF2933D02068B0F1804F14BFF8
:205C900023220B2228E02068B0F1804F14BF21220922217ED5F89C0005F02AF82068B0F1F9
:205CB000804F14BF22220A22617ED5F89C0005F01FF82068B0F1804F14BF24220C22A17E10
:205CD000D5F89C0005F014F82068B0F1804F14BF23220B2295F88D10D5F89C0005F008F885
:205CF000012006B0B0BDC046000480A0004000800004C0A00020008000DE0000ADF1300DA9
:205D1000504800905048019039200A90009850F8041B00900291009850F8041B03910090EA
:205D3000009850F8041B04910090009850F8041B05910090009850F8041B0691009000984C
:205D500050F8041B07910090009850F8041B08910090009850F8041B099100900198011D9C
:205D70000191029901600198011D0191039901600198011D0191049901600198011D0191AF
:205D9000059901600198011D0191069901600198011D0191079901600198011D0191089977
:205DB00001600198011D0191099901600A98401E0A90ABD1009850F8041B00900291009856
:205DD00050F8041B03910090009850F8041B04910090009850F8041B05910090009850F8FF
:205DF000041B06910090009850F8041B07910090009850F8041B089100900198011D0191B5
:205E1000029901600198011D0191039901600198011D0191049901600198011D0191059902
:205E300001600198011D0191069901600198011D0191079901600198011D01910899016013
:205E50000CB07047E4BA0000008000212DE9F04305466E68AF680C46ADF1340D05F036FEA5
:205E700096F8D910012903D105F02CFE002084E04FF0010886F8D98005F024FE4FF000097C
:205E9000C6F888902069306160697061207E3076207B307320783070606886F8A490706064
:205EB00060694946092828BF414686F88C10387B01F0A4FB284603F0E3FBF87E86F88D00BE
:205ED0002846FFF76BFE50B9387B01F05BFA05F0FDFD86F8D99005F0F5FD4D464CE001A8BE
:205EF00049463022082305F0C9FD06957A790992CDF80090224A397906F11C0001AB05F07B
:205F1000B9FD01A828220823494605F0AFFDB96807911C49059506F1380001AA4B4605F055
:205F3000A1FD307878B901A849462422082305F0ADFD06F16C008DF81C80494601AA05F0DF
:205F5000A1FD114800E0A068B06003F0E1FC317BC6F8A000012908D1D6F89C000B4905F0B2
:205F700053FCD6F89C0000B18560094A06F1C40004212B4604F0A8FF28460DB0BDE8F08340
:205F900033810000F59E0000C9B80000A1A7000055B80000F0B5064608787468B56884F8EE
:205FB000300047482979ADF15C0DFE2908BF002202D00143012200916979FE2903D0084368
:205FD0004DF82200521CA9793E480DEB8202FE291CBF014342F8041BE979FE291CBF08436A
:205FF00042F8040BFE2104F120001160694602F0BFFAE062E06A002808BF00205DD005A8D4
:2060100005F02CFB30492868099105A904F054FDE061E06900284BD06FF07F4000216064EE
:2060300024220823A1640DA805F030FD04F14C0701210DAA38468DF84C1005F023FD4FF02F
:20605000FF31384605F002FDE069E16A2A7904F07BFE102060631D4A2264A36EA363288942
:20607000E0876889A087E86804F13401A063204605F00CF86068C1684A694068616C9047C5
:2060900063682061D868A16C42695868904760610F48A0616068C168CA69A18A904760680E
:2060B000C16889698847384605F0CCFC304604E0E06A05F09DF80020E06217B0F0BDC046A1
:2060D000000880800008C08000093D0070E000001CDD00002DE9FC4191EA03084CBF4FF0AE
:2060F00000484FF000084FEA03354FEA153556006D414FEA43075FEA575711BF45F4001571
:2061100000210020BDE8FC814FF4E06E1EF1FF0E77456FD04FEA01334FEA133342005B419A
:206130004FEA4104640D11BF43F4001300210020BDE8FC8174455DD0E41B002100205FF06E
:20615000360EAB4200D1B24205D340414941921B63EB050301E040414941BEF1010E05D0D4
:2061700053EA020702D052005B41EAE7BEF1200F09D2BEF1160F0CD3CEF1200720FA07F1D4
:2061900000FA0EF00FE0AEF1200E00FA0EF1002009E001FA0EF1CEF1200720FA07F741EA16
:2061B000070100FA0EF011F4001F02D140004941641E401C51F1000111F4800F1ABF641C00
:2061D00021F4800121F400114FF44077FF37E419DEBF00210020BDE8FC8107F58067BC42E5
:2061F00008D249084FEA300041EA045141EA0801BDE8FC810020FF214FEAC101C91D4FEACB
:20621000015141EA0801BDE8FC8170472DE9F043474C94F8E700ADF12C0D002874D13C4FF1
:20623000387B01250021242284F8E750082384F8E60001A805F012FC002604F10C0006965F
:2062500001ABADF8146033490796324605F002FC314904F1300001AB324605F0FBFB2F49BF
:2062700004F1540001AB324605F0F4FBB868014628468847DFF8AC8029487B7B0078D8F867
:206290000410C1F381571BB1032F03D184F8E150032F1ED0022F1CD0012F2ED14FF080594B
:2062B000D9F8A401204C406803214FF040521C230746009131462046B847D9F8A401406838
:2062D00031464FF400720923074600952046B84713E0022004F0D8FB032F0CBF4FF47A7108
:2062F00042F21071114800685434B1FBF0F1204605F0E4FB204605F0DDFBD8F80000C008FE
:2063100002D2304604F0C0FB0BB0BDE8F083C046F8E000000F710000658800000D8A0000BF
:206330006E1F0020B03F005000A00C4088E10000781F00202DE9F04304463F480578ADF120
:20635000140D880F74D3414E3C4800271C36376046F81C0C15B1012004F0FAFE3C4805F059
:2063700041FA3C4AA568B94640F60A015780537B6F8090461180107BC2F8049003F0F00345
:2063900000F0F000107343F00103537300E01D466B6813B118888142F9D1C5F80480687B62
:2063B00000F0F0006873264805F0BAFA80680088C91F81421ED0491C81421BD0238BDBB1A5
:2063D00094F82410678394F82500C4F81C9001F0F00100F0F00084F8241040F0010084F8CB
:2063F000250004F11803C8F80430507B00F0F000507301E013480760A068694600F058FF55
:20641000684605F075F930680028FCD03760012004F058FC012808D0687B00F0F00040F0DB
:2064300001006873084805F0DDF9A06846F81C0C05B0BDE8F083C046701F002001010E0451
:20645000841E00202C1F002001A40000001004402D3D0000981E002070B5ADF1380DFFF7C8
:20647000D5FE314908682822082340F00200086001A8002105F0FAFA2C4EB0782D490790DE
:206490002B48002301AA05F0EDFA00213022082301A805F0F3FA002519213078274AADF889
:2064B0001C5001AB09902448009505F0E3FA2822082301A8294605F0D9FAF078214907908A
:2064D0001F4801AA2B4605F0CDFA3022082301A8294605F0D3FA01241A2170781B4AADF8C4
:2064F0001C4001AB09901848009505F0C3FA184818492A46134605F0ADFA174805F072F95F
:2065100003F0C2FE2946012808BF211C154E3470124B1970124880F821504FF6FF720283B1
:20653000114B1D700EB070BD0020094008E10000E41C0020A1B500004C1E0020E9AF00008D
:20655000181D0020DD7F0000681E0020A19E00004C1D0020E5B2000035790000701F002018
:20657000701D00206F1F00206C1F0020ADF1300D41480090414801901F200A90009850F83E
:20659000041B00900291009850F8041B03910090009850F8041B04910090009850F8041B63
:2065B00005910090009850F8041B06910090009850F8041B07910090009850F8041B0891C0
:2065D0000090009850F8041B099100900198011D0191029901600198011D01910399016067
:2065F0000198011D0191049901600198011D0191059901600198011D01910699016001981A
:20661000011D0191079901600198011D0191089901600198011D0191099901600A98401E22
:206630000A90ABD1009850F8041B00900291009850F8041B03910090009850F8041B04915B
:206650000090009850F8041B059100900198011D0191029901600198011D019103990160EA
:206670000198011D0191049901600198011D0191059901600CB07047C8CD000000800021D2
:206690002DE9F0410446E08840F2FF760D46A71D0246C2F30A139E42C0F30A1066D033B94A
:2066B000204601F001FA0028C8BF00216ADC3A884519AE424FDD002D05DD48F20F0010407E
:2066D00040EA051043E06D1E02F00F01D00B15F1340F41F010014FEAC030E18004DA0021CC
:2066F000A1806180218034E02FB217F1100F0FDC6388A288E1881D46134610370A463FB21E
:20671000002117F1100FF6DDA28025806380E18079420FB2CFB1E38861882588A288C7F164
:20673000100643FA07F801FA06FE3D4102FA06FCA4F806804EEA050539413A41B34025808B
:206750004CEA010161801343A380E28810434FF0FF31E08016E00D49D00BC0030EBF03C988
:2067700003C981F0004184E8030008E012F00F0F07D1A08828B9608818B9208808B90121EF
:2067900000E002210846BDE8F081C046B02300202DE9FE4F3A4D80462868D8F804900028BD
:2067B00066D0384F3868002862D03249364E097881F080018DF800103178012203F0CAFF83
:2067D0002D4800680A21B1FBF0F0019005F036F94FF0010A2D4C2868C4F804D02146C4F85A
:2067F00000A005F04BF825480026B346067025E0761CF0B204F0A8FE8DF80000C4F804D0C7
:20681000C4F800A02146184605F038F8B8F80800C01020602868C4F80490214605F02EF8B8
:206830008DF800B0C4F804D0B8F808702868C4F800A0214605F022F809EBE709B8F80A104B
:206850002868B1420346D3DCC4F804D05E46C4F800A021468DF8006005F010F8019805F046
:20687000EDF808480849006809785A4603F072FFBDE8FE8FA027002088E10000A12700202B
:20689000601F00204C1F00206D1F0020C01E00202DE9F04707467D68D7F8089090460C4606
:2068B00005F014F9AE6A8246002E64D105F1F00004F06EFC2C620024EC7750466C6205F0D1
:2068D00001F905F003F92F4E3378824623B9022004F0DAF801203070504605F0F3F82A4A5E
:2068F0001068414640F480701060384603F0FCFFA862C0B93846414603F046FBA878D0B924
:20691000A96805F1B80005F0A1F8E8B9AC621020E8774946284602F0F7FA05F0D7F8824670
:20693000307840B323E0D9F80010886B40F020008863A87810B12046BDE8F087A96805F130
:20695000B80005F083F810B1686ABDE8F0873846414603F019FB1020AC624946E8772846AA
:2069700002F0D2FA05F0B2F88246307818B1022004F072F83470504605F0A4F84FF0FF30B8
:20699000BDE8F087741F0020301000402DE9FC4191EA03084CBF4FF000484FF000084FEAAD
:2069B000C32545EA52554FEAC2264FEA43077F0D11BF45F0004500210020BDE8FC815FF4D9
:2069D000E06E1EF1FF0E774555D04FEAC12343EA50534FEAC0224FEA4104640D11BF43F062
:2069F000004300210020BDE8FC81744543D0E419A3FB0501A3FB06E7A2FB06631EEB030EC9
:206A100057F1000751F10001A2FB05631EEB060E57F1000751F10001FF1851F10001C019ED
:206A300051F100014CBF4FF4806E4FF4007E10EB0E0051F1000148BF641C01D44000494194
:206A50005FF44077FF37E41BDEBF00210020BDE8FC8117F58067BC420DD24FEAD02040EAC4
:206A700041504FEA41014FEA113141EA045141EA0801BDE8FC810020FF21C900C91D0905AC
:206A900051EA0801BDE8FC81F8B5304D07462878002859D02E49B1F91200B1F91010884251
:206AB00006D0B7F98C1034A20CCA384601F018F905F00CF8274A2E4E1178002935D0491E74
:206AD000C9B20029117030D104F0FCFF2248002400782C7040B1204602F00EFD07F1300073
:206AF0004FF0FF3104F0B2FF07F1300004F0A2FF07F1680004F09AFF184804F093FF184882
:206B100004F08CFF174804F08DFF174804F086FF164804F08BFF174834603D7C0470012D05
:206B300012D10E2000F02EFCF8BD04F0CBFF3068874204BF0020306007F1300004F07AFF3E
:206B500007F1680004F072FFF8BDC046EB250020841E0020721F00206A1F0020E41C002039
:206B70004C1E0020181D0020681E00204C1D0020381F0020EA2500200200000000000070DF
:206B90002DE9F04390460A68D8F800501678814600271C46ADF1140D3846531C242E0B60ED
:206BB00053D112F8016F5B1C4C2E0B600ED1A268ED1C25F003052D1D55F8040C494602F094
:206BD00031FF2168E7600127091A2160462E1AD1ED1C25F003052D1D55F8040CED1C029012
:206BF00025F003052D1D55F8040C002749460390A268ADF8047001A801F020FC2168E760CF
:206C10000127091A2160532E1FD1ED1C25F003052D1D55F8040CE061C8F80050208B0090CE
:206C3000A168E269D9F800004346FCF7DBFED9F80050002715B14119C9F80010D8F8005071
:206C50002168E760091A01272160662E0AD1238B23B9ED1D25F00705083503E0ED1C25F026
:206C700003052D1D1FB9E1690E700127E760C8F8005005B0BDE8F0832DE9F84307467C6844
:206C9000BE6804F023FFD4F88810002961D004F019FF3168486820F0020048603168486A90
:206CB00020F003004862D4F8A000756941683269096845EA0200C1F804053168486920F0BB
:206CD00001004861306801250562384604F010F9D4F88800D0F8048004F0F8FE814694F87D
:206CF000D80058B118F0704F02D1042003F0B4FE022003F0B1FE002084F8D800484604F086
:206D1000E1FED4F88810087C042803D003200874D4F88810D4F8A0004368326970691B688C
:206D300010438540DD623068B0F1804F14BF0B480B48826808689204A0EB9250401E086048
:206D5000A06800230246C4F8883038469047BDE8F88304F0B7FEBDE8F883C04600050020D3
:206D7000300400202DE9F8430746D7F80880D8F800007D68066C16F4F06F466426D1F00990
:206D900010D2700952D395F83C00AC6B401E844288BF041C3846214603F052FDA86B001BA3
:206DB000A86308E0A96B384603F04AFD014695F82D00A96318B9A86B002837D101E00020E2
:206DD000A86305F1840004F025FE2FE0F00A0ED3D8F80000002144684160A96B04F00F04C4
:206DF000202988BF2021384603F02AFD1AE04FF000094C4602E0A86B401EA863A86B88B19C
:206E10003846012103F01CFDD8F80000446814F00F04C0F80490EED0296B686B491E2963BF
:206E3000401E6863EC77384602F018F9B0090DD3AE6A5EB13846314603F056FDA862A86A1E
:206E5000314618B93846091D03F09EF8BDE8F8832DE9F0471C46904689460646B4F1FF3F0A
:206E7000ADF1480D09D044B131496B4608A8224604F0CCFD08A9022001E0002103200391B5
:206E90008DF810002B4FCDF818903868CDF81C80371804F0B7FD2025EFF3118A029085F3A2
:206EB000118842464946304604F082F9031C33D1002C04BF8AF31188002036D004F0F6FDF8
:206ED000064602986946C0F818D0384604F096FD029804F08FFD9DF810000024022802D188
:206EF000039804F083FD8AF31188304604F0D2FDEFF3118385F31188039810B104F072FDDE
:206F100003940298846183F311889DF81000002814BF059B231C07E0039818B104F062FD1F
:206F3000002003908AF31188184612B0BDE8F087DDAD000090E100002DE9F84F96460B46B7
:206F5000B0F80AA04268B3F90450B3F90060FF2105F00704084606F00707C4F10704ED10EA
:206F70000092F610394100FA04F41FFA85FBB6B2C9B25FFA84FCB34515D1B3F902304FEAB3
:206F9000EA00BEF1000F0CEA010100FB0360024406D1107881F0FF0101401170BDE8F88FDF
:206FB00010780143F9E75A8880464FF0000930E0009D4FEAEA00BEF1000F02FB0064ABF19A
:206FD000010705EB040012D1057881F0FF04B74204EA05048CF0FF0500F8014B04DDBF1B62
:206FF0007F1E00F8019BFBD1047825400EE00478B74241EA040400F8014B04DDBF1B7F1E71
:2070100000F8018BFBD104784CEA0405521C057092B2B3F906009042CADABDE8F88F2DE9C4
:20703000F04740680446E76A994692460D46ADF1300D002F60D04C304FF0FF3104F006FDA0
:20705000002859D0A06994F83070817842784FF001084D430AFB0282781EEDB25FFA82FA7C
:207070005646574607D0401E03D0401E04D1267B01E0267B00E00027BE421DD0A1696068A3
