:20000000004E00209D480000FDC90110FDC90110FDC90110FDC90110FDC90110FDC9011083
:1C002000FDC90110FDC90110FDC90110FDC90110FDC90110FDC901103BCA0110A4
:20003C0079040021DD040021FD040021270500215D05002165040021F8B51047F8B50E4683
:20005C0000210125AD04304770B50449084770B503490847F8B5034908470000C94B000038
:20007C00694A0000E54C0000024A00211160F0B40149084714400440CF68000070B5034628
:20009C001546012906D0002906D0114A2846FFF7D3FF70BD0F4800E00F480524834203D8D5
:2000BC004008641E002CF9DCE340012040031818820B012907D00649002380312846FFF78D
:2000DC00BDFFE0B270BD0249044B6C31F6E70000835C0000A0BC862300830D236006002157
:2000FC0010B51A4800214156491C02D11849C97A0170174917486031C882FFF7A8FF10BDB4
:20011C0010B51548C47AFFF7A5FFA0070CD00F4900200856421C07D00F22120210430C4A4D
:20013C006032D082FF20087010BD10B5074800214156491C02D10649C97A017004490748B8
:20015C006031C882FFF780FF10BD00009006002100620840070F000060020021080800005C
:20017C00F8B51A4E0546716B1948CC09E401002D11D01849097802290FD0007B044372B628
:20019C000120154F4002B847114820380088C109C90704D016E0C07AF0E7407BEEE70F49E7
:2001BC007463CC61400AC0070CD001208003316B002D01D0014300E08143084631630749DA
:2001DC00403948630020B84762B6F8BD80020021880000219B0200217B3F0000404004406B
:2001FC0038B5174D287F002827D116480088C009C00722D1144C606900281ED1684600F084
:20021C002BF868460078012817D168464078102813D208206061686A4009400120600B4ACB
:20023C000021D1620A4A02211160012108432060032108436862206038BD0648804738BDC1
:20025C008002002168000021004004400011044080E200E0C33B000003B40148019001BDEE
:20027C00A56F000000000000010003000A001F005900EB003902EA04F9099712EB1FA1322C
:20029C00784A0A66FA828C9E63B617C964D6EDDEC1E3E0E5FF0000008F3F00008F3F010067
:2002BC008F3F02008F3F0300903F00018F3F0101903F0002903F00038F3F01048F3F000598
:2002DC008F1208048F3F00048F3F0006513F00007F3F01003F3F04003F3F02003F3F0100DF
:2002FC007F3F02007B756E6B6E6F776E2D696E7374616E63652D6E616D657D007B656D700D
:20031C0074792D696E7374616E63652D6E616D657D00C0467B7374617469632D696E737413
:20033C00616E63652D6E616D657D00C006088080070880800D2007C00E2007C01400C080A5
:20035C00024000800300C0800108C08009400080084000800A400080FE0000007BC8011086
:20037C00C5BC0110D9B2011033C20110BDAD0110C1B101106DBA011065BB01101DC00110D8
:20039C00FFFFFFFFC4090000010000000D0800000000000000000000000100000000000061
:2003BC006D320000293E000001010100FFFF00000100000000000000000000000000010018
:2003DC000000000041B5011095A6011015B80110FF000000000000000A000000CC130020C8
:0403FC00E94E0000C6
:20040000000909DC00010907000101091A00615000004D450000F352000054130020541342
:2004200000205C1300205C1300200908003D4F000003000000FF0014090700C046090800A4
:2004400088130020881300201C11000094130020941300209C1300209C130020A4130020F6
:20046000A4130020CC100000080000000806002009050004000008000000C4130020C413AB
:2004800000209C0100209C0100200100000001090B009F4A090600EC130020EC130020F482
:2004A000130020F4130020FC130020FC13002004140020041400200C1400200C1400201480
:2004C000140020141400201C1400201C14002024140020241400202C1400202C140020345C
:2004E000140020341400209C140020CF5200000200DF7D38403A002040007F64404000A3F9
:20050000840600410104C007B133058305480A0306B87A02009F84020044C70304010263A7
:200520008410004302B0048460F13583880300A388FB0088601A000200DF7D88601A00028C
:2005400000F80C0904FF9C1400209C1400200904000109070004090800020000080A002084
:2005600009040007C201100910000109130001090B00C5A70906008951090800010064136B
:200580000020C5A7090E00C5A7090600C5A7090A000152090A000308090B000164030908C0
:2005A000000138090B0001181EDE510B930904004011090A0001090500010084150020842C
:2005C0001500204011090A00010905000100A0150020A0150020A8150020A8150020B01549
:2005E0000020B0150020B8150020B8150020C0150020C0150020C8150020C8150020D01553
:200600000020D0150020D8150020D81500207D38090A000500000020090F00D01500200988
:2006200004000738090B000121030F0080002404A00008003FA74414002064030080050095
:2006400000000238090B00011888DE510B937DAABB01090C0006088080FE00000083510006
:200660000083510908000900000000000000000000030304007C1300208013002084130089
:20068000200305004E002000020305002001010000480D0020030C00030000000000000011
:2006A000000201020B0001020B001C1400200210003C14002002040034010020340100209A
:2006C0003C0100203C01002002000000000000000002020800E8140020D815002001000028
:2006E0000001020F00CC130020CC130020020000000000000000000000010105006CDC0297
:200700000108008C15002003010700754D00001F5100000100000000000201021300A815FC
:20072000002002040002000000000000000000000001010400E8140020010000000000006E
:20074000DB5200003D520000A15200000000000000010800000001000000000000000000E0
:20076000000101040001000000000000000000000001010800010000000000000000000067
:2007800000010108000100000000000000000000020000003D10000002000000DC00000021
:2007A00000040000481200207006000044010020A006000000010020D006000078010020AA
:2007C000F8060000A401002018070000C801002030070000E4010020500700000002002099
:2007E00060070000EC01002070070000F001002080070000F801002090070000080200209C
:08080000980700000000002031
:201000003C000000000000000000000034100000000000000000000001000000000000004F
:1C10200000000000000000000000000001000000000000000800000000000000AB
:20103C003400000000000000000000006810000000000000000000000100000000000000E7
:14105C00010000000000000000000000080000000000000077
:2010700030000000000000000000000098100000040000000000000001000000FFFFFFFF87
:10109000FF00000001000000080000000000000048
:2010A0002C0000000000000000000000C4100000040000000000000001000000FFFFFFFF2F
:0C10C000FFFFFFFF080000000000000020
:2010CC0038140000E410000095A1011091A70110A1C2011009B2011041B80110A5BC011078
:0810EC0085BC01102F0000007B
:2010F400280000000000000000000000141100000000000000000000FFFFFFFF0000000093
:081114000800000000000000CB
:20111C00341400003011000065C2011069C101101BC2011091BA011005BC0110E5BB0110EA
:04113C002D00000082
:20114000341400005411000071C20110A5B6011099BF011045B60110B5BA011025BC01104B
:041160002E0000005D
:201164002400000000000000000000008011000000000000000000000000000008000000AE
:041184000000000067
:20118800240000000000000000000000A41100000000000000000000000000000800000066
:0411A8000000000043
:2011AC00240000000000000000000000C8110000000000000100000000000000080000001D
:0411CC00000000001F
:2011D000000000005C1300200400000000000000000000002000000070100000300000009C
:2011F0001C110000881300200400000000000000000000000C00000030130000180000008C
:2012100040110000941300200400000000000000000000002400000048130000180000000B
:20123000000000009C13002004000000000000000000000010000000A01000002C000000DF
:20125000CC100000A41300200400000000000000000000002000000064110000240000000E
:20127000FFFFFFFFC413002004000000000000000000000028000000881100002400000082
:20129000FFFFFFFFF4130020040000000000000000000000580000003C100000340000003F
:2012B000FFFFFFFFFC13002004000000000000000000000010000000601300001800000054
:2012D000FFFFFFFF041400200400000000000000000000001C000000AC11000024000000C9
:2012F000FFFFFFFF0C14002004000000000000000000000038000000F4100000280000003A
:20131000FFFFFFFF1414002004000000000000000000000054000000001000003C000000D5
:1813300018000000000000000000000040130000080000000000000032
:1813480018000000000000000000000058130000080000000000000002
:18136000180000000000000000000000701300000800000000000000D2
:0813780001000000FC0300006D
:041384000100000064
:0413880000000C0055
:04138C0000000D0050
:041390003700000022
:041394000100000054
:0413980064130020BA
:04139C00000200004B
:0413A0000000000049
:0413A400FDC901106E
:0413A8000000000041
:0413AC00000000003D
:0413B0000800000031
:0413B4000000210014
:0413B800701500208C
:0413BC00010000002C
:0413C000AC1300204A
:0413C400080000001D
:0413C8000000000021
:0413CC00000000001D
:0413D0000000000019
:0413D400080000000D
:0413D8000000000011
:0413DC00000000000D
:0413E0000100000008
:0413E400D8150020F8
:0413E80006000000FB
:0413EC0001000000FC
:0413F0009C14002029
:0413F40000000000F5
:0413F80000000000F1
:0413FC0000020000EB
:0414000000000000E8
:021406002800BC
:021408000100E1
:02140A002400BC
:02140C002D00B1
:02140E002E00AE
:021410002F00AB
:021412000100D7
:0114140001D6
:0814180003000000E0030000E6
:081420000000000000000000C4
:0414280000000100BF
:04142C0000000300B9
:0414300083C4011060
:041434003C14000064
:041438003C14000060
:04143C0000000000AC
:041440009000000018
:041444009000000014
:0414480000000000A0
:04144C00AC130020BD
:041450009D510000AA
:041454002000000074
:04145800CC030000C1
:04145C007803000011
:0414600009C30110AB
:041464004B510000E8
:04146800AF51000080
:04146C0095C801100E
:0414700097C8011008
:041474000000000074
:04147800DE0300008F
:04147C001803000051
:041480003003000035
:041484000003000061
:0214880008005A
:02148A00090057
:02148C0001005D
:02148E0000005C
:01149000015A
:041494000000000054
:041498000000000050
:04149C00000000004C
:0414A0000000000048
:0414A400F7520000FB
:0414A8009549000062
:0414AC00BD4C000033
:0414B000614B00008C
:0414B4006D4A00007D
:0414B800914B000054
:0414BC009940000053
:0414C0004B5200008B
:0414C400ED430000F4
:0414C8000DC801103A
:0414CC001DC8011026
:0414D0000800000010
:0414D40024000000F0
:0414D80018000000F8
:0414DC0028000000E4
:0414E00020000000E8
:0414E4003C000000C8
:0414E8000C000000F4
:0414EC0034000000C8
:2014F000CB4A2DE9F04F0127ADF1140D0490D94817600668002EFCD0D74844380290C021E9
:201510000160D748011D0968890805D20168D34B090C41F0F00119700021001F1163D14E2A
:20153000D14CD0F80CA001905FEA9A6013D25FEA5A6010D3802086F81B024FF6D801A6F874
:201550005C1286F80B0202F0F9FBA146D9F8D000C0F3042004E0A146D9F80000C0F304608A
:2015700003F05DFE00EB2A70401C162805DA10F10A0FB8BF6FF0090000E01520BB4900F00D
:201590001F004FEADA6540F4F8504FEA9A64A6F8640285F0010000F00100086084F00100A9
:2015B00000F001008860504602F0D6FC00220446154603F04FFE00B93D462A46AC4D2B68A9
:2015D000002BFCD0DFF8B08208F10808C8F810402F600AB103F044FE03F054FCA549496881
:2015F00080B24C680090A44840F2FF3200232C21A04703F0E5FD044603F02CFE4FF0000B39
:2016100000B9BB462B68002BFCD0C8F81440BBF1000F2F6001D003F023FE03F025FC0446D5
:2016300003F018FE4FF0000B00B9BB462B68002BFCD0C8F80C40BBF1000F2F6001D003F0E9
:201650000FFE03F0A5FC044603F004FE4FF0000B00B9BB462B68002BFCD0C8F80840BBF158
:20167000000F2F6001D003F0FBFD049802F040FC044603F0EFFD4FF0000B00B9BB462B6876
:20169000002BFCD0C8F80440BBF1000F2F6001D003F0E6FD0499084603F062FC764C400010
:2016B000403440F0200084F80901084603F064FC40F0100084F80901084603F065FB039035
:2016D00003F0C8FD4FF0000B00B9BB462B68002BFCD00398C8F82000BBF1000F2F6001D01E
:2016F00003F0BEFD0499084603F05EFC400040F0600084F80C01084603F062FCC00040F00C
:20171000800084F80101084603F066FC800040F47C40A4F89C01084603F0A0FA039003F00E
:2017300099FD4FF0000B00B9BB462B68002BFCD00398C8F80000BBF1000F2F6001D003F00C
:201750008FFD4FF48000CAF381452060681E02D0401E28D024E0D9F8D400810C20D24FF40E
:2017700080412160D6F80210420AC0F3033502F0800221F08F010A4345EA0201C6F802109C
:20179000D6F80120031263F30302C6F80120316800F0E70521F0E70145EA0100306002E0EB
:2017B0004FF0004020604FF40070206403F000FD40F0300084F8C800CAF3815050B3401E60
:2017D00003D0401E1FD002211EE0384603F0F0F905460420294602F089FC042003F0E8F911
:2017F0008542FAD10198056825F07F4003F080F920484069036807214FF06022280E984787
:201810004FF4806020600321042002F06FFC08E0101009400420394602F068FC174803F0D4
:2018300067F9D9F8B4001649164D47F6180600F03F0084F8CB0F0F4B0E8028681868C168F0
:2018500002208847402102980F4C016005B02760BDE8F08F9402224344600C405662084085
:20187000AC3F00500A600840B81200500000204300800C40A001001000A00C40BD3786000B
:2018900070B00C402C200940940460422DE9FF47DFF8A4A2DFF8B4920F460546F80B80F054
:2018B0001381B80880F0A980DFF868829B4A9E4EB80F57D296480578380913D2B80BC0F0B5
:2018D0001F814846001D03F00AFD0446606830B1E068B4F910106468A3A20CCAA04727F4C2
:2018F00000570DE140460024047015B1204603F07BFA894803F0A8FC89491046224603F0F6
:20191000E7FC884D286828B303F018FC336888492D68864E0A68C01A000B82183060B2EB9A
:20193000C51F16D3834B0C60214640F60905187B5A7B5C808B4E596000F0F0001D8002F0A0
:20195000F002187342F001025A73A6F11C010B6005E00A6050464FF0005103F0B5FB27F0AA
:201970000807CDE075491046002203F0B1FCE86840F6C411814213D1042003F019F978B171
:20199000306868B16E4C206850B903F0D7FB3168411A090BE960E968206001F58D71E96017
:2019B000684C694D207850B10220ADF80000684603F0FAF900212170BDF808002880484614
:2019D00003F08DFC18B909352878400812D303F021FD604D5E4B00240121024640460170B3
:2019F00019782C701046491C197003F00FFD192003F006FC27F0005782E04D4605F10C08CC
:201A1000404603F06CFC061C55D002F0D7FF7368326A00243462C3B196F8240042F0020239
:201A30000023401E07D0401E03D0801E06D150A002E051A000E052A090E80C007168B6F9F7
:201A500010E0F0688C467146E047B5F91200401C6FF31F30688296F8240000F0F80086F8AF
:201A70002400404603F0E8FAF068B6F91020B0F98C1091421FD13849097801291BD090F8F9
:201A90008E509DB905688DB1344909680968B1F1FF3F10D0324909686830B5FBF1F103F02F
:201AB000B1FCF068683003F0A9FC04E080F88E40204602F0B7FA404603F011FC27F0020708
:201AD00008B147F002071BE003F0A4FC01464846083003F004FC05462C6A084603F096FCBB
:201AF000A0080BD26868296AA143296230B16E68E868B5F9101000232246B04727F4804746
:201B10001FB15046394603F0DFFA0090BDE8FF87411200203C120020453700007411002047
:201B3000094D00000C120020141200201C12002004120020C01100204C100020CD280000D5
:201B50001812002040120020F0100020AC110020421200203D1200206816002020120020E9
:201B7000F40300001C1004400000000020000000000000000000001000000000000000407E
:201B900000000000000000202DE9F84F82468548DFF8049235380068800880F0ED8003F089
:201BB00049F8064683480830D0F8008000254FEA2874641C5FEA98500AD2C6F13E0016F1BA
:201BD0000A0F4FEAE000D8BF08208442B8BF041C6E485FEA98610FD25FEA58610CD3834624
:201BF000DBF80000C0F3042003F019FB0746DBF80000C0F304600CE083465BF8D00CC0F356
:201C1000046003F00CFB0746ABF513700068C0F3044003F004FBE7198346162F05DA17F1A0
:201C30000A0FB8BF6FF0090700E01527584A594807F01F0141F4F8511180006810F0030F96
:201C500018BF0125C00828BF45F00205BAF1000F18BF45F00405494691F90700301A052826
:201C700004DA8879A84208BF888864D0DFF82CC10F2EA6F10F0225DB02EB02124FEA222E4D
:201C9000BEF1070F88BF4FF0070E7446062C88BF06245CF82400042303EB84036446E3587E
:201CB0001B1A03F0FF04E80824BFC3F307200444A80824BFC3F307400444680828BF04EBD3
:201CD000136401E00024A6465CF82EC0E8080CF0FF0324BFCCF307200344A80824BFCCF3FA
:201CF00007400344680828BF03EB1C63A2EB0E22A4B25443BBEB070004F1800403EB14238D
:201D1000D8BF012008F0FF07342242437A43B2FBF3F04FF6FF72824238BF101C802E80B258
:201D3000888005DA16F1800FB8BF6FF07F0600E07F26CE718D711A4A12681F280A604FF02B
:201D5000000208D340F2FF11814206D24008521C8142FBD301E01F208880134F11490F3847
:201D7000000942EAC00247EA0200C1F8FB0F0026C1F8FF6FBDE8F88F0D4F0C4E4946082080
:201D90003760891D0870BDE8F88FC046881300506E62084024220840FC1100209C1300508F
:201DB000082009403500094000E7A48030100940FDFDA400AC3F00502DE9F04F0128ADF19B
:201DD000140D40F0F280DFF81492D9F8DC00012840F0E9800220C9F8DC0003F00BFB0290FA
:201DF000012002F02FFD20B101210646C9F8DC10D5E003F0FBFA03906E484FF00008C0F8C3
:201E10000080012002F0D4FE012818BFCDF8008004D1404602F092FB0120009066486E4C15
:201E3000C0F800801934D4F8FF0F112003F024FA00280CBF46460126102003F01DFA08B158
:201E500046F002060F2003F017FA08B146F004060B2003F011FA30B1584800685849006BEA
:201E70000246088890470A2003F006FA0028404618BF01204FF0805B0BF5DC7528B128680C
:201E90005049006B0246088890474F480127076028688069014646F0200088474B4807607A
:201EB00003F0E4F900F001010191400815D2484803F0AEF98246BAF1040FF8D0BAF1010F5C
:201ED00006D1DBF8D801406802464148032190474049086820F0030008604046FFF754FEB9
:201EF0002868D4F8FF1F806B8047019801280ED0BAF1010F06D1DBF8D8014068024634485C
:201F1000394690473349086840F0030008602A480760286840690146304688470B2003F018
:201F3000ABF928B128682649C06A0246088890470A2003F0A1F928B128682249C06A02463F
:201F500008889047204807600322C9F8DC201F4BC3F800802868406B0146304688470128C4
:201F7000F8D1042002F06EFC124807601A48D4F8FF1F01688909FCD30098012802D138461F
:201F900002F0DCFA03F06CF9082002F05BFC06460398C9F8DC7003F025FA02F0C3F9029852
:201FB00003F01CFA02E0042600E00126304605B0BDE8F08F0C40094000022243B8010010E1
:201FD000E2020000DE020000282008608001044300400340242208401410094048120020BD
:201FF0002DE9F0411C4615468C4208BF854282BF00230022E5E0002C08BF002D0AD1002902
:202010000EBF00286FF000006FF0000100F0E1F8BDE8F0815FF000085FF0000E002C08BF76
:202030008D429CBF2C1C0025070C47EA01470E0CB44208BFBD429EBF5FEA044444EA154422
:202050005FEA0545070A47EA01670E0AB44208BFBD429EBF5FEA042444EA15645FEA052577
:20207000470847EAC1774E08B44208BFBD4200F29380870847EA81778E08B44208BFBD4277
:202090007CD8C70847EA4177CE08B44208BFBD4266D8070947EA01770E09B44208BFBD42C8
:2020B00050D8470947EAC1674E09B44208BFBD423AD8870947EA81678E09B44208BFBD421E
:2020D00024D8C70947EA4167CE09B44208BFBD420DD8E60146EA5566EF01B14208BFB8425D
:2020F00001D3C01BB14158EB08085EEB0E0EA60146EA95664FEA8517B14208BFB84201D348
:20211000C01BB14158EB08084EEB0E0E660146EAD5666F01B14208BFB84201D3C01BB141A3
:2021300058EB08084EEB0E0E260146EA15762F01B14208BFB84201D3C01BB14158EB08082D
:202150005EEB0E0EE60046EA5576EF00B14208BFB84201D3C01BB14158EB08084EEB0E0E3D
:20217000A60046EA9576AF00B14208BFB84201D3C01BB14158EB08084EEB0E0E660046EA2C
:20219000D5766F00B14208BFB84201D3C01BB14158EB08085EEB0E0EA14208BFA84201D300
:2021B000401BA14158EB08085EEB0E0EA34208BFAA423EBF2D0A45EA0465240A89D3734673
:2021D00042461E4617460B46024631463846BDE8F08170472DE9F843814603F03BF80021EC
:2021F00000B90121724E30680028FCD0734D01242D1DEF6A346009B103F032F8DFF8B481A9
:20221000C7F3072008F1BC01086003F023F8002100B9214630680028FCD02F68346009B1EF
:2022300003F01EF8C7F38440C8F8C00003F012F80146002001B92046014630680028FCD030
:20225000ED69346009B103F00BF8C5F38120C8F8D000B9F5C061C8F8B81000F0A48098F8F0
:20227000D80068B9C8F8D410D8F8C000C8F8C800D8F8BC70C8F8C470D8F8D060C8F8CC60BD
:20229000D8F8D410D8F8BC60002954BF02206FF00100454605F1C8031A6801EB410140187C
:2022B000411000EB917002EBA0021A60D5F8C810C5F8C46000291CDD1E293DDDD5F8CC0026
:2022D00030B93429B4BF15391E21C5F8C81025E02A29BABFD5F8C8000B381E20C5F8C800A7
:2022F000D5F8C4003F28B4BF401C3F20C5F8C4001FE0D5F8CC00032812D011F10B0FC6BFE1
:20231000D5F8C8000B30201CC5F8C800D5F8C4000028CCBF401E0020C5F8C400032009E0CD
:2023300011F1150FC6BFD5F8C8001530201CC5F8C8000020C5F8CC004FF08058D8F8A40112
:20235000B5F8C4101C4E40684FF47F4208230746009130463021B847D8F8A40140680421C5
:202370004FF400321123074600943046B847D8F8A401B5F8C81040684FF4F80212230446F0
:20239000009130460421A047D8F8A401B5F8CC1040684FF440620A230446009120213046D0
:2023B000A047BDE8F883002088F8D800BDE8F88300800C404812002000A00C4000A00C4050
:2023D0002DE9F04F8346ADF1840D00F02DFB02F0A9F90026012804D102F0B6FD022808BF3A
:2023F00001265F490868C0F38150012805D151F80C1C0120090E884006435A495A485B4C65
:2024100009780068C0F34600206002F08BF9A046012809D102F098FD022805D1D8F8000094
:20243000401CC8F8000001E0D8F80000DFF840A130B15246FF2107467F1E02F8011BFBD1A2
:20245000DBF80020002702F0FF01FE2919D094465146DE463B4601250CF0FF02904203D969
:2024700005FA02F4264201D0022076E00CF0FF025EF804CF8B5427435B1C0CF0FF02FE2A9B
:20249000ECD1092000F054FD4248002124220823C0F800B001A802F09DFF4FF0010901AA56
:2024B0003D488DF81C90494602F090FFD8F8003023B33A4C0025AA4609FA05F0064217D1AD
:2024D000074204BF05F0FF0141F4C04103D02848405D5BF82010274800F0DAFFE8B24FF041
:2024F000FF3102F0DDFCD8F80030C4F800A001E0042020606D1C241D9D42DDD30AA80021C4
:202510003022082302F05EFF1B4D1D4A2878002410210AAB12901948009402F04FFF16A8D1
:2025300028220823214602F045FF686816AA16491C9014481D94234602F038FF134A52F898
:202550000D0C494620F4F85040F4005042F80D0C0F4BC2F8FF1F2046196021B0BDE8F08F8A
:20257000B43F00503F12002080120840240E0020FC100020007FC767EC0300003C11002036
:20259000CD4E0000181000207D4700000D300940080009402812002058110020B80E002064
:2025B0002DE9FC41634C5C4D5C4EDFF87881604F94F8E410481E0B2800F2AC80DFE800F049
:2025D0007C2C43062343062343067765042907D001220A2945F8212C14BF0220032004E066
:2025F0002021012045F8211C024684F8E200002045F8390C0827C5F8FF7FC5F8F37F45F8D1
:20261000392CBDE8FC81052914BF09200620002584F8E400356079E094F8E1700120383DED
:20263000002FC5F81B0004BF0620002102D00021F160032084F8E400032045F8010C3160B4
:202650003068800862D294F8E4103548012503290FD000684068002160220523074600912F
:202670004046B84794F8E400062814BF0A200720CEE7006840680221602205230746009193
:2026900040460021B8470420C2E72749002627480E60012505600E2000F0E0FB022002F0AC
:2026B000F7F984F8E45084F8E360BDE8FC81002038600C25786027E04FF08056D6F8A0013D
:2026D00000680146202088472C3D0F2045F8010C41F61D53C5F80330D6F8A4014068002177
:2026F0004FF4C07202250723844640460095E047D6F8A401C06800214FF4C0720723064651
:202710004046B0470120386084F8E45004F1780002F074FEBDE8FC8139400C4038600C4027
:20273000A401001000A00C402C500C4004800C4034600C40481200202DE9FC471E46924661
:202750000C46814602F066FE554D0AAFB5F91220B5F910100094891A8A1001EB527222F05E
:202770000702891AB8BF494240F6F8720A40082A06DAB5F91220B5F91010891A082905D147
:2027900002F044FE6FF00100BDE8FC87B5F91010491C6FF31F312982B5F9108002F036FE79
:2027B0003A4C4046811000EB517121F00701401AC10001EB401109F16800641802F034FB4F
:2027D00084F812A06660C4F80C90A4F810800098A06097E80C0037A696E80300002610407A
:2027F00084F824602A6804F11807194087E8030032B12846214602F0F1F9A9F88C8042E0F5
:202810002846214602F0EAF9A9F88C80686889F88E60002837D123480078002830D102F0E4
:20283000F9FD1B4A116881460120490802D2116DC90800D308BBA06801F0AAFE164B1A4A5C
:2028500014491B681268086038B9484602F0DEFD1648042102F038FC15E0D06809680F4CB8
:20287000091AB1FBF3F1204602F0CCFD204602F0C5FD484602F0CAFD05E00D490870F8E781
:20289000192002F0BDFC4046BDE8FC87080C00202C2108400C120020F4030000B4100020B4
:2028B000AC1100203C120020201200204C1000203D120020F1EFFF9F200000002DE9F0419B
:2028D00002F0A2FB514D044695F82100400820D3286802F069FA95F8211000F0FF000128CD
:2028F00001F0FE0185F8211013D0286890F9020005EB800151F80C2C95F821706A6147F01A
:20291000020185F8211001F0C3FD4148002102F0DBFB414D3F4EDFF80481A00820D330464B
:202930004168E9B1002242600B6A8A698F6922401A4342F0020205F108030A621A68BA433F
:2029500001F118071A6097E80C002A680C301B1C9A432A6002F042F94046022102F0B4FB6E
:202970007068A10815D200F1180191E80C00002702EA04013B40002B08BF002909D0016A5E
:202990001440B0600C4304624FF48041404602F09BFB7068002837D1304602F0A0FC071CCD
:2029B00032D01F48F9680068884228D1B86801F0EFFD1C490860E8B905F10801B8690A6815
:2029D000104308602B6807F1180494E80300081C1843286000222A61B86845F80C0C05F1E7
:2029F000100000680028FAD0304602F025FB7760BDE8F081086801F015FBBDE8F0814046DB
:202A10004FF4805102F060FBBDE8F081D810002080100020AC1100200C1004404C100020BE
:202A3000201200200C1200202DE9F043474C94F8E700ADF12C0D002874D13C4F387B0125FF
:202A50000021242284F8E750082384F8E60001A802F0A8FC002604F10C00069601ABADF86C
:202A7000146033490796324602F098FC314904F1300001AB324602F091FC2F4904F15400B8
:202A900001AB324602F08AFCB868014628468847DFF8AC8029487B7B0078D8F80410C1F36C
:202AB00081571BB1032F03D184F8E150032F1ED0022F1CD0012F2ED14FF08059D9F8A401B5
:202AD000204C406803214FF040521C230746009131462046B847D9F8A401406831464FF40C
:202AF00000720923074600952046B84713E0022001F0E6FF032F0CBF4FF47A7142F2107116
:202B1000114800685434B1FBF0F1204602F07AFC204602F073FCD8F80000C00802D2304658
:202B300001F0CEFF0BB0BDE8F083C046B8030000DB3C0000A9390000C53A00003F120020CA
:202B5000B03F005000A00C40F4030000481200202DE9F04304463F480578ADF1140D880FDC
:202B700074D3414E3C4800271C36376046F81C0C15B1012002F038F93C4802F065FB3C4A0F
:202B9000A568B94640F60A015780537B6F8090461180107BC2F8049003F0F00300F0F0003E
:202BB000107343F00103537300E01D466B6813B118888142F9D1C5F80480687B00F0F0007A
:202BD0006873264802F08BFB80680088C91F81421ED0491C81421BD0238BDBB194F824100E
:202BF000678394F82500C4F81C9001F0F00100F0F00084F8241040F0010084F8250004F189
:202C10001803C8F80430507B00F0F000507301E013480760A068694600F0B6F8684602F08F
:202C3000D7FA30680028FCD03760012001F0C0FF012808D0687B00F0F00040F001006873EF
:202C5000084802F001FBA06846F81C0C05B0BDE8F083C0464112002001010E04AC11002081
:202C7000141200200D480000001004409D180000C011002070B5ADF1380DFFF7D5FE314964
:202C900008682822082340F00200086001A8002102F090FB2C4EB0782D4907902B48002319
:202CB00001AA02F083FB00213022082301A802F089FB002519213078274AADF81C5001ABF7
:202CD00009902448009502F079FB2822082301A8294602F06FFBF078214907901F4801AA80
:202CF0002B4602F063FB3022082301A8294602F069FB01241A2170781B4AADF81C4001ABBE
:202D100009901848009502F059FB184818492A46134602F043FB174802F096FA01F002FD44
:202D30002946012808BF211C154E3470124B1970124880F821504FF6FF720283114B1D7093
:202D50000EB070BD00200940C80300004C100020A950000074110020094D00008010002024
:202D70005935000090110020F5450000B4100020054F0000A931000041120020D81000202D
:202D9000401200203E12002080B50288A2F602073FB143F20502BF1A14BF002090F824003D
:202DB00000E0C07B2C4AD2F88832401F0B6048D0401E3CD0001F30D0801E24D0C01E18D02B
:202DD0000F380CD0D2F890024860D2F894028860D2F8BC0220F0784040F080503AE0506951
:202DF0004860D06A8860506C20F0784040F0704030E010694860906A8860106C20F078403E
:202E100040F0F04026E0D0684860506A8860D06B20F0784040F0C0401CE090684860106A71
:202E30008860906B20F0784040F0A04012E050684860D0698860506B20F0784040F0405011
:202E500008E01068486090698860106B20F0784040F02050C86080BDC41000502DE9F843BC
:202E7000044602F0D7FA81462D48021992F8ED10491ECFB2002F82F8ED704BD12B4D05EBE5
:202E900084052E78698836F07F0788461AD1F10911D24FF08054D4F8B80180690146404672
:202EB000884704F5DC742068406B0146404688470228F8D121E000EB8800D0F800110020BB
:202ED00088471AE04FF08054D4F8B801006A014640468847D4F8B801806A01464046884770
:202EF000D4F8B801006B01464046884701210D4A0D48116001688908FCD306F03F003F2892
:202F100001D0FFF7ABFF687800F03F003F2801D0FFF7A4FF484602F079FABDE8F883C04637
:202F3000481200202820086028200840B40200002DE9F041064602F06DFA2D4D8046A91923
:202F500091F8ED00421C002881F8ED204AD1294C04EB8604277807F03F003F2801D0FFF7D3
:202F7000E7FF607800F03F003F2801D0FFF7E0FF668837F07F001AD1F80911D24FF08054D1
:202F9000D4F8B801406901463046884704F5DC742068406B0146304688470128F8D121E06C
:202FB00005EB8605D5F80011012088471AE04FF08054D4F8B801C069014630468847D4F8A5
:202FD000B801406A014630468847D4F8B801C06A0146304688470121074A0848116001681A
:202FF0008908FCD3404602F011FABDE8F081C04648120020B4020000282008602820084052
:2030100080B502AFADF1180D8DF80A30ADF808200191009038889DF80A20BDF808100B30C2
:203030005043884201DD01204CE038880830411000EB917121F00301401AC0F104008DF819
:203050000B0001980390002004909DF80A00049988422ADD39889DF80B00049B019A401875
:20307000083000FB032001900198002101710199487920F0030048710199487920F00C008F
:20309000487138880199C88038889DF80B10019B019AC0180918083111600498401C0490EF
:2030B0009DF80A0004998842D4DC03980199086003980099086000980021416002490398D1
:2030D0000860002006B080BD3412002000B5ADF11C0D0391029004A802F082F82020009075
:2030F0002149204856220223FFF78AFF00B1FEE71C481E4908601E49087840F00100087079
:203110001B49087840F0020008701A491E2008701949087840F0020008701749087840F05C
:2031300004000870184A1648164904AB00F0F4F812490860002000218DE803000F4813492A
:20315000006801220023FFF7F7FA4FF4000000218DE803000F4B09480D490068012201F071
:2031700029FBFEE7F4110020340F00204C1600203F160020441600203E160020381200205F
:20319000280E002030150020081600204015002030160020393A0000042998B548D12548D8
:2031B00002F09DF8244C48B92B48411D0978490838BF206804D31C38406800E0C06820608A
:2031D00042681E4912780A6040680968007888422DD1022001F074FC1120FFF7A9FE2268A6
:2031F0001749107C18B108460078012806D00846012101700E20FFF79BFE2268516811480B
:203210008F680FB9CF681FB10021C1610E4F07600E4A40F2FF711160002787610C49416160
:203230000C4802F011F8192002F0B4F898BDFEE798BDC046AC11002020120020D02108405B
:203250003E1200200010044051000706000004600200004091430000F4100020F8B501F000
:20327000F9FF02F003F8044604F00C000C2845D0E0081ED201F0C8FC234E376805460120BD
:20329000014601F0E1FD31686943884211D21F4C8220B0FBF7F0291A204602F0B3F82046CB
:2032B00002F0ACF80120FEF787FD204601F0BCFD25E0200922D21648610939BF016821F062
:2032D0000101016841F0010102460160D2F898004FF0805440F00300C2F89800D4F8B80118
:2032F0008069014620208847D4F8B801094C806B2168804701202060206800E030BF01F081
:20331000AFFF00F053FFF8BDF4030000541200208C2108402C2009402DE9F041DFF8A880AB
:20333000044698F800001F4615460E46ADF1300D012804D0FFF79EFC4046012101704EB10F
:2033500066603DB1A56002F065F8204A117819B102F05CF8002033E0491CC9B2117002F0CC
:2033700055F801251FB9684601F03AFF6F46386820607868E060397A782204F11800217436
:20339000002100F069FC03A800212422082302F021F804F130008DF82450002103AA02F081
:2033B00015F803A800212422082301F0FBFF04F1680007490994002203AB01F0EFFF204669
:2033D0000CB0BDE8F081C0466916002043120020D55200002DE9F0411F46164688460546A9
:2033F00002F004F8DFF89CC0BCF9104041463B463246641A04D4BCF912408C4204DA0CE022
:20341000BCF912408C4205DABCF91240BCF91060B44202DC01F0E6FF2FE01C4C8E1001EB11
:20343000567626F00706891BCE0006EB4116A41994F8241011F0070F18D113496668B14239
:2034500002D066686160AE6505F1500181E80C0001F0C8FF05F130004FF0FF3101F096FF59
:2034700005F1600797E80300BDE8F08101F0BAFF94F8240010F0070FFAD102200021BDE824
:20349000F081C046AC11002099460000080C0020F8B50D46EEB2290824BF27494D40274B92
:2034B000B400DFF89CC0195900EA05020CEA020200F4E02C85EA0107BCF5E02F00EA070789
:2034D00021EA0001C7F3006742EA010201D1510E14D300F4E0210F4310D002F4E027B7F598
:2034F000A02707D0B7F5803704BF22F4003242F4A02203E022F4803242F4C0221A51114C2D
:20351000C10D04D3C5F38052A4F1D0018A55000E10D301F07FFF290E03D201220021B24085
:2035300002E00122B2401146236893431943216001F06CFFF8BDC046006000A00010084080
:20355000007F077FD0200240F8B501F063FF234C0746E06910F4602F23D0400CC5B2680866
:2035700007D2A80803D2E80828BF022502E0012500E000256E1D70B200F08AFF384601F03D
:2035900045FF04EB8500876827B1606815A20CCA3146B847E06911350121A9408843E0612B
:2035B00002E0384601F032FFE06918B10C48002101F08AFD94F8210080080DD367692FB1B5
:2035D00060680AA20CCA6FF00101B84794F8210000F0FD0084F82100F8BDC046D810002037
:2035F0008010002000000000000000080000000000000080F0B520480127F84201D001F052
:203610006BF8204D204F214EBD4206D203CD0478A4003459401CA047F6E71D48002800D01B
:203630008047164D164FBD4202D210CDA047FAE7F0BD03251BE0416808300A1C2A400BD156
:203650001A1C2A40AB4305D0046804300C600431043BF9D1131C05D0047801300C7001314E
:20367000013BF9D1021C2A4001D0A84304300368002BE0D17047C046FFFFFFFF00000000BC
:2036900000000000A0070000080800004007000055C501101B4838B50468B4F1FF3F08BF8B
:2036B000002401F029FD0025174818490560012008601749086000F0BFFF1648006820B1DF
:2036D000154800682046FDF70BFF144814490560144C0A686FF35B4244EA020008601249CF
:2036F0000868C0F30130012806D10A680F48104040F400320A6008600D4908680028FCD15A
:2037100038BDC0461C130050840460425C600C400822044380012843000120438C21084037
:20373000482003400000390104000940FFFFFCFC0C00684230B50546880FADF1140D38D30A
:2037500001F0C6F81C481F4C0078C0B91B4801F07BFD1B480078012803D005F1300001F030
:2037700011FE00202060022001F092F91120FFF775FB287CE8B90E20FFF770FB19E06FF425
:20379000007021682060104801F05EFD0F480FC86C4684E80F0001F03DFE0546684601F08B
:2037B00003FB284601F032FEBDF80200B0F5806FFCD105B030BDC0463D120020A931000063
:2037D0006916002000000460612B0000A8030000002A4AD05FEA000C8B071CD1830722D10A
:2037F000102A08D370B4103A78C978C0103AFBD270BC103238D0042A2CD3082A05D30C2AC3
:2038100024BF08C908C008C908C008C908C092072AD0920F22E00B780370491C401C521E8D
:2038300022D08B07F7D1C30714D18307D8D0121F12D308C903801B0C4380001D121FF8D2DF
:203850000AE008C903701B0A43701B0A83701B0AC370001D121FF4D2121D05D00B780370D4
:20387000491C401C521EF9D1604670472DE9F8432020EFF3118780F31188214CA068012132
:2038900001F07CFD4FF001094FF0000865692168A4F81C906A1A2168A4F81E80461B401A7D
:2038B000904227D387F3118840464519361A4846294601F05FFDB042F7D92021EFF311871E
:2038D00081F31188E18B012903D14046294601F051FDB0F1FF3F06D0A169801B814238BF19
:2038F000081C411901E0A069291801F03FFDA4F820902560A4F81C8087F31188BDE8F883A6
:20391000780100202DE9F843DFF87C900F4604464FF0FF31484601F039FDDFF870801D48DB
:2039300000210AE0FF2A07D00368934202D958F822600EB1002421E0491C1FB117F8212016
:20395000FE2AEFD100202060012660600546A0600EE0FF290BD0636806FA01F048F821404F
:2039700018430B4960601268204601F05DF86D1C27B107EB85021178FE29EAD1484601F0DE
:2039900001FD2046BDE8F88358110020B80E0020007FC767240E00202DE9984301F03AFD0C
:2039B0001F4CDFF87880814604F1E000007850B94446A0680146022088470746102000F069
:2039D00041FF2FB320E000F0FBFA002820460FD1144909683222B2FBF1F101B9012100F1E4
:2039F0003004204601F00EFD204601F007FD0FE044460022A16880F8E0200220884707466C
:203A1000102000F01FFF1FB1A068014603208847484601F0FBFCBDE89883C046B803000050
:203A300048120020F40300001FB5ADF80410009002AC84E80C0002A890E80C004FF4000150
:203A5000002011401840002800D1002925D0062001F07EFB0022002100B1012101B90122F3
:203A70000F480068062100F06FFF01F00BFC0D4908600C4800680C49007A087009480B4994
:203A900000680930086008480849027809680848521CFFF79DFE01F097F900901FBDC0463F
:203AB0003012002008120020441200202C1200201C1100207CB5042001F07AF8022818D06F
:203AD000032816D01A480068C0F38150032814BF41F288324FF47A721748184C01685434A9
:203AF0002046B2FBF1F101F08DFC204601F086FC7CBD4FF08056D6F8A4010E4D4068032186
:203B10004FF040521C230446009100212846A047D6F8A40101214FF4007209234068009185
:203B3000044600212846A047022000F0B1FF7CBDB43F005000A00C40F4030000481200201A
:203B5000F8B51F4CA0F5C060D4F8B810C4F8D4000029B8BF49420028B8BF404281422BDA50
:203B70004FF08057D7F8A401B4F8BC10154D40684FF47F4208230646009128463021B04767
:203B9000D7F8A401B4F8C01040684FF4F80212230646009104212846B047D7F8A401B4F884
:203BB000D01040684FF440620A230646009120212846B047012000E0002084F8D800F8BDAE
:203BD0004812002000A00C4008B5FEF72DFF1C48FEF7F6FB10B10BA001F0C4FB1A481B4965
:203BF000FFF790FE174908601648006810B90BA001F0B8FB1348006800F0A8FA01F0AEFB9C
:203C1000002008BD4572726F7220776974682050494E5F696E69740A00C046C04572726F47
:203C30007220696E697469616C697A696E6720626F617264204C45442070696E730A00C016
:203C50004803000010120020E811002054160020002213460A46194671B510F0030F0BD0E7
:203C7000002A82BF00F8011BB2F1010210F0030FF6D1002A08BF71BD11F0FF0141EA0121C9
:203C9000042A18D341EA0141082A0FD30E46102A08D30C460D46B2F10F0312F00F0272C072
:203CB000103BFCD812F0080F18BF42C012F0040F18BF40F8041B12F0020F18BF20F8021B81
:203CD00012F0010F18BF017071BD70471A4898B5D0F8781203680F0F03F0FF03802B28BF84
:203CF000002300F01FFD4FF0FF3478B1401E07D0401E012802D9801E19D01AE0BFB118E06A
:203D1000381C12D0801E14D1143311E03846401E0BD0801E07D0001F03D0401E09D1163303
:203D300006E0152405E0142403E00A2401E00A335CB2204698BDC046A0100050174870B5B5
:203D50000068C0F3046001F06AFA154B0246187800F01F0001F063FA82421ED0114E124C7B
:203D7000002101253160111A022905DC11F1020FB8BF6FF0010100E002210818216800F09D
:203D90001F0141F4F851A3F8661082422560EAD12068256020683560206870BD8813005096
:203DB00006620840980020432C20094038B51749184C00204822C1F8F30F94F8E200C1F896
:203DD000FF2F00B3012813D0022807D003281AD151F8310CFFF7B4FE0B2012E051F8315CAE
:203DF0002846FEF7F7F9B5F5C06FF5D0082008E051F8310C00F00AFA054800780028EBD090
:203E1000052084F8E400FEF7CBFB38BD39400C40C60300004812002030B5401E4FF00004CF
:203E3000ADF12C0D0AD0401E04D0401E20D1FEF7B7FB1DE000F000FB044619E001A821465E
:203E50002422082301F0AEFA06940B4DADF814400A490794012201AB05F1780001F09EFAA9
:203E7000074A23462C2105F19C00009301F0A6FA20460BB030BDC046481200207D42000028
:203E9000BD3D00002DE9F041054615F8017B90460E461CE0B8F1000F05F101050BD0FF2C1D
:203EB00009D8022015F8011B401E41EA0424F9D101E0042C02D315F8011B00E03946304667
:203ED0002246FFF7C9FEA61901E006F8010B15F8010B8742F9D115F8014B002CE9D115F80B
:203EF000010B2C7800022418D4D1BDE8F081704738B51849164D0446103909686868C1F319
:203F10000342C1F30353400812D22868050513EB257303D4102BA8BF0F2300E00023000434
:203F300012EB207203D4102AA8BF0F2200E0002242EA031201F47F4001F0FF03222C40EAD7
:203F5000024243EA020024BF01F08041084338BDAC3F0050881300500146184880B5383897
:203F700000688A0CC0F38367C0F38F2022D241F3072100290BD54A420021400805D17F0889
:203F900006BF0127381C4FF6FF70521EF5D1002910DD4FF6FF72400040F00100824207D20C
:203FB000780040F001070F2F92BF01200F27101C491EF0D140EA074080BDC0468813005068
:203FD00038B5012000F0F4FD012820D0114DD5F82401C4681048342101220023A04700284B
:203FF00008BF002014D0286800F04CFE01F000F80B4A0A4D93681168D060C01AA1EB9101EB
:2040100005FB00F3180C884228BF011C1160012038BDC0468000001000A00C4040420F0011
:20403000D4110020B0B5074601F0F4F9114905460878D8B1401EC0B20870B8B90E480821F5
:2040500001F042F897B10D4C2068683000F0ECFE0C4920680968C068094C3F1A2046B7FB4E
:20407000F1F101F0CFF9204601F0C8F9284601F0CDF9B0BD421200204C10002020120020A9
:20409000B4100020F40300002DE9F8438146EFF31188202080F311880125114E114CF5611E
:2040B000114F6560F86A016A14208847D9F81000810C14BF000C0420A0613868026823213B
:2040D00000209047C6F88052206820F4C02040F480302060356088F31188BDE8F883C0469A
:2040F0000000244300200940840100102DE9FC41144C154F06468846700809D32068456891
:20411000002101220B461FFA88F000903846A847B00809D3206845680021022201231FFA21
:2041300088F000903846A847F00809D320681FFA88F600210C220223446800963846A047EC
:20415000BDE8FC81A401001000A00C4008B500900C49009808600C4800F0E4FF0B494FF42C
:20417000806008600A49022008600B48094908600B480A490860044A0A480B49002301F0E7
:20419000E9F808BD30120020DC0F0020FC0F0020F40F0020F80F002008020020EC0F002042
:2041B00040420F008C0F0020DD300000144880B5076827B313498B6803EA5300C00E1ED26F
:2041D000486880081BD2104A1068096810F0050F4FEA114101F0F00101F5E0710AD1B942C9
:2041F0000DD2190F38BF40F00100D90E38BF40F0040003E0B94202D920F00500106080BDF3
:2042100028500940AC3F005000000940134910B50A684BF2F5214843040AC2F3814001282B
:2042300006D100F007FD00F071FB604304EB90540C4901F1E500007830B90948006820F07B
:204250007F402418640802E0002081F8E50006480460210C41600123836010BDB43F0050F0
:2042700010200940481200203C600C401548134A1349E4300078801E0A281CD8DFE800F036
:2042900018130E1B130E1B130E1B06C010688008FCD250688008FCD2FEF782B90868800878
:2042B000FCD3FEF77DB908688008FCD2FEF778B910688008FCD3FEF773B9C04634600C4032
:2042D00038600C40481200200F4810B5007800281CBF0E48006815D100F030FF0FA20CCA8F
:2042F00000F0CEFE0A4A126800231B184FEA020408A044EB010490E80600C91842EB040221
:204310001046001C10BDC0463C12002004300440D0110020000000127A00000000093D008F
:2043300000000000B0B5154C241D20680004070C21D000F07FFC104991F90720824205DDBB
:2043500010F1800FB8BF6FF07F00C8718D88BD4210D80A68D4F8D40F801A801C1F2888BF4E
:204370001F207F1B4008C7404FF6FF70EF19B84238BF071C8F80B0BDFC1100203010094003
:2043900098B50446880F1FD36168486808B180476168886808B9CF6877B10C4A1768002F17
:2043B000FCD00023136008B180476168C86800B18047074800F0F8FC064800F045FF064897
:2043D0004FF0005100F080FE98BDC0461C10044001000706612B00004C100020154909681F
:2043F0001E280ADC1E2819D00C380FD00A380FD0001F0FD0C01E0FD01AE0243810D0001FFE
:2044100010D0401E10D0401E10D011E0086870474868704788687047C868704708697047FB
:204430004869704788697047C8697047086A704700207047F001002038B5134D95F8E100A8
:20445000002410B91148007860B100F0E3FF95F8E310002906BF012185F8E310012400F096
:20447000D5FF0CB1002038BD022000F029FB0E20FEF75EFD00F02EFC01280EBF0120002081
:2044900085F8E20038BDC04648120020C6030000F8B5044600F0BEFF844611481C3890F8CC
:2044B0002110C90803D390F82010A14212D00D49091D068B0B68012504F10C0705FA07F2F1
:2044D000A540934335430B600F68058317B9034900200870604600F099FFF8BD68160020FA
:2044F000F410002008100440ADF1080D10480090104801900099002081F85000009901206C
:2045100081F835000099022081F839000099032081F837000099042081F86E0000990520A2
:2045300081F86B0004490198416002B07047C04640030021BC030021DD050021012838B534
:204550001ED1012000F034FB01281BD000F068FD0E4D0D480122322305F1E00100680A70D2
:20457000B3FBF0F404B914463035284600F05CFC2846214600F046FF284600F03FFF01E0E0
:2045900000F038FA002038BDF40300004812002010B50446207B00F00F00022819D10E4850
:2045B0000078012815D0FFF78FFEA1686FF070428908A1EB900082420BDDB0F1704FBCBF94
:2045D0000649084406490968C96801F57A71814200DB002010BDC04668160020F6FFFF1F1C
:2045F0002012002010B510480E4C01680C40E1430160A10907D34068800904D30D484FF484
:20461000005100F061FD14F4602F09D00748016804F460240C4304600548002100F054FDE5
:2046300010BDC04620000E0008100440F4100020801000204C1000200F4908680028FCD100
:20465000104A131D0D49186820F0030001430C480068C0080CD2106810F0030F0AD041F09C
:2046700003001860106800F003000328FAD101E041F00101196070470C0068420400002030
:20469000B03F0050004003402DE998430446A76D9946904607B1B8470020022100EA090057
:2046B00001EA0801002808BF00290BD104F1500090E8060008EA010109EA0200002808BF67
:2046D000002907D004F1600080E8000304F1300000F058FEBDE89883F8B506460F4D104F2B
:2046F0007388002417E0A00000EBC400321851689068D26852B9AF420BD00A7855F8222028
:204710000346491C08461946904701E0FFF760F87388641CA4B2A342E5DCF8BD40070000B5
:204730004C070000104A1068C0F30F314BF69A10884207D111680B20B0EB117F14BF002002
:20475000042070472430884208BF01200BD04BF64130884208BF032005D0213888420CBF64
:2047700002204FF0FF307047181300502DE9F84300F094FD0D4D2F688046A7B1DFF83090EF
:204790000024012606FA04F018EA000F07D059F8240020B1036813B1214698472F68641C10
:2047B000E4B2BC42EED3BDE8F883C046240E0020B80E0020F0B5044605AFADF10C0D03B920
:2047D000094B97E860008DE86000FDF7B5FF011C44BF06A003C804D406A20CCA2046FEF7D7
:2047F000F9FD03B0F0BDC046994600000000000000000080020000000000007010B5012096
:2048100000F0D6F901280CD00A48094C016832222046B2FBF1F100F0F5FD204600F0EEFD48
:2048300010BD054800F010FD04490548086010BDB4100020F40300009D180000001004409E
:20485000C011002070B5104C0646204600F032FD0025B0B9204600F03EFD0446A06806424C
:204870000AD0E068226900210346304698470546012D08BF012005D0204600F02EFD041CE5
:20489000ECD1284670BDC046481200200C4885460C4885446F4607208743BD460A486F4644
:2048B00007600A48002803D07946491D8E460047FEF7A0FE00F0D8FB00F048FDFEE7C0467E
:2048D000004E00200002000064160020B95200000C49086820F0020040F4007008600A487E
:2048F000032140F8041C41F230018160012101605022826001604FF4CA628260016040F8C5
:204910000C1C7047000004600C4104400D4938B5D1F8EC3209681B3800FB00F409060A16A7
:2049300043F3072100FB01F519066043091661434243891201EBE50101EBA24000EB234085
:2049500038BDC046A410005084460B4880B5174602688A42604604D9084A52F82120904231
:2049700001D0022080BD002307B10123044A0020E03A535480BDC046240E0020B80E00204E
:20499000E02002402DE9B0430F46044600F0ABFC04F1280292E800034B464246FDF720FBC2
:2049B00005460B462A464046494600F069FB17B1303484E803002846BDE8B08398B50146FD
:2049D000886840F603031A462027521C02E040687F1EFFB260B15FB10488A34218BFA24261
:2049F000F5D1C9681CC818311CC189C881E8890098BD704710B503200021FFF777FB0120C5
:204A100000F0D6F818B10648006800F03BF900F0EFFA044C083C606000F00CF9206110BDB5
:204A300080000010DC1100200A4B10B51B6802F0FF04A34206D9084C02F0FF0354F823308C
:204A5000984201D0022010BD08461146FEF720FD002010BD240E0020B80E002070B5044661
:204A700004F128020CCA0846002100F009FB04F1300292E860002D1846EB0106290C3004E7
:204A9000014300F07DF8383484E8600070BD704710B5044600F0BEFC084BE21892F8E810B9
:204AB000491EC9B282F8E81021B99A680121A1408A439A6000F0AAFC10BDC0464812002009
:204AD00038B5044600F0A6FC084A02F108031D680121A14012192943196092F8E810491C2E
:204AF00082F8E81000F092FC38BDC046481200200949020480B5120C41F8082CC0F307402F
:204B100041F8040C0120086004480768002FFCD00020086080BDC04644600C4084088C43E7
:204B300010B500F063FC00F065FC032000F00AFC06481030006830B1034C204600F015FB5B
:204B5000204600F00FFB10BD83510000A4010020084910B5002008600120C861064CA06243
:204B7000A16A206005480068016A14208847A06A10BDC0460000244304200940B001001005
:204B900010B50C4600F034FA211AB1F1004F08D8011B091DC90F05D1001DA04288BF041C6E
:204BB00000E0041D01481830046010BD0020094002460849084810B5042A07BF4FF0C042D6
:204BD0001D234FF080521C230968CC683421A04710BDC046A401001000A00C40B0B5054630
:204BF0002F680C46002020601FB900F013FC2F4606E000F00FFC00E03F6839680029FBD1D2
:204C10003C6000F003FCB0BD38B52020EFF3118580F31188064CA068002100F0AFFB6169FC
:204C3000081AA169814238BF002085F3118838BD780100200748816841F31002064991F968
:204C500000100068A0F5407041430811121A803210127047285009400C130050202838BFC4
:204C7000064809D306480C300068000381158905C0F30930000308437047C04600803F40EB
:204C90008C13005070B5054600F0E4FA002400B90124054E30680028FCD0A8470120306056
:204CB0000CB100F0DDFA70BD00800C4008B5283090E80C0005A003C8FDF792F9002908BFEF
:204CD000B0F1FF3F88BF4FF0FF3008BD00000000907E000006490868002818BF012005D1A8
:204CF000044B4020012218600020CA617047C04604800C402C500C4008B500F085F900F09F
:204D1000804100F00200084304D003484FF0005100F0DAF908BDC0464C100020074808B5C0
:204D30001030006828B1034800F01FFA024800F019FA08BD194E0000C1500000A40100203F
:204D5000074810B51030006830B1044C204600F00CFA204600F006FA10BDC046034A000084
:204D7000A4010020074808B500F0E8FAFFF7D6FF00F0E0FA00F0DAFA00F0D4FA00F0CEFAB1
:204D900008BDC046314B0000202838BF002008D304480C300068C10C01F44071C0F3845098
:204DB000084370478C130050064A014610680028FCD10023D3611160D0690028FCD0D361C5
:204DD0005068704700100440064800680021017104480068034900680860024800680079BC
:204DF0007047C04634120020064901281CBF081C002104D10846002100F8021C20210170DC
:204E10007047C0460262084010B5064C206900F081FA0146A06800B9E160A068401CA06061
:204E300010BDC046A4010020002181820449C0684969814203D10348006800F0DFBA7047F5
:204E500078010020F803000002294FF0000204D0012808BF4FF47A7203E0012808BF40F24A
:204E7000EE2210467047FEE70548143801680348084001F07C4108437047C046FCFCFC00E1
:204E9000881300500549383908680968C0F3870001F0030140EA01207047C0468813005055
:204EB000002948BF0021044A02EB8000026861F3050202607047C046001008400349044802
:204ED00009680160034800F0FFB8C046E0200240E020026018100020044808B5007820B1BA
:204EF0000348001D006800B1804708BD2E130020B803000008B500F021F9034908600348B3
:204F1000042100F0E1F808BD141200204C10002008B504480090044900984FF41E72FEF7C6
:204F300057FC08BD1C0400213C00000008B50548034A41680120106048698969884708BD04
:204F500004200940E4010020044884380068C0F302400428C8BF4FF0FF3070471813005017
:204F7000222804D303480068C0F30070704701207047C0468C130050222804D303480068D2
:204F9000C0F34070704701207047C0468C13005004481838006800F47C010004000C08434A
:204FB0007047C04688130050202805D303480C300068C0F301507047002070478C130050A9
:204FD000222804D303480068C0F3C060704700207047C0468C130050222804D303480068C3
:204FF000C0F34550704700207047C0468C13005004480168436802688A42FAD1080440EA3F
:205010001340704708200940044910310868C3430B600A681042FBD17047C04600100440F5
:2050300008B503200121FFF761F8FFF7E1FF0149086008BDDC11002038B5054600F0EAF9AA
:205050002C680CB12168296000F0E0F9204638BD012814BF002140F2FF71024A002011601D
:205070007047C046000004600449B1F1FF3F07BF0020011C0868091DFEF7A6BDFFFFFFFFE5
:2050900030B502FB01F403FB00444FF00005E2FB00542146284630BD08B500F0FFF80146C5
:2050B0000248006800F07CF808BDC0462012002004498868401E886003D10869C96800F0C4
:2050D00025B97047A40100202022EFF3118382F31188426A1143416283F3118800F012B933
:2050F000034804490068814201D0FFF7BCBE704794CA01107047392008B5FFF713FB01287C
:2051100003D1FEF7E3FD142800DAFEE708BD10B50446FFF715FE032000F014F9204600F088
:2051300015F910BD08B50090009828B1009800213C22082300F0E2F808BDFEE7034A11684A
:20515000506813688B42FAD17047C04608200940014603480068C84000F001007047C04696
:20517000802002400349086070470249091F0860704770476016002008B500F0BBF8024849
:20519000006800F0BFF808BD8401002000B50921ADF1240D684600F0A9F809B000BD70476C
:2051B000024A08B51268904708BDC0462412002002480068C0F3C1407047C0468C13005052
:2051D00002480C380068C0F30D00704788130050014602481022FEF7FBBAC04618000021BB
:2051F00002490EC980E80E007047C0469C03000008B5FEF77CFEFFF78BFEFFF775F908BDD7
:20521000102802D3014910380860704700EF00E0006801092CBF042000F00300704701467F
:205230001628A8BFA0F1200108467047D0F80320C31D08461946FEF7CBBA08B500F053F818
:20525000000C0904084308BD014908607047C04624120020EFF3108072B670470020704728
:20527000EFF3108062B67047002070470148083000687047481200200149ED31085C704769
:2052900048120020014800687047C04634120020D0F8032008460021FEF7DEBC0148806896
:2052B0007047C046C801002008B5FEF7F3F9FFF717FF08BD0168002001B9012070474FF06F
:2052D000FF3070470020FEF7ADBE0122FEF7DABD81604260704700687047006870470068C9
:2052F000704700207047FFF729BF0000DFF800F009C30110DFF800F063BE0110DFF800F0CE
:20531000D5C10110DFF800F01DB30110DFF800F049C20110DFF800F045C20110DFF800F0A5
:2053300005C30110DFF800F039C20110DFF800F089C20110DFF800F091B70110DFF800F0A7
:205350007DC60110DFF800F041C00110DFF800F0CDC70110DFF800F025B10110DFF800F02F
:2053700051C00110DFF800F045C70110DFF800F0B9BE0110DFF800F009A80110DFF800F078
:2053900091C00110DFF800F041AC0110DFF800F001A00110DFF800F095B20110DFF800F077
:2053B00075B50110DFF800F081C10110DFF800F085B00110DFF800F0C9C10110DFF800F052
:2053D00029AF0110DFF800F039C10110DFF800F005B70110DFF800F0BDC10110DFF800F051
:2053F00045BA0110DFF800F0DDB50110DFF800F0D1C00110DFF800F0F1C00110DFF800F06A
:1C541000DFBF0110DFF800F0BDC20110DFF800F015C20110DFF800F045C10110ED
:020000040001F9
:20FFA80000008001100088FFFDFF58003AFFBFF3FFFFFFFFFFFFFFFFFFFFFFFFFFFFFFFFF2
:20FFC800FFFFFFFFFFFFFFFFFFFFFFFFFFFFFFFFFFFFFF00FFFFFFFF00FFFFFFC500C5FFAA
:18FFE800000000FF00000000FFFFFFFFFFFFFFFFFFFFFFFFFFFFFFFF12
:00000001FF
