:20000000683F0020D54E000001CA011001CA011001CA011001CA011001CA011001CA0110CE
:1C00200001CA011001CA011001CA011001CA011001CA011001CA01103FCA011082
:20003C0038B505F055FF2E4C00250C3C656006F047FD05F011FF05F095FC06F0A7FE00F072
:20005C0011FAE08A00EA5001C9080FD2010906D2C00838BF12A103D315A1112201E019A174
:20007C000E2204F1180002F037FF08E019A10A6804F1180002604B6843600A89028104F11B
:20009C001803184606F0D2FCC1B21A46284606F087FCA21C0120022106F082FC38BDC046DC
:2000BC00544920424C4520556E6B6E6F776E00C0544920424C452050657269706865726174
:2000DC006C00C046544920424C452043656E7472616C00C0544920424C4520416C6C00C0D0
:0400FC0014020020CA
:200100003C000000000000000000000034010000000000000000000001000000000000006D
:1C01200000000000000000000000000001000000000000000800000000000000BA
:20013C00340000000000000000000000680100000000000000000000010000000000000005
:14015C00010000000000000000000000080000000000000086
:2001700030000000000000000000000098010000040000000000000001000000FFFFFFFFA5
:10019000FF00000001000000080000000000000057
:2001A0002C0000000000000000000000C4010000040000000000000001000000FFFFFFFF4D
:0C01C000FFFFFFFF08000000000000002F
:2001CC0034050000E401000099A1011095A70110A5C2011009B2011045B80110000000000B
:0801EC00000000002F000000DC
:2001F400280000000000000000000000140200000000000000000000FFFFFFFF00000000B1
:080214000800000000000000DA
:20021C00300500003002000069C201106DC101101FC2011095BA011000000000000000008E
:04023C002D00000091
:20024000300500005402000075C20110A9B601109DBF011049B601100000000000000000DE
:040260002E0000006C
:200264002400000000000000000000008002000000000000000000000000000008000000CC
:040284000000000076
:20028800240000000000000000000000A40200000000000000000000000000000800000084
:0402A8000000000052
:2002AC00240000000000000000000000C8020000000000000100000000000000080000003B
:0402CC00000000002E
:2002D000000000001C0E0020040000000000000000000000200000007001000030000000FF
:2002F0001C020000480E00200400000000000000000000000C0000003004000018000000FE
:2003100040020000540E00200400000000000000000000002400000048040000180000007D
:20033000000000005C0E002004000000000000000000000010000000A00100002C00000042
:20035000CC010000640E002004000000000000000000000020000000640200002400000080
:20037000FFFFFFFF840E0020040000000000000000000000280000008802000024000000E5
:20039000FFFFFFFFB40E0020040000000000000000000000580000003C01000034000000A2
:2003B000FFFFFFFFBC0E0020040000000000000000000000100000006004000018000000B7
:2003D000FFFFFFFFC40E00200400000000000000000000001C000000AC020000240000002D
:2003F000FFFFFFFFCC0E002004000000000000000000000038000000F4010000280000009E
:20041000FFFFFFFFD40E002004000000000000000000000054000000000100003C00000039
:1804300018000000000000000000000040040000080000000000000050
:1804480018000000000000000000000058040000080000000000000020
:18046000180000000000000000000000700400000800000000000000F0
:08047800010000008472000085
:0404800006F0A7BC1F
:040484000100000073
:0404880000000E0062
:04048C0000000F005D
:040490003200000036
:040494000100000063
:04049800240E00200E
:04049C00000200005A
:0404A0000000000058
:0404A40001CA011078
:0404A8000000000050
:0404AC00000000004C
:0404B0000800000040
:0404B4000000230021
:0404B80060100020B0
:0404BC00010000003B
:0404C0006C0E00209E
:0404C400080000002C
:0404C8000000000030
:0404CC00000000002C
:0404D0000000000028
:0404D4000000000024
:0404D8000000000020
:0404DC00010000001B
:0404E000FC100020EC
:0404E400060000000E
:0404E800010000000F
:0404EC00C80F002015
:0404F0000000000008
:0404F4000000000004
:0404F80000020000FE
:0404FC0000000000FC
:02050000704742
:020502002900CE
:020504000100F4
:020506002500CE
:020508002D00C4
:02050A002E00C1
:02050C002F00BE
:02050E000100EA
:0105100001E9
:08051400030000006872000002
:08051C000000000000000000D7
:0405240000000100D2
:0405280000000300CC
:04052C0087C401106F
:04053000380500008A
:040534003805000086
:0405380000000000BF
:04053C00900000002B
:040540009000000027
:0405440000000000B3
:040548006C0E002015
:04054C00B16A000090
:040550002000000087
:0405540034720000FD
:04055800B871000076
:04055C000DC30110BA
:04056000FB5200004A
:04056400E35B000055
:0405680099C801101D
:04056C009BC8011017
:040570000000000087
:04057400937100007F
:04057800A870000067
:04057C00C07000004B
:040580009070000077
:0205840008006D
:0205860009006A
:02058800010070
:02058A0000006F
:01058C00016D
:040590000000000067
:040594000000000063
:04059800000000005F
:04059C00000000005B
:0405A000076E0000E2
:0405A400DD53000023
:0405A8002D600000C2
:0405AC00415A0000B0
:0405B000C757000029
:0405B400715A000078
:0405B800513F0000AF
:0405BC00536C00007C
:0405C0006143000093
:0405C40011C8011049
:0405C80021C8011035
:0405CC000800000023
:0405D0002400000003
:0405D400180000000B
:0405D80028000000F7
:0405DC0020000000FB
:0405E0003C000000DB
:0405E4000C00000007
:0405E80034000000DB
:2005EC002DE9FE43AF4C0F460646F80B80F03581B80880F0C7806069B90F67D2A07A002850
:20060C0048D1380948D30025657001262672284601F033FFA44806F01DFBA4492A4604F1C3
:20062C004C0006F0D9FB607901281AD1A079C0B99F4E306870B106F0C5F96169236A3268CE
:20064C00401A000BE061C018B0EBC21F28BF256208D2206204F1C8004FF0005106F058F936
:20066C0031E0667104F1380140F60900088094F8450000F0F00040F0010084F84500658702
:20068C0094F8440000F0F00084F84400E563894E316018E0380914D2B80BC0F0FB8004F12C
:2006AC00280006F0A6FB061C08D0706830B17568F068B6F91C1082A20CCAA84727F4005751
:2006CC00E8E00020A07227F00807E3E0D8B1042005F0FCFEB8B106F075F9A0616169814234
:2006EC0026BF401A401E401A000BF060F06840F6C41100F58D708142F06003D340F2EE221C
:20070C00824200D9F1600025D6F818C06561BCF1000F0FD094F8450010F00F0F0AD1708CED
:20072C0040F60901814205D167A20CCA30466FF48071E047604904F14C002A4606F04CFB6D
:20074C00A07950B10220ADF80000684605F0B2FDA571BDF80800A4F8A000012060702079C1
:20076C00A846401C2071192084F8078006F0F8F9756925B156A20CCA30464146A84727F0EA
:20078C00005787E004F13009484606F032FB061C5AD004F054FE4FF00008B269C6F8188066
:2007AC007068B8B1F07F42F00202002300F00700401E07D0401E03D0801E06D146A002E08A
:2007CC0047A000E048A090E80C007568F068B6F91C10A84706F0A0FB0546B4F93600401CC0
:2007EC006FF31F30E086206B1F30017801F07F010170484606F028F8284606F089FBF068BD
:20080C00B0F99410B4F9362091421DD1217801291AD090F8965095B9056885B1E1680968F5
:20082C00B1F1FF3F10D0254909687030B5FBF1F106F06AFBF068703006F062FB04E080F8D9
:20084C009680404603F058FD484606F0D2FA27F0020708B147F002071CE006F05DFB0146AE
:20086C0004F12C0006F0C5FA0646B569084606F04FFBA8080CD25EB1B069A843B061706814
:20088C0030B12A46F068B6F91C1075680023A84727F4804727B104F1C800394606F038F8BD
:2008AC00BDE8FE83C0090020453D000031610000601D002000100440C51E00007C72000047
:2008CC000000000020000000000000000000000200000000000000040000000000000010D6
:2008EC00000000000000004000000000000000202DE9F84FA24E4FF000084FF0FF0B4FF070
:20090C00020A4FF00309444600E170810A2034E03069B178071D406840189DF800100171DD
:20092C00B078401CC3B2B37005F0F4FCB1880546C91AA9420ADA38681B1889B21B1D1846D0
:20094C0004F0F2FCB088C1B2B1700BE038681B1829461B1D184604F0E7FCB0782D18E9B23B
:20096C00B170B088884240F0D180F36823B131690C304246C0B2984740463070C6E09DF888
:20098C000000B0809DF80070B47007F10C0005F030FC306120B300F1080141607778077266
:2009AC004268B1795170F17942689170B7884168CF7080F801B0F1883F25B5EBA12F0AD109
:2009CC00C1F3C2153DB1932101704168887800F00300887001E080F800A00420307000E03C
:2009EC00B788002F40F09280F368002B51D031690C204CE09DF800009DF8007070707F1E8B
:200A0C0004D07F1E012FB7D80520B6E70120B4E79DF80000B0800827377077E007279DF867
:200A2C0000103089377040EA012030816EE006219DF800003170F8E79DF80010F08840EA6D
:200A4C000120F08086F8009060E09DF80000F08086F800A05AE080F8009080F801B0717834
:200A6C00817031896FF31F31818031890927C1F301318171B188377001817169B78801F1DD
:200A8C001002002FC26041D1F36813B110204246984734703AE07089401E80B200287081BF
:200AAC003FF46AAF32E07069B1789DF80050C26800F10C075554B078401CC3B2B37005F0FD
:200ACC0029FCB1880546C91AA94209DA386889B21B18184604F028FCB088C1B2B1700AE076
:200AEC00386829461B18184604F01EFCB0782D18E9B2B170B088884208D1F36823B171692F
:200B0C0010304246C0B2984786F8008005F002FC98B36846012104F007FC30780A28F5D806
:200B2C00800001A109588F46010A0000570A0000450A00008B0900001D0900003B0A000097
:200B4C00290A00001D0A0000610B0000B30A0000A30A00009DF80010B08840EA0120B08001
:200B6C00B0F5877FB4703FF7D0AE103005F041FB002870617FF46FAF3470BDE8F88FC04615
:200B8C008C1100202DE9F04F0128ADF1140D40F0F280DFF81492D9F8DC00012840F0E980C1
:200BAC000220C9F8DC0006F0A7F90290012004F097F820B101210646C9F8DC10D5E006F007
:200BCC0097F903906E484FF00008C0F80080012005F07CFC012818BFCDF8008004D1404683
:200BEC0003F096FC0120009066486E4CC0F800801934D4F8FF0F112006F076F800280CBF64
:200C0C0046460126102006F06FF808B146F002060F2006F069F808B146F004060B2006F0F1
:200C2C0063F830B1584800685849006B0246088890470A2006F058F80028404618BF012093
:200C4C004FF0805B0BF5DC7528B128685049006B0246088890474F48012707602868806962
:200C6C00014646F0200088474B48076006F036F800F001010191400815D2484805F0B9FFEE
:200C8C008246BAF1040FF8D0BAF1010F06D1DBF8D80140680246414803219047404908684F
:200CAC0020F003000860404600F080F82868D4F8FF1F806B8047019801280ED0BAF1010F38
:200CCC0006D1DBF8D801406802463448394690473349086840F0030008602A4807602868D3
:200CEC0040690146304688470B2005F0FDFF28B128682649C06A0246088890470A2005F0C7
:200D0C00F3FF28B128682249C06A024608889047204807600322C9F8DC201F4BC3F80080D2
:200D2C002868406B0146304688470128F8D1042003F0D6FF124807601A48D4F8FF1F01688C
:200D4C008909FCD30098012802D1384603F0E0FB05F0B2FF082003F0C3FF06460398C9F81B
:200D6C00DC7006F0C1F803F06BFA029806F0B8F802E0042600E00126304605B0BDE8F08F72
:200D8C000C40094000022243B801001026700000227000002820086080010443004003405F
:200DAC002422084014100940040D00202DE9F84F82467A48DFF8D89135380068800880F007
:200DCC00D88005F0A1F8054678480830D0F8008000244FEA2876761C5FEA98500AD2C5F146
:200DEC003E0015F10A0F4FEAE000D8BF08208642B8BF061C634FD7F87C01C0F3046005F047
:200E0C00F1FE83463868C0F3044005F0EBFE06EB0B020090162A05DA12F10A0FB8BF6FF0FA
:200E2C00090200E01522584B584F02F01F0141F4F8511980396811F0030F18BF0124C90890
:200E4C0028BF44F00204BAF1000F18BF44F00404494691F90730EB1A052B04DA8B79A3424C
:200E6C0008BF888864D0DFF82CE10F2DA5F10F0C25DB0CEB0513A3F1F00C4FEA2C27072F29
:200E8C0088BF07273E46062E88BF06265EF82600042303EB86037646F3581B1A03F0FF0658
:200EAC00E00824BFC3F307200644A00824BFC3F307400644600828BF06EB136601E00026A2
:200ECC0037465EF827E0E0080EF0FF0324BFCEF307200344A00824BFCEF3074003446008F0
:200EEC0028BF03EB1E630098B6B2ACEB07277E43801A06F1800603EB1623D8BF01203422BE
:200F0C0008F0FF0742437A43B2FBF3F04FF6FF72824238BF101C802D80B2888005DA15F18C
:200F2C00800FB8BF6FF07F0500E07F25CD718C71194A12681F280A604FF0000208D340F221
:200F4C00FF11814206D24008521C8142FBD301E01F208880124F11490F38000942EAC00272
:200F6C0047EA0200C1F8FB0F0026C1F8FF6FBDE8F88F0D4F0B4E494608203760891D0870D5
:200F8C00BDE8F88F3C1100506E62084024220840581D00209C130050082009403500094053
:200FAC0000E7A48030100940FDFDA400AC3F00502DE9F0411C4615468C4208BF854282BF17
:200FCC0000230022E5E0002C08BF002D0AD100290EBF00286FF000006FF0000100F0E1F85A
:200FEC00BDE8F0815FF000085FF0000E002C08BF8D429CBF2C1C0025070C47EA01470E0CEB
:20100C00B44208BFBD429EBF5FEA044444EA15445FEA0545070A47EA01670E0AB44208BF81
:20102C00BD429EBF5FEA042444EA15645FEA0525470847EAC1774E08B44208BFBD4200F201
:20104C009380870847EA81778E08B44208BFBD427CD8C70847EA4177CE08B44208BFBD42C9
:20106C0066D8070947EA01770E09B44208BFBD4250D8470947EAC1674E09B44208BFBD42B6
:20108C003AD8870947EA81678E09B44208BFBD4224D8C70947EA4167CE09B44208BFBD42FE
:2010AC000DD8E60146EA5566EF01B14208BFB84201D3C01BB14158EB08085EEB0E0EA601C9
:2010CC0046EA95664FEA8517B14208BFB84201D3C01BB14158EB08084EEB0E0E660146EA70
:2010EC00D5666F01B14208BFB84201D3C01BB14158EB08084EEB0E0E260146EA15762F012A
:20110C00B14208BFB84201D3C01BB14158EB08085EEB0E0EE60046EA5576EF00B14208BF2C
:20112C00B84201D3C01BB14158EB08084EEB0E0EA60046EA9576AF00B14208BFB84201D348
:20114C00C01BB14158EB08084EEB0E0E660046EAD5766F00B14208BFB84201D3C01BB14169
:20116C0058EB08085EEB0E0EA14208BFA84201D3401BA14158EB08085EEB0E0EA34208BFA2
:20118C00AA423EBF2D0A45EA0465240A89D3734642461E4617460B46024631463846BDE8CC
:2011AC00F08170472DE9F843814605F07FFD002100B901216B4E30680028FCD06C4D012453
:2011CC002D1DEF6A346009B105F076FDDFF89881C7F3072008F1BC01086005F067FD002141
:2011EC0000B9214630680028FCD02F68346009B105F062FDC7F38440C8F8C00005F056FDB8
:20120C000146002001B92046014630680028FCD0ED69346009B105F04FFDC5F38120C8F86A
:20122C00D000B9F5C061C8F8B81000F0968098F8D80068B9C8F8D410D8F8C000C8F8C80030
:20124C00D8F8BC70C8F8C470D8F8D060C8F8CC60D8F8D410D8F8BC60002954BF02206FF049
:20126C000100454605F1C8031A6801EB41014018411000EB917002EBA0021A60D5F8C81022
:20128C00C5F8C46000291CDD1E293DDDD5F8CC0030B93429B4BF15391E21C5F8C81025E065
:2012AC002A29BABFD5F8C8000B381E20C5F8C800D5F8C4003F28B4BF401C3F20C5F8C40014
:2012CC001FE0D5F8CC00032812D011F10B0FC6BFD5F8C8000B30201CC5F8C800D5F8C4009A
:2012EC000028CCBF401E0020C5F8C400032009E011F1150FC6BFD5F8C8001530201CC5F8A6
:20130C00C8000020C5F8CC00B5F8C400174E30214FF47F4208230090304603F06DFC009404
:20132C0004214FF400321123304603F065FCB5F8C80004214FF4F80212230090304603F004
:20134C005BFCB5F8CC0020214FF440620A230090304603F051FCBDE8F883002088F8D80080
:20136C00BDE8F88300800C40040D002000A00C4000A00C402DE9F04FADF1840D00F00EFDED
:20138C0003F016FC0026012804D105F0D9F9022808BF012658490868C0F38150012806D1A4
:2013AC0051F80C0C0127010E07FA01F006435348007804F093FE524D2C46286038B1FF2213
:2013CC0004F1400107467F1E01F8012BFBD14D4909684FF0000901F0FF02FE2A1BD0DFF8C5
:2013EC0024C101F0FF074A460123FF2F0CD0B8427FD903FA07F73E427BD101F0FF0147EA0C
:20140C000909611881F840205CF8041F521C01F0FF07FE2FE9D1092001F00CF939480021D8
:20142C0024220823606001A805F056FD4FF0010804F1240001AA8DF81C80414605F048FD90
:20144C00236843B3002794354FF0040BBA4608FA07F0064219D119EA000F04BF07F0FF01CA
:20146C0041F4C04105D0E019264990F8400051F82010254801F08EFBF8B24FF0FF3105F0B7
:20148C004FF82368C5F800A001E0C5F800B07F1C2D1D9F42DBD30AA800213022082305F00A
:2014AC0013FD0025FF2010210AAB1290174A009504F1080005F004FD16A8282208232946B9
:2014CC0005F0FAFC04F1600016AA1C9510491D952B4605F0EDFC0F4951F80D0C20F4F850DF
:2014EC0040F4005041F80D0C4746C1F8FF7F0A4E376021B0BDE8F08FB43F0050691D002079
:20150C006C1B002018710000007FC76749650000914E00000D300940080009402DE9F8432D
:20152C00674C04F1240005F064FC15460E46009005F0F2FC05F001078146B6F1FF3F0CD1D6
:20154C00A06A20B9B4F93600401C06B202E0A06AB0F91C60002084F8A300304604F018FCD7
:20156C000326002800F09B80A16ADFF84081814269D0009FB8422ED03FB100990A68904200
:20158C0009D0096800290091F7D1832E41D0484605F0BEFC3DE004F1A40004F02FFF009804
:2015AC000168AA0802D20A6802600846002202600091009818B9484605F0AAFC28E0C17F1F
:2015CC0041F00401C177684605F03EF90146404604F0A6F8EDE704F1A40004F00FFFA80839
:2015EC003ABF606A006800206062484605F090FC0099C87F40F00400C877684605F024F9B0
:20160C000146404604F08CF8009808B1A808EFD28326E07988B9207A012843D0244805F03D
:20162C0019FB022104F1C80005F072F96078012838D0204805F00EFB34E004F1C8000221E7
:20164C0005F066F92EE0A90803D3616A009100266662C27F0121B9401143C17705F048FC2A
:20166C000446002F14BF1448144804F023FE484605F04EFCA80801D3009820B9204605F028
:20168C0033FC83260EE0C17F41F00401C177684605F0DAF80146404604F042F8ECE74846F9
:2016AC0005F036FC3046BDE8F883C046F0090020ED050000DD27000001000204010001043F
:2016CC00C00900202DE9F04304466668A7680D46ADF1340D05F020FC3178012903D105F0C6
:2016EC0017FC0020A3E04FF0010886F8008005F00FFC287870706878B07068687060A868B2
:20170C00B060E868F06028693061287D3075687D7075A87DB075A869B061287F3077687F36
:20172C007077A87FB0774FF00009C6F82090C6F830904D4675627563B562B56386F82C50C9
:20174C00102386F83C3086F82D5086F83D50786800F070FF204601F0BFF9204601F0AAFC0F
:20176C0070B934480068C16838688847786800F0F7FE05F0D1FB357005F0CAFB2C4655E02C
:20178C0001A829463022082305F09EFB0694387BCDF80090284A0990B96801AB06F1680041
:2017AC0005F08EFB01A829462822082305F084FB05942249386901AA2B46079006F18400CB
:2017CC0005F076FB01A829462422082305F084FB8DF81C80B07838B906F1B800294601AA97
:2017EC0005F076FB16483061707838B906F1D400294601AA05F06CFB1248F06001A82946AC
:20180C002422082305F050FB0695ADF814500E49079406F1F0000A2201AB05F041FB0B4A30
:20182C0006F154000421234604F0AAFB20460DB0BDE8F083D0010010A12300008D4A000073
:20184C00A16D0000996D0000E13100007D6B00002DE9FC415E4C574D574EDFF860815A4FC7
:20186C0094F8E410481E0B2861D8DFE800F07B2C43062343062343067664042907D001228A
:20188C000A2945F8212C14BF0220032004E02021012045F8211C024684F8E200002045F8A4
:2018AC00390C0827C5F8FF7FC5F8F37F45F8392CBDE8FC81052914BF09200620002584F889
:2018CC00E400356070E094F8E1700120383D002FC5F81B0004BF0620002102D00021F1606B
:2018EC00032084F8E400032045F8010C31603068800859D294F8E400012503280DD0002151
:20190C00404660220523009103F076F994F8E400062814BF0A200720D1E70220009000214B
:20192C0060220523404603F067F90420C7E705F0B3FABDE8FC812249002622480E600125F3
:20194C0005600E2000F00CFE022003F0CBFF84F8E45084F8E360BDE8FC81002038600C2595
:20196C0078601FE01948006800680146202088472C3D41F61D560F2000214FF4C0720723FB
:20198C0045F8010C4046C5F803600225009503F033F9404600214FF4C072072303F0FEFA3F
:2019AC000120386084F8E45004F1780005F0A8FABDE8FC8139400C4038600C4000A00C40F7
:2019CC002C500C4004800C4034600C40A0010010040D00202DE9F84F9A4693460E46814670
:2019EC0005F09AFA514C0090B4F93610B4F934000AAF401A40F6F8710140082980F28780B4
:201A0C00B4F93400401C6FF31F30A086B4F9348004F0D0FC054609F1700004F0EFFCAE60E3
:201A2C0085F81EB0C5F804A0A5F81C80C5F80C9097E80C0041A003C8002605F110071040A2
:201A4C00194087E8030004F12400EE770768002F50D1294603F064FE002851D0A9F89480B0
:201A6C00E87F40F08000E87789F89660607A40B1607830B10120A07266722779A671781C93
:201A8C002071009805F044FAA06A00284BD1607860BBE079012846D005F03EFA0646207AF2
:201AAC0000BBA86803F012F8224B2149E2681B68086040B9304605F02BFA04F1C8000421DB
:201ACC0004F026FF2FE00968D26804F1A400891AB1FBF3F105F018FA04F1A40005F010FABC
:201AEC0030461EE0144901200870F9E7192005F037F818E004F12400294603F011FE48B9B0
:201B0C00B4F9340000F6FF706FF31F30A0866FF0010805E0A9F89480E87F40F08000E87724
:201B2C00009805F0F5F94046BDE8F88FC0090020601D00207C720000681D0020F1EFFF9FD5
:201B4C00200000002DE9F041424C474D8046C8F38140401E02D0401E2AD025E02846203063
:201B6C000168880C20D24FF4804020603A48D0F802204B0AC1F3033703F0800322F08F021F
:201B8C00134347EA0302C0F80220D0F801300E1266F30303C0F80130026801F0E70722F017
:201BAC00E70247EA020102E04FF00041204601602A4E06F108000068C0F3C0070FB9402052
:201BCC00A0624FF40070206404F0AAFF40F0300084F8C800C8F3815038B3401E03D0401E79
:201BEC001ED002211DE0012004F070FC07460420394602F01FFF042004F068FC8742FAD13A
:201C0C00366826F07F4003F039FE15480068036807214FF06022300E98474FF48060206042
:201C2C000321042002F006FF06E00420012102F001FF0C4803F022FE284600680B4947F66D
:201C4C00180700F03F0084F8CB0F094E0F803068BDE8F08140A00C400A600840A83F00502B
:201C6C00B4010010BD3786006C13005070B00C402C2009402DE9F0430646880FADF1140D5E
:201C8C007FD302F00BFB434D4FF000081C35C5F800803D4845F81C0C012000F0EEFB3B4822
:201CAC0004F0D8FF3C48434640F60A0200F13801438790F84440C0F83C8090F845700A80C3
:201CCC0004F0F00480F8444007F0F00444F00104B76880F8454081467B803C1D00E03C1D80
:201CEC00276817B138888242F9D12160607A00F0F000607209F1240005F07BF88068008830
:201D0C00D21F82421DD0521C82421AD006F120000788B7B196F82C2096F82D70C6F8248084
:201D2C0002F0F00286F82C2007F0F00242F0010286F82D20C9F83C00487B738400F0F00069
:201D4C004873B068694604F0C5FA684604F0E0FEB06801F026F828680028FCD0C5F80080DA
:201D6C00012004F0B3FB012808D0607A00F0F00040F001006072064804F06CFFB06845F8D4
:201D8C001C0C05B0BDE8F08301010E04ED0500007145000000100440C00900202DE9F04102
:201DAC00444C94F8E700ADF1280D00286FD1394F387B01250021242284F8E7507E6884F8FC
:201DCC00E6000823C4F80C6101A805F06DF8002604F10C00069601ABADF814602E4907961E
:201DEC00324605F05DF82D4904F1300001AB324605F056F82A4904F1540001AB324605F03E
:201E0C004FF8B868014628468847DFF89C8025487B7B0078D8F80410C1F381571BB1032F8F
:201E2C0003D184F8E150032F16D0022F14D0012F26D103201D4C009031464FF040521C231E
:201E4C00204602F0D9FE009531464FF400720923204602F0D1FE13E0022003F05BFD032FA1
:201E6C000CBF4FF47A7142F21071114800685434B1FBF0F1204605F047F8204605F040F8A5
:201E8C00D8F80000C00802D2304603F043FD0AB0BDE8F081487200001F3B000051310000BB
:201EAC000D360000691D0020B03F005000A00C407C720000040D0020F8B504F059FC404E5F
:201ECC003E4F0446A00823D3B96A09B33D4600200B698A69A86204EA0300104340F0020018
:201EEC0006F1080288610B6910689843106001F1100090E80C0030681A1C9043306005F108
:201F0C00300003F00DFC022105F1C80004F000FDB86AA10815D200F110020CCA00212240A9
:201F2C000B40002B08BF002A0BD0016985690C40F8622C434FF48041846107F1C80004F049
:201F4C00E7FCB86A002837D107F12404204604F050FF051C30D0F868E968884226D1A868D4
:201F6C0002F0B4FD17490860E0B906F1080128690A6810430860326805F1100393E8030072
:201F8C00081C1043306000233361A86846F80C0C06F1100000680028FAD0204604F054FC06
:201FAC00BD62F8BD086802F0A7F9F8BD07F1C8004FF4805104F0ACFCF8BDC046C009002076
:201FCC000C100440601D00202DE9F04707467D68D7F8089090460E4604F09EFF8246A86A7D
:201FEC00002864D105F1F00004F008FA0024EC772E6250466C6204F08BFF04F08DFF2F4EA6
:20200C003378824623B9022003F084FC01203070504604F07DFF2A49086840F4807008609A
:20202C003846414603F028F9A862C0B93846414602F098FDA878D0B9A96805F1B80004F010
:20204C0027FFE8B9AC621020E8774946284601F027FD04F061FF8246307840B323E0D9F873
:20206C000010886B40F020008863A87810B12046BDE8F087A96805F1B80004F009FF10B137
:20208C00686ABDE8F0873846414602F06BFD1020AC624946E877284601F002FD04F03CFF2E
:2020AC008246307818B1022003F01CFC3470504604F02EFF4FF0FF30BDE8F0876B1D002021
:2020CC00301000403EB53C4C0025241DA0694FF0FF3104F0DDFE04F093FAA1882288E3888D
:2020EC00A5801143E58043EA01026388658043EA0201218004F02FFC2088010A24BF20F060
:20210C00800020800DF1020101AA684603F007FD20B99DF80220019804F068FC23885809B5
:20212C0015D3E06804F0B0FE20B904F0CBFD08B902F086FDE06804F0A7FE20B9A06904F03F
:20214C009FFE238803E0238823F01003238098080ED3FEF7CDFB238804F0DCF8002804BF38
:20216C0023F00203238003D0A06904F089FE238818090ED302F08CFD206904F085FE20B940
:20218C00A06904F07DFE238803E0238823F008032380D8089AD323F00403E068238004F07B
:2021AC0073FE002892D1208840F010002080A06904F066FE8AE7C0460C0500202DE9F0433D
:2021CC000646ADF11C0D04F057FE03F03FFB4FF000090546CDF8009004F09EFD30F00100D2
:2021EC0002D00098A84202D16FF0040059E070684C4658B1B0F1FF3F05D001A903F00EFB43
:20220C0030B107464CE04FF0FF3000E02046019004F02EFE0199012701EB000800E00193C9
:20222C006868019904F034FE00282ED003A803F055F9D8B99DF8100002A903F035F988B9AD
:20224C00B368BDF808009DF81210059A984748B19DF81270B773BDF80800B081059B336109
:20226C004F4612E00599684603F0CCFC0198641CB0F1FF3FD4D00028D2D004F0F9FDB8EBD1
:20228C00000302D001989842C9D2009905F1080003F012FE24B1686804F0F2FD641EFAD1E0
:2022AC00384607B0BDE8F083F0B5ADF1340DFFF775FD304908682822082340F002000860E1
:2022CC0001A8002104F0F8FD2B4E2C490524002301AA079406F1C80004F0EAFD00213022B2
:2022EC00082301A804F0F0FD0025FF271921244AADF81C5001AB099706F14C00009504F001
:20230C00DFFD2822082301A8294604F0D5FD1D4901AA2B4606F1FC00079404F0C9FD302266
:20232C00082301A8294604F0CFFD01241A21164AADF81C4001AB099706F16800009504F099
:20234C00BFFD12492A4606F1A400134604F0A8FD0F4804F07FFCB47186F8A3507571F571B5
:20236C0035727572B5724FF6FF7075610DB0A6F8A000F0BD00200940C0090020E5680000CB
:20238C0031610000A5280000C545000005600000DD2700002DE9F8430746D7F80880D8F89A
:2023AC0000007D68066C16F4F06F466425D1F00911D2700951D395F83C00AC6B401E844234
:2023CC0088BF041C3846214602F01AFFA86B001BA8630DD041E0A96B384602F011FF95F842
:2023EC002D10A86311B9002837D101E00020A86305F1840004F038FD2FE0F00A0ED3D8F826
:20240C000000002144684160A96B04F00F04202988BF2021384602F0F3FE1AE04FF00009B3
:20242C004C4602E0A86B401EA863A86B88B13846012102F0E5FED8F80000446814F00F044C
:20244C00C0F80490EED0286B401E2863686B401E6863EC77384601F095FBB0090BD3A96AE2
:20246C0049B10E46384602F007FFA86218B93846311D02F077FBBDE8F88370477CB504462F
:20248C00084601F0C5FC344E02461821304603F011FC04F037F840F2FF32002380B22C218F
:2024AC000090304602F0A8FB04F042FB1C210246304603F0FFFB04F017F802461421304666
:2024CC0003F0F8FB04F078F902461021304603F0F1FB204601F0C4FB02460C21304603F0E3
:2024EC00E9FB204604F050F91C4D400040F020002870204604F054F940F0100028702046D3
:20250C0003F0F8FE02462821304603F0D3FB204604F05EF9400040F06000E870204604F0CB
:20252C0063F9C00040F0800005F8080C204604F067F9800040F47C40A5F89300204603F0FF
:20254C00CFFB02460821304603F0B4FB4FF48000A5F2091108607CBD00A00C4049A10C40E5
:20256C002DE9F843044604F0D7FC81462D48021992F8ED10491ECFB2002F82F8ED704BD105
:20258C002B4D05EB84052E78698836F07F0788461AD1F10911D24FF08054D4F8B8018069E4
:2025AC0001464046884704F5DC742068406B0146404688470228F8D121E000EB8800D0F82C
:2025CC000011002088471AE04FF08054D4F8B801006A014640468847D4F8B801806A0146A1
:2025EC0040468847D4F8B801006B01464046884701210D4A0D48116001688908FCD306F0F0
:20260C003F003F2801D0FFF7ABFF687800F03F003F2801D0FFF7A4FF484604F079FCBDE81B
:20262C00F883C046040D00202820086028200840F86F00002DE9F041064604F06DFC2D4DCB
:20264C008046A91991F8ED00421C002881F8ED204AD1294C04EB8604277807F03F003F281F
:20266C0001D0FFF7E7FF607800F03F003F2801D0FFF7E0FF668837F07F001AD1F80911D22A
:20268C004FF08054D4F8B801406901463046884704F5DC742068406B014630468847012830
:2026AC00F8D121E005EB8605D5F80011012088471AE04FF08054D4F8B801C0690146304683
:2026CC008847D4F8B801406A014630468847D4F8B801C06A0146304688470121074A084866
:2026EC00116001688908FCD3404604F011FCBDE8F081C046040D0020F86F000028200860A9
:20270C0028200840294A2DE9F04180460126284816600768002FFCD0294C2A4FC020443CD8
:20272C00206007F1080001682348890804D20168090C41F0F00100E072211E4D85F8541271
:20274C00002111638768384600F0D6FF40463946FFF794FE1C48B038816D40F20F226FF31A
:20276C001F418A4212D901680068C1F30363C0F3034003B15B1E072805D006280EBF072002
:20278C00801C00F00F0043EA001028703846FFF7D9F90E4814380068C168022088474020F3
:2027AC002060064F3E60BDE8F081C046101009409402224302600840AC3F005094046042FB
:2027CC0044600C40A83F00506C130050B4010010042998B54DD1274C04F1240004F009FB16
:2027EC0040B994F8A300400838BFE06804D3D4F8880000E0C068E06041681F4A09781160A7
:20280C00416812680978914206D0876927B120A20CCA6FF0FF01B847022003F07BF81120E8
:20282C00FFF708FF0120E071E068011D007C10B16079012804D00E20FFF7FCFEE168091D17
:20284C0008680E49083007680FB947681FB10020C8610B4F0F600B4A40F2FF700027106018
:20286C00094C8F6109484C6104F0F4F9192004F0F7FA98BDC0090020D0210840001004403F
:20288C00510007060000046002000040811C00000000000000000002F8B504F03DFB2A4C3A
:2028AC000746103CD4F89C0010F4602F2BD0D4F89C00400CC5B2680807D2A80803D2E80894
:2028CC0028BF022502E0012500E000256E1D70B201F0CAFED4F89C3005F1110101208840E2
:2028EC0023EA00013846C4F89C1004F011FB04EB8500D0F88C704FB1D4F8880013A20CCAC1
:20290C003146B84702E0384604F002FBD4F89C0020B104F1FC00002103F0FAFF94F8A3007E
:20292C0080080FD3D4F8987037B1D4F8880009A20CCA6FF00101B84794F8A30000F0FD0014
:20294C0084F8A300F8BDC046D0090020000000000000000800000000000000802DE9F041C9
:20296C002D4C0546A41C20781F4690460E46ADF1380D012803D0FFF797FC012020705EB178
:20298C00B8F1000F6E6007D0C5F8088004F0C4FA617819B104F0BCFA002038E0491CC9B272
:2029AC00617004F0B5FA01241FB9684604F028F86F46386828607868E860387A2874F86825
:2029CC006861386900B1A8610021782205F1200000F058FE05A800212422082304F07CFA07
:2029EC008DF82C4005F13800002105AA04F070FA05A800212422082304F056FA05490B950D
:202A0C0005F17000002205AB04F04AFA28460EB0BDE8F081C76D0000C0090020F8B504F03A
:202A2C0045F904F05BF9044604F00C000C2845D0E0081ED203F0C2F9234E3768054601206F
:202A4C00014603F009FD31686943884211D21F4C8220B0FBF7F0291A204604F055FA204647
:202A6C0004F04EFA0120FEF78DF8204603F0C6FC25E0200922D21648610939BF016821F0FC
:202A8C000101016841F0010102460160D2F898004FF0805440F00300C2F89800D4F8B80164
:202AAC008069014620208847D4F8B801094C806B2168804701202060206800E030BF04F0CA
:202ACC00FBF801F0D9F9F8BD7C720000100D00208C2108402C200940F0B52B4E06F12C0188
:202AEC0038C9ADF11C0D02AA38C20AC94FF0805782E80A0044688568D7F8D001C16828680D
:202B0C008847296821488A6B10408863286840F2F2711834416494F8240094F82510C01059
:202B2C000DEB80008068084329684863684604F093F92179D7F8D00106EB8101476822688E
:202B4C008B686179286856F821101943A37906EB8306B3690B430199B8470D490A1F1068A1
:202B6C0040F010001060086840F001000860A87DFF2806D0E87DFF2803D0086840F44040EB
:202B8C00086007B0F0BDC046D87000000DF8FFFF30100040F8B50D46EEB2290824BF264969
:202BAC004D40264BB400195985EA01020240C2F3006C234A00EA05078143FF323A4000F44A
:202BCC00E0270A43B7F5E02F01D1510E15D300F4E0215CEA010710D002F4E027B7F5A0272E
:202BEC0007D0B7F5803704BF22F4003242F4A02203E022F4803242F4C0221A51114CC10D33
:202C0C0004D3A4F18001C5F380528A55000E11D304F082F9290E03D201210022B14002E0CE
:202C2C000121B1400A46503423688B431A43226004F06EF9F8BDC046006000A000100840FB
:202C4C00007F077F802002402DE9F0414568876814460E4604F060F9A96B29B104F058F970
:202C6C004FF0FF30BDE8F081AC632E630024EC776C6304F04DF904F04FF91E4E804630787E
:202C8C0020B9022002F046FE01203070404604F03FF91949086840F4007008603968886B12
:202CAC0040F4FA6088636878002818BF201C1ED1696805F1D40004F0EBF8B8B9AC633968F2
:202CCC00886B20F4FA60886304F026F90746307818B1022002F006FE3470384604F018F98C
:202CEC001027696B286BEF77401A2863686BBDE8F081C0466A1D0020301000402DE9F04182
:202D0C00164680460D461C4606F10B00B8F1FF0FC1B214BF032002204018C0B203F049FA8C
:202D2C00071C3CD004213970FF20787007F108037B6039727868B8F1FF0F80F8018017D182
:202D4C007968B01C887020787968C870607879680871A078796848717868857179682B1239
:202D6C00CB717868F21EE41C751D164608300DE07968F01C887078680123C3707868057196
:202D8C0079682A124A717868B51D801D2146324600F0AAF8E8B27880384602F051F8BDE89F
:202DAC00F0817047264838B550380468B4F1FF3F08BF002403F010FE22481749002510388A
:202DCC000560012008601549086001F0F1FC1448006820B1134800682046FFF793FC1248B8
:202DEC0012490560124C0A686FF35B4244EA0200086010490868C0F30130012806D10A6881
:202E0C000D48104040F400320A6008600B4908680028FCD138BDC0465C600C40082204439C
:202E2C0080012843000120438C210840482003400000390104000940FFFFFCFC0C00684263
:202E4C006C13005094046042F0B520480127F84201D001F061FE204D204F214EBD4206D2AB
:202E6C0003CD0478A4003459401CA047F6E71D48002800D08047164D164FBD4202D210CD0D
:202E8C00A047FAE7F0BD03251BE0416808300A1C2A400BD11A1C2A40AB4305D0046804303E
:202EAC000C600431043BF9D1131C05D0047801300C700131013BF9D1021C2A4001D0A843B3
:202ECC0004300368002BE0D17047C046FFFFFFFF0000000000000000307600009076000006
:202EEC00D875000059C50110002A4AD05FEA000C8B071CD1830722D1102A08D370B4103A32
:202F0C0078C978C0103AFBD270BC103238D0042A2CD3082A05D30C2A24BF08C908C008C9E5
:202F2C0008C008C908C092072AD0920F22E00B780370491C401C521E22D08B07F7D1C307B1
:202F4C0014D18307D8D0121F12D308C903801B0C4380001D121FF8D20AE008C903701B0A8F
:202F6C0043701B0A83701B0AC370001D121FF4D2121D05D00B780370491C401C521EF9D119
:202F8C00604670472DE9F843224D884606464FF0FF3105F12400814603F07AFF00200CE026
:202FAC00FF2909D02A688A4204D905EB8101D1F894700FB1002627E0401CB8F1000F03D0B6
:202FCC0018F82010FE29EBD10024346074600127B46011E0FF280ED005EB80000B78726837
:202FEC00C0F8946007FA03F0104370600A680A49304602F0B7FE641CB8F1000F04D008EB21
:20300C0084010878FE28E5D1484603F039FF3046BDE8F8836C1B0020007FC7672DE9F843CF
:20302C002020EFF3118780F31188214CA068012103F00EFF4FF001094FF000086569216840
:20304C00A4F81C906A1A2168A4F81E80461B401A904227D387F3118840464519361A484679
:20306C00294603F0F1FEB042F7D92021EFF3118781F31188E18B012903D14046294603F017
:20308C00E3FEB0F1FF3F06D0A169801B814238BF081C411901E0A069291803F0D1FEA4F828
:2030AC0020902560A4F81C8087F31188BDE8F8837801002030B5826845682149507DADF17A
:2030CC00140D40F000400090107D08430190937D02F114040220FF2B0AD0D27DFF2A07D0CA
:2030EC00E378A0781943039140F0004002900420FE214DF8201005F140006946FFF742FF8B
:20310C00E864002808BF002018D061780F2202F013FEE86C2178102202F00EFEA178FF29F5
:20312C000BD0E078FF2808D0E86C112202F004FEE86CE178122202F0FFFD012005B030BD44
:20314C000000C0A02DE9984303F0E6FE1F4CDFF87880814604F1E000007850B94446A06852
:20316C000146022088470746102001F0B9FD2FB320E001F037F8002820460FD114490968A9
:20318C003222B2FBF1F101B9012100F13004204603F0BAFE204603F0B3FE0FE04446002289
:2031AC00A16880F8E020022088470746102001F097FD1FB1A068014603208847484603F0FD
:2031CC00A7FEBDE89883C04648720000040D00207C7200002DE9F04107467868BE680446BB
:2031EC00F03003F00BF91C48016830688069000921D203F091FE194D8046287820B1022021
:20320C0002F070FB00202870404603F081FE3168134D886B20F020008863286820F48070FA
:20322C002860606A216A091A21622369626A38469847BDE8F0814FF4FA70B0FBF1F10129D0
:20324C0098BF0121F034204603F05EFE204603F057FEBDE8F081C0467C7200006B1D0020B0
:20326C003010004070B51F4CA568064603F05CFA4FF47A71401B4843050C02F045FE2169AC
:20328C00401A48BF404240F6B831AD19A94211D306280FDAA268E1688A420BD8206848B1F1
:2032AC00891A114A51438A0C02EB1141884288BF011C08E00D49486840080ED208687D2149
:2032CC0000F0FF004143C82905D3B1F57A6F88BF4FF47A6103E0C82101E04FF4FA61084619
:2032EC0070BDC046441D002040420F00AC3F00502DE9F04107467E68BD6803F00DFEB16A8A
:20330C0039B929688969090903D203F001FEBDE8F0810024B46203F0FBFDA87DFF2806D0F6
:20332C00E87DFF2803D03046294600F0B9FB2968886B20F0200088630D49086820F4807030
:20334C00086003F0E9FD0B4D8046287818B1022002F0C8FA2C70404603F0DAFD706A316A62
:20336C00091A31623369726A38469847BDE8F081301000406B1D0020F8B5001D84B214F074
:20338C00030002D0241A241DA4B203F039F901461948102C47680160C8BF87683888002206
:2033AC001646C30BDD0319D126B984420ADD3A46012617E01388C3189BB29C42138011DCC2
:2033CC00174618469FB1001B80B20428B4BF3C88385344F400443C803F1D08E080F400406B
:2033EC00002680B2C71938880028DAD10027084603F0B1FA3846F8BDF40E0020B0B50446DF
:20340C00A768ADF1280D27BB0C20FFF7B5FF071C16D0684600212422082303F045FD002365
:20342C0006976A466168ADF810301448059303F003FD386038B903F083FA384602F0CCFB6E
:20344C006FF0030018E0E06878602069B860A7600AE003F0D5F80546386802F0CFFF206960
:20346C00B860284603F077FA3868616803F04CFD386803F045FD00200AB0B0BD6D6C0000BC
:20348C00B0B514460F4603F047FD85B219480068007808B903F098F887B1384602F0B9FCBC
:2034AC0040B114B14FF0FF3020700820FFF758F8002419E038687968BA6803E04FF4807008
:2034CC000122014602F0AAF80B49012008600B4908684008FCD30A480068416802208847D6
:2034EC000CB1002121700446284603F011FD2046B0BDC04658720000A802504208800240EF
:20350C00CC010010F8B50E46044603F0F1FC0546304602F03DFC071C03D1284603F0E4FC73
:20352C0026E0F87F10F0070F1BD113487968884202D079682166786010A090E8060004F1C5
:20354C005807284687E8060003F0CEFC04F138004FF0FF3103F09CFC04F1680696E8030055
:20356C00F8BD284603F0C0FCF87F10F0070FFBD102200021F8BDC0460549000002000000C6
:20358C00000000702DE9F043ADF13C0D03F0B4FC1A4C184D002680461C3C684600213C22A0
:2035AC00082303F045FC54F8042F6868AF6806902B680897694605920F480493002203F029
:2035CC0033FC071C10D003F01BF88146384601F0E1F948B1484603F0BEF92D1D761CDCD0DE
:2035EC00404603F07DFC01E001F096FC0FB0BDE8F083C0462C6F00000D6B0000000F00204A
:20360C001CB5042002F062FF022818D0032816D016480068C0F38150032814BF41F28832FE
:20362C004FF47A721248144C016854342046B2FBF1F103F069FC204603F062FC1CBD0320A4
:20364C000C4C009000214FF040521C23204601F0D3FA012000214FF4007209230090204608
:20366C0001F0CAFA022002F03DF91CBDB43F00507C72000000A00C40040D0020002213469D
:20368C000A46194671B510F0030F0BD0002A82BF00F8011BB2F1010210F0030FF6D1002A34
:2036AC0008BF71BD11F0FF0141EA0121042A18D341EA0141082A0FD30E46102A08D30C4666
:2036CC000D46B2F10F0312F00F0272C0103BFCD812F0080F18BF42C012F0040F18BF40F85C
:2036EC00041B12F0020F18BF20F8021B12F0010F18BF017071BDFEE70246184808B5006846
:20370C00C0F3046003F06EFA00EB2270401C162805DA10F10A0FB8BF6FF0090000E0152027
:20372C000F49104B00F01F0040F4F85008801868800803D20C490020086001E042F0406248
:20374C000A49D00E930E80F0010000F00100086083F0010000F00100886008BDB812005095
:20376C006E6208400000094094042A4300002043F8B51C4C616A054649B1A078401E04D005
:20378C00401E04D128468847F8BD28468847284601F024FC071C23D00C2002F05AFD061C8F
:2037AC001BD002F02DFF0546B760387858B92069314603F035FBA08840F01000A080E069DD
:2037CC0003F05EFB05E0304602F059FF384602F056FF284603F0BFF8F8BD384602F04FFF9C
:2037EC00F8BDC0460C05002038B5054601201A4C68712879B0B902F003FF2178002904BFB6
:20380C006FF00704051C15D0491EC9B2217039B903F0A1F8606802F03DF90020687118E05A
:20382C00054613E002F0ECFE05462078FF2805D16FF00604284603F08EF80BE0401CC0B279
:20384C000128207002D1606802F03BF9284603F082F80024204638BDB411002070B5064632
:20386C00B079F5680628A5F108052CDA3079062829DA02F0C5FE154CB27991000C3401EB07
:20388C00C20161184968E1B103F065F830792870B0796870307AA870B179880000EBC100EB
:2038AC002018F1684068083002F0ACF9B179880000EBC10024186068406803F0E1FA0020FC
:2038CC0070BD03F048F86FF0020070BD240F002010B517481A4CE06000F587702061154807
:2038EC00ADF1280DA060684602F0C6FF03218DF81C104FF4E130069001218DF800108DF889
:20390C00011000208DF815008DF816008DF81D008DF817000849039108490491694602F08B
:20392C0011F8606003F073F902F004FD0AB010BDA007002059510000094E0000616300004D
:20394C009810002038B519491A4C00204822C1F8F30F94F8E200C1F8FF2F20B3012817D061
:20396C00022807D003281ED151F8310C00F05EF80B2016E051F8315C2846FDF713FC40F2BA
:20398C00FF50A84202D8801CA842F1D2082008E051F8310C00F0C8FB054800780028E7D0D2
:2039AC00052084F8E400FDF753FF38BD39400C4056720000040D002038B544688568E06CAB
:2039CC0002F03BFD296817488A6B1040886316480068C168286888476868FEF7C1FD04F1CB
:2039EC00680003F019FA04F1840003F011FAA07818B904F1B80003F007FA607818B904F1AE
:203A0C00D40003F001FA04F1F00003F0F9F903F083FA0021217003F07BFA04F1540002F049
:203A2C00B9FC38BD0DF8FFFFD001001038B51A4CA0F5C060D4F8B810C4F8D4000029B8BF20
:203A4C0049420028B8BF4042814220DAB4F8BC00124D30214FF47F4208230090284601F0BB
:203A6C00CBF8B4F8C00004214FF4F80212230090284601F0C1F8B4F8D00020214FF440622A
:203A8C000A230090284601F0B7F8012000E0002084F8D80038BDC046040D002000A00C40C2
:203AAC0038B50C4621680546886B20F020008863E86C217D01F070FCE86C217D012201F084
:203ACC00FBFDE86C217D002202F036F9E86CA17D002202F031F9A878012806D005F1B80030
:203AEC004FF0FF3103F0D4F903E0216888690009FCD2E86C217D102202F01EF9A17DFF29E4
:203B0C0006D0E07DFF2803D0E86C112202F014F938BD70471A4898B5D0F8781203680F0FB0
:203B2C0003F0FF03802B28BF002301F041F84FF0FF3478B1401E07D0401E012802D9801ED5
:203B4C0019D01AE0BFB118E0381C12D0801E14D1143311E03846401E0BD0801E07D0001FD2
:203B6C0003D0401E09D1163306E0152405E0142403E00A2401E00A335CB2204698BDC046AB
:203B8C00A01000502DE9F04106467468B56803F0C3F90C34E16A21B30027E76203F0B8F96B
:203BAC002968886B20F4FA6088631049086820F40070086003F0B0F90D4D8046287818B142
:203BCC00022001F08FFE2F70404603F0A1F9A06A616A2368091A6162A26A30469847BDE83B
:203BEC00F08103F095F9BDE8F081C046301000406A1D0020F8B5174A174B184C121D22F06F
:203C0C0003019C4621605E1A2068256860606768A660002001E025F8020BAB42FBD84FF6DF
:203C2C00FC75B3102A4001EB830323F8040CACEB0202E82315403B80EC3DA1F8E850E83174
:203C4C0044F8081CFFF798FB44F8040C606844F8080CF8BD6C1D0020683F0020000F0020B7
:203C6C0038B504461848174DC03002686B68C2F30351C2F303405B0813D22B681D0511EB16
:203C8C00257103D41029A8BF0F2100E000211B0410EB237303D4102BA8BF0F2300E000237C
:203CAC00184640EA011002F47F4102F0FF03222C41EA004143EA010024BF02F080421043E3
:203CCC0038BDC046AC3F0050B812005030B5401E4FF00004ADF12C0D0AD0401E04D0401EC1
:203CEC0020D1FDF7B5FD1DE000F0BAFB044619E001A821462422082303F0D6F806940D4D06
:203D0C00ADF8144009490794012201AB05F1780003F0C6F8064A23462C2105F19C00009398
:203D2C0003F0CEF820460BB030BDC0467540000051390000040D002038B50546880F26D372
:203D4C0001F0E6F9124802F085FF1548801C0078012803D005F1380003F092F80D48002426
:203D6C000460022001F0BEFD1120FEF7F9FB287C10B90E20FEF7F4FB0748084A04721178CC
:203D8C00447221B11470C830042102F0C1FD38BDDD27000000000460C0090020681D002053
:203DAC00C00900202DE9F041054615F8017B90460E461CE0B8F1000F05F101050BD0FF2C13
:203DCC0009D8022015F8011B401E41EA0424F9D101E0042C02D315F8011B00E0394630464C
:203DEC002246FFF74FFCA61901E006F8010B15F8010B8742F9D115F8014B002CE9D115F86C
:203E0C00010B2C7800022418D4D1BDE8F081FEE70146184880B5983000688A0CC0F38367C9
:203E2C00C0F38F2022D241F3072100290BD54A420021400805D17F0806BF0127381C4FF6E3
:203E4C00FF70521EF5D1002910DD4FF6FF72400040F00100824207D2780040F001070F2FE9
:203E6C0092BF01200F27101C491EF0D140EA074080BDC046B8120050164880B507683FB378
:203E8C0015498B6803EA5300C00E21D2134A106880081DD2486880081AD21068096810F06B
:203EAC00050F4FEA114101F0F00101F5E0710AD1B9420DD2190F38BF40F00100D90E38BF4B
:203ECC0040F0040003E0B94202D920F00500106080BDC04628500940AC3F005000000940DC
:203EEC0003461748597802880E3915D0491E09D02F3920D0C13921D19988914217D09A7816
:203F0C00FF2011E09988914211D042F23200884214D1987800F02CBF9988914207D033F8BA
:203F2C00040C0C38C2B20E209B68FEF7E7BE4FF6FF7101807047184601F066BA7047C046C9
:203F4C00A81100202DE9F8438146EFF31188202080F311880125114E114CF561114F656040
:203F6C00F86A016A14208847D9F81000810C14BF000C0420A06138680268232100209047AE
:203F8C00C6F88052206820F4C02040F480302060356088F31188BDE8F883C046000024436F
:203FAC000020094084010010D0B5044602F064FF00F0F0FC071C08BF6FF002041FD002F0C7
:203FCC001FFB0146A2880F480023243030F80C6F5EB902804760A2688260237378682061B6
:203FEC000024084602F0B7FC09E0964208BF6FF00204F6D05B1C062BE8D300F08DFF2046A6
:20400C00D0BDC046000F0020F8B50D46074602F0F7FA064602F056FEE8B9B5F5877FDCBF24
:20402C000021081C05DDA5F5877007F587714FF487750B4C61612A463946E08004F5937025
:20404C00FEF752FF01200749A580A7680870781CA06001F085F9304602F07DFCF8BDC04652
:20406C0088070020840700201648144A144908B5E4300078801E0A2807D8DFE800F01814E6
:20408C00100614100614100609C002F005FF11E010688008FCD250688008FCD20AE00868C4
:2040AC008008FCD306E008688008FCD202E010688008FCD3FDF7CCFB08BDC04634600C40DA
:2040CC0038600C40040D002010B502F025FF114C611C097829B10E490C6802F019FF204674
:2040EC0010BD02F015FF02F06DFC0DA20CCA02F0E7FBA26C002314001B1807A044EB0104DA
:20410C0090E80600C91842EB04021046001C10BD04300440C0090020000000127A000000D5
:20412C0000093D0000000000134910B50A684BF2F5214843040AC2F38140012806D101F047
:20414C00E3FE00F0C7FF604304EB90540C4901F1E500007830B90948006820F07F402418F5
:20416C00640802E0002081F8E50006480460210C41600123836010BDB43F00501020094057
:20418C00040D00203C600C40B0B5044602F0C4FD30F0010008BF6FF004041ED002F06CFEFF
:2041AC00054602F02DFA01460D480622303030F80C7F6FB1A388BB4208D140680068002265
:2041CC00854208BF0122A260002403E0521EEED14FF0FF34084602F0BEFB2046B0BDC046A6
:2041EC00F40E002008B5012002F070F901281DD00F4834210122002300F0D0FE002808BFA3
:20420C00002014D00B48006801F0CEFE02F08CFA0A4A93681168D060C01A074BA1EB91015C
:20422C004343180C884228BF011C1160012008BD00A00C408000001040420F00441D002015
:20424C00B0B5144D28680004070C21D001F05CFE114991F90720824205DD10F1800FB8BFF1
:20426C006FF07F00C8718C88BC4210D80A68D5F8D40F801A801C1F2888BF1F203F1B40085A
:20428C00C7404FF6FF70E719B84238BF071C8F80B0BDC04634100940581D002098B5134CF3
:2042AC000C342068011D4068406810B180472168091D08680830016809B94768A7B10C4A55
:2042CC001C321768002FFCD00023136029B1084680472068001D00680830406800B1804720
:2042EC000448503801F0E6FF98BDC046C00900200010044051000706F8B5074602F00CFE1C
:20430C00124C06462079E0B1401EC0B22071C0B904F1C800082102F0FBFA97B1E0687030E6
:20432C0002F06CF8E0680A4DC0683F1A286804F1A405B7FBF0F1284602F0E6FD284602F097
:20434C00DFFD304602F0E4FDF8BDC046C00900207C7200001549096821280ADC212819D06A
:20436C000C380FD00D380FD0001F0FD0C01E0FD01AE0253810D0001F10D0401E10D0401E5D
:20438C0010D011E0086870474868704788687047C8687047086970474869704788697047EC
:2043AC00C8697047086A704700207047F0010020F8B5054616460C460C2001F04AFF07469F
:2043CC00082001F046FFDFB1D0B144604580B86076B900210B4C01706069394602F020FD72
:2043EC00A08840F00800A080E06902F049FDF8BD02F045F9384602F042F9204602F07BF954
:20440C00F8BDC0460C05002038B50C4620B141680122A240114201D1022038BD9143416035
:20442C000D480025231800EB8401C1F8945003F140010978FF291ABF406850F8211044F0A2
:20444C0020410648FEF7A6FB20464FF0FF3102F067F8284638BDC0466C1B0020007FC76728
:20446C0038B5134D95F8E100002410B91148007860B102F051FD95F8E310002906BF0121D6
:20448C0085F8E310012402F043FD0CB1002038BD022001F03FFA0E20FEF7CCF801F030FE25
:2044AC0001280EBF0120002085F8E20038BDC046040D0020567200000246F8B508461146CC
:2044CC004C6820381CD0401E17D0401E18BF6FF0010019D18D6802F01FFD0C4E07463068D2
:2044EC00016928688847B0F1FF3FF8D100253846A56302F00DFD2846F8BD0021084601E025
:20450C000121002084F82D10F8BDC046D0010010012838B51ED1012001F0D8FF01281BD0F6
:20452C0002F01AF90D4D0E480122322305F1E00100680A70B3FBF0F404B91446303528460D
:20454C0001F05CFF2846214602F0DEFC284602F0D7FC01E001F048F8002038BD040D0020D7
:20456C007C720000084610B500F0005100F00400084317D0012001F0A9FF0E4C01280CD0AE
:20458C00094909686C3432222046B2FBF1F102F0BBFC204602F0B4FC10BD044802F05AFB52
:2045AC000348046010BDC0467C720000ED05000000100440F809002038B51248104C01680C
:2045CC00114D0C40E1430160A10908D34068800905D328464FF40051C83002F099F914F48C
:2045EC00602F0BD0284600F19C010A6804F46024FC3014430C60002102F08AF938BDC046DB
:20460C0020000E0008100440C009002038B502F09FFAFCF7AFFE4FF08055D5F8D8010F4CEE
:20462C00036801210A4620469847D5F8D8014268012120469047022001F06CF9032001F011
:20464C0069F901F025FCFEF79DFF00F007FD00F0FFF800F005F8002038BDC04600400340E3
:20466C00DFF800F055C0011098B5044602F054FC8446104890F8A310C90803D390F8A2102A
:20468C00A14213D0B0F8A0300B4F012202FA04F11943A0F8A010391D0B6804F10C07BA40F3
:2046AC0093430B600F680FB900210170604602F02FFC98BDC009002008100440DCB50446A4
:2046CC0002F0DAFB01F0C2F8064602F025FB30F0010014BF002E6FF0040017D0606858B1C1
:2046EC00B0F1FF3F05D0694601F098F830B107460BE04FF0FF3000E0002000907068009942
:20470C0002F0C6FB002700B901273846DCBD70473EB5FBF78DFC114C002501F0C9FE002834
:20472C00FBD101950DF10200694601AA01F0E0F90028F2D1BDF8020010280AD120789DF805
:20474C000010884205D101980178912901D1FFF7C7FB019801F09FFFDFE7C0460802002029
:20476C00F8B5044602F088FB00F014F9071C19D001F046FF84460D480021243030F80C6F4B
:20478C006EB94FF6F872028047600025856021717868A060604602F0DEF82846F8BD491C9C
:2047AC000629EBD300F0B8FBF8BDC046000F00200F4908680028FCD1104A131D0D49186856
:2047CC0020F0030001430C480068C0080CD2106810F0030F0AD041F003001860106800F09C
:2047EC0003000328FAD101E041F00101196070470C00684204000020B03F005000400340D4
:20480C0070B5124D698804466018B0F5877F0DDDC1F587706B18C1F5877286B291B2181D31
:20482C0000F030FFA41BA4B20021698068182146001D00F027FF68884FF487722418A0B25A
:20484C0090FBF2F15143401A688070BDF00B002030B5114C1020DD214FF4007204F1780529
:20486C00ADF13C0DE0602846FEF70CFF00213C220823684602F0DCFA4FF400700023074951
:20488C0008906A4607950220069004F1280000F007F80FB030BDC0460C050020FB6D000019
:2048AC00DFF800F025B10110F8B516460C4602F033FB02460F484178832554B1641E02D06A
:2048CC00641E10D00DE08179012904D0B0F8A01005E0876A0FB9802506E0806A818B31805D
:2048EC0002E0032500E03170104602F011FB2846F8BDC046C00900202DE998430446276EEB
:20490C009946904607B1B8470020022100EA090001EA0801002808BF00290BD104F15800B4
:20492C0090E8060008EA010109EA0200002808BF002907D004F1680080E8000304F1380020
:20494C0002F09EFABDE89883F8B50446A1686068ADF104060025086002F023FA46F8040FA4
:20496C00002808BF6FF003000FD06D1CF4D0074D6E46002756F8040B55F8041BA368044A5D
:20498C0001F0FEFA7F1CF5D00020F8BD78720000F95700002DE9F843804601F031FE0F4C21
:2049AC0003250026814654F80C7F5FB93046C4F800800146A6600A4600F012F8606018B90D
:2049CC0000F0AAFA474501D1264601E06D1EEAD1484601F0C0FF3046BDE8F883000F002043
:2049EC00DFF800F0ADB50110B0B5054602F044FA044602F091F930F0010008BF6FF004047C
:204A0C0014D001F0FDFD0A4A002132F80C7F4FB153681B689C4204BF2971002404D0491CBB
:204A2C000629F2D36FF0040401F095FF2046B0BD240F00207CB5114D04460E46600807D3F5
:204A4C00B0B20021009001220B46284600F0D4F8A00807D3B0B2009000210222012328464E
:204A6C0000F0CAF8E00807D3B0B2009000210C220223284600F0C0F87CBDC04600A00C400F
:204A8C002DE9F04106467468B76802F045FA0E4D804628780C3420B1022000F023FF002025
:204AAC002870404602F034FA3968886B20F4FA608863A06A616A2368091A6162A26A3046F7
:204ACC009847BDE8F081C0466A1D002038B50546287B00F00F00022818D10D4C2078012821
:204AEC0014D0FFF7F1FAA9686FF070458908A1EB900085420ADDB0F1704FBCBF05490844F0
:204B0C00E168C96801F57A71814200DB002038BDC0090020F6FFFF1FF8B506460F4D104FCB
:204B2C007388002417E0A00000EBC400321851689068D26852B9AF420BD00A7855F82220E7
:204B4C000346491C08461946904701E0FEF7CCF97388641CA4B2A342E5DCF8BDD875000003
:204B6C00E475000070B540680C460546F03001F045FC0D482A7F0168687F8018AA69C01D3E
:204B8C0080B24443094805F1F0066043B0FBF2F008186330B0FBF1F1491C304602F0B4F929
:204BAC00304602F0ADF970BD7C72000040420F00104A1068C0F30F314BF69A10884207D1DD
:204BCC0011680B20B0EB117F14BF0020042070472430884208BF01200BD04BF641308842CF
:204BEC0008BF032005D0213888420CBF02204FF0FF30704718130050B0B500EB4100102B6E
:204C0C0004AF00F5007403D3103B00F50174120C3D889D4045EA024502F048F8002700B999
:204C2C000127064A394610680028FCD025600120106009B102F040F8B0BDC04600800C40CC
:204C4C00B0B501F0DDFC0F4C05461034206802F01BF990B9206800F017F8071C0DD0B868B1
:204C6C004068A060B96848684988FFF7CDF9B86801F005FD384601F002FD284601F06BFED9
:204C8C00B0BDC0460C050020DFF800F0A9C1011038B5104D686902F0F7F8D0B9686900F0DC
:204CAC001BF8041C15D0296A69B1687858B1401E02D0401E0AD103E0A06801F0E1FE296A83
:204CCC00A068884702E0A06801F0DAFE204601F0D6FC38BD0C050020DFF800F011BF011047
:204CEC0070B5104C0646204602F042F80025B0B9204602F078F80446A06806420AD0E06837
:204D0C00226900210346304698470546012D08BF012005D0204602F068F8041CECD1284604
:204D2C0070BDC046040D0020D0B506460C4606F10B00C0B201F03DFA071C18D0042139706B
:204D4C00FF207870F31C7B8007F108027A60397278683E234370786886702EB178682146BF
:204D6C003246C01CFEF7C0F8384600F069F8D0BD38B505460C460F2001F01BFAD0B1042165
:204D8C000170FF2242700723438000F108034360017242680F235370426891704168CD7094
:204DAC00416801230B7141684C7142682112917100F046F838BD70470F4A01461068ADF1C9
:204DCC00080D08B9002010600846801E12D0801E10D0401E07D001208DF801009DF80100A3
:204DEC000028FBD106E001208DF800009DF800000028FBD102B070470C020020B0B5174645
:204E0C0001F0FEFB0D4C054657B1384600F020FCB84205D0A26842B161884FF487709047A0
:204E2C00A26812B1B8B20021904700202080606801F0F0FD284601F08EFDB0BD98100020B2
:204E4C00F8B500F0CBF807460C2001F002FA064601F0D6FB05467FB176B1B760387858B9F8
:204E6C00074C2069314601F0DBFFA08840F01000A080E06902F004F8284601F06CFDF8BDCC
:204E8C000C0500202DE9F04101F056FF0D4D2B688046A3B105F194060024012707FA04F070
:204EAC0018EA000F07D056F8240020B1026812B1214690472B68641CE4B29C42EED3BDE863
:204ECC00F081C0466C1B00200C4885460C4885446F4607208743BD460A486F4607600A4803
:204EEC00002803D07946491D8E460047FDF7ACFF01F0DAFC00F00AF8FEE7C046683F002061
:204F0C0000040000CC110020516D0000DFF800F0D1C7011000BF704708B5FFF7FBFFFEE74E
:204F2C0038B50546094800688047094C201D006810B1014628468847206800B18047054821
:204F4C0000688047FFF7E8FF38BDC046BC110020C4110020C0110020D0B504463C20FEF74B
:204F6C000BFA071C14D000213C22082301F060FF207AB86160893862E068386160683946C1
:204F8C00002201F051FF0646384600F025FE16B96FF00300D0BD0020D0BDFEE7F8B51E4664
:204FAC0014460D18102E02D3103EAD1C240C01F07DFE002700B9012707483B460768002F2A
:204FCC00FCD02D88012101600BB101F075FE2C403441A0B2F8BDC04600800C40B0B50E4C28
:204FEC000546256001F025F9071C0FD0002038702068408801F0FDF8786022685088788094
:20500C00786818B151685288FDF76EFF284601F066FB3846B0BDC046A41100200E4938B51D
:20502C00CA68824210D1487801280DD101F074FF0546084801F03EF90446284601F068FF8F
:20504C0004F0FF00012802D06FF07F0038BD4FFAA4F038BD01000304C009002000B50021EA
:20506C003C220823ADF13C0D684601F0E1FE084800F1800107914FF42171089101210691B5
:20508C00044900236A463030FFF70AFC0FB000BD080200201D47000070B50446606810F047
:2050AC007F4F18BF6FF0020011D101F0A9FA084D0646287828B1686800F0ECFC606800F0EE
:2050CC0000FD60686860304601F045FC002070BDB41100200D4938B5D1F8EC3209681B386F
:2050EC0000FB00F409060A1643F3072100FB01F519066043091661434243891201EBE501C0
:20510C0001EBA24000EB234038BDC046A41000500C49086820F0020040F4007008600A4833
:20512C00032140F8041C41F230018160012101605022826001604FF4CA628260016040F880
:20514C000C1C7047000004600C410440B0B50C4C002520800F46658010B1216901B18847E7
:20516C0047B1E2680748E188057022B121B9114638468847E18811B16069FEF745FFB0BDC9
:20518C008807002084070020F0B5044605AFADF10C0D03B9084B97E860008DE86000FCF799
:2051AC0019FC011C44BF05A003C802D42046FEF7A9F903B0F0BDC0460549000000000000B7
:2051CC000000008038B5044601F0A6FE05460B48401C007868B1204601F06CF80446284679
:2051EC0001F096FE04F0FF04012C0CBF8120022038BD284601F08CFE012038BDC00900208F
:20520C00F8B544680C4E85680F46303408E021680870206863687F1E401C2060581C606040
:20522C0047B106F10C000068016928688847B0F1FF3FECD13846F8BDC40100101CB5144667
:20524C00CA78012A02D18A880A4B1A8000F01CFD30B9002000906946204601F00CF918B18B
:20526C0001F0A4F9044603E00098447801F02BFA20461CBDA8110020F8B5446885680F1C74
:20528C0004F1200411D00A4E30682168826909782868904748B1206863687F1E00F10100E1
:2052AC00206003F101006060EED13846F8BDC046D00100102DE9F0410446984616460D46B6
:2052CC00102000F086FF071C0ED04146062201F0B3FC3C817D81FE6000F09BFF069A39460B
:2052EC00FFF7ACFFBDE8F0810420BDE8F081FEE710B504460B4802680023D9075008014361
:20530C00D007801A4FF47A729941FBF751FE002908BFB0F1004F28BF6FF000406060002080
:20532C0010BDC0467C72000084460C4898B50F4601888FB1041D4FF48773625C491C0CF892
:20534C00012B7F1E89B291FBF3F202FB03F2A1EB02018AB2F1D1028098BDC046F00B002055
:20536C000B4870B5058801F04BF90A4C06462A4621696068658001F000FDB0F1FF3F04BF0E
:20538C0000206080304601F0E6FA608870BDC0468C0700209810002010B50C460A490A6848
:2053AC00A24210D901EB8401D1F8941088420AD101F0B2FD054B1A680121A1408A431143FB
:2053CC00196001F0A5FD10BD6C1B0020D02002402DE9B0430F46044601F00FFD04F128024B
:2053EC0092E800034B464246FBF7E2FD05460B462A464046494601F063FA17B1303484E833
:20540C0003002846BDE8B0830EB581780C2915D10C218DF80010C3788DF8013082888DF81E
:20542C000220111283798DF80310C2798DF8043069468DF805200620FFF776FC0EBD98B594
:20544C000146886840F6030320271A46521C02E040687F1EFFB260B15FB10488A34218BF77
:20546C00A242F5D1C9681CC820311CC189C881E8890098BD00B50820ADF1140DADF800005A
:20548C003821ADF804100020ADF802000290684600F07EFE03489DF80C1001700499C1614F
:2054AC0005B000BD0C050020024680B5062A0CDA094F900000EBC20007F10C02175A131873
:2054CC001FB14FF6F870B84202D14FF0FF3080BD18880880002080BD240F002010B50446E4
:2054EC0001F0CAFC00F0B2F9002808BF6FF004000DD0083000F02AFBA06038B110F8081CBD
:20550C00217110F8070CA071002010BD022010BD10B5044600212C220823ADF1300D6846B3
:20552C0001F000FCE0200890A168606800236A4600F008F8002818BF002001D1FFF7ECFC77
:20554C000CB010BDDFF800F079AB011010B5044600212C220823ADF1300D684601F0E2FBBA
:20556C00E068A1680890606800236A46FFF7EAFF002818BF002001D1FFF7CEFC0CB010BD82
:20558C0010B5044601F03CF8094B0022014633F80C0F30B1A04208BFD4B203D0521C062A47
:2055AC00F5D3FF24084601F0D6F9204610BDC046240F002000B50823ADF1140D03900949D6
:2055CC00ADF800300A78ADF8023089898DF804206846ADF8061000218DF8081000F0D8FDEA
:2055EC0005B000BD0C05002010B503200021FFF721FA012000F06AFF18B10648006800F0F9
:20560C00D3FC01F091F8044C083C606000F07CFC206110BD800000104C1D00200B4B10B5F7
:20562C0014331C68C1F30F2102F00F02C0F38710090440EA022024F480641C602404240C39
:20564C000C431C600143596010BDC046008002400B4AF8B511880746002087B1D46802F172
:20566C0014030546B1F5877F09DA1E5C66541D544E1C401CB1B2C0B287421180F2D8F8BD14
:20568C009810002070B503460C4600F073FEA04202DA00F06FFE0446064D698818462246A6
:2056AC000E4649191831FDF71FFCA419A0B2688070BDC0468807002080B51746094A136897
:2056CC008B4205D902EB8102D2F89420904201D0022080BD002207B101220348D03842543D
:2056EC00002080BD6C1B0020D020024038B501F013FC05460948E030007838B106480024FC
:20570C00342101222346FFF749FC00B10124284601F0FEFB204638BD00A00C40040D0020BB
:20572C00F8B5064637680D4600242C601FB901F0F3FB374608E001F0EFFB00E03F683968A3
:20574C000029FBD1BD4201D03D60012401F0E0FB2046F8BD38B505460C2000F03AFD041C24
:20576C000DD02946002201F067FA4FF0FF30A06000F04FFD034A2146FFF760FD38BD042093
:20578C0038BDC046875B00001078802811D1508840F27F6181420CD190883F21B1EBA02FA1
:2057AC0007D1C0F3C211052903D100F07F00834201D0002070470120704770B5044604F165
:2057CC0028020CCA0846002101F07AF804F1300292E860002D1846EB0106290C30040143C0
:2057EC0000F040F9383484E8600070BD10B5401E14460DD0401E09D0801E05D0001F01D01B
:20580C00FFF78AFB052004E0002002E0042000E00220226821469047002010BD0A4A10B502
:20582C0012680C464FF47A710023A1FB0001FBF7BFFB002908BFB0F1004F2EBF6FF00200C8
:20584C002060002010BDC0467C72000038B5054600F0D6FE084C03220146243C54F80C0F58
:20586C0018B1A84202D0521EF8D10024084601F072F8204638BDC046240F00200949020485
:20588C0080B5120C41F8082CC0F3074041F8040C0120086004480768002FFCD00020086032
:2058AC0080BDC04644600C4084088C4338B50A4D00242046AC800146AC6100F00FF8286180
:2058CC002046014600F00AF86861FFF7D3FD00F0A3FF00F01BFA38BD0C050020DFF800F00A
:2058EC0021B9011010B5044601F016FB084BE21892F8E810491EC9B282F8E81021B99A68A1
:20590C000121A1408A439A6001F002FB10BDC046040D002038B5044601F0FEFA084A02F15A
:20592C0008031D680121A14012192943196092F8E810491C82F8E81001F0EAFA38BDC0468F
:20594C00040D0020084A10B51268824298BF002009D901B90549064C830003EBC003E05896
:20596C00C268E018904710BDBC09002094710000DC71000010B50C2000F02BFC041C0BD01B
:20598C000521042201F064F80448A06000F041FC034A2146FFF752FC10BDC04614020020E8
:2059AC00DF6D000010B501F0A3FA01F0A5FA032000F010F806481030006830B1034C204605
:2059CC0001F036F8204601F030F810BD356A0000A4010020DFF800F045C0011008B501F061
:2059EC00B7F9012801D0FEF712FA074800F00EF800F0AAFB00F00EF800F010F800F012F82E
:205A0C0000F014F808BDC046B1590000DFF800F081C60110DFF800F095B70110DFF800F09F
:205A2C008DC20110DFF800F03DC20110DFF800F009C30110084910B5002008600120C86197
:205A4C00064CA062A16A206005480068016A14208847A06A10BDC046000024430420094087
:205A6C00B001001010B50C4600F05EFE211AB1F1004F08D8011B091DC90F05D1001DA042FB
:205A8C0088BF041C00E0041D01481830046010BD0020094038B5044601250DE0C0F11F004D
:205AAC0005FA00F1052881EA040403DB401FFCF757FD01E0FFF716FFB4FA84F02028EDD1B2
:205ACC0038BD38B5044601250DE0C0F11F0005FA00F1052881EA040403DB401FFCF7AAFD44
:205AEC0001E0FFF717FFB4FA84F02028EDD138BD7FB50646082014460D46ADF8000009206D
:205B0C00ADF80200684600F043FBBDF8041031809DF8061029700299216000907FBD7FB51C
:205B2C000646082014460D46ADF800000920ADF80200684600F02CFBBDF8041031809DF8EF
:205B4C00061029700299216000907FBD98B5044600F056FD2168002908BF002709D00F46FA
:205B6C0057F80C2C2260002347F80C3CFF2401F8024C00F0F0FE384698BD1078911D80286D
:205B8C0010D1508840F27F6383420BD19088032818BF042806D1097831F0100014BF1129AF
:205BAC00012000D000207047F8B5074616460D460A2000F00EFB041C0CD02946324601F071
:205BCC003BF8384600F053FA207200F022FB214600F05AF8F8BD704710B5044600F010FD0B
:205BEC00074934F8042C6FF3DF3224F8042C4A680860241F944238BF4C6000F0ACFE10BDF1
:205C0C00F40E002038B50C46054600F0F9FC002144F80C1C296811B92C6006E0114651F8F5
:205C2C000C2C002AFAD141F80C4C00F094FE38BD10B5044660680C3080B2FDF79DFB50B151
:205C4C00A18800230181FF22036000F10C0182721846A16010BD6FF0030010BD38B5054661
:205C6C00FFF73CFC041C0DD128796946FFF71CFC28B1A86800F01BFD6FF0050038BDBDF88F
:205C8C000000A880204638BD00B5ADF1140D8DF8040003910822ADF80020ADF802201020FE
:205CAC00ADF8060002208DF80800684600F070FA05B000BDB0B515460C1800F0F7FF002713
:205CCC0000B90127054A394610680028FCD025600120106009B100F0EFFFB0BD00800C40B6
:205CEC00202838BF07480CD307480C30016808038215920500F47C1001F00F01104340EA00
:205D0C000130704700803F408C13005010B500F077FC0446054907481838C1600449016172
:205D2C00FDF7D6FD204600F016FE10BDC56000003D5F0000A0070020094B10B51C688C4266
:205D4C0005D903EB8103D3F89430984201D0022010BD0846114600F0E3FB002010BDC04658
:205D6C006C1B002038B5094B1C6802F0FF05AC420BD902F0FF0403EB8403D3F89430984210
:205D8C0003D108461146FCF705FF38BD6C1B0020094902460823F831C87F30F07F0005D042
:205DAC00B1F91C00824208BF081C04D05B1E01F12001F1D100207047F809002038B520201B
:205DCC00EFF3118580F31188064CA068002101F03FF86169081AA169814238BF002085F348
:205DEC00118838BD7801002010B50C46ADF1180D02900821ADF8001019216846ADF8021087
:205E0C004FF0FF31019100F0C3F90499216006B010BD02464FF0FF307AB1116819B140299B
:205E2C000BD3890B09D1516819B10B0A05D0090E03D191680F2998BF0020704780B5107896
:205E4C0002AF80280DD1508840F27F61814208D19088834205D138789179884208BF01205A
:205E6C0000D0002080BD000010B5082000F0B1F9041C09D00221112200F0DEFE00F0C9F995
:205E8C00024A2146FFF7DAF910BDC046376C0000084A00210320134643F80C1F401E996058
:205EAC00FAD130320620401E22F80C1BFBD100F0F1BAC046000F002098B50F46044600F06C
:205ECC009FFB57B13A4600E00A4652F80C1C0029FAD1216842F80C1C276000F03CFD98BD0E
:205EEC000EB50820ADF800000120ADF80200684600F04EF903499DF804000870029888607A
:205F0C000EBDC046080200200748816841F31002064991F900100068A0F5407041430811C9
:205F2C00121A803210127047285009400C13005010B5044600F064FEA04209DDA0B2FEF7FE
:205F4C005FFC044802214181C06900F099FF10BDFEE7C0460C05002038B500F0DDFF074C03
:205F6C00054694F8E000012804D1FEF73BF9002084F8E000284600F0CBFF38BD040D00206D
:205F8C0010B5044610460A46211C14BF0028022006D0C8608A6003480B6100F055F80020EA
:205FAC0010BDC046040D002070B5054600F07EFE002400B90124054E30680028FCD0A84725
:205FCC00012030600CB100F077FE70BD00800C4008B500F0A1FF064A117880B229B9054961
:205FEC00096800230B700123137000F091FF08BDD01100205872000010B5084C06492069DE
:20600C00814202D100F0DEFC606104F1C800042100F07EFC10BDC046DD270000C009002047
:20602C0008B5283090E80C0005A003C8FAF7C0FF002908BFB0F1FF3F88BF4FF0FF3008BD52
:20604C0000000000907E000038B50D46044600F0C6FE00212A46234611605968516059684A
:20606C0001B921460A605A6000F052FF38BD0EB58DF806005021ADF8001068460021ADF8B1
:20608C00021000F085F8002814BFFF209DF807000EBD0EB50820ADF800002020ADF802007D
:2060AC001020ADF80400684600F072F8002814BF002002980EBD000010B5074CA06920B181
:2060CC00A06900F018FB0020A0610420E080E06900F0D6FE10BDC0460C050020074810B5DE
:2060EC000468FEF765FD04F07F04012804D100F027FB022808BF641C204610BD44130050FF
:20610C0006490868002818BF012005D1044B4020012218600020CA617047C04604800C409C
:20612C002C500C4008B500F023FB00F0804100F00200084305D003484FF00051C83000F03A
:20614C00E7FB08BDC0090020074808B51030006828B1034800F06CFC024800F066FC08BD12
:20616C00E1630000FD680000A4010020074810B51030006830B1044C204600F059FC2046A7
:20618C0000F053FC10BDC0461B470000A401002010B50446208800F07DF838B1816811B10A
:2061AC002046884710BD6FF0010010BD4FF0FF3010BD0EB501900821ADF800106846022166
:2061CC00ADF80210FFF7E4FF002814BF002002980EBD0EB501900821ADF8001068460221A0
:2061EC00ADF80210FFF7D4FF002814BF002002980EBD0EB501900821ADF800106846022190
:20620C00ADF80210FFF7C4FF002814BF002002980EBD0EB50820ADF800001A20ADF8020011
:20622C006846FFF7B5FF002814BFFF209DF804000EBD0EB50820ADF8000001900421ADF891
:20624C0002106846FFF7A4FF002814BF002002980EBD0EB501900821ADF800106846042154
:20626C00ADF80210FFF794FF002814BF002002980EBD000008B542882D2A28BF6FF001002D
:20628C0004D203490C3151F82210884708BDC046386F000008B5FFF773F9FF2808BF0020AA
:2062AC0004D0034B810001EBC001581808BDC046300F0020064A014610680028FCD10023C1
:2062CC00D3611160D0690028FCD0D3615068704700100440064802680A6082684A60C26809
:2062EC008A60406B20F0784040F08050C86070474C130050202838BF002008D304480C30E5
:20630C000068C10C01F44071C0F38450084370478C1300500648018840884FF48772401AE9
:20632C0000F5877090FBF2F15143401A80B27047F00B002010B500F063F90446044800213D
:20634C000180406800F066FB204600F004FB10BD9810002010B500F053F90446044882684C
:20636C0012B1418800209047204600F0F4FA10BD981000200648418800884FF48772401A80
:20638C0000F5877090FBF2F15143401A80B270478807002038B5054600F0BEFD0446044898
:2063AC00294600F047F9204600F0B2FD38BDC046040D002006490822C87F30F07F0008BFDB
:2063CC00081C04D0521E01F12001F5D100207047F00A002010B5064C206900F00BF80146A5
:2063EC00A06800B9E160A068401CA06010BDC046A4010020DFF800F049C20110002181828C
:20640C000449C0684969814203D10348006800F077BD7047780100208072000010B504468A
:20642C00E088FFF7ADF8FF2808BF4FF0FF3003D0A0712046FDF712FA10BD10B5044607E0E4
:20644C0090FAA0F0B0FA80F0C1B22046FDF7DCFF60680028F4D110BD02294FF0000204D092
:20646C00012808BF4FF47A7203E0012808BF40F2EE221046704738B50D460446FFF709FE48
:20648C00002818BF6FF0040003D120462946FFF7ABFC38BD054808211C38A0F84C1002494A
:2064AC004165FDF7A7BBC04681620000000F00200EB50820ADF800000A20ADF802004FF01C
:2064CC00FF3001906846FFF763FE0EBD042807BF4FF0C0421D234FF080521C2301483421BF
:2064EC00FEF75CBD00A00C400548BC3001680348084001F07C4108437047C046FCFCFC00B7
:20650C00B81200500549983108680968C0F3870001F0030140EA01207047C046B81200500C
:20652C00002948BF0021044A02EB8000026861F3050202607047C046001008400348016853
:20654C0003480160034800F0E3B9C046E0200240E0200260CC1B0020054A0C321268824230
:20656C0018BF032002D10846FEF72CBE7047C046C0090020054A0C321268824218BF0320AA
:20658C0002D10846FEF71EBE7047C046C009002010B500F0C1FC84B200F016F8204600F05B
:2065AC00B7FC014810BDC0465872000050B110F1040F08BF042006D010F1030F0CBF022060
:2065CC00012070470020704705490A68107828B90120107048680068FCF72CB87047C0468A
:2065EC005872000008B50548034A41680120106048698969884708BD04200940E40100208B
:20660C0010B500F079FC80B260F30F0400F084FC80B260F31F44204610BD1CB5044660683E
:20662C006946FFF7FBF820B9009860602046FCF7E5FE1CBD0A681AB94A6842600A6801E084
:20664C004B685360496801B901460A60704708B5406810F07F4F18BF6FF0020002D1FFF7C1
:20666C0019FA002008BD08B5406810F07F4F18BF6FF0020002D1FFF724FA002008BD0EB51C
:20668C0001900821ADF8001068460521ADF80210FFF77EFD0EBD0EB501900821ADF8001086
:2066AC0068460321ADF80210FFF772FD0EBD0EB501900821ADF8001068460321ADF802105A
:2066CC00FFF766FD0EBD0EB501900821ADF8001068460321ADF80210FFF75AFD0EBD0EB5F4
:2066EC0001900821ADF8001068460321ADF80210FFF74EFD0EBD0EB501900821ADF8001058
:20670C0068460321ADF80210FFF742FD0EBD10B50446A088FCF730FE0028A06014BF002071
:20672C006FF0030010BD000004480168436802688A42FAD1080440EA13407047082009400C
:20674C00044884380068C0F302400428C8BF4FF0FF3070471813005008B503200121FEF77E
