:20000000483F0020D54B000001CA011001CA011001CA011001CA011001CA011001CA0110F1
:1C00200001CA011001CA011001CA011001CA011001CA011001CA01103FCA011082
:20003C00F8B50D46EEB2290824BF26494D40264BB400195985EA01020240C2F3006C234A1B
:20005C0000EA05078143FF323A4000F4E0270A43B7F5E02F01D1510E15D300F4E0215CEAC8
:20007C00010710D002F4E027B7F5A02707D0B7F5803704BF22F4003242F4A02203E022F4D6
:20009C00803242F4C0221A51114CC10D04D3A4F18001C5F380528A55000E11D300F01AF89A
:2000BC00290E03D201210022B14002E00121B1400A46503423688B431A43226000F00EF8EC
:2000DC00F8BDC046006000A000100840007F077F80200240DFF800F049C10110DFF800F061
:0400FC0019C2011014
:200100003C000000000000000000000034010000000000000000000001000000000000006D
:1C01200000000000000000000000000001000000000000000800000000000000BA
:20013C00340000000000000000000000680100000000000000000000010000000000000005
:14015C00010000000000000000000000080000000000000086
:2001700030000000000000000000000098010000040000000000000001000000FFFFFFFFA5
:10019000FF00000001000000080000000000000057
:2001A0002C0000000000000000000000C4010000040000000000000001000000FFFFFFFF4D
:0C01C000FFFFFFFF08000000000000002F
:2001CC0034050000E401000099A1011095A70110A5C2011009B2011045B80110000000000B
:0801EC00000000002F000000DC
:2001F400280000000000000000000000140200000000000000000000FFFFFFFF00000000B1
:080214000800000000000000DA
:20021C00300500003002000069C201106DC101101FC2011095BA011000000000000000008E
:04023C002D00000091
:20024000300500005402000075C20110A9B601109DBF011049B601100000000000000000DE
:040260002E0000006C
:200264002400000000000000000000008002000000000000000000000000000008000000CC
:040284000000000076
:20028800240000000000000000000000A40200000000000000000000000000000800000084
:0402A8000000000052
:2002AC00240000000000000000000000C8020000000000000100000000000000080000003B
:0402CC00000000002E
:2002D00000000000300F0020040000000000000000000000200000007001000030000000EA
:2002F0001C0200005C0F00200400000000000000000000000C0000003004000018000000E9
:2003100040020000680F002004000000000000000000000024000000480400001800000068
:2003300000000000700F002004000000000000000000000010000000A00100002C0000002D
:20035000CC010000780F00200400000000000000000000002000000064020000240000006B
:20037000FFFFFFFF980F0020040000000000000000000000280000008802000024000000D0
:20039000FFFFFFFFC80F0020040000000000000000000000580000003C010000340000008D
:2003B000FFFFFFFFD00F0020040000000000000000000000100000006004000018000000A2
:2003D000FFFFFFFFD80F00200400000000000000000000001C000000AC0200002400000018
:2003F000FFFFFFFFE00F002004000000000000000000000038000000F40100002800000089
:20041000FFFFFFFFE80F002004000000000000000000000054000000000100003C00000024
:1804300018000000000000000000000040040000080000000000000050
:1804480018000000000000000000000058040000080000000000000020
:18046000180000000000000000000000700400000800000000000000F0
:080478000100000014730000F4
:0404800006F0AABC1C
:040484000100000073
:0404880000000E0062
:04048C0000000F005D
:040490003200000036
:040494000100000063
:04049800380F0020F9
:04049C00000200005A
:0404A0000000000058
:0404A40001CA011078
:0404A8000000000050
:0404AC00000000004C
:0404B0000800000040
:0404B4000000230021
:0404B800701100209F
:0404BC00010000003B
:0404C000800F002089
:0404C400080000002C
:0404C8000000000030
:0404CC00000000002C
:0404D0000000000028
:0404D4000000000024
:0404D8000000000020
:0404DC00010000001B
:0404E000D81100200F
:0404E400060000000E
:0404E800010000000F
:0404EC00DC10002000
:0404F0000000000008
:0404F4000000000004
:0404F80000020000FE
:0404FC0000000000FC
:02050000704742
:020502002900CE
:020504000100F4
:020506002500CE
:020508002D00C4
:02050A002E00C1
:02050C002F00BE
:02050E000100EA
:0105100001E9
:0805140003000000F07200007A
:08051C000000000000000000D7
:0405240000000100D2
:0405280000000300CC
:04052C0087C401106F
:04053000380500008A
:040534003805000086
:0405380000000000BF
:04053C00900000002B
:040540009000000027
:0405440000000000B3
:04054800800F002000
:04054C004F6A0000F2
:040550002000000087
:04055400B072000081
:040558002872000005
:04055C000DC30110BA
:04056000D76500005B
:04056400616E0000C4
:0405680099C801101D
:04056C009BC8011017
:040570000000000087
:0405740027720000EA
:040578007871000096
:04057C00907100007A
:0405800060710000A6
:0205840008006D
:0205860009006A
:02058800010070
:02058A0000006F
:01058C00016D
:040590000000000067
:040594000000000063
:04059800000000005F
:04059C00000000005B
:0405A000596E000090
:0405A4008152000080
:0405A800655F00008B
:0405AC00DD58000016
:0405B0002B570000C5
:0405B4000D590000DD
:0405B800153E0000EC
:0405BC002F6C0000A0
:0405C0007D42000078
:0405C40011C8011049
:0405C80021C8011035
:0405CC000800000023
:0405D0002400000003
:0405D400180000000B
:0405D80028000000F7
:0405DC0020000000FB
:0405E0003C000000DB
:0405E4000C00000007
:0405E80034000000DB
:2005EC002DE9FE43AF4C0F460646F80B80F03581B80880F0C7806069B90F67D2A07A002850
:20060C0048D1380948D30025657001262672284603F087F8A44806F00BFBA4492A4604F186
:20062C004C0006F000FC607901281AD1A079C0B99F4E306870B106F0A1F96169236A3268CA
:20064C00401A000BE061C018B0EBC21F28BF256208D2206204F1C8004FF0005106F02AF964
:20066C0031E0667104F1380140F60900088094F8450000F0F00040F0010084F84500658702
:20068C0094F8440000F0F00084F84400E563894E316018E0380914D2B80BC0F0FB8004F12C
:2006AC00280006F0CBFB061C08D0706830B17568F068B6F91C1082A20CCAA84727F400572C
:2006CC00E8E00020A07227F00807E3E0D8B1042005F092FEB8B106F051F9A06161698142C2
:2006EC0026BF401A401E401A000BF060F06840F6C41100F58D708142F06003D340F2EE221C
:20070C00824200D9F1600025D6F818C06561BCF1000F0FD094F8450010F00F0F0AD1708CED
:20072C0040F60901814205D167A20CCA30466FF48071E047604904F14C002A4606F073FB46
:20074C00A07950B10220ADF80000684605F072FDA571BDF80800A4F8A00001206070207901
:20076C00A846401C2071192084F8078006F0DAF9756925B156A20CCA30464146A84727F008
:20078C00005787E004F13009484606F057FB061C5AD004F08BFD4FF00008B269C6F818800B
:2007AC007068B8B1F07F42F00202002300F00700401E07D0401E03D0801E06D146A002E08A
:2007CC0047A000E048A090E80C007568F068B6F91C10A847FFF786FC0546B4F93600401CD9
:2007EC006FF31F30E086206B1F30017801F07F010170484605F0F2FF2846FFF777FCF068FE
:20080C00B0F99410B4F9362091421DD1217801291AD090F8965095B9056885B1E1680968F5
:20082C00B1F1FF3F10D0254909687030B5FBF1F106F0DAFBF068703006F0D2FB04E080F8F9
:20084C009680404603F0B8FC484606F0F7FA27F0020708B147F002071CE0FFF743FC014643
:20086C0004F12C0006F0EAFA0646B5690846FFF73DFCA8080CD25EB1B069A843B061706800
:20088C0030B12A46F068B6F91C1075680023A84727F4804727B104F1C800394606F00AF8EB
:2008AC00BDE8FE8388080020A13B0000B16000000C1D002000100440CD2200000C7300005E
:2008CC000000000020000000000000000000000200000000000000040000000000000010D6
:2008EC00000000000000004000000000000000202DE9FE430646DFF8DC82DFF8DC92B27845
:20090C000024101C00F03581801E00F00D81401E012840F2E180801E00F0A880401E7BD040
:20092C00401E59D0083800F04681801E40F046814546B08895F83E70ADF80000052F45D0AC
:20094C0001208DF80A0005F1CC0006F079FA95F83E0001281BD0042819D0032806D0022891
:20096C0004D0F28831897089B38907E0B5F84020B5F84210B5F84400B5F84630ADF8022060
:20098C00ADF80410ADF80600ADF8083020E0B5F84000F1888842D8BF081CADF802003189BE
:2009AC00B5F842008842D8BF081CADF804007189B5F844008842D8BF081CADF80600B5F846
:2009CC004630B0898342D8BF031CDDE78DF80A40684606F045F9F1E0454605F1F00006F034
:2009EC002FFA7078002840F0E980F088E882308928837089688305F1CC0006F08BF800288C
:200A0C0040F0DC80AB6A002B00F0D8801B68E88A298B6A8B9847D1E0B08805F0C4FA454612
:200A2C002146062205F1380002F042FEEC822C836C83B079687305F1CC0006F001FA05F102
:200A4C00F00006F0FDF901244FF6FF706F79A8824FB9B079082814BF04200520A8702046C8
:200A6C0005F0ECFEAAE00320A870A7E0707858BB311D0A68454605F1380002608988818057
:200A8C000627AF707089A882F089E882308A2883708A6883F0784446287394F83E0001282E
:200AAC0018BF02280AD11F2004F0D6F94FF47A71024604F1CC00514304F06CFBF0787289C3
:200ACC00311D04F013FB7BE0707831286FD14D4604202870204623E07778002F67D1454645
:200AEC00698AA878032A13D02A796F7921B9012A14BF6C712C7106E0174304D005F1A80038
:200B0C0004F048FBA878072814BF0420062007E0062807D02879002808BF0324DAD00220B7
:200B2C00A8704DE00724D5E77078751C00283ED14246F7789078D1799FB9022816D00728ED
:200B4C0014D0062802D1517901290FD103280DD002F1A80005F0DEFF40B9012005F06EFEE0
:200B6C0004E08732204603F0D7FC28702878F0B924E07078D8B945460220102105F1480224
:200B8C0004F01CFD0320102105F1580204F016FDF61C05F12C00B7883168878005F168021E
:200BAC0001600120A979A87003F0B6FC40B108204D46287004E0B08806F046F8012C06D130
:200BCC004546686A18B1016809B1A8788847BDE8FE83C0466C0500206E050020F8B5A0F242
:200BEC00013517460E46022D40F20C818649874C874A884B2D1F0F2D04D9143D4AD0AD1E33
:200C0C001CD011E0DFE815F0BA00B500EB00DB00AE00A700FE009F009800100010009000B0
:200C2C0086007A006F006200282880F2EB80022E40F0E880398804F06FFBF8BD012E40F0AF
:200C4C00E1800A469078012800F0DC80D1783878D07081B9002800F0D5801078012800F0D9
:200C6C00A080042800F09D80062800F09A80052800F09780F8BD3878002840F0C38010781B
:200C8C00032800F09980072800F09680052800F09380F8BD012E40F0B5803878012840F05D
:200CAC00B180254605F1F00005F034FF002840F0A98004F13E01002002F058FE002840F009
:200CCC00A18004F1CC0006F0BBF8F8BD022E40F0998038880A28C0F29580B0F5486F00F347
:200CEC009180114614E0022E40F08C803888B0F5FA7F80F2878011460880F8BD022E40F0D5
:200D0C008180388806287DDBB0F5486F7ADC1946891CF1E7022E75D13888062872DBB0F59C
:200D2C00486F6FDC1946E7E7012E6BD13878062868DA1146891F0CE0012E63D138780428C3
:200D4C0060DA093105E0012E5CD13878082859DA08310870F8BD012E54D13878042851DAFE
:200D6C00C91DF6E7012E4DD1387804284ADC891DEFE7022E46D138881031BDE7012E41D1AC
:200D8C000A46D07801283DD091783878907061B9002837D01078012803D0042818BF0528C3
:200DAC0030D1012005F04AFDF8BD387850BB1078022818BF052825D105F05CFEF8BD25463E
:200DCC0000211F2205F18704204602F071FC39463246204602F02CF90020EE710EE0254613
:200DEC0000211F2205F16804204602F061FC39463246204602F01CF90120AE7131462246EB
:200E0C0003F08AFBF8BDC0466E0500206C050020B0050020AC0500202DE9F04F0128ADF1AD
:200E2C00140D40F0F280DFF81492D9F8DC00012840F0E9800220C9F8DC0006F0CDF80290EB
:200E4C00012003F015FE20B101210646C9F8DC10D5E006F0BDF803906E484FF00008C0F8CB
:200E6C000080012005F0C8FA012818BFCDF8008004D1404603F056FA0120009066486E4C12
:200E8C00C0F800801934D4F8FF0F112005F024FF00280CBF46460126102005F01DFF08B1FE
:200EAC0046F002060F2005F017FF08B146F004060B2005F011FF30B1584800685849006B90
:200ECC000246088890470A2005F006FF0028404618BF01204FF0805B0BF5DC7528B12868B9
:200EEC005049006B0246088890474F480127076028688069014646F0200088474B4807602E
:200F0C0005F0E4FE00F001010191400815D2484805F041FE8246BAF1040FF8D0BAF1010F6E
:200F2C0006D1DBF8D801406802464148032190474049086820F003000860404600F080F84C
:200F4C002868D4F8FF1F806B8047019801280ED0BAF1010F06D1DBF8D8014068024634480F
:200F6C00394690473349086840F0030008602A480760286840690146304688470B2005F0CA
:200F8C00ABFE28B128682649C06A0246088890470A2005F0A1FE28B128682249C06A0246E7
:200FAC0008889047204807600322C9F8DC201F4BC3F800802868406B014630468847012878
:200FCC00F8D1042003F054FD124807601A48D4F8FF1F01688909FCD30098012802D13846EB
:200FEC0003F0A0F905F06CFE082003F041FD06460398C9F8DC7005F0E7FF03F053F80298FA
:20100C0005F0DEFF02E0042600E00126304605B0BDE8F08F0C40094000022243B8010010CB
:20102C00F6700000F27000002820086080010443004003402422084014100940180E0020A0
:20104C002DE9F84F82467A48DFF8D89135380068800880F0D88004F0CBFE05467848083038
:20106C00D0F8008000244FEA2876761C5FEA98500AD2C5F13E0015F10A0F4FEAE000D8BFBF
:20108C0008208642B8BF061C634FD7F87C01C0F3046005F079FD83463868C0F3044005F0E6
:2010AC0073FD06EB0B020090162A05DA12F10A0FB8BF6FF0090200E01522584B584F02F0B7
:2010CC001F0141F4F8511980396811F0030F18BF0124C90828BF44F00204BAF1000F18BF9A
:2010EC0044F00404494691F90730EB1A052B04DA8B79A34208BF888864D0DFF82CE10F2D31
:20110C00A5F10F0C25DB0CEB0513A3F1F00C4FEA2C27072F88BF07273E46062E88BF062611
:20112C005EF82600042303EB86037646F3581B1A03F0FF06E00824BFC3F307200644A008BB
:20114C0024BFC3F307400644600828BF06EB136601E0002637465EF827E0E0080EF0FF03D7
:20116C0024BFCEF307200344A00824BFCEF307400344600828BF03EB1E630098B6B2ACEB22
:20118C0007277E43801A06F1800603EB1623D8BF0120342208F0FF0742437A43B2FBF3F038
:2011AC004FF6FF72824238BF101C802D80B2888005DA15F1800FB8BF6FF07F0500E07F254D
:2011CC00CD718C71194A12681F280A604FF0000208D340F2FF11814206D24008521C8142C8
:2011EC00FBD301E01F208880124F11490F38000942EAC00247EA0200C1F8FB0F0026C1F81F
:20120C00FF6FBDE8F88F0D4F0B4E494608203760891D0870BDE8F88F3C1100506E62084026
:20122C0024220840041D00209C130050082009403500094000E7A48030100940FDFDA400B3
:20124C00AC3F00502DE9F0411C4615468C4208BF854282BF00230022E5E0002C08BF002D7C
:20126C000AD100290EBF00286FF000006FF0000100F0E1F8BDE8F0815FF000085FF0000E17
:20128C00002C08BF8D429CBF2C1C0025070C47EA01470E0CB44208BFBD429EBF5FEA044468
:2012AC0044EA15445FEA0545070A47EA01670E0AB44208BFBD429EBF5FEA042444EA156415
:2012CC005FEA0525470847EAC1774E08B44208BFBD4200F29380870847EA81778E08B4427C
:2012EC0008BFBD427CD8C70847EA4177CE08B44208BFBD4266D8070947EA01770E09B4427A
:20130C0008BFBD4250D8470947EAC1674E09B44208BFBD423AD8870947EA81678E09B442CF
:20132C0008BFBD4224D8C70947EA4167CE09B44208BFBD420DD8E60146EA5566EF01B14209
:20134C0008BFB84201D3C01BB14158EB08085EEB0E0EA60146EA95664FEA8517B14208BF06
:20136C00B84201D3C01BB14158EB08084EEB0E0E660146EAD5666F01B14208BFB84201D354
:20138C00C01BB14158EB08084EEB0E0E260146EA15762F01B14208BFB84201D3C01BB14165
:2013AC0058EB08085EEB0E0EE60046EA5576EF00B14208BFB84201D3C01BB14158EB0808F1
:2013CC004EEB0E0EA60046EA9576AF00B14208BFB84201D3C01BB14158EB08084EEB0E0E1F
:2013EC00660046EAD5766F00B14208BFB84201D3C01BB14158EB08085EEB0E0EA14208BFDA
:20140C00A84201D3401BA14158EB08085EEB0E0EA34208BFAA423EBF2D0A45EA0465240A7B
:20142C0089D3734642461E4617460B46024631463846BDE8F08170472DE9F041ADF1280DCD
:20144C0004F0AEFC05F0E2F9704E41F2883204236F49F06006F16C0003F09EFA00241F20E7
:20146C000621746003F058FF5020ADF8060001258DF80050ADF8024029468DF804506A4626
:20148C00ADF80A404FF44870ADF808004FF47A70ADF80C0040F20530FFF7A0FB40F206306B
:2014AC0002210DF10202FFF799FB4FF442701E2106F14D02FFF792FB40F20730072106F1EC
:2014CC001C02FFF78BFB4FF44470294601AAFFF785FB40F2113002210DF10602FFF77EFBD4
:2014EC0040F21230022102AAFFF778FB40F2133002210DF10A02FFF771FB4FF44570022115
:20150C0003AAFFF76BFB05F0B1FB0620A02103F003FF0720A02103F0FFFE0820A02103F085
:20152C00FBFE0920A02103F0F7FE2F460494A0468DF814504FF481608DF8157004218DF820
:20154C00168004AA8DF8177003F0CCFE4FF48060294605AA03F0C6FE40F2024029460DF199
:20156C00150203F0BFFE40F2034029460DF1160203F0B8FE40F2064029460DF1170203F004
:20158C00B1FE05F014FCFEF775FF05F0EDF904F093FC02268DF8187003258DF81960042441
:2015AC008DF81A501B498DF81B4007A80A680979026006AA01714046394602F0A1FD3846B2
:2015CC000DF11902014602F09BFD39460DF11A02304602F095FD39460DF11B02284602F088
:2015EC008FFD052107AA204602F08AFD05F0EEF904F0BCFE04F026FA05F0B9FB05F0BFFBA7
:20160C0005F048FA0AB0BDE8F081C04608020020C5690000FC7200002DE9F843814605F0DE
:20162C0049FB002100B901216B4E30680028FCD06C4D01242D1DEF6A346009B105F040FB1A
:20164C00DFF89881C7F3072008F1BC01086005F031FB002100B9214630680028FCD02F680A
:20166C00346009B105F02CFBC7F38440C8F8C00005F020FB0146002001B920460146306880
:20168C000028FCD0ED69346009B105F019FBC5F38120C8F8D000B9F5C061C8F8B81000F06D
:2016AC00968098F8D80068B9C8F8D410D8F8C000C8F8C800D8F8BC70C8F8C470D8F8D060D3
:2016CC00C8F8CC60D8F8D410D8F8BC60002954BF02206FF00100454605F1C8031A6801EBFA
:2016EC0041014018411000EB917002EBA0021A60D5F8C810C5F8C46000291CDD1E293DDDF5
:20170C00D5F8CC0030B93429B4BF15391E21C5F8C81025E02A29BABFD5F8C8000B381E2062
:20172C00C5F8C800D5F8C4003F28B4BF401C3F20C5F8C4001FE0D5F8CC00032812D011F1CA
:20174C000B0FC6BFD5F8C8000B30201CC5F8C800D5F8C4000028CCBF401E0020C5F8C4000A
:20176C00032009E011F1150FC6BFD5F8C8001530201CC5F8C8000020C5F8CC00B5F8C400F1
:20178C00174E30214FF47F4208230090304603F0DFF8009404214FF400321123304603F0BD
:2017AC00D7F8B5F8C80004214FF4F80212230090304603F0CDF8B5F8CC0020214FF44062E5
:2017CC000A230090304603F0C3F8BDE8F883002088F8D800BDE8F88300800C40180E002052
:2017EC0000A00C4000A00C402DE9F04FADF1840D00F0D8FC03F088F80026012804D104F032
:20180C0075FF022808BF012658490868C0F38150012806D151F80C0C0127010E07FA01F011
:20182C0006435348007804F007FC524D2C46286038B1FF2204F1400107467F1E01F8012B61
:20184C00FBD14D4909684FF0000901F0FF02FE2A1BD0DFF824C101F0FF074A460123FF2FC7
:20186C000CD0B8427FD903FA07F73E427BD101F0FF0147EA0909611881F840205CF8041F6A
:20188C00521C01F0FF07FE2FE9D1092000F0E6FF3948002124220823606001A805F08CFBFA
:2018AC004FF0010804F1240001AA8DF81C80414605F07EFB236843B3002794354FF0040B3B
:2018CC00BA4608FA07F0064219D119EA000F04BF07F0FF0141F4C04105D0E019264990F80A
:2018EC00400051F820102548FEF7A2FBF8B24FF0FF3104F0ABFD2368C5F800A001E0C5F8E9
:20190C0000B07F1C2D1D9F42DBD30AA800213022082305F049FB0025FF2010210AAB129042
:20192C00174A009504F1080005F03AFB16A828220823294605F030FB04F1600016AA1C95F6
:20194C0010491D952B4605F023FB0F4951F80D0C20F4F85040F4005041F80D0C4746C1F8BA
:20196C00FF7F0A4E376021B0BDE8F08FB43F0050151D0020181B0020A8710000007FC7674B
:20198C00756400004D4B00000D300940080009402DE9F843674C04F1240005F04FFA15463D
:2019AC000E460090FEF79EFB05F001078146B6F1FF3F0CD1A06A20B9B4F93600401C06B249
:2019CC0002E0A06AB0F91C60002084F8A300304604F014F90326002800F09B80A16ADFF8F6
:2019EC004081814269D0009FB8422ED03FB100990A68904209D0096800290091F7D1832E3D
:201A0C0041D04846FEF772FB3DE004F1A40004F061FC00980168AA0802D20A680260084609
:201A2C00002202600091009818B94846FEF75EFB28E0C17F41F00401C177684604F0CEFE1C
:201A4C000146404603F052FDEDE704F1A40004F041FCA8083ABF606A006800206062484682
:201A6C00FEF744FB0099C87F40F00400C877684604F0B4FE0146404603F038FD009808B139
:201A8C00A808EFD28326E07988B9207A012843D0244805F0CDF8022104F1C80004F00AFFAD
:201AAC006078012838D0204805F0C2F834E004F1C800022104F0FEFE2EE0A90803D3616AB6
:201ACC00009100266662C27F0121B9401143C17705F07EFA0446002F14BF1448144804F02E
:201AEC00A9FB4846FEF702FBA80801D3009820B9204605F069FA83260EE0C17F41F00401F6
:201B0C00C177684604F06AFE0146404603F0EEFCECE74846FEF7EAFA3046BDE8F883C046F7
:201B2C00B8080020ED050000052A00000100020401000104880800202DE9FC415E4C574D3A
:201B4C00574EDFF860815A4F94F8E410481E0B2861D8DFE800F07B2C4306234306234306A2
:201B6C007664042907D001220A2945F8212C14BF0220032004E02021012045F8211C02467B
:201B8C0084F8E200002045F8390C0827C5F8FF7FC5F8F37F45F8392CBDE8FC81052914BFDB
:201BAC0009200620002584F8E400356070E094F8E1700120383D002FC5F81B0004BF0620FD
:201BCC00002102D00021F160032084F8E400032045F8010C31603068800859D294F8E40058
:201BEC00012503280DD00021404660220523009102F0AEFE94F8E400062814BF0A20072069
:201C0C00D1E702200090002160220523404602F09FFE0420C7E705F0B7F9BDE8FC8122496A
:201C2C00002622480E60012505600E2000F0ACFD022003F0EDFD84F8E45084F8E360BDE835
:201C4C00FC81002038600C2578601FE01948006800680146202088472C3D41F61D560F2072
:201C6C0000214FF4C072072345F8010C4046C5F803600225009502F06BFE404600214FF4A7
:201C8C00C072072303F088F80120386084F8E45004F1780005F0A4F9BDE8FC8139400C401A
:201CAC0038600C4000A00C402C500C4004800C4034600C40A0010010180E00202DE9F84F7C
:201CCC009A4693460E468146FEF70CFA514C0090B4F93610B4F934000AAF401A40F6F87176
:201CEC000140082980F28780B4F93400401C6FF31F30A086B4F9348004F0CCFA054609F179
:201D0C00700004F0E7FAAE6085F81EB0C5F804A0A5F81C80C5F80C9097E80C0041A003C8EF
:201D2C00002605F110071040194087E8030004F12400EE770768002F50D1294603F0D6FBD9
:201D4C00002851D0A9F89480E87F40F08000E87789F89660607A40B1607830B10120A072D5
:201D6C0066722779A671781C20710098FEF7BEF9A06A00284BD1607860BBE079012846D086
:201D8C00FEF7B0F90646207A00BBA86802F024FD224B2149E2681B68086040B93046FEF765
:201DAC00A5F904F1C800042104F084FD2FE00968D26804F1A400891AB1FBF3F105F014F99A
:201DCC0004F1A40005F00CF930461EE0144901200870F9E7192004F0A5FE18E004F1240039
:201DEC00294603F083FB48B9B4F9340000F6FF706FF31F30A0866FF0010805E0A9F89480D7
:201E0C00E87F40F08000E8770098FEF76FF94046BDE8F88F880800200C1D00200C73000021
:201E2C00141D0020F1EFFF9F200000002DE9F041424C474D8046C8F38140401E02D0401E6E
:201E4C002AD025E0284620300168880C20D24FF4804020603A48D0F802204B0AC1F3033798
:201E6C0003F0800322F08F02134347EA0302C0F80220D0F801300E1266F30303C0F8013076
:201E8C00026801F0E70722F0E70247EA020102E04FF00041204601602A4E06F108000068B6
:201EAC00C0F3C0070FB94020A0624FF40070206404F018FE40F0300084F8C800C8F3815001
:201ECC0038B3401E03D0401E1ED002211DE0012004F092FA07460420394602F057FC042074
:201EEC0004F08AFA8742FAD1366826F07F4003F077FC15480068036807214FF06022300E9A
:201F0C0098474FF4806020600321042002F03EFC06E00420012102F039FC0C4803F060FCC9
:201F2C00284600680B4947F6180700F03F0084F8CB0F094E0F803068BDE8F08140A00C40CA
:201F4C000A600840A83F0050B4010010BD3786006C13005070B00C402C2009402DE9F04334
:201F6C000646880FADF1140D7FD302F0F7F8434D4FF000081C35C5F800803D4845F81C0C31
:201F8C00012001F0CEFB3B4804F052FE3C48434640F60A0200F13801438790F84440C0F88C
:201FAC003C8090F845700A8004F0F00480F8444007F0F00444F00104B76880F845408146A7
:201FCC007B803C1D00E03C1D276817B138888242F9D12160607A00F0F000607209F1240098
:201FEC0004F02CFF80680088D21F82421DD0521C82421AD006F120000788B7B196F82C20A0
:20200C0096F82D70C6F8248002F0F00286F82C2007F0F00242F0010286F82D20C9F83C0093
:20202C00487B738400F0F0004873B068694604F011F9684604F04EFDB06801F016FE2868E0
:20204C000028FCD0C5F80080012004F0D5F9012808D0607A00F0F00040F001006072064854
:20206C0004F0E6FDB06845F81C0C05B0BDE8F08301010E04ED050000854300000010044011
:20208C00880800202DE9F04F0C464549CA7AADF12C0D84460592487B09900D7900958A7A58
:2020AC00488B4B8A0E7B91F805A091F802800492B1F846E008904A7A088B0392CD780790E5
:2020CC000A7AC88A02920F6A0690CA79888A01928A79E146A9F54079B9F11D0F10D8DFE88D
:2020EC0009F05B5553514F4D4B494643413F3C3A380F34312E2B2923201E1C0F19181716C0
:20210C00BCF1280F49DA604602F0A6FE21E0099EB246D046CDF814801DE00898079007988E
:20212C000690DDF818E005E03831086820608888A08032E070460AE0B1F8440009E0B1F891
:20214C00420004E0B1F8400001E091F83E00034612E0208021E0059804900498039001E09F
:20216C003231E2E7039802900298009006E0019A87310DE068310BE01846EAE7009D0BE06F
:20218C002C31D2E7276008E0583100E048311022204600F04DFF00E025700BB0BDE8F08FA4
:2021AC006C0500202DE9F041444C94F8E700ADF1280D00286FD1394F387B01250021242235
:2021CC0084F8E7507E6884F8E6000823C4F80C6101A804F0D5FE002604F10C00069601ABC5
:2021EC00ADF814602E490796324604F0C5FE2D4904F1300001AB324604F0BEFE2A4904F1A0
:20220C00540001AB324604F0B7FEB868014628468847DFF89C8025487B7B0078D8F804103B
:20222C00C1F381571BB1032F03D184F8E150032F16D0022F14D0012F26D103201D4C009017
:20224C0031464FF040521C23204602F081FB009531464FF400720923204602F079FB13E06B
:20226C00022003F0EDFA032F0CBF4FF47A7142F21071114800685434B1FBF0F1204604F046
:20228C00B3FE204604F0ACFED8F80000C00802D2304603F0D5FA0AB0BDE8F081C4720000D3
:2022AC00134900000932000039360000151D0020B03F005000A00C400C730000180E0020CA
:2022CC00F8B504F02BFA404E3E4F0446A00823D3B96A09B33D4600200B698A69A86204EA48
:2022EC000300104340F0020006F1080288610B6910689843106001F1100090E80C0030680B
:20230C001A1C9043306005F1300003F0EFF8022105F1C80004F0CEFAB86AA10815D200F1D8
:20232C0010020CCA002122400B40002B08BF002A0BD0016985690C40F8622C434FF4804173
:20234C00846107F1C80004F0B5FAB86A002837D107F12404204604F071FD051C30D0F8686E
:20236C00E968884226D1A86802F036FA17490860E0B906F1080128690A6810430860326854
:20238C0005F1100393E80300081C1043306000233361A86846F80C0C06F1100000680028EF
:2023AC00FAD0204604F01AFABD62F8BD086801F003FFF8BD07F1C8004FF4805104F07AFAB1
:2023CC00F8BDC046880800200C1004400C1D00202DE9F047ADF1180D00F08CFD3A4D4FF08E
:2023EC00030908274FF6FF78002605F13E0A2C4603F0F4FF20BB009601A80DF106016A464F
:20240C0003F0DBFAE0B9BDF80400102814D160789DF8061088420FD100980188884509D184
:20242C004088C00B08D3042005F12002014603F0C5F801E002F0F6F9009808B104F032F9BD
:20244C00208A41082DD320F0010063792179208253EA010225D073B9207A637A8DF80700F0
:20246C0005F132018DF808300A680DF109031A608988998001E08DF80790A07A8DF80F009F
:20248C00E37A8DF810300DF1070004F0D7FB38B1636AA77023B11A6812B11968384688478F
:2024AC00208A810807D320F0020020825146304601F05CFA208AC1089AD320F00400208265
:2024CC0004F00AF894E7C0466C0500202DE9F0430646ADF11C0D04F04BFD03F069F94FF0BC
:2024EC0000090546CDF8009004F014FC30F0010002D00098A84202D16FF0040059E0706867
:20250C004C4658B1B0F1FF3F05D001A903F038F930B107464CE04FF0FF3000E020460190F3
:20252C0004F022FD0199012701EB000800E001936868019904F014FD00282ED003A802F020
:20254C001FFFD8B99DF8100002A902F0FFFE88B9B368BDF808009DF81210059A984748B13A
:20256C009DF81270B773BDF80800B081059B33614F4612E00599684603F0BCFA0198641C57
:20258C00B0F1FF3FD4D00028D2D004F0EDFCB8EB000302D001989842C9D2009905F10800E8
:2025AC0003F0EAFB24B1686804F0D6FC641EFAD1384607B0BDE8F083F0B5ADF1340DFFF7B8
:2025CC00F1FD304908682822082340F00200086001A8002104F0E0FC2B4E2C490524002335
:2025EC0001AA079406F1C80004F0D2FC00213022082301A804F0D8FC0025FF271921244A06
:20260C00ADF81C5001AB099706F14C00009504F0C7FC2822082301A8294604F0BDFC1D4922
:20262C0001AA2B4606F1FC00079404F0B1FC3022082301A8294604F0B7FC01241A21164A47
:20264C00ADF81C4001AB099706F16800009504F0A7FC12492A4606F1A400134604F08CFC5B
:20266C000F4804F0E5FAB47186F8A3507571F57135727572B5724FF6FF7075610DB0A6F8A8
:20268C00A000F0BD002009408808002091680000B1600000CD2A0000D9430000155F000037
:2026AC00052A00007CB50446084601F0DFFA344E02461821304603F075FA03F0B9FE40F295
:2026CC00FF32002380B22C210090304602F040F904F010FA1C210246304603F063FA03F0AE
:2026EC0099FE02461421304603F05CFA04F03AF802461021304603F055FA204601F0DEF976
:20270C0002460C21304603F04DFA204604F012F81C4D400040F020002870204604F016F82B
:20272C0040F010002870204603F0A4FD02462821304603F037FA204604F020F8400040F0AE
:20274C006000E870204604F025F8C00040F0800005F8080C204604F029F8800040F47C40D2
:20276C00A5F89300204603F033FA02460821304603F018FA4FF48000A5F2091108607CBD96
:20278C0000A00C4049A10C402DE9F8430446FDF7A9FC81462D48021992F8ED10491ECFB211
:2027AC00002F82F8ED704BD12B4D05EB84052E78698836F07F0788461AD1F10911D24FF0E2
:2027CC008054D4F8B801806901464046884704F5DC742068406B0146404688470228F8D104
:2027EC0021E000EB8800D0F80011002088471AE04FF08054D4F8B801006A014640468847F9
:20280C00D4F8B801806A014640468847D4F8B801006B01464046884701210D4A0D481160D6
:20282C0001688908FCD306F03F003F2801D0FFF7ABFF687800F03F003F2801D0FFF7A4FFD6
:20284C004846FDF753FCBDE8F883C046180E00202820086028200840C87000002DE9F04170
:20286C000646FDF73FFC2D4D8046A91991F8ED00421C002881F8ED204AD1294C04EB860444
:20288C00277807F03F003F2801D0FFF7E7FF607800F03F003F2801D0FFF7E0FF668837F01A
:2028AC007F001AD1F80911D24FF08054D4F8B801406901463046884704F5DC742068406B75
:2028CC000146304688470128F8D121E005EB8605D5F80011012088471AE04FF08054D4F84B
:2028EC00B801C069014630468847D4F8B801406A014630468847D4F8B801C06A0146304637
:20290C0088470121074A0848116001688908FCD34046FDF7EBFBBDE8F081C046180E00201D
:20292C00C87000002820086028200840294A2DE9F04180460126284816600768002FFCD01C
:20294C00294C2A4FC020443C206007F1080001682348890804D20168090C41F0F00100E0E2
:20296C0072211E4D85F85412002111638768384600F0D8FE40463946FFF794FE1C48B038C9
:20298C00816D40F20F226FF31F418A4212D901680068C1F30363C0F3034003B15B1E072824
:2029AC0005D006280EBF0720801C00F00F0043EA001028703846FFF739FA0E4814380068F3
:2029CC00C1680220884740202060064F3E60BDE8F081C046101009409402224302600840D4
:2029EC00AC3F00509404604244600C40A83F00506C130050B4010010042998B54DD1274C90
:202A0C0004F1240004F01AFA40B994F8A300400838BFE06804D3D4F8880000E0C068E06067
:202A2C0041681F4A09781160416812680978914206D0876927B120A20CCA6FF0FF01B8477B
:202A4C00022002F0FDFE1120FFF708FF0120E071E068011D007C10B16079012804D00E2014
:202A6C00FFF7FCFEE168091D08680E49083007680FB947681FB10020C8610B4F0F600B4ACF
:202A8C0040F2FF7000271060094C8F6109484C6104F0CEF8192004F05BFA98BD880800206E
:202AAC00D021084000100440510007060000046002000040691F00000000000000000002EF
:202ACC00F8B5FDF70FFB2A4C0746103CD4F89C0010F4602F2BD0D4F89C00400CC5B268089F
:202AEC0007D2A80803D2E80828BF022502E0012500E000256E1D70B201F092FCD4F89C309D
:202B0C0005F111010120884023EA00013846C4F89C10FDF7EBFA04EB8500D0F88C704FB1B3
:202B2C00D4F8880013A20CCA3146B84702E03846FDF7DCFAD4F89C0020B104F1FC000021BF
:202B4C0003F0B8FE94F8A30080080FD3D4F8987037B1D4F8880009A20CCA6FF00101B84736
:202B6C0094F8A30000F0FD0084F8A300F8BDC046980800200000000000000008000000008B
:202B8C00000000802DE9F0412D4C0546A41C20781F4690460E46ADF1380D012803D0FFF7E2
:202BAC000BFD012020705EB1B8F1000F6E6007D0C5F80880FDF796FA617819B1FDF796FAF4
:202BCC00002038E0491CC9B26170FDF78FFA01241FB9684603F0E6FE6F4638682860786844
:202BEC00E860387A2874F8686861386900B1A8610021782205F1200000F05AFD05A80021C9
:202C0C002422082304F0D8F98DF82C4005F13800002105AA04F0CCF905A80021242208238B
:202C2C0004F0AEF905490B9505F17000002205AB04F0A2F928460EB0BDE8F081CD6D0000BC
:202C4C0088080020F8B504F035F804F03FF8044604F00C000C2845D0E0081ED202F0FAFF69
:202C6C00234E376805460120014603F052FB31686943884211D21F4C8220B0FBF7F0291A71
:202C8C00204604F0B1F9204604F0AAF90120FEF7C3F8204603F01EFB25E0200922D2164864
:202CAC00610939BF016821F00101016841F0010102460160D2F898004FF0805440F003003D
:202CCC00C2F89800D4F8B8018069014620208847D4F8B801094C806B21688047012020601C
:202CEC00206800E030BF03F0EBFF00F0F3FFF8BD0C730000240E00208C2108402C200940A2
:202D0C002DE9F0410E46294990461C4606AF8C4672680878BB8851783F881278002502EB12
:202D2C00012242F62321521A29D0521E052A18D9921F0CD0263A34D1072F30D8C7F1070004
:202D4C00984298BF83B2674407F1080121E0B84225DBC01B9842D8BF83B22380DCF804005E
:202D6C000BE0F06803F046FE80B2B84217DBC01B9842D8BF83B22380F06839180AE0082FC1
:202D8C000DD8C7F10800984298BF83B207EB0C010F31238040461A4600F04AF903E0072512
:202DAC0001E025800A252846BDE8F081C40A0020264838B550380468B4F1FF3F08BF0024C3
:202DCC0003F0E6FD22481749002510380560012008601549086001F0EFFB1448006820B1B6
:202DEC00134800682046FFF7A1FD124812490560124C0A686FF35B4244EA02000860104930
:202E0C000868C0F30130012806D10A680D48104040F400320A6008600B4908680028FCD14A
:202E2C0038BDC0465C600C400822044380012843000120438C2108404820034000003901E8
:202E4C0004000940FFFFFCFC0C0068426C13005094046042F0B520480127F84201D001F033
:202E6C0007FD204D204F214EBD4206D203CD0478A4003459401CA047F6E71D48002800D026
:202E8C008047164D164FBD4202D210CDA047FAE7F0BD03251BE0416808300A1C2A400BD102
:202EAC001A1C2A40AB4305D0046804300C600431043BF9D1131C05D0047801300C700131FA
:202ECC00013BF9D1021C2A4001D0A84304300368002BE0D17047C046FFFFFFFF0000000068
:202EEC0000000000407A0000A07A0000E879000059C501102DE9F84302F066FF244C002525
:202F0C00A5704FF6FF70A08202F07CF91F4E01232A462070314604F1A80001F03DFD02235E
:202F2C002A4604F1CC00314601F036FD04232A4604F1F000314601F02FFD042704F1480839
:202F4C00102240462946E77000F0B2FB04F1580910224846294600F0ABFB04F1200635607F
:202F6C002572072065721021A0724246E572022002F00AFB032010214A4602F005FB384621
:202F8C003246014602F000FBBDE8F883496800006C050020FEB5FEF74FFA244C4FF6FF75FD
:202FAC0000266C3C03F00CFA002833D1009601A80DF106016A4602F0E9FC30BBBDF80400A3
:202FCC000127102811D120789DF8061088420CD1009801888D4205D14088000905D302F058
:202FEC00BDF802E003F0DEFD0746009868B167B103F034FB09E0E06803F0CDFA071C04D046
:20300C0003F0BCFA384603F011FBE06803F09CFF0028F0D06088C108C4D320F00400608084
:20302C0003F066FE03F0E6FBBCE7C04674020020002A4AD05FEA000C8B071CD1830722D185
:20304C00102A08D370B4103A78C978C0103AFBD270BC103238D0042A2CD3082A05D30C2A6E
:20306C0024BF08C908C008C908C008C908C092072AD0920F22E00B780370491C401C521E39
:20308C0022D08B07F7D1C30714D18307D8D0121F12D308C903801B0C4380001D121FF8D28B
:2030AC000AE008C903701B0A43701B0A83701B0AC370001D121FF4D2121D05D00B78037080
:2030CC00491C401C521EF9D16046704700B5401EADF1240D1CD0C01E13D0401E14D0401E5D
:2030EC003BD103F005FE02F071F8401E694680B202F030FA88B305A940F21530FEF7C2FFF6
:20310C002BE0174803F09CFE142002F0C1FE24E04FF4417007A9FEF7B5FF00218DF80410BC
:20312C009DF81D308DF803109DF81E208DF801309DF81C008DF802209DF81F108DF80000DF
:20314C009DF821308DF805109DF820208DF8073068468DF8062003F07DFC09B000BDC04611
:20316C00740200202DE9F8432020EFF3118780F31188214CA068012103F0E2FE4FF00109E3
:20318C004FF0000865692168A4F81C906A1A2168A4F81E80461B401A904227D387F311885C
:2031AC0040464519361A4846294603F0C5FEB042F7D92021EFF3118781F31188E18B0129FC
:2031CC0003D14046294603F0B7FEB0F1FF3F06D0A169801B814238BF081C411901E0A069F6
:2031EC00291803F0A5FEA4F820902560A4F81C8087F31188BDE8F883780100202DE9984326
:20320C00FCF770FF1F4CDFF87880814604F1E000007850B94446A0680146022088470746D2
:20322C00102001F025FC2FB320E000F00DFF002820460FD1144909683222B2FBF1F101B989
:20324C00012100F13004204603F0CEFE204603F0C7FE0FE044460022A16880F8E02002209A
:20326C0088470746102001F003FC1FB1A0680146032088474846FCF739FFBDE89883C04676
:20328C00C4720000180E00200C73000070B51F4CA568064603F01EFA4FF47A71401B48431F
:2032AC00050C02F0A5FD2169401A48BF404240F6B831AD19A94211D306280FDAA268E168D2
:2032CC008A420BD8206848B1891A114A51438A0C02EB1141884288BF011C08E00D4948682F
:2032EC0040080ED208687D2100F0FF004143C82905D3B1F57A6F88BF4FF47A6103E0C82190
:20330C0001E04FF4FA61084670BDC046F01C002040420F00AC3F00502DE9FC41844608AFD5
:20332C000878DFF87C803F88FF24022829D14E687578307842F6021600EB0520801B1AD0F0
:20334C004DF2EF65401B18BFB0F1020011D177B9012B0AD11078CA681070C96847460025C3
:20336C008F4214BF02242C1C0EE00D250AE00B2508E00A2506E00097604601F09FFA0546E6
:20338C0000E00125FF2C07D04046001D006818B1016809B1204688472846BDE8FC81C04657
:2033AC00F40C0020F8B5001D84B214F0030002D0241A241DA4B203F0C7F801461948102C9D
:2033CC0047680160C8BF8768388800221646C30BDD0319D126B984420ADD3A46012617E05B
:2033EC001388C3189BB29C42138011DC174618469FB1001B80B20428B4BF3C88385344F422
:20340C0000443C803F1D08E080F40040002680B2C71938880028DAD10027084603F06DFA0E
:20342C003846F8BD08100020B0B50446A768ADF1280D27BB0C20FFF7B5FF071C16D0684615
:20344C0000212422082303F09BFD002306976A466168ADF810301448059303F065FD386044
:20346C0038B903F03FFA384602F018FB6FF0030018E0E06878602069B860A7600AE003F0A1
:20348C0063F80546386802F025FF2069B860284603F033FA3868616803F0A6FD386803F003
:2034AC009FFD00200AB0B0BD856C0000B0B514460F46FCF717FE85B219480068007808B9D7
:2034CC0003F026F887B1384602F0EFFB40B114B14FF0FF3020700820FFF756F9002419E0FF
:2034EC0038687968BA6803E04FF480700122014601F0C8FF0B49012008600B4908684008FC
:20350C00FCD30A4800684168022088470CB10021217004462846FCF7E9FD2046B0BDC046A3
:20352C00D4720000A802504208800240CC010010F8B50E46044603F04BFD0546304602F01D
:20354C005DFB071C03D1284603F03EFD26E0F87F10F0070F1BD113487968884202D079683C
:20356C002166786010A090E8060004F15807284687E8060003F028FD04F138004FF0FF31C7
:20358C0003F0EEFC04F1680696E80300F8BD284603F01AFDF87F10F0070FFBD10220002195
:2035AC00F8BDC0466546000002000000000000702DE9F043ADF13C0D03F00EFD1A4C184D2E
:2035CC00002680461C3C684600213C22082303F0A7FC54F8042F6868AF6806902B6808977F
:2035EC00694605920F480493002203F095FC071C10D002F0A9FF8146384601F07BF848B1A6
:20360C00484603F07AF92D1D761CDCD0404603F0D7FC01E001F01EFB0FB0BDE8F083C0460E
:20362C00FC6F0000D16A0000141000201CB5042002F0E2FE022818D0032816D016480068E4
:20364C00C0F38150032814BF41F288324FF47A721248144C016854342046B2FBF1F103F02D
:20366C00C3FC204603F0BCFC1CBD03200C4C009000214FF040521C23204601F069F901207F
:20368C0000214FF4007209230090204601F060F9022002F0BDF81CBDB43F00500C73000078
:2036AC0000A00C40180E0020002213460A46194671B510F0030F0BD0002A82BF00F8011B10
:2036CC00B2F1010210F0030FF6D1002A08BF71BD11F0FF0141EA0121042A18D341EA01416C
:2036EC00082A0FD30E46102A08D30C460D46B2F10F0312F00F0272C0103BFCD812F0080F6A
:20370C0018BF42C012F0040F18BF40F8041B12F0020F18BF20F8021B12F0010F18BF017008
:20372C0071BD70470246184808B50068C0F3046003F02AFA00EB2270401C162805DA10F1A6
:20374C000A0FB8BF6FF0090000E015200F49104B00F01F0040F4F85008801868800803D2AD
:20376C000C490020086001E042F040620A49D00E930E80F0010000F00100086083F001009B
:20378C0000F00100886008BDB81200506E6208400000094094042A430000204338B5054664
:2037AC0001201A4C68712879B0B902F0CDFE2178002904BF6FF00704051C15D0491EC9B2FF
:2037CC00217039B903F099F8606802F0B1F80020687118E0054613E002F0B6FE05462078BB
:2037EC00FF2805D16FF00604284603F086F80BE0401CC0B20128207002D1606802F0AFF8D2
:20380C00284603F07AF80024204638BD7412002070B50646B079F5680628A5F108052CDAD6
:20382C003079062829DA02F08FFE154CB27991000C3401EBC20161184968E1B103F05DF813
:20384C0030792870B0796870307AA870B179880000EBC1002018F1684068083002F04AF954
:20386C00B179880000EBC10024186068406803F073FB002070BD03F040F86FF0020070BDCB
:20388C003810002038B519491A4C00204822C1F8F30F94F8E200C1F8FF2F20B3012817D082
:2038AC00022807D003281ED151F8310C00F024F80B2016E051F8315C2846FDF7ADFE40F219
:2038CC00FF50A84202D8801CA842F1D2082008E051F8310C00F05AFB054800780028E7D001
:2038EC00052084F8E400FEF727F938BD39400C40D2720000180E002038B51A4CA0F5C060D6
:20390C00D4F8B810C4F8D4000029B8BF49420028B8BF4042814220DAB4F8BC00124D302156
:20392C004FF47F4208230090284601F011F8B4F8C00004214FF4F80212230090284601F062
:20394C0007F8B4F8D00020214FF440620A230090284600F0FDFF012000E0002084F8D8002E
:20396C0038BDC046180E002000A00C402DE9FF410E460546194C7188E08A81420CDCB1886D
:20398C00814209DBF088218B884205D13089618B884208BF18271DD0052001F05DFA7788E2
:2039AC00B388ADF80270F288ADF804303189ADF806208046ADF80810A08AADF800006846D1
:2039CC0003F048F9071C05D1A57304F1F000414601F0E0FB38460090BDE8FF816C0500209A
:2039EC001A4898B5D0F8781203680F0F03F0FF03802B28BF002300F087FF4FF0FF3478B176
:203A0C00401E07D0401E012802D9801E19D01AE0BFB118E0381C12D0801E14D1143311E029
:203A2C003846401E0BD0801E07D0001F03D0401E09D1163306E0152405E0142403E00A248E
:203A4C0001E00A335CB2204698BDC046A0100050F8B5174A174B184C121D22F003019C4672
:203A6C0021605E1A2068256860606768A660002001E025F8020BAB42FBD84FF6FC75B31033
:203A8C002A4001EB830323F8040CACEB0202E82315403B80EC3DA1F8E850E83144F8081CEA
:203AAC00FFF780FC44F8040C606844F8080CF8BD161D0020483F00201410002038B50446FA
:203ACC001848174DC03002686B68C2F30351C2F303405B0813D22B681D0511EB257103D482
:203AEC001029A8BF0F2100E000211B0410EB237303D4102BA8BF0F2300E00023184640EA03
:203B0C00011002F47F4102F0FF03222C41EA004143EA010024BF02F08042104338BDC04611
:203B2C00AC3F0050B812005030B5401E4FF00004ADF12C0D0AD0401E04D0401E20D1FDF778
:203B4C00FBFF1DE000F0C2FB044619E001A821462422082303F014FA06940D4DADF8144003
:203B6C0009490794012201AB05F1780003F004FA064A23462C2105F19C00009303F010FAF6
:203B8C0020460BB030BDC046D93E000091380000180E002038B50546880F26D301F0D4F959
:203BAC00124803F045F81548801C0078012803D005F1380003F0D0F90D4800240460022019
:203BCC0001F026FE1120FEF7DFFD287C10B90E20FEF7DAFD0748084A04721178447221B133
:203BEC001470C830042102F065FE38BD052A00000000046088080020141D0020880800208A
:203C0C002DE9F041054615F8017B90460E461CE0B8F1000F05F101050BD0FF2C09D802209A
:203C2C0015F8011B401E41EA0424F9D101E0042C02D315F8011B00E0394630462246FFF792
:203C4C0037FDA61901E006F8010B15F8010B8742F9D115F8014B002CE9D115F8010B2C78D2
:203C6C0000022418D4D1BDE8F08170470146184880B5983000688A0CC0F38367C0F38F20E7
:203C8C0022D241F3072100290BD54A420021400805D17F0806BF0127381C4FF6FF70521E08
:203CAC00F5D1002910DD4FF6FF72400040F00100824207D2780040F001070F2F92BF0120F8
:203CCC000F27101C491EF0D140EA074080BDC046B8120050164880B507683FB315498B683B
:203CEC0003EA5300C00E21D2134A106880081DD2486880081AD21068096810F0050F4FEA11
:203D0C00114101F0F00101F5E0710AD1B9420DD2190F38BF40F00100D90E38BF40F0040005
:203D2C0003E0B94202D920F00500106080BDC04628500940AC3F005000000940F0B50E46B8
:203D4C0015460746ADF11C0D03A902F013FA024605921AB300200090BDF80C00FF240DF1FF
:203D6C001203294601903846029400F053FA041C0FD16889ADF81000700804D3384604A9B1
:203D8C0002F030FC03E0384604A902F0F4FF041C05D004A81B2102F0F7FA00E015242046C7
:203DAC0007B0F0BD2DE9F84F061C28D01548017800244FF6FF7A81461FE0A00036F800B020
:203DCC003518DA4515D0AF789FB102F0FFF85FEA00080ED0780804D3584601214246FFF762
:203DEC00ADFFA878800804D3288802214246FFF7A5FF99F80010641CE4B2A142DDDCBDE89F
:203E0C00F88FC0466C0500202DE9F8438146EFF31188202080F311880125114E114CF56161
:203E2C00114F6560F86A016A14208847D9F81000810C14BF000C0420A061386802682321C1
:203E4C0000209047C6F88052206820F4C02040F480302060356088F31188BDE8F883C04620
:203E6C00000024430020094084010010D0B5044603F07EF800F03EFC071C08BF6FF0020420
:203E8C001FD002F061FB0146A2880F480023243030F80C6F5EB902804760A2688260237335
:203EAC00786820610024084602F027FD09E0964208BF6FF00204F6D05B1C062BE8D300F007
:203ECC00C9FE2046D0BDC046141000201648144A144908B5E4300078801E0A2807D8DFE8FA
:203EEC0000F01814100614100614100609C003F04BF811E010688008FCD250688008FCD264
:203F0C000AE008688008FCD306E008688008FCD202E010688008FCD3FDF70EFE08BDC046BC
:203F2C0034600C4038600C40180E002010B5FCF7D9F8114C611C097829B10E490C68FCF7EF
:203F4C00D5F8204610BDFCF7D1F802F017FD0DA20CCA02F08BFCA26C002314001B1807A076
:203F6C0044EB010490E80600C91842EB04021046001C10BD043004408808002000000012F6
:203F8C007A00000000093D0000000000134910B50A684BF2F5214843040AC2F38140012837
:203FAC0006D101F025FF00F0B1FF604304EB90540C4901F1E500007830B90948006820F09D
:203FCC007F402418640802E0002081F8E50006480460210C41600123836010BDB43F005077
:203FEC0010200940180E00203C600C40B0B5044602F090FE30F0010008BF6FF004041ED0A2
:20400C0002F0B6FF054602F09FFA01460D480622303030F80C7F6FB1A388BB4208D1406877
:20402C0000680022854208BF0122A260002403E0521EEED14FF0FF34084602F05EFC20468F
:20404C00B0BDC0460810002008B5012002F0D4F901281DD00F4834210122002300F09CFE7A
:20406C00002808BF002014D00B48006801F0FCFE02F030FB0A4A93681168D060C01A074B5A
:20408C00A1EB91014343180C884228BF011C1160012008BD00A00C408000001040420F001A
:2040AC00F01C0020B0B5144D28680004070C21D001F09EFE114991F90720824205DD10F12B
:2040CC00800FB8BF6FF07F00C8718C88BC4210D80A68D5F8D40F801A801C1F2888BF1F2098
:2040EC003F1B4008C7404FF6FF70E719B84238BF071C8F80B0BDC04634100940041D0020F3
:20410C00154B10B3401E1BD0401E14D0401E0AD0401E1FD105291DD1116818460C300160CF
:20412C00137903717047012914D111781846C1708068FFF737BE01290CD11846801C07E0DA
:20414C00012907D11846401C02E0012902D11846117801707047C046F40C002098B5134CD7
:20416C000C342068011D4068406810B180472168091D08680830016809B94768A7B10C4A96
:20418C001C321768002FFCD00023136029B1084680472068001D00680830406800B1804761
:2041AC000448503802F046F898BDC046880800200010044051000706F8B50746FBF792FFB5
:2041CC00124C06462079E0B1401EC0B22071C0B904F1C800082102F06DFB97B1E0687030B5
:2041EC0002F078F8E0680A4DC0683F1A286804F1A405B7FBF0F1284602F0F6FE284602F0BC
:20420C00EFFE3046FBF772FFF8BDC046880800200C730000B0B504AF3F88002F18BF0B20D2
:20422C0025D1087802281FD14D686C782F7800204FF6F17507EB04277F1B012F0ED9FF1EEC
:20424C000CD07F1E1CBF011C0A200FD105241C80C9680B68136009791171B0BD01241C80C9
:20426C00C96809781170B0BD002101201980B0BD1549096821280ADC212819D00C380FD0F7
:20428C000D380FD0001F0FD0C01E0FD01AE0253810D0001F10D0401E10D0401E10D011E090
:2042AC00086870474868704788687047C8687047086970474869704788697047C8697047B6
:2042CC00086A704700207047F001002038B5134D95F8E100002410B91148007860B1FBF745
:2042EC0001FF95F8E310002906BF012185F8E3100124FBF7FBFE0CB1002038BD022001F0BD
:20430C009FFA0E20FEF7AAFA01F0BAFE01280EBF0120002085F8E20038BDC046180E0020B1
:20432C00D2720000012838B51ED1012002F064F801281BD002F0E6F90D4D0E4801223223AC
:20434C0005F1E00100680A70B3FBF0F404B914463035284601F0BEFF2846214602F044FE65
:20436C00284602F03DFE01E001F072F8002038BD180E00200C730000084610B500F000512C
:20438C0000F00400084317D0012002F035F80E4C01280CD0094909686C3432222046B2FB82
:2043AC00F1F102F021FE204602F01AFE10BD044802F03EFC0348046010BDC0460C73000048
:2043CC00ED05000000100440C008002038B51248104C0168114D0C40E1430160A10908D3E3
:2043EC004068800905D328464FF40051C83002F061FA14F4602F0BD0284600F19C010A6881
:20440C0004F46024FC3014430C60002102F052FA38BDC04620000E00081004408808002091
:20442C0098B50446FBF75EFE8446104890F8A310C90803D390F8A210A14213D0B0F8A0300F
:20444C000B4F012202FA04F11943A0F8A010391D0B6804F10C07BA4093430B600F680FB9F3
:20446C00002101706046FBF741FE98BD8808002008100440DCB5044602F07AFD01F098F9A0
:20448C00064602F047FC30F0010014BF002E6FF0040017D0606858B1B0F1FF3F05D06946EF
:2044AC0001F06EF930B107460BE04FF0FF3000E0002000907068009902F052FD002700B9EF
:2044CC0001273846DCBDFEE7F8B5124C6678E578182001F05FFE071C19D00421002202F09B
:2044EC0093FA304601F084FD38727D720020B87204F14806FE6004F158033B6104F12002B4
:20450C007A6101F057FE024A394600F0B3FDF8BDF16D00006C0500202DE9F0410446114875
:20452C00401C90F8008016460D46102001F032FE071C12D00421072202F066FA404601F0EF
:20454C0057FD38727C72BD72FE6001F033FE044A394600F08FFDBDE8F0810420BDE8F0811B
:20456C001B6E00006C050020F8B5044602F000FD00F0C0F8071C19D001F0E6FF84460D4886
:20458C000021243030F80C6F6EB94FF6F872028047600025856021717868A060604602F0E4
:2045AC00ACF92846F8BD491C0629EBD300F052FBF8BDC046141000200F4908680028FCD1DC
:2045CC00104A131D0D49186820F0030001430C480068C0080CD2106810F0030F0AD041F021
:2045EC0003001860106800F003000328FAD101E041F00101196070470C00684204000020B5
:20460C00B03F005000400340F8B516460C46FBF769FD02460F484178832554B1641E02D0C0
:20462C00641E10D00DE08179012904D0B0F8A01005E0876A0FB9802506E0806A818B3180FF
:20464C0002E0032500E031701046FBF74FFD2846F8BDC046880800202DE998430446276E86
:20466C009946904607B1B8470020022100EA090001EA0801002808BF00290BD104F1580057
:20468C0090E8060008EA010109EA0200002808BF002907D004F1680080E8000304F13800C3
:2046AC0002F05AFCBDE89883F8B50446A1686068ADF104060025086002F07CFB46F8040F2F
:2046CC00002808BF6FF003000FD06D1CF4D0074D6E46002756F8040B55F8041BA368044A00
:2046EC0001F0AEFB7F1CF5D00020F8BD087300005D5700002DE9F843804601F025FF0F4C29
:20470C0003250026814654F80C7F5FB93046C4F800800146A6600A4602F0FAFB606018B9C2
:20472C0000F098FA474501D1264601E06D1EEAD1484602F0E2F83046BDE8F88314100020C6
:20474C00B0B5054602F014FC044602F0E3FA30F0010008BF6FF0040414D001F0F5FE0A4A17
:20476C00002132F80C7F4FB153681B689C4204BF2971002404D0491C0629F2D36FF0040426
:20478C0002F0BBF82046B0BD381000207CB5114D04460E46600807D3B0B200210090012288
:2047AC000B46284600F0D4F8A00807D3B0B20090002102220123284600F0CAF8E00807D3B3
:2047CC00B0B2009000210C220223284600F0C0F87CBDC04600A00C4038B50546287B00F05B
:2047EC000F00022818D10D4C2078012814D0FFF79DFBA9686FF070458908A1EB9000854266
:20480C000ADDB0F1704FBCBF05490844E168C96801F57A71814200DB002038BD8808002072
:20482C00F6FFFF1F10B50178A23902D02E391AD010BD4179132918D100890C4C01280AD18C
:20484C002046F038817B022905D1F03002F0F8FA01F0BCFE10BD052000F0FEFA014620468B
:20486C0000F098FC10BDFCF743F810BD5C060020F8B506460F4D104F7388002417E0A000F4
:20488C0000EBC400321851689068D26852B9AF420BD00A7855F822200346491C08461946E5
:2048AC00904701E0FEF7C4FB7388641CA4B2A342E5DCF8BDE8790000F4790000F8B506AF24
:2048CC003F880D460646E7B9022B18D15078147804EB002434F001000FD1E968096830460C
:2048EC0002F0D0F8844208BF00200BD0E96809683046224601F018FAF8BD8020F8BD0D2090
:20490C00F8BD0B20F8BD7047104A1068C0F30F314BF69A10884207D111680B20B0EB117F1E
:20492C0014BF0020042070472430884208BF01200BD04BF64130884208BF032005D0213828
:20494C0088420CBF02204FF0FF30704718130050B0B500EB4100102B04AF00F5007403D336
:20496C00103B00F50174120C3D889D4045EA024502F0A0F9002700B90127064A3946106866
:20498C000028FCD025600120106009B102F098F9B0BDC04600800C40F0B50D4614461F46CE
:2049AC000646ADF1240D002124220823684602F0E7FA00200590ADF8100008484FF47A71D5
:2049CC00A2B26B4600680697B1FBF0F080B229464243304602F0D0FA09B0F0BD0C730000F8
:2049EC002DE9F04104461E4690460D46142001F0D1FB071C13D03246032102F005F83C814E
:204A0C00002038744046FD6001F0F2FA787401F0D1FB044A394600F02DFBBDE8F081042036
:204A2C00BDE8F081BD65000038B502F06BF8FCF7DBFE4FF08055D5F8D8010C4C0368012185
:204A4C000A4620469847D5F8D801426801212046904701F07DF9FEF7ABFD00F05DF900F0CC
:204A6C00AFFA02F051FA002038BDC0460040034070B5104C0646204602F074F90025B0B986
:204A8C00204602F0D7F90446A06806420AD0E068226900210346304698470546012D08BF9C
:204AAC00012005D0204602F0C7F9041CECD1284670BDC046180E00200F4A01461068ADF162
:204ACC00080D08B9002010600846801E12D0801E10D0401E07D001208DF801009DF80100A6
:204AEC000028FBD106E001208DF800009DF800000028FBD102B070470C0200200E48B0B54F
:204B0C004578848A0E2001F045FB071C11D004210A2201F079FF284601F06AFA38727C8137
:204B2C001320387301F046FB044A394600F0A2FAB0BD0420B0BDC0466C050020156E0000E8
:204B4C002DE9F04102F0F2F80D4D2B688046A3B105F194060024012707FA04F018EA000F3D
:204B6C0007D056F8240020B1026812B1214690472B68641CE4B29C42EED3BDE8F081C04640
:204B8C00181B00200A460F49F8B5CF788D784E780C78002398B1401E10D0401E0DD0401E88
:204BAC000AD0401E18BF02230AD108460C30016811600079107103E03D462E4634461470A4
:204BCC001846F8BDF40C00200C4885460C4885446F4607208743BD460A486F4607600A48F1
:204BEC00002803D07946491D8E460047FEF732F901F030FE02F084F9FEE7C046483F00202E
:204C0C000004000090120020456D00002DE9F04104460E48057890460E46102001F0BAFAAD
:204C2C00071C10D03246042101F0EEFE284601F0DFF93872FC6001F0BDFA3946424600F00F
:204C4C0019FABDE8F0810420BDE8F0816D05002000BF704708B5FFF7FBFFFEE738B5054613
:204C6C00094800688047094C201D006810B1014628468847206800B18047054800688047ED
:204C8C00FFF7E8FF38BDC0467C1200208412002080120020D0B504463C20FEF783FB071C59
:204CAC0014D000213C22082302F03AF9207AB86160893862E068386160683946002202F0C3
:204CCC002BF90646384600F0E9FE16B96FF00300D0BD0020D0BDFEE70E480EB5F038817879
:204CEC00062916D1B0F84010ADF80210B0F84230ADF80430B0F84420ADF80620B0F846101B
:204D0C00ADF80810CC3002F09BF801206946FEF72DFE0EBD5C06002000B500213C220823AD
:204D2C00ADF13C0D684602F0FBF8094800F5B27107914FF4DC710891032106910549002397
:204D4C006A4600F58A7002F0D7F80FB000BDC0466C050020DD230000F8B506460C4800681F
:204D6C0044880579102001F015FA071C0DD00221152201F04FFF3C81BD72FE6001F01AFAC5
:204D8C00044A394600F076F9F8BD0420F8BDC04618020020E96B0000F8B51E4614460D1829
:204DAC00102E02D3103EAD1C240C01F083FF002700B9012707483B460768002FFCD02D8823
:204DCC00012101600BB101F07BFF2C403441A0B2F8BDC04600800C400E4938B5CA68824229
:204DEC0010D1487801280DD1FBF77CF90546084801F020FA04462846FBF778F904F0FF00E4
:204E0C00012802D06FF07F0038BD4FFAA4F038BD01000304880800202DE9F04104469846BF
:204E2C0016460D460E2001F0B5F9071C10D0812038700123FB70BC803D817E81A7F80C80EB
:204E4C0001F0B8F9069A394600F014F9BDE8F0810420BDE8F08170473EB505460020ADF87E
:204E6C0004000A2001F096F9041C0DD00421312201F0CAFD258101F09DF901A90223044A01
:204E8C000091214600F014F9BDF804003EBDC046FD6D0000F8B5044616460D46142001F022
:204EAC0079F9071C0FD00421022201F0B3FEBC60BD811020B8733E6101F07CF9034A394601
:204ECC0000F0D8F8F8BD0420F8BDC046CD6B000070B50446606810F07F4F18BF6FF00200FD
:204EEC0011D101F031FB084D0646287828B1686800F01EFD606800F032FD606868603046C5
:204F0C0001F0FBFC002070BD741200200D4938B5D1F8EC3209681B3800FB00F409060A169E
:204F2C0043F3072100FB01F519066043091661434243891201EBE50101EBA24000EB234083
:204F4C0038BDC046A41000500C49086820F0020040F4007008600A48032140F8041C41F262
:204F6C0030018160012101605022826001604FF4CA628260016040F80C1C704700000460AE
:204F8C000C410440F0B5044605AFADF10C0D03B9084B97E860008DE86000FCF78FFE011CBA
:204FAC0044BF05A003C802D42046FEF7C1FA03B0F0BDC046654600000000000000000080F5
:204FCC0000B500213C220823ADF13C0D684601F0A7FF084800F1E00107914FF42171089112
:204FEC0001210691044900236A46903001F084FF0FB000BD08020020A12F000038B50446EB
:20500C00FBF770F805460B48401C007868B1204601F010F904462846FBF768F804F0FF043E
:20502C00012C0CBF8120022038BD2846FBF75EF8012038BD88080020B0B504460D46102006
:20504C0001F0A8F8071C10D02146062201F0E2FD0020388115247C81054AFA6001F0AAF806
:20506C0039462A4600F006F8B0BD0420B0BDC046400200201CB51446CA78012A02D18A8864
:20508C000A4B1A8000F078FD30B9002000906946204601F05CF918B101F02CFA044603E0AF
:2050AC000098447801F0F2FA20461CBD6812002038B51C46154600F05FFDB0B900200090CB
:2050CC006946284601F043F978B90099487848B90846C1798C4205D1014604988968224687
:2050EC00FDF7A6FF009801F0D1FA38BDF8B5044616460D46142001F04DF8071C0ED001218F
:20510C00142201F087FD3C72FD603E820420B87401F050F8024A3946FFF7ACFFF8BDC0465D
:20512C00DB6B000010B504460B4802680023D90750080143D007801A4FF47A729941FCF745
:20514C0081F8002908BFB0F1004F28BF6FF000406060002010BDC0460C73000038B50C4CED
:20516C00103C206990B161780830491C6170FFF7F3FD0546162D09D0042D07D02069408820
:20518C00002100F075FC284600F082FE38BDC0461802002038B50D46044601F059FE10B1DB
:2051AC00204601F097F8084800684FF47A71B1FBF0F080B205FB00F1204601F015FF204697
:2051CC0001F00EFF38BDC0460C7300001CB500208DF80400082000F0DDFF041C0CD00121BF
:2051EC00182201F017FD00F0E5FF01A90123044A00912146FFF75CFF9DF804001CBDC046B3
:20520C00056C00001CB500208DF80400082000F0C1FF041C0CD00121122201F0FBFC00F095
:20522C00C9FF01A90123044A00912146FFF740FF9DF804001CBDC046136C0000F8B5054662
:20524C000B48183804780E460A2000F0A3FF071C0CD02946324601F0DDFC204600F0C8FE47
:20526C00387200F0A7FF394600F086FCF8BDC046200200202DE9B0430F46044601F0E6FD78
:20528C0004F1280292E800034B464246FBF7DAFF05460B462A464046494601F0E7FA17B1C7
:2052AC00303484E803002846BDE8B08398B50146886840F6030320271A46521C02E040686A
:2052CC007F1EFFB260B15FB10488A34218BFA242F5D1C9681CC820311CC189C881E88900DB
:2052EC0098BD7047F8B5044616460D46102000F051FF071C0CD00421362201F085FB3C81D6
:20530C007D81FE6000F056FF024A3946FFF7B2FEF8BDC046DF6D000070B505460E460C2078
:20532C0000F038FF041C0CD00421302201F06CFB2581668100F03EFF034A2146FFF79AFE73
:20534C0070BD042070BDC046096E0000024680B5062A0CDA094F900000EBC20007F10C0218
:20536C00175A13181FB14FF6F870B84202D14FF0FF3080BD18880880002080BD38100020A3
:20538C0010B5044601F0F4FD00F012FA002808BF6FF004000DD0083000F026FBA06038B1B3
:2053AC0010F8081C217110F8070CA071002010BD022010BD10B5044600212C220823ADF1D4
:2053CC00300D684601F0ACFCE0200890A168606800236A4601F08CFD002818BF002001D196
:2053EC00FFF738FC0CB010BD10B5044600212C220823ADF1300D684601F092FCE068A168EC
:20540C000890606800236A4601F072FD002818BF002001D1FFF71EFC0CB010BD10B5044654
:20542C0001F092F8094B0022014633F80C0F30B1A04208BFD4B203D0521C062AF5D3FF2476
:20544C00084601F05AFA204610BDC0463810002010B503200021FFF799F9012000F0CCFF9F
:20546C0018B10648006800F0FFFC01F033F9044C083C606000F0BCFC206110BD80000010BF
:20548C00F81C00200B4B10B514331C68C1F30F2102F00F02C0F38710090440EA022024F444
:2054AC0080641C602404240C0C431C600143596010BDC0460080024038B5FAF713FE054691
:2054CC000948E030007838B106480024342101222346FFF761FC00B101242846FAF706FE1F
:2054EC00204638BD00A00C40180E0020F8B5064637680D4600242C601FB9FAF7F3FD374642
:20550C0008E0FAF7EFFD00E03F6839680029FBD1BD4201D03D600124FAF7E8FD2046F8BD1A
:20552C0010B504466078162804D16088082100F09FFA30B1217904F1080000F025FF01201E
:20554C0010BD012000F0A4FC01480460002010BD1802002070B505460E46102000F01AFEF1
:20556C00041C0CD00121192201F054FB2581E66000F020FE034A2146FFF77CFD70BD042018
:20558C0070BDC046F76B0000F8B5044616460D46102000F0FFFD071C0CD00521012201F06F
:2055AC0033FA3C727D72FE6000F004FE024A3946FFF760FDF8BDC046276E0000F8B5044660
:2055CC0016460D46102000F0E5FD071C0CD00521022201F019FA3C727D72FE6000F0EAFDEF
:2055EC00024A3946FFF746FDF8BDC0462D6E000038B505460C2000F0CDFD041C0DD02946BB
:20560C00002201F007FB4FF0FF30A06000F0D2FD034A2146FFF72EFD38BD042038BDC04653
:20562C00235A0000F8B5044616460D460C2000F0B1FD071C0DD02A46042101F0E5F93C8150
:20564C000520B87200F0B6FD39463246FFF712FDF8BD0420F8BDF8B5044616460D461020EC
:20566C0000F098FD071C0DD02A46042101F0CCF9BC600020F86000F09DFD39463246FFF743
:20568C00F9FCF8BD0420F8BD1078802811D1508840F27F6181420CD190883F21B1EBA02FFC
:2056AC0007D1C0F3C211042903D100F07F00834201D000207047012070471078802811D1B9
:2056CC00508840F27F6181420CD190883F21B1EBA02F07D1C0F3C211032903D100F07F0084
:2056EC00834201D000207047012070471078802811D1508840F27F6181420CD190883F2145
:20570C00B1EBA02F07D1C0F3C211052903D100F07F00834201D0002070470120704770B5D9
:20572C00044604F128020CCA0846002101F09EF804F1300292E860002D1846EB0106290C75
:20574C003004014300F0DCF8383484E8600070BD10B5401E14460DD0401E09D0801E05D098
:20576C00001F01D0FFF776FA052004E0002002E0042000E00220226821469047002010BDE1
:20578C000A4A10B512680C464FF47A710023A1FB0001FBF757FD002908BFB0F1004F2EBF17
:2057AC006FF002002060002010BDC0460C73000038B5054600F0C8FE084C03220146243C7C
:2057CC0054F80C0F18B1A84202D0521EF8D10024084601F092F8204638BDC04638100020E2
:2057EC000949020480B5120C41F8082CC0F3074041F8040C0120086004480768002FFCD003
:20580C000020086080BDC04644600C4084088C4310B50446FAF766FC084BE21892F8E81035
:20582C00491EC9B282F8E81021B99A680121A1408A439A60FAF75AFC10BDC046180E002002
:20584C0038B50446FAF74EFC084A02F108031D680121A14012192943196092F8E810491CFB
:20586C0082F8E810FAF742FC38BDC046180E002010B501F0ADFB01F0AFFB032001F034FBFE
:20588C0006481030006830B1034C204601F0ACF8204601F0A6F810BDED690000A4010020FE
:2058AC0008B501F04FFA012801D0FFF714FA074801F016FB00F008FC01F00EFB01F008FBB4
:2058CC0001F002FB01F0FCFA08BDC0467D580000084910B5002008600120C861064CA0620B
:2058EC00A16A206005480068016A14208847A06A10BDC0460000244304200940B00100107C
:20590C0010B50C4600F0E6FE211AB1F1004F08D8011B091DC90F05D1001DA04288BF041C2E
:20592C0000E0041D01481830046010BD0020094038B5044601250DE0C0F11F0005FA00F125
:20594C00052881EA040403DB401FFCF71DFF01E0FFF75EFFB4FA84F02028EDD138BD38B511
:20596C00044601250DE0C0F11F0005FA00F1052881EA040403DB401FFCF770FF01E0FFF7E8
:20598C005FFFB4FA84F02028EDD138BD7FB50646082014460D46ADF800000920ADF80200B6
:2059AC00684600F0B5FBBDF8041031809DF8061029700299216000907FBD7FB5064608203F
:2059CC0014460D46ADF800000920ADF80200684600F09EFBBDF8041031809DF806102970A4
:2059EC000299216000907FBD98B5044600F0ACFD2168002908BF002709D00F4657F80C2C2E
:205A0C002260002347F80C3CFF2401F8024C00F074FF384698BD1078911D802810D1508817
:205A2C0040F27F6383420BD19088032818BF042806D1097831F0100014BF1129012000D0D8
:205A4C000020704710B50C2000F0A4FB041C0BD00121042201F0DEF804480C30A06000F061
:205A6C00A9FB214600F088F810BDC0462002002038B505460848103800780C4600F0B8FA4E
:205A8C00C2B204482946234600904FF61840FFF7C3F938BDAB6D00001802002010B504462D
:205AAC0000F052FD074934F8042C6FF3DF3224F8042C4A680860241F944238BF4C6000F06A
:205ACC001CFF10BD081000200EB50820ADF800000420ADF8020006480078800001906846BA
:205AEC0000F016FB002814BF002002980EBDC0466C05002038B50C46054600F025FD0021C5
:205B0C0044F80C1C296811B92C6006E0114651F80C2C002AFAD141F80C4C00F0EEFE38BD19
:205B2C0010B5044660680C3080B2FDF73BFC50B1A18800230181FF22036000F10C018272A4
:205B4C001846A16010BD6FF0030010BD38B50546FFF716FC041C0DD128796946FFF7F6FB69
:205B6C0028B1A86800F086FD6FF0050038BDBDF80000A880204638BD00B5ADF1140D8DF833
:205B8C00040003910822ADF80020ADF802201020ADF8060002208DF80800684600F0B8FAD1
:205BAC0005B000BDB0B515460C1801F083F8002700B90127054A394610680028FCD0256050
:205BCC000120106009B101F07BF8B0BD00800C40202838BF07480CD307480C300168080365
:205BEC008215920500F47C1001F00F01104340EA0130704700803F408C13005009490246FD
:205C0C000823C87F30F07F0005D0B1F91C00824208BF081C04D05B1E01F12001F1D10020DB
:205C2C007047C046B8090020B0B504460D46082000F0B0FA071C0BD0812038700123FB7020
:205C4C00BC8000F0B7FA39462A46FFF713FAB0BD0420B0BD38B52020EFF3118580F31188BA
:205C6C00064CA068002101F06BF96169081AA169814238BF002085F3118838BD78010020D9
:205C8C0010B50C46ADF1180D02900821ADF8001019216846ADF802104FF0FF31019100F01E
:205CAC0037FA0499216006B010BD02464FF0FF307AB1116819B140290BD3890B09D1516874
:205CCC0019B10B0A05D0090E03D191680F2998BF0020704770B515460C46064600F029FA89
:205CEC00011C03D1284600F0ADFC70BD8D60304601F0E2F814B1204601F02EF970BD80B5A0
:205D0C00107802AF80280DD1508840F27F61814208D19088834205D138789179884208BF34
:205D2C00012000D0002080BD70B515460E46044600F0FEF848B94FF6FF70314600F0F8F8F9
:205D4C00002808BF112002D004808570002070BD084A00210320134643F80C1F401E9960D3
:205D6C00FAD130320620401E22F80C1BFBD100F019BBC0461410002098B50F46044600F06F
:205D8C00E3FB57B13A4600E00A4652F80C1C0029FAD1216842F80C1C276000F0AEFD98BD99
:205DAC000EB50820ADF800000120ADF80200684600F0AEF903499DF804000870029888605B
:205DCC000EBDC046080200200EB50820ADF800000120ADF80200684600F09AF903499DF852
:205DEC00040048700298C8610EBDC0466C0500200748816841F31002064991F900100068E7
:205E0C00A0F5407041430811121A803210127047285009400C13005038B5FAF763F9074C20
:205E2C00054694F8E000012804D1FEF70DF9002084F8E0002846FAF759F938BD180E00203E
:205E4C0010B5044610460A46211C14BF0028022006D0C8608A6003480B6100F091F80020EF
:205E6C0010BDC046180E002070B5054600F022FF002400B90124054E30680028FCD0A847AC
:205E8C00012030600CB100F01BFF70BD00800C4010B5084C216861B120B101F10800097984
:205EAC0000F072FA103C206900F0D8FB00202061607010BD1802002010B5FFF705FE064C5A
:205ECC00A06038B100F046F9044A204611211430FEF7E0FF10BDC046F40C0020A472000097
:205EEC0008B5FAF7FFF8064A117880B229B90549096800230B7001231370FAF7F7F808BD5B
:205F0C0094120020D472000010B5084C06492069814202D100F032FD606104F1C800042120
:205F2C0000F0C8FC10BDC046052A000088080020034608460749097849B1021F084632F8F4
:205F4C00041F8B4208BF101C02D0401EF7D100207047C0466C05002008B5283090E80C0053
:205F6C0005A003C8FBF76EF9002908BFB0F1FF3F88BF4FF0FF3008BD00000000907E0000F5
:205F8C0038B50D46044600F051FF00212A462346116059685160596801B921460A605A6048
:205FAC00FAF7A4F838BD38B505460A2000F0F2F8041C09D00121152200F02CFE258100F015
:205FCC00F9F82146FFF7D8FD38BDFEE7074910B5112201F11400C468CB1CA34204D0521E2E
:205FEC0000F11000F7D1002010BDC046F40C00200EB58DF806005021ADF800106846002176
:20600C00ADF8021000F084F8002814BFFF209DF807000EBD0EB50820ADF800002020ADF85B
:20602C0002001020ADF80400684600F071F8002814BF002002980EBD074810B50468FEF77D
:20604C0063FC04F07F04012804D100F04FFB022808BF641C204610BD4413005038B50D469B
:20606C00044600F0B7F802460448016822B1148095704068FFF72EFE38BDC04610020020CB
:20608C0006490868002818BF012005D1044B4020012218600020CA617047C04604800C401D
:2060AC002C500C4008B500F039FB00F0804100F00200084305D003484FF00051C83000F0A5
:2060CC00F9FB08BD88080020074808B51030006828B1034800F088FC024800F082FC08BD82
:2060EC00C1620000A9680000A4010020074810B51030006830B1044C204600F075FC204681
:20610C0000F06FFC10BDC046634E0000A401002010B50446208800F07DF838B1816811B11F
:20612C002046884710BD6FF0010010BD4FF0FF3010BD0EB50820ADF800000420ADF802008E
:20614C000C2001906846FFF7E3FF002814BF002002980EBD01460648007840B14FF6FF73BB
:20616C00091F002221F8043F401E8A70FAD170476C0500201CB5064A14683CB1024600919F
:20618C001B2301204FF6FF71A0471CBD00201CBD6C1200200EB501900821ADF800106846A8
:2061AC000221ADF80210FFF7B3FF002814BF002002980EBD0EB50820ADF800001A20ADF862
:2061CC0002006846FFF7A4FF002814BFFF209DF804000EBD0EB50820ADF800000420ADF893
:2061EC00020001906846FFF793FF002814BF002002980EBD08B542882D2A28BF6FF0010025
:20620C0004D203490C3151F82210884708BDC0460870000008B5FFF701F9FF2808BF0020CB
:20622C0004D0034B810001EBC001581808BDC04644100020064A014610680028FCD100232C
:20624C00D3611160D0690028FCD0D3615068704700100440064802680A6082684A60C26889
:20626C008A60406B20F0784040F08050C86070474C130050202838BF002008D304480C3065
:20628C000068C10C01F44071C0F38450084370478C13005006490822C87F30F07F0008BF79
:2062AC00081C04D0521E01F12001F5D100207047B809002010B5064C206900F0F9FD01460C
:2062CC00A06800B9E160A068401CA06010BDC046A4010020002181820449C06849698142A6
:2062EC0003D10348006800F07BBE7047780100201073000010B50446E088FFF78FF8FF28F4
:20630C0008BF4FF0FF3003D0A0712046FDF780FA10BD02294FF0000204D0012808BF4FF444
:20632C007A7203E0012808BF40F2EE22104670471078802809D1508840F27F61814204D1B7
:20634C009088834208BF012000D00020704738B50D460446FFF75EFE002818BF6FF0040087
:20636C0003D120462946FFF78BFC38BD0449887820B90448001F486200F064BD7047C046ED
:20638C006C0500202002002010B504460448001D03681BB10A4601202146984710BDC046E5
:2063AC006C120020054808211C38A0F84C1002494165FDF74DBBC0460162000014100020DB
:2063CC000EB50820ADF800000A20ADF802004FF0FF3001906846FFF79BFE0EBD0EB508205E
:2063EC00ADF800000A20ADF802004FF0FF3001906846FFF78DFE0EBD042807BF4FF0C042EF
:20640C001D234FF080521C2301483421FEF7C4BC00A00C400548BC3001680348084001F0BB
:20642C007C4108437047C046FCFCFC00B81200500549983108680968C0F3870001F0030156
:20644C0040EA01207047C046B8120050002948BF0021044A02EB8000026861F305020260DB
:20646C007047C046001008400348016803480160034800F01FBAC046E0200240E0200260DD
:20648C00781B0020054A0C321268824218BF032002D10846FEF7B2BD7047C0468808002086
:2064AC00054A0C321268824218BF032002D10846FEF7A4BD7047C0468808002010B5F9F772
:2064CC0011FE84B200F024F82046F9F70FFE014810BDC046D47200000548E2380078401E5D
:2064EC0003D0401E03D100F071B8FEF7F5BB70475C06002050B110F1040F08BF042006D0BE
:20650C0010F1030F0CBF0220012070470020704705490A68107828B90120107048680068DE
:20652C00FCF79CB97047C046D472000008B50548034A41680120106048698969884708BD3C
:20654C0004200940E401002010B500F045FD80B260F30F04F9F7C6FD80B260F31F4420462D
:20656C0010BD1CB5044660686946FFF709F920B9009860602046FCF757FF1CBD0146088828
:20658C00401E04D0401E05D1887800F0CCB98878FCF79CBD704710B5044600F085FC8442CB
:2065AC0004D0846800F04EF8204610BD002010BD10B51D23FFF781F8012420B91B23FFF713
:2065CC007CF800B90024204610BDFEE70448801C0078062818BF072801D1FEF78FBA7047EB
:2065EC006C05002038B50C460546FFF7E3FD02461B2321462846FEF7F3F938BD08B5406808
:20660C0010F07F4F18BF6FF0020002D1FFF790F9002008BD08B5406810F07F4F18BF6FF0C8
:20662C00020002D1FFF79BF9002008BD0EB501900821ADF8001068460521ADF80210FFF757
:20664C0067FD0EBD0EB501900821ADF8001068460521ADF80210FFF75BFD0EBD0EB50190D5
:20666C000821ADF8001068460321ADF80210FFF74FFD0EBD0EB501900821ADF800106846BA
:20668C000321ADF80210FFF743FD0EBD0EB501900821ADF8001068460321ADF80210FFF761
:2066AC0037FD0EBD0EB501900821ADF8001068460321ADF80210FFF72BFD0EBD10B504461C
:2066CC00A088FCF76FFE0028A06014BF00206FF0030010BD04480168436802688A42FAD17B
:2066EC00080440EA1340704708200940044884380068C0F302400428C8BF4FF0FF307047A0
:20670C001813005008B503200121FEF73FF8FFF7E1FF0149086008BDF81C002004491031B5
:20672C000868C3430B600A681042FBD17047C04600100440222804D303480068C0F30070D4
:20674C00704701207047C0468C130050222804D303480068C0F34070704701207047C046DD
