:2080000038B50D4604460FF01FFE07482168016061684160A168816010F00DFA10F01BFA11
:20802000284614F0C2F838BD9C4400200FF00CBE00BF00BF10F0FFB900BF00BF10F00BBADD
:0C80400000BF00BF14F0B1B800BF00BFCB
:20804C005D490860704738B50D460446288817280ADB05F0C0FC2988884205D3002000903D
:20806C002B460222554987E0022032BD80B500F031F80422524900E0524900F0C0FB02BD55
:20808C0038B50D4604462879022809D1E86810B1072110F061FA00902B4606224A496BE00A
:2080AC00022032BD80B50A79102A18BF022A03D100F010F80822DFE7022002BD80B500F0EC
:2080CC0009F80A224149D8E780B500F003F80C223F49D2E7002200920B46704738B50D4693
:2080EC000446A888022809DB286838B1012110F033FA00902B460E2236493DE0022032BD46
:20810C0080B50A79102A18BF022A03D1FFF7E2FF1022B1E7022002BD70B50D4682B0044614
:20812C00287A1226012809D1204600F01BFC69880F38884201DA022076BD9226687A0128F4
:20814C00686808BF46F0400610B1032110F004FA00902B4632462049204600F050FB76BD67
:20816C0038B50D460446A86810B1052110F0F4F900902B4616221949204600F040FB32BD6A
:20818C0080B5FFF7A7FF1822154976E738B504460020009000231E220021204600F02FFB22
:2081AC00050006D104480268100002D01E2120469047284632BD00006843002067840000B0
:2081CC00998400007F850000018500000F86000067860000B78600005B86000023870000A2
:2081EC009D8700006E490860704780B5002200920B4601226B4900F0BAF802BD80B50A8840
:20820C00172A05DB002200920B4603226649F2E7022002BD38B50D460446A878012818BFF4
:20822C0002280DD1288800281CBF6868002807D0022110F091F900902B4605225B4931E01E
:20824C00022032BD38B500F01EF81CBF6868002806D000F036F800902B460722544921E07F
:20826C00022032BD38B500F00EF81CBF6868002807D0022110F070F900902B4609224D4906
:20828C0010E0022032BD0D46044628880028704738B500F024F808B100F013F800902B46F7
:2082AC000B224549204600F062F832BD38B500F016F808B100F005F800902B460D223F490F
:2082CC00F0E7012110F048B938B500F008F808B1FFF7F7FF00902B460F223949E2E70D4646
:2082EC0004466868704738B5FFF7CDFF1CBF6868002807D0022110F02FF900902B461122C9
:20830C003049CFE7022032BD80B5002100910023132270E738B50D460446A86810B10521FA
:20832C0010F01AF900902B4617222749BAE780B500210091002319225DE738B5FFF7CFFF99
:20834C0010B1032110F008F900902B461B2209E038B5FFF7C4FF10B1032110F0FDF80090F4
:20836C002B461D221949204600F049FA32BDF8B504460698009015461E46204600F03FFAE4
:20838C0007000AD106480268100006D0012D04BF3078451CE9B2204690473846F2BD000052
:2083AC006C4300203784000073840000A58400005D850000EB8500002B860000A5860000D9
:2083CC00DF860000E58600004D870000C1870000F8B505460C46AF892FB3AA68167830066B
:2083EC000FD50D2F1FDB0C3FBFB2D01900903B466888012106F0BDFD002814BF02200120A1
:20840C0000E000202070B00900F00100607006F03F00A070781EA08080B208B1A868401CF4
:20842C00A0600020F2BD0120F2BD0A7802704A8842704A88120A8270097918E104290AD1B6
:20844C00017811708378417801EB03215180C0781071002070470420704705E0022B00D133
:20846C00D5E00420704700BF0A8802700988090A417002207047022906D10178407801EB50
:20848C00002010800020704704207047E6E0042B00D1F4E0042070478A78027088780988F4
:2084AC0001280CBF042012204843401C80B2704710B50B001CD00378491E012B89B207D1B9
:2084CC004B0801EB93739B08B1EB830410D108E0022B0DD1122391FBF3F3122404FB1311B1
:2084EC0031B999B221B110F8011B917013800FE1042010BD10B50C46022200F047F8001D49
:20850C00611D10F083F82089801D80B210BD70B51E46062E144619DB049D2078617800EB09
:20852C00012028800222A078E17800EB01206880211D02202871681D10F068F8B01F288187
:20854C0080B200B1A01DE860002070BD042070BD08888004000C70474B0801EB93739B08CA
:20856C00B1EB830303D1890801D011809AE00420704710B50C4600F009F8611D2279001D73
:20858C0010F044F82079001D80B210BD218801702188090A4170618881706188090AC17050
:2085AC00704710B5029C062B104612D1022121714278017801EB02212180C278817801EB74
:2085CC0002216180011D2279601D10F01FF8002010BD142B08BF1021E9D0042010BD7CE014
:2085EC0010B50B000BD003785380491E022B89B205DB91FBF3F403FB141101B986E00420ED
:20860C0010BD31E7022B00D101E0042070471078517800EB012000990880002070470888CA
:20862C0070473CE010B5022B0FDB029C207261721078517800EB01202080981E608080B2B7
:20864C0000B1901C6060002010BD042010BDB2E009B9002070470420704700BF0A8802704A
:20866C000A88120A42704A8882704988090AC17004207047042B00D101E004207047009886
:20868C001178537801EB032101809178D27801EB02214180002070470888704700BF118058
:2086AC0001B9002050600020704788884004000C704703EBD3704008B3EB400007D15908A6
:2086CC00022904DB009881800260002070470420704708887047E2E700BF4A880988027033
:2086EC00514389B2481C80B2704710B50B000BD003785380491E042B89B205DB91FBF3F435
:20870C0003FB141101B901E0042010BD1480401C5060002010BD14E010B5042B0EDB00F050
:20872C0062F8D478917801EB04214180191F818089B201B1111D8160002010BD042010BD99
:20874C0000BF0A8802700A88120A42704A8882704A88120AC2708888001D80B2704710B52B
:20876C00042913DB03784478091F03EB04231380C4788378918003EB042389B2002914BF37
:20878C00001D002090605380002010BD042010BD0978017001207047012B04D10099107803
:2087AC000870002070470420704709B9002070470420704700BF0A8802700A88120A4270EC
:2087CC004888801C80B2704710B5022B09DB00F00AF8991E418089B201B1911C416000209D
:2087EC0010BD042010BD02981178547801EB04210180704709B900207047042070472DE9ED
:20880C00F04784B080460C9D0C4691469A4655B9172005F083FD0126050005D11324204610
:20882C0004B0BDE8F08700262846012700F8019B14B15146A047471C5FEA09600DD51021A1
:20884C00404605F060FED8B9BFB2EA193946284606F042FB044668B90C370420ADF8000097
:20886C000195ADF808706946404605F01EF800280446D4D0002ED2D028460FF09AFECEE759
:20888C001924F7E730B5022918BF102985B00446154603D1022B18BF102B01D0002017E0BC
:2088AC000A469A4203D129460FF036FF10E01029694606D1284600F00DF8102269462046B0
:2088CC0004E000F007F81022694628460FF024FF05B030BD38B504000D4618BF002D0BD083
:2088EC0010220FF2A80128460FF090FE2078287360786873012032BD002032BD30B5044661
:20890C000D0018BF002C85B014D01022214668460FF07CFE68460021818110220FF26C01F1
:20892C000FF0FAFE012805D1207B2870607B6870012000E0002005B030BD38B504464FF610
:20894C00FE7084420D460BD0172D09DB05F043F82946884204D32046BDE8344005F001BE0E
:20896C00012032BD80B54FF6FE71884205D005F006FE010005D1172002BDBDE8014005F0B2
:20898C002AB802BD7047002070470000FB349B5F80000080001000000000000070B5DFF867
:2089AC0010550446286882B008B1112076BD00F087F801D1122076BD042013F044FB286089
:2089CC0078B3022000F095FD2868042221460FF01DFE01F093FE28B10C2000F0B6FB054612
:2089EC000D200DE06078022805D1122000F0ADFB0546132004E0102000F0A7FB054611200F
:208A0C0000F0A3FB0646DFF8AC04007800F0AFFC0346E07800903246A078294613F08EFC19
:208A2C0076BD132076BD80B5DFF88414096809B9122002BD0978814201D0032002BDDFF8FB
:208A4C007804007801210FF079FC302000F0C8F9BDE80240002035E238B5DFF860440546AE
:208A6C002078012100F0CDF800F02AF822D0257004F1080001F02CFF6068C8B920780100E7
:208A8C001CD00501284613F0DEFA606080B12A4600210FF0B9FD002005E06268C0B2030113
:208AAC00FF21D154401C2278C1B29142F5D305E0132032BD0020207001F00AFF002032BDA1
:208ACC00DFF8FC0300780A210842704770B5012442F20B02801A09D0401E2FD1886800784C
:208AEC0020B9DFF8CC03006848BB23E088680578DFF8BC03006808B32900DFF8BC6310D157
:208B0C00407802280CBF0320022000F01EFB020003D0307801210FF0F4FB012000F0D2F9E5
:208B2C00054628000BD0307801210FF007FC284600F056F9022000F0E1FC00E00024204609
:208B4C0070BD80B528B9DFF86803006820B100207CE7BDE8024000E001BD2DE9F8430446A8
:208B6C00E07800281CBF6568002D48D0242000F0ECFA4FFA80F80026DFF8349308E038615C
:208B8C00D9F80000007839460FF037FE2935761CE178F0B2884232D295F928004045F5DB09
:208BAC00284600F09EF800281CBFD9F800000028ECD0287A143080B20FF034FD0700E5D0F9
:208BCC00D0203870062200207870A91C0D20B8702878F87095F82800F87268783871781D62
:208BEC000FF014FD287A38730028C8D007F11400386105F109013A7B0FF008FDC0E7BDE8A2
:208C0C00F183F8B5AD4E044670680D4680B3002717E000EB0710806830B113F016FA7168AF
:208C2C0001EB071100208860706800EB0710C06830B113F00AFA716801EB07110020C8600D
:208C4C007F1CA7427068E4DB25B113F0FEF900207060F1BD60B1220100210FF0D5FC002733
:208C6C00FF2003E071683A017F1C8854A742F9DBF1BD10B59148416869B1002200E0521C1F
:208C8C000478D3B2A34206D2D2B21301CC5CFF2CF5D1C81810BD002010BD2DE9F041874EA3
:208CAC00044670688846C8B1002701E07F1CFFB23078874212DA70683D01415DFF29F5D0ED
:208CCC0040194178A142F1D106224146801C0FF023FD0028EAD07068401900E00020BDE8AF
:208CEC00F08170B5724E3168044682B000250020D9B1217801290BD0227A04F10903694644
:208D0C00012000F0CCFB00B105782178042912D031684978032918BF55EA01020BD020B14E
:208D2C00012904D115F0030005D1002076BD0229FBD1E807F9D56078A11CFFF7AEFF050006
:208D4C00207826D0042814BFA868E86880B3227A017891420CD104F10901401C0FF0DCFCF0
:208D6C00012805D1232000F0F0F9002836D0DCE72078042806D0A868D0B113F066F900202E
:208D8C00A86015E0E86898B113F05FF90020E8600EE00428C9D0FFF76CFF0500C5D0207828
:208DAC002870062260786870A11CA81C0FF02EFC207A401C80B213F046F960B1217804294C
:208DCC0014BFA860E860217A00F8011B04F10901227A0FF01BFC207A0028A6D0012076BD78
:208DEC002DE9F843DFF8C8800546D8F80000002600281EBFDFF8C490D9F80400002855D064
:208E0C005DB9002705E03901415CFF2918BF761C7F1C99F800108F42F5DBF6B2F00008300F
:208E2C0080B20FF0FFFB040005D108200FF0FAFB0446002613256CB3D020207065700120C8
:208E4C00A070E67030001DD004F108056560002799F80000874217DAF0B2A8B1D9F804106A
:208E6C0038010A5CFF2A0AD008442A70062241786970761E811CA81C0FF0C8FB08357F1C15
:208E8C00FFB2E5E7002060602146D8F8000000780FF0B3FC99F800000021FFF7B2FED8F8E4
:208EAC00000013F0D2F80020C8F80000BDE8F18370430020E644002080450020B0440020CA
:208ECC00E544002010B50446232000F03EF901002046BDE8104018BF0121C9B213F032BA05
:208EEC002DE9F04F05466F480078000789B058BF122068D500F0C4FA08B1102063E001F006
:208F0C00FDFB69490978884228BF15205BD2674C206808B1112056E00A2013F094F80028CB
:208F2C0020604ED0042000F0E4FA20680A2229460FF06CFB2068407828B10E2000F005F9D7
:208F4C0080460F2004E00C2000F0FFF880460D2000F0FBF881461C2000F0F7F8ADF820009C
:208F6C001B2000F0F2F80746192000F0EEF805461A2000F0EAF80646162000F0E6F8824605
:208F8C00152000F0E2F883464948007800F0EFF9BDF82020216807920697059504960190A3
:208FAC00CDF80CA0081DCDF808B00090CB788A784946404613F0CAF9040003D000F04EFECF
:208FCC0000E01324204609B0BDE8F08F3548007800074CBF3748002000F070BF10B501247C
:208FEC00C01E19D042F20A02801A0DD0401E08D0401F0DD0801F17D04DF6E672801A0FD0DB
:20900C0018E000F02BFE16E0887800F02FF812E0887800F053F80EE0084600F058F80AE093
:20902C00084600F05EF806E08878010003D006F07DFC00E00024204610BD10B502461B4BBD
:20904C0012204FF6FE741B68A14205D16BB11878904206D0032010BD4FF6FF72914204D13D
:20906C001BB1BDE8104013F075B910BD010000D170470E4900B5096887B081B100220592FD
:20908C00049203920292019200920B1DCA78097800F0E8FC07B05DF804EB00F0DFBD07B0E3
:2090AC0000BD0000E5440020F443002054450020E6440020C044002000F0D0BD010000D1D1
:2090CC00704780B5002100910023002206E080B5418900910389C2888188C07800F004FD23
:2090EC0001BD1FB50446607912281FD1E389A2896189208908F044FA18B1252000F025F80A
:20910C0000B10120ADF80C0003AA2179608804F02BFCBDF80C0048B902900190E089009098
:20912C00A38962892189608808F042FB1FBD0000282808DA4FF6FF72914204D0CA4A22F8AC
:20914C0010100020704702207047282803DAC64931F8100070474FF6FF70704770B504462D
:20916C000D46C24E1C22002130460FF04DFA3477757713F0F3F801000EBF0121002112209D
:20918C00317070BD10B5B94CE160A060102200210FF0D2FA012801D1A0680CE010BD10B54B
:2091AC00B24C6060102200210FF0C6FA012801D1606800E010BDBDE81040102105F03CBE4E
:2091CC00AA48406870472DE9FC41A84D0446002695F81E80042C0F4624DA2878032818BF2A
:2091EC00102054D101F08AFA28B900F047F910B900F046F908B1122049E0012C18BF022C4A
:20920C001DD1BFB10622002168460FF0FDF900F040F838B90622FF2168460FF0F5F900F00C
:20922C0038F808B1022032E00622394668460FF0EDF90BE00621684605F0FEFD06E0032C06
:20924C0004D16868694605F0B3FC0646884FAC77042138780FF072F8002028849EB9ACB106
:20926C00684600F05BF8064668B9032C0ED11D20FFF76BFF288448B138784EF66022042199
:20928C000FF074F802E00EB185F81E803046BDE8F6810622694638460FF03EBA70B504464E
:2092AC0000252000714E05D121B1062206F110000FF0ACF9307801280CD10125200004D15A
:2092CC000220307008F0F5F904E000203070204600F0A8F8284670BD38B50024E0B1057886
:2092EC00624A290006D14178837801EB0321D182C0781076107802280ED10124280006D12C
:20930C0003201070117ED08A04F05FFB01E000201070284600F086F8204632BD10B5534C51
:20932C00A17F81B10146062204F124000FF06EF9A07F04F1240100F008F804F12400BDE8FA
:20934C00104013F00FB8002010BD79B102000DD04A79012808BF42F0C00006D002F03F0243
:20936C0003284A7102D142F0400048717047010018BF01210846704770B53C4D0446287FA8
:20938C00FF2815D00A200FF04DF9060010D0D020307074700820B0700622A87FF07005F1FF
:2093AC002401301D0FF032F9287F31460FF025FAE87F01280FD12F48006818B180680100C8
:2093CC0018BF8047BDE87040294800784EF6602204210EF0CBBF70BD24488068704723488F
:2093EC00C068006870472148C1680A68521C0A60007FFF281CBF4FF480410FF041BA704708
:20940C001A48807F704738B50446184D05F1100012F0ACFF05F110001CB9A97F09B105F126
:20942C00240032BD70B5114D0446287FFF2819D00E200FF0F7F8060014D0D020307074700F
:20944C000020B070062205F11001F01C0FF0DEF8E88A70813146287E3073287FBDE8704091
:20946C000FF0CBB970BD0000F4440020C8440020804500208445002005F0B6BB264800E02A
:20948C002648006800B101207047010001D0172801DBFF2801D101207047002070472DE9B6
:2094AC00F04D0D4693460024BBF1200F80461F462C7003DB0020BDE8F08D0419E0B2584505
:2094CC00F8D2E4B23E5D641C002EF3D0E4B231198B45EFDB17F804A05046FFF7D6FF641C06
:2094EC000028E7D0701EC2452870E6D1E4B23819E1E70B490A7810430870704708490A78C3
:20950C0032EA0000087006D10648006818B14068010018BF0047704774430020704300202D
:20952C0078430020804300202DE9F04104468846122740464FF6FE7188421646DFF88859B1
:20954C0008D1A86950B30268100027D041462046904720E04FF6FF71884212D1A86938B181
:20956C000268100004D0414620469047070005D03146204600F0DAFA07000FD12C706E70EF
:20958C000CE004F092FF48B10078A04205D13146404612F0EFFE074600E003273846BDE8BF
:2095AC00F08110B5044684B000F072F808B9022029E02088012104F0A6FF08B9142022E04B
:2095CC00208804F0B1FF042812D1DFF8FC0881894FF6FF72914218BF112014D1218881811E
:2095EC0061888180A188C180E18801812189418100200290019020890090E388A2886188BA
:20960C00208808F0D5F804B010BD30B5044685B02088402104F077FF002836D02088ADF8FE
:20962C00040000F035F8002500281CBFA07A002807D10021684600F0CEF9A07AF0B1022553
:20964C001CE091208DF800008DF803503E208DF80100012106208DF80200A088ADF808006C
:20966C006088ADF80600E088ADF80A002089ADF80C008DF80350684600F0ADF920880022F4
:20968C00402104F0DEFE284600E0122005B030BD2389E288A188608807F072BF70B50C46A5
:2096AC00DFF828180978022918BF0129154601D1122070BD0DB9022070BD04F0F6FE06004B
:2096CC0001D1142070BD1CB1307940F0020030711022294606F118000EF098FF2869B0621A
:2096EC00002070BDF8B506000C4601D10220F2BD308804F0DAFE050001D11420F2BDDFF854
:20970C00CC070078022818BF012803D0A87C082802D10CB11220F2BDDFF8AC77786908B19C
:20972C001120F2BDB02012F08EFC786108B91320F2BDB02200F0C2FA786931884180A022CA
:20974C00311D001D0EF062FF796902200870A87C7969328808280CBF012000200B1DDFF8BC
:20976C007017097805F074FD06461CB12146284605F047FF300018BF00F055FA3046F2BDDB
:20978C0038B504460D4604F090FE08B9142032BD8DF800506946204605F066FE32BD38B5AE
:2097AC000022A0B101230624E4B2051915F8015C303D0A2D0BD203FB05220A256B43641EB9
:2097CC00E5B2002DF0D11046BDE8344001E0022032BD30B505460C4685B0204604F065FE23
:2097EC0008B9122019E0DFF8EC06854228BF022013D21022002168460EF006FF280A8DF838
:20980C0001008DF80050280C8DF802002146280E8DF80300684605F062FD05B030BDF8B535
:20982C000546DFF8A8060078022818BF01280C461F4601D11220F2BD0FB90220F2BD284639
:20984C0004F033FE060001D11420F2BDF06A08B112F0FBFB1C2138460FF03DFA0100F162CC
:20986C0001D11320F2BDB07C08280AD1069840B1887E009001F112030A8A284605F0ECFEE4
:20988C0000E00020317941F004010CB141F002013171F2BD2DE9F0410D4604F006FE040004
:2098AC001FD0A56200F007FA0546C0B200B92578A66A94F8058010200EF0B4FE070010D0BA
:2098CC00D0203870062200207870A11D0920B87087F80380381D0EF099FEFE603946E8B242
:2098EC001EE0BDE8F0812DE9F04104460D4690461F460E200EF096FE06000FD0D0203070F4
:20990C0006220020707041460C20B070B580B01D0EF07CFE37733146204601E0BDE8F08148
:20992C00BDE8F0410EF069BFF0B50C0087B050D0A079DFF89465002830690CBF082504254C
:20994C0008B9DFF894050778042D08D1DFF88C05006820B1416808001CBF00208847207D88
:20996C00059004F10803608A04903946208A0390E08902900195A0880090E279E07800F020
:20998C0071F8E07880B9172004900122E089039002950020019004F108000090E379A1887D
:2099AC00384604F001FDE070306908B100F056F9307801000DD0717800F0B8F848B1E378E7
:2099CC00312B04D0A2883178184600F079F80020307007B0F0BD10B5044684B0A08851B128
:2099EC00002102910191A189009163892289E18807F076FE1FBD04B0BDE810403B2107F017
:209A0C0088BE70B504460026A08804F04EFD18B10678A08804F0FBFCDFF8AC542878010026
:209A2C0007D0864205D1697800F080F848B100202870300005D0A379A288A078314600F0E1
:209A4C003FF8686908B100F0EEF8A08804F06CFD042802BFA088A989884204BF4FF6FF7056
:209A6C00A88170BD2DE9F0410646884617461C4616200EF0D7FD050020D0D02028706E7001
:209A8C000520A870EF702CB106222146281D0EF0BDFD04E006220021281D0EF0B5FD0698F5
:209AAC0068812946079828730898E881099828820A9868820B982875404631E7BDE8F08134
:209ACC00F8B504460D4616461F4608200EF0AAFD48B1D0210170447006218170868087717D
:209AEC0001462846EDE0F1BD2DE9F04105460E46174698460C200EF095FD040014D03046EF
:209B0C0004F0D3FC08B9DFF8D0030078D021217065700721A170E570A680E780A4F80880FD
:209B2C00069961812146FBE6BDE8F08110B50C4604F0D0FC28B140882146BDE8104012F064
:209B4C0019BC122010BD2DE9F84F0746894692461C46484604F0A9FC5FEA000B1EBFDFF843
:209B6C006853696900295CD051F8A42F182002B134208A6802B1143004B11C30496801B14F
:209B8C00173080B20EF04EFD06004AD0182200F095F800F090F85FEA000808BF9BF800807D
:209BAC00D020307077700A20B070A6F8049086F806A006F118076969D1F8A40040B1B76025
:209BCC003846D1F8A41000F11C071C220EF01EFD6969D1F8AC0040B1F7603846D1F8AC1081
:209BEC0000F1140714220EF011FD3CB13761384600F11C071C2221460EF008FD6869D0F8B3
:209C0C00A81031B177611722D0F8A81038460EF0FDFC31465FFA88F00EF0EFFDBDE8F14F81
:209C2C0001E0BDE8F18F10B5A74C6069A8B1D0F8A40008B112F009FA6069D0F8A80008B11C
:209C4C0012F003FA6069D0F8AC0008B112F0FDF9606912F0FAF90020606110BD10B59A4CF4
:209C6C00206940B112F0F1F9002020610420BDE81040FFF743BC10BDF8B504460D4628463E
:209C8C0004F013FC060015D000F015F8070008BF377806200EF0C6FC06000BD0062200F071
:209CAC000DF8D020307074700E20B070B5803146F8B206E0F1BD2620FFF747BA00210EF08B
:209CCC00A3BCBDE8F4400EF098BD2DE9F84305460E4617469846304604F0E7FB5FEA000924
:209CEC001ED010200EF09EFC040019D01022FFF7E5FFFFF7E0FF08B999F80000D021217000
:209D0C0065700F21A170A680277284F80980C0B20899A1720999E1720A99E160214631E0E6
:209D2C00BDE8F1832DE9F84304468846914604F0BCFB070024D014200EF074FC05001FD082
:209D4C00FFF7B9FF060008BF3E78D0202870062200206870B91D0B20A870E81C0EF056FCB1
:209D6C006C8118F00101C5F8109018BF01212973F0B218F0020118BF01216973294601E01C
:209D8C00BDE8F183BDE8F4430EF037BD2DE9F14F90460D469946404604F087FB07000A9EC7
:209DAC00DDF82CA0DDF830B00D9C3ED09DF8000000283AD1387940F010005FEA49714CBFC3
:209DCC0040F0020000F0FD00002E08BFBAF1000F08D1BBF1000F08BF002C03D100F0FB0063
:209DEC00387122E040F0040038713CB12069B8621022214607F118000EF008FC3EB135B9B7
:209E0C00F86A08B112F021F91C2130460AE0BAF1000F0AD0012D08D1F86A08B112F015F99C
:209E2C001C2150460EF057FFF862274D6869002842D086B1D0F8A40028B91C2012F003F958
:209E4C006969C1F8A4006869D0F8A40018B11C2231460EF0DBFBBBF1000F11D06869D0F803
:209E6C00A80028B9172012F0EEF86969C1F8A8006869D0F8A80018B1172259460EF0C6FB5A
:209E8C008CB16869D0F8AC0028B9142012F0DBF86969C1F8AC006869D0F8AC0018B11422CF
:209EAC0021460EF0B3FB9DF8000053464A46414601B0BDE8F04F46E6BDE8F18F0249886124
:209ECC00704707490860704744450020E54400208045002040420F00E444002084450020B7
:209EEC007C43002070B5DFF80466054630680C4608B1112070BD00F0E7F801D1122070BDC5
:209F0C00DFF8EC05806800281CBF0078002801D1102070BD0C2012F096F8306040B3012053
:209F2C00FFF7E7FA306805700021306841700A222146801C0EF06AFB00F0CFF9040002D0A7
:209F4C0000F0B4FA15E0DFF8AC050078032810D11D20FFF7FAF8DFF8A015088048B1DFF84D
:209F6C009C0500784EF6602204210EF0FFF900E01324204670BDF8B50C46DFF88415097841
:209F8C001546052211421E4627D0012CDFF8601502D18F680FB301E0CF68F7B1202D02DA97
:209FAC002A0002D00EB90220F2BD08701F220021781C0EF029FB2A463146781C0EF026FBD7
:209FCC003D70284624B1791CBDE8F44012F0D6B9791CBDE8F44012F0D5B91220F2BD38B5BA
:209FEC00DFF80845216809B9122032BD0978814201D0032032BDDFF80455287802210EF0AD
:20A00C009DF9DFF8EC1400204880042128780EF095F9DFF8E41400200880032021684870B3
:20A02C000020BDE8324012F0B1B9F8B5044600F04BF801D11220F2BD1CB12078FFF725FA1A
:20A04C0008B90220F2BD6078801C202823DA207800F0AEF908B11820F2BDDFF894546B6848
:20A06C000021002202E0B61C71181B685BB15E68767828B9C9B27718BF1C202FF3DB01200D
:20A08C00B61CB218F1E7D0B238B16078D2B28018801C202801DB0B20F2BD082011F0D3FF4C
:20A0AC0006000FD0082200F087F8686830B100E0084601680029FBD1066000E06E607460F1
:20A0CC000020F2BD1320F2BDDFF83404007805210842704780B500F027F801D1002002BD20
:20A0EC0000F066F900B1406802BD10B500F01CF801D1002010BDDFF8F8335968002201E09F
:20A10C000A46096869B14C6824788442F8D14C680868002A14BF10605860084611F095FF4D
:20A12C0000E00024204610BDDFF8D4130978052211427047DFF8C80300780521084218BF0B
:20A14C0000F043B91220704770B5DFF8A443A06818B111F07AFF0020A060E06818B111F0BE
:20A16C0074FF0020E0600521DFF89453287808421CD004F1100000F0AEFB287800260521BC
:20A18C00084211D000F077F9A06060B100F013F800F071F9E06010B100F00DF804E0A068E0
:20A1AC0011F053FFA6601326304670BD002000F092FB002070BD202200210EF025BA2DE91E
:20A1CC00F0478288DFF82463DFF82453316842F20607D31B4FF0010805D09B1E012B60D983
:20A1EC009B1E0FD00BE08068007841B1020003D10120487012F0CAF801006BD038E04FF078
:20A20C00000867E0806807780029F8D04878BD4C012833D100F058F9DFF8E092B0B1012089
:20A22C00FEF793FF8246BAF1420F0AD399F800004EF6602202210EF099F8AAF13C00688022
:20A24C0010E04FF47A7000FB0AFA02E0FEF77DFF8246BAF1000F05D099F8000052460221E0
:20A26C000EF04FF8316802204870207818B9384600F004F92EE0002020702BE0207848BBE2
:20A28C0003200EF0CFF948B1D02101704770042181700146306800780EF0AFFA00F006F9B4
:20A2AC0018E080680778287842F208018A420CBF01260026FF280DD004200EF0B3F901009F
:20A2CC0008D0D02008704F7002208870CE7028780EF093FA4046BDE8F087F0B5834F386837
:20A2EC0085B070B3847800F009FA28B10A20FEF72CFF05460B200DE000F0E6F828B10620B8
:20A30C00FEF723FF0546072004E00820FEF71DFF05460920FEF719FF064676480078FFF792
:20A32C0026F83968CA7A039203468A7A029228460A1D01922246C9780091314612F02AF89B
:20A34C0000E0012005B0F0BD38B5014667486B4D02682878664C01291ED161880B0002D058
:20A36C00684B1B7823B112B31078BDE8324036E63C29A8BFA1F13C000CDA02210DF0DEFFBA
:20A38C0060884FF47A7101FB00F2287802210DF0B8FF0020608031BD4AB1594909784907DA
:20A3AC0005D502210DF0CAFF002060807CE031BD4F49496800E0096829B14A681278824210
:20A3CC00F9D10846704700207047F8B54C48007800240521084201D11220F2BD444DA8682A
:20A3EC0010B900F048F8A860E86810B900F043F8E860A86800281CBFE968002901D1132032
:20A40C00F2BDFFF7D8FEE868FFF7D5FE6E6812E09B1C50185918401C117071684978491C68
:20A42C000170716809784170801C71684A7849680EF0ECF83668AA6896B13CB9706811787D
:20A44C0043785F18BF1C202FE2DB01247368E9685B780A789B1C88189A18401C0A70DCE78F
:20A46C001078511C11F08AFFE868411C007811F089FF0020F2BD202011F0E5BD38B51B4D9C
:20A48C000446286878B103200EF0CCF848B1D02101704470032181700146286800780EF057
:20A4AC00ACF904B100E031BDBDE8314010B50F4C206840B111F0C9FD002020600120BDE88C
:20A4CC001040FFF71BB810BD80B50948806858B10278431C69460120FEF7E1FF20B100784C
:20A4EC00C00701D5012002BD002002BD7443002060450020E6440020E844002080450020DD
:20A50C00E5440020E744002038B504460D4603F0CCFFA0B1807C042801D0122032BD374869
:20A52C00006808B190F899502946684604F0B0FC334B6A460221204605F051FF32BD1420A1
:20A54C0032BD80B52F480078400707D52E48FFF7B8FC2E494FF6FF70088001BDBDE8024041
:20A56C000020FFF7AEBC7CB5012403280D4610D042F21301884204D04FF6FF7188421ED048
:20A58C002AE0A8780C2818BF112826D100F027F823E0E878A9881D4E1A2804BF33889942A1
:20A5AC00F4D06A8900922B89EA88FFF79DFAA8883188884211D14FF6FF7030800DE06879CC
:20A5CC000024122809D1ADF80040297968886A4603F09CF9012400E00024204676BD38B5D9
:20A5EC000A4C20884FF6FF75A84205D008490A78084903F09EF9258031BD000058450020DB
:20A60C00B3030100E54400207C450020504500208045002048450020B2494870704710B5D7
:20A62C00B04C20700CF0E9FD2078BDE81040052103F026B97CB5AB4D28780C46210419D5ED
:20A64C000EF03AF8060084F4004411D000F058F858B93078A22806BFA34800786878FF2829
:20A66C0003D031460EF0C9F802E030460DF0EFFF204676BDE10709D5A86820B14168080091
:20A68C001CBF0020884784F0010076BDA10709D5686820B1416808001CBF0120884784F025
:20A6AC00020076BD610727D5904E31880A001DD0481E308080B2E0B9FEF7E0FE48B18C49E5
:20A6CC0001200870686820B1416808001CBF01208847FEF775FD694604F06AFA6846FEF7A7
:20A6EC001DFE1D20FEF731FD308002E004210DF025FE84F0040076BD002076BD03F01ABF32
:20A70C0038B502780124912A4FF6FF7102D0A22A76D07BE04278052A49D00E2A04D00F2AAB
:20A72C0048D03E2A69D071E082886E4941F20905531B2DD040F6F9755B1B2FD0DB1E31D083
:20A74C005B1E08D09B1E022B05D9DB1E012B15D9DB1E08D05AE04968002958D009680A003D
:20A76C0055D0884750E06349096800294FD04B6819004CD0014642F20E003CE0896800299D
:20A78C0045D00B68190042D00146104698473BE08068411C0078FEF781FD35E08068FEF741
:20A7AC009BFD31E080680078FEF7E6FD2FE0FFF728F92CE0828842F20D05531B13D09B1F1F
:20A7CC0002D09B1F0FD021E04B4B1B888B420AD04A490968D9B10A68110018D0014642F2AD
:20A7EC001300904710E04349096881B14B6819000DD001461046984706E000F00AF803E064
:20A80C000246408800F04BF8044600E00024204632BD70B505460124A8780128014611D040
:20A82C00022806D0032811D0062815D00A2809D032E02C48806880B3416808002DD0284625
:20A84C0088472AE02946FFF76FF826E0A8882A4600F025F8044620E00E200DF0E3FE060038
:20A86C001BD0A8880122402103F0EBFDD02030703146E87870701120B070A888B080E888EA
:20A88C00F0802889308168897081A889B081164800780DF0B2FF00E00024204670BD70B556
:20A8AC000C46154603F040FE0126042804D11348006858B1026803E00E48006830B1426824
:20A8CC00100003D02946204690470646304670BD044988607047034948607047084908609E
:20A8EC007047000080450020E4440020E8440020E74400205C450020504500207C4300207C
:20A90C0080430020F8B5144600250E46C24FC34B40B1012815D0042818D006281ED007284B
:20A92C0022D02CE0162928DA1622002107F10C000DF06AFE3246214607F10C000DF066FEC6
:20A94C001EE0022E19D12088388119E0082E14D13846214608220DF0B3F911E0012E0CD1A9
:20A96C00DA6903F1280104E0012E06D1DA6B03F14801207800F03DF802E0182500E002251C
:20A98C002846F2BD10B50B460024A34920B1012808D0042809D00DE015220C3118460DF0D5
:20A9AC0035FE08E00889188005E0184608220DF087F900E00224204610BD70470020704796
:20A9CC0001460020C90706D50FF2582393481022072101F0B9BF704701460020C90704D578
:20A9EC008E484089002101F0DABF70478C490860704710B50B7884074CBF43F0020303F04D
:20AA0C00FD0304064CBF43F0800303F07F0304074CBF43F0080303F0F70384064CBF43F0E1
:20AA2C00200303F0DF030B70AA21084203D0107840F00C0003E018B9107800F0F30010704C
:20AA4C0010BD2DE9F0410F461546387802281E464FF000085ED1786801784078069C01EBD3
:20AA6C00002080B221001CBFB0F5285F0B2056D14FF42851401A08D0401E1AD0401E28D072
:20AA8C00401E1ED0401E2AD044E0F8680EF00BF9079A80B2031B9342B8BF021B92B21019B9
:20AAAC00162803DA3280F86801190EE04FF00D0834E0F8680088022131802870000A6870B7
:20AACC002CE0062030800622F96828460DF09EFD24E001203080F868007828701EE0F86856
:20AAEC00B0B108213180018829700188090A69704188A9704188090AE970818829718188B5
:20AB0C00090A6971C188A971C088000AE87105E0308003E0A6F800804FF001084046BDE825
:20AB2C00F0812DE9FC4B0E46804630780027022891461D466BD17068017840780A9CDFF82C
:20AB4C00E0B001EB002080B24FF42851401A06D0401E29D0401E4CD0401E38D057E0F06869
:20AB6C000EF0A1F880B2A04204D32919162903DB0D274DE007274BE0F3682A4649461819A3
:20AB8C000DF044FD2C19F068A4B2C4F11602002120440DF039FDDBF80000002838D0026886
:20ABAC00100035D0002121E07CBB022DE0D199F8000099F8011000EB0120F1680880DBF848
:20ABCC00000028B30268100022D001210EE0E4B9062DCDD1F068062249460DF017FDDBF8B1
:20ABEC000000A8B10268100012D00321404690470EE054B9012DBBD199F80000010013BFFA
:20AC0C000128F1680870802702E00B2700E001273846BDE8F68B000090450020B4450020B9
:20AC2C00844300204FAA00002FAB0000000000002DE9F041DFF8945BDFF8948B287828245F
:20AC4C00604311F000FAC8F8000008B913202EE00027FF260FE018801822002098705E7283
:20AC6C001E72987283F82400002103F10C000DF0CBFC7F1CFFB2287887420BDAD8F8000040
:20AC8C0004FB07F14318002F0CBF4FF6FE704FF6FF70E0E70FF2D14001F0F3FB0FF6E9301F
:20ACAC00FDF7CEF90FF63D4003F06FFB0020BDE8F081DFF8201B08707047F0B583B000F0AF
:20ACCC00BDF907000DD129462046FDF7BCF9070007D10198DFF8003B00960322294600F0AB
:20ACEC002CFD3846FEBD70B588B004460120ADF808000D464FF6FF70ADF80A0001A90220EF
:20AD0C008DF80C00002000F07CF900F036FD06000CD102A92046FDF7F3F9060006D10198A4
:20AD2C00DFF8B83A0095112200F069F9304608B070BD2DE9F0411646022E18BF102E88B0A9
:20AD4C0080460D461F4622D10DB301A900F015FD0446E8B90120ADF808008DF80C604FF61B
:20AD6C00FF70ADF80A00324629460DF10D000DF04DFC02A9404600F0E1F8044640B901989B
:20AD8C00DFF85C3A0097072200F039F900E00224204631E100B587B000F01BF88DF8051051
:20ADAC00ADF8022028218DF8061000220CE000B587B000F00EF8ADF8022003218DF8051067
:20ADCC00002228218DF80610694600F0E0F807B000BDADF8001002218DF8041070471346F5
:20ADEC000122D4E070B584B00446ADF80410ADF806201D4602A900F0C0FC06000DD101A901
:20AE0C002046FDF733F9060007D10298DFF8D4390095052201A900F090FC304604B070BD0B
:20AE2C00F6E013460022B2E00DE1F0B583B000F005F907000DD129462046FDF74FF9070072
:20AE4C0007D10198DFF8A03900960F22002100F074FC3846FEBD38B500F019F8172807D040
:20AE6C00287A002804BF687A012800D114E0022032BD38B500F00BF8172807D0287A012897
:20AE8C0004BF687A012800D106E0022032BD0D460446694600F071BC29462046FDF73CF9A9
:20AEAC0032BDE6E008E12DE9F0410E0086B0804617461D4639D0380037D04046FDF752FDC6
:20AECC00C0B20021C9B20C234B433344421F9B889A4201DA1B202AE0491CCAB2BA42F1D303
:20AEEC0001A9404600F049FC04001FD1B0680090B38872883188404600F012F9040015D1EC
:20AF0C0000208DF811008DF8107001208DF8080003968DF8125017220C98DFF8D0380090F0
:20AF2C0002A9019800F009FC00E00224204606B0BDE8F0816CE086E09BE0BDE030B50D4692
:20AF4C0085B02A7904460023062101F0CDFB0390C8B12888ADF80000691D688800F056FBA8
:20AF6C00002000F04DFB2A790398ADF808200DF04DFB69462046FDF783F8040004D0039826
:20AF8C000DF017FB00E01324204605B030BD2DE9F04188B00D46044690461F4601A900F086
:20AFAC00ECFB064638BB5FEA08000FD02888ADF8080002A96888ADF80A0002208DF80C00D5
:20AFCC00032000F01EF8FDF76DF803E029462046FDF768F806000ED1162229460DF10A0043
:20AFEC000DF014FB0198DFF808388DF808800097092200F004F8304608B0BDE8F08102A9DF
:20B00C009BE38DF80D0028208DF80E0020467047F0B583B000F012F807000DD12946204690
:20B02C00FDF74CF8070007D10198DFF8C83700960B22002100F081FB3846FEBD0D46044658
:20B04C00164601A999E3F0B583B0FFF7F7FF07000DD129462046FDF737F8070007D1019849
:20B06C00DFF8943700960D22294600F066FB3846FEBDF0B50D4683B00446287A002804BF62
:20B08C00687A0028164614D101A9204600F075FB07000FD129462046FDF73EF8070009D122
:20B0AC000198DFF8583700961322002100F045FB00E002273846FEBDF0B587B00D460746AB
:20B0CC00144601A900F059FB060026D13846FDF749FCAB88401F834203DB3846FDF742FC83
:20B0EC00431FA86800906A8829889BB2384600F017F8060011D100208DF808000C222946A3
:20B10C0003A80DF083FA6888DFF8E036ADF81800009417220198FFF772FF304607B0F0BDBD
:20B12C00FEB50D4616461F46044600233A46162101F0DAFA029098B10899ADF80050ADF83D
:20B14C000260ADF804703A460DF060FA69462046FDF706F8040004D002980DF02AFA00E017
:20B16C0013242046FEBD00002DE9F0430E4687B0804630781746002460B97078012809D0A5
:20B18C00B0781B2818BF1D283CD1DFF848562978FF2901D1062091E01D2812D1404600F0CA
:20B1AC0000FB04000DD0A27A10000AD010062ED4B178404601F057FAA07A40F08000A072BC
:20B1CC0025E001A80090B388B26871783078FDF7FBFA0028814670D101A800900022B378A0
:20B1EC002878414601F0E3F90028814665D1029808B100203870B0781D285ED1002C5CD01B
:20B20C00A0725AE0404600F0CCFA040001D1002054E0B07801281DD1B188B06801AAFDF741
:20B22C000DF95FEA000948D1A078052818BF072808D009281CBF0D28112803D0172817D1FA
:20B24C002069A8B1B27801AB2146404600F037F8387032E0A178884207D16368180004D0F2
:20B26C00B188B06801AA9847DBE74FF0040924E0DFF88C25607A127890420FD001A90091FD
:20B28C000022B378414601F092F9814630B9B17801A801F0FFF908B100203870A078032823
:20B2AC0008D1A189BDF80400814288BF0146404601F0C6F9204600F0AFFA484692E12DE929
:20B2CC00F8450D468246A878052816461F464FF0010847F230540BD007280FD0092834D0D9
:20B2EC000D2839D011285AD0172800F080808DE03A463146284600F0B0F82BE0072E19D1DE
:20B30C0095F82400EA89401C85F824003988786800EB810010F8041D407801EB002081B2D3
:20B32C00914210D2401CA88105F10C012888FFF705FE56E038790A2828D195F82400441EF6
:20B34C00A441E40F23E0002421E03A463146284600F0B3F804461AE00D2E14D195F82400CC
:20B36C00401C85F824002888FDF7FCFA3988401E8142E8DBE8890818E88105F10C012888D8
:20B38C00FCF7A2FE2DE038790728D6D00124002C08BF012E3BD138790A283DD14CE0112ECC
:20B3AC00C8D138887988401E484395F82410491C85F8241080B2796808448178C07801EBEB
:20B3CC00002080B24FF6FF718842BCD0401CA88180B2E9898142B6D3288805F10C01FCF7E9
:20B3EC008FFE287A21460DF036FD162414E0287B01283A463146284602D100F04AF901E035
:20B40C0000F00FF90446012CC1D023E00124092E04BF388800280ED000973346687A002224
:20B42C00514601F0C4F830B93146384601F032F908B14FF0000844B9002000901A22AB78B6
:20B44C00687A514601F0B3F801E0162C02D0284600F0E2F94046BDE8F28510B505290446BE
:20B46C0021D100F0C2F8516810889278012A03D101EB8000001F03E01222504308441238FF
:20B48C0001784078E28901EB002080B2904212D2401CA08104F10C012088FCF7E7FD00F022
:20B4AC00AAF8162010BD10790A2802D194F8240008B9012010BD002010BD2DE9F043092986
:20B4CC0087B0044615463CD128886988401E484394F82410491C84F8241080B269680A5CAF
:20B4EC000844407802EB0026207B012854D128886988002748431FFA80F82F80B946C145A8
:20B50C004ADA6888A17C431F68684844421D9BB204F11300FDF7B6F970B1B94506D0686814
:20B52C006A8800EB090138440DF070F86888C7192888401CBFB22880688848445FFA80F9F4
:20B54C00DDE728790A2803D194F82400002848D1A37CAC4800F060F8002837D1A37CAA48E7
:20B56C0000F05AF8002831D1A37CA84800F054F800282BD1A37CA64800F04EF830BB287915
:20B58C00022818BF052804D008281CBF0F280C281CD100F02AF86E88B6B24FF6FF7086424E
:20B5AC001FD0218A8E421CD2217B701C0129E0810ED1ADF800006946208A00F027F8032065
:20B5CC0000F01EF82088FCF76DFD06E0012009E0208804F10E01FCF765FD00F00CF8162039
:20B5EC0000E0002007B0BDE8F08394F82400401C84F824007047207A47F230510DF02BBCD5
:20B60C008DF8050028208DF806007047ADF8020002208DF80400704704F113020221FDF7E0
:20B62C0031B9F0B50E46172E83B0044647F2305522D12088FDF796F9A18BA38A421F51185A
:20B64C00A183A28B618A511A89B2994212DAA0F1050C5F1ABC45B4BF431F5B1AA06908447A
:20B66C0000909BB2218A2088FFF75AFD20B900F060F80CE0012000E0002000F054F8012EA8
:20B68C0001D10120FEBD00F054F800F047F81620FEBDF0B50E460446172E83B0104647F24A
:20B6AC0030552ED1627D21690C277A438B1802881988914202BF59884288914202BF8288F6
:20B6CC00998891421DD1816898680DF025F8C0B1607D227D401CC1B2914260750FD22169AA
:20B6EC00C0B278430F18B8680090BB887A8839882088FFF715FD20B900F01BF80CE0A07D9F
:20B70C0000E0002000F00FF8012E01D10120FEBD00F00FF800F002F81620FEBD1920A0702E
:20B72C003C48606070478DF8040001A92088FCF727BD207A29460DF08EBB2DE9F041069C18
:20B74C00FF2C05460E461746984614D005F108031E2229460FF24D1000F054FF6C72AF70A6
:20B76C00C5F804803EB1314605F10C00BDE8F04118220CF04BBFBDE8F08110B50C4600F0E1
:20B78C0010F860B104B12060007AFE2801D1172010BDFF2801D1002010BD162010BD0220CE
:20B7AC0010BD10B50A4A1268002100E0491C074C2478CBB2A34207D2C9B228234B43D45A0B
:20B7CC008442F3D1D01810BD002010BD79430020884300208F45002083840000F7860000F2
:20B7EC0065850000BD840000E38600006B870000ED8500002F860000A98600005D8600007E
:20B80C007A43002074C8000078C800007CC8000080C80000B7870000F8B5044604F1080005
:20B82C0000F0F8FEA51C04F110062878172818BF19281AD1A87A012813D13068A8B1002721
:20B84C0008E00C2179430844806808B10CF0B1FE7F1CFFB2317930688F42F2DB10F0F5FB57
:20B86C0003E0B06808B10CF0A4FE002028701822FF20E87100210020307504F10C00BDE874
:20B88C00F8400CF0C1BE000010B50C46FFF789FF30B1817A4A1C944204BF01F08001817214
:20B8AC0010BD000010B582B004001CBF207AFF2816D000200090A3782188607A172200F0BB
:20B8CC0076FEA078182806D100208DF8000069462088FCF755FCFE2020722046FFF79CFFD2
:20B8EC0013BD000070B504464FF6FE70844282B037D008004FF6FF760AD12046FFF751FF02
:20B90C0078BB3046FFF74DFF05002AD0048073BD012906D12046FFF744FF050021D02E8039
:20B92C000BE002291DD10121204602F0ECFDC0B92046FFF736FF050013D0287AFF280ED0FB
:20B94C00FE2807D0002000901422AB78687A214600F02DFE2846FFF75FFFFF2028720020D6
:20B96C00A87273BD70B5DFF8A85A28780624604310F069FBDFF89C1A086008B9132070BD8C
:20B98C000020FF2206E03380401C0023F270B2703371C0B22B7898420ADA0B6804FB00F6DF
:20B9AC001E4400280CBF4FF6FE734FF6FF73EAE70FF2C14000F062FD0FF68510FCF712FCFC
:20B9CC000FF6C51002F0E1FC002070BD70B50446208868B160680378426800F079F948B9E5
:20B9EC00606803784268DFF8300A00F073F908B9022070BDA078C01F0A2801D3182070BD6F
:20BA0C00DFF8185A2888010004D02188C0F58030884201DA012070BD0C2010F014FB06000A
:20BA2C0001D1132070BD002008E06268298880B202EB0012401C5181491C298081B22288FB
:20BA4C009142F2D30020306008222146301D0CF0DDFD686810B96E6004E0084601680029B3
:20BA6C00FBD10660002070BD38B502460846DFF8AC194C68002301E02346246894B1A5681D
:20BA8C006D899542F8D12268002B0CBF4A601A6018B10822211D0CF0B9FD204610F0D5FA48
:20BAAC00002032BD012032BDDFF874190870704710B5044610461422114203D000F013F90B
:20BACC00012204E04A0608D500F00DF9002201462046BDE8104002F058BDC80701D402209F
:20BAEC0010BD002010BD70B505460E46B0061C4609D5104600F0F7F801462846BDE8704087
:20BB0C00012202F042BD8820064210D0104600F0EAF8014606F00802284602F036FD010032
:20BB2C0009D0617A41B1217A012904D070BDB00701D4032070BD002070BD7CB504460020C9
:20BB4C0000900D460223DFF8DC284FF6FF71012000F02CF8060026D0002304221D21204623
:20BB6C0000F0C2FD0190E0B170890199ADF800002B460420ADF80200002201200870002099
:20BB8C0001994870FF20019988700199C8706946204600F00AF9040006D001980CF009FD47
:20BBAC0002E0152400E00124204676BD2DE9F0478146DFF8680844688A4690461E4600E0CF
:20BBCC002468FCB1002700E07F1CA188B8B28842F6D2A068BFB200EB07156889484528BF74
:20BBEC008245F1D33EB12978686833464246FCF749FE0028E8D0089810B1A1684989018076
:20BC0C00284600E00020BDE8F087F0B5DFF80C28546800E02468E4B1A5686E89B042F9DB57
:20BC2C00A788BA199042F5DA4FF0000C01E003F1010C1FFA8CF2BA42ECD21FFA8CF305EB4F
:20BC4C000312B2F80AE08645F1D101B10E801046F0BD0020F0BD2DE9FC4104460027ADF829
:20BC6C0004704FF6FF786089404515461E4608D001AA0092401C2378626880B2FFF796FFC8
:20BC8C0007462378626800F023F830B923786268DFF8840700F01EF808B160890CE02378FC
:20BCAC006268DFF8840700F015F858B11FB1BDF80400A84203D0284600F0D2F803E07889F4
:20BCCC00404400E0608906B130803846BDE8F681DFF858070221FCF7D5BD80B500F0F2FA1B
:20BCEC0000B1008802BD80B500F0ECFA08B1807802BD102002BD70B5012982B004461546B0
:20BD0C0016D0032918D0052925D0072927D0092929D00B292BD00D292DD00F292FD01129D5
:20BD2C0031D0132933D0172934D0192936D039E02946FCF75AFA33E001F04DFEADF8000068
:20BD4C0069462046FCF75AFA06002CD12988204600F076FC27E02946FCF75CFA20E02946D1
:20BD6C00FCF770FA1CE02946FCF77CFA18E02946FCF78EFA14E02946FCF798FA10E029465D
:20BD8C00FCF7A2FA0CE02946FCF7ADFA08E0FCF7BBFA05E02946FCF7BDFA01E0FCF7C7FAF0
:20BDAC00064600E00226304676BD2DE9FC410E46054617461C4601A900F091FA804638BBEB
:20BDCC00380014D00020ADF8000069463088FFF71CFF012FBDF8000018BF0027FFF783FFA3
:20BDEC0001463A46284602F0D0FB804680B931462846FCF7ADFA804650B9019DFF2C07D058
:20BE0C00AB1C1E2229460FF2555000F0FBFBEC704046BDE8F6817CB50D460446164601A942
:20BE2C0000F05DFA17281AD0300014D00020ADF8000069462888FFF7E8FE012EBDF800008E
:20BE4C0018BF0026FFF74FFF01463246204602F09CFB010003D129462046FCF76EFA76BDAF
:20BE6C0010B50446FFF739FF01001CBF611E0C18A0B210BD2DE9F0430D4689B08146A8781F
:20BE8C0000261E28174614D1484600F03CFA06001EBFB078FE28FF2822D000200090002218
:20BEAC00AB78F078494600F082FB304600F040FA16E0122804BF6878012813D0484600F0F2
:20BECC0022FA06000ED0327910000BD0100607D4A978484600F0C7FB307940F08000307174
:20BEEC00002069E0DFF838452078FF2812D0A878811E17290ED200F08AF958B1A87800F06D
:20BF0C00B3F938B1287810B96878012804D1A878122801D006204FE0A87800F078F984466E
:20BF2C0002A80090AB88AA6869782878E0470028804640D1A87800F097F9024602A94846AE
:20BF4C0090478046D8B9AB78042B34D002A8009000222078494600F02AFB804658BBA978BF
:20BF6C0002A800F097FB08B100203870A878122804BF697801291ED0EEB130711BE06878D7
:20BF8C00C8B9A8788DF800008DF804806946A878042818BF0628BDF80800ADF80200484674
:20BFAC00FCF723F928B16B4601221621484600F03DFB4FF00008404609B0BDE8F08300200E
:20BFCC0070472DE9FE430D46804628886988814201D3010001D101206DE00021ADF80410DB
:20BFEC0002914FF6FF7900E0401C0021009100236988002280B2FFF7D9FD070037D0BDF800
:20C00C000400002838D16B464A460521404600F06BFB040001D111204DE0029438780228F8
:20C02C0006D101208DF80600BDF80000860827E002208DF806001221BDF8000090FBF1F620
:20C04C003878102813D1788904F8010B102200F034F81034BDF80400401CADF80400B1B24C
:20C06C00BDF80400884202D278894845BCD1BDF8040080B90A201EE09DF806000128DFD1B4
:20C08C0038780228F3D1788904F8010B022200F014F8A41CDEE701A94046FCF7BBF848B179
:20C0AC0001AB05221621404600F0C0FA10B102980CF07FFA0020BDE8FE837889000A04F81D
:20C0CC00010B204679680CF0A1BA10B582B04C880888844201D3020001D1012016BD00F0FD
:20C0EC0016F808B90A2016BD002016BD10B582B04C880888844201D3020001D1012016BDB8
:20C10C0000F005F808B90A2016BD002016BD002200924A1D0B79214648E510B5044682B001
:20C12C00084669460088FFF770FD08B9012016BD017ABDF800202046FFF7BAFC16BD70B5FC
:20C14C0082B006460D46002401E0641CA4B2A888844229DA286810F8142000EB4400694684
:20C16C00407802EB002080B2FFF74FFD50B9286810F814100170286800EB44014978417012
:20C18C00012076BD017ABDF800203046FFF790FC0100DAD0296811F814200A70296801EB87
:20C1AC00440252784A7076BD002076BD10B50C4682B020886188814200D308B9012016BDFE
:20C1CC0023799A48621DFFF785FD08B9102016BD00200090237961882088621DFFF7E6FCE6
:20C1EC0008B90A2016BD002016BD38B504460D4669462888FFF709FD08B9012032BD017A51
:20C20C00BDF800202B462046FFF76DFC32BD022814D0042814D0062814D008281AD00A289C
:20C22C0012D00C2812D00E2812D0102812D0122812D0162812D0182812D013E07C487047FC
:20C24C007C4870477C4870477C4870477C4870477C4870477C4870477C4870477C487047FA
:20C26C007C48704700207047022814D0042814D0062814D0082814D00A2818BF0C2812D0FD
:20C28C000E2812D0102812D0122818BF162810D0182810D012E07048704770487047704889
:20C2AC00704770487047704870477048704770487047704870470FF20900704700207047F8
:20C2CC00002070475549496800E0096829B18A6852898242F9D1081D70470020704710B52E
:20C2EC000C4600F010F860B104B120608078FE2801D1172010BDFF2801D1002010BD162092
:20C30C0010BD022010BD10B5424A1268002100E0491C3F4C2478CBB2A34207D2C9B206231E
:20C32C004B43D45A8442F3D1D01810BD002010BD10B50446A01C00F06DF9FF20E07010BDAC
:20C34C0010B50C46FFF7DFFF30B101794A1C944204BF01F08001017110BD000010B582B0E4
:20C36C0004001EBFA078FF28FE280BD0002000901E232188E078172200F019F9FE20A07035
:20C38C00FF20E07013BD000070B504464FF6FE70844282B037D008004FF6FF760AD120462E
:20C3AC00FFF7B1FF78BB3046FFF7ADFF05002AD0048073BD012906D12046FFF7A4FF0500C8
:20C3CC0021D02E800BE002291DD10121204602F09AF8C0B92046FFF796FF050013D0A87830
:20C3EC00FF280ED0FE2807D0002000901E23E8781422214600F0DBF82846FFF799FFFF2063
:20C40C00A8700020287173BD0448008870470000794300208C43002078C8000028460020EB
:20C42C0024460020B0C8000080C8000074C80000698400009B8400001B8500001186000027
:20C44C0081860000BF860000AF8500003186000025870000A5870000CBBF0000CFBF0000A9
:20C46C00D7C00000F9C0000027C100004BC10000B9C10000F7C10000704700008249086050
:20C48C007047814948607047804908707047032290FBF2F080B201F070BA0178B02904BFC4
:20C4AC00417800290CD10179122903D1417C012906D101E01B2903D14088012101F07ABA62
:20C4CC00704710B5724C607002F048F8401C20700421607801F0D4F9BDE81040FFF742BA86
:20C4EC0038B50C46200411D5694840780CF0E4F8050008D02878A02804BF284600F008F840
:20C50C0028460CF0A4F884F4004032BD002032BD30B587B0044601208DF8000001A9204637
:20C52C00FBF756FF05002AD19DF806105648C9070AD54368180005D060886A4601A99847F7
:20C54C0005461CE006251AE00368180006D060886A4601A99847050001D110E006259DF862
:20C56C00050060B99DF806008DF810008DF814500020ADF8120004A96088FBF736FE9DF851
:20C58C00000000281EBFA06800280CF012F845B99DF80600122806BF9DF8051001291B28A5
:20C5AC0003D06088012101F005FA07B030BD2DE9F0410446FF2C0D46164698461FD0202086
:20C5CC000CF030F8070018D0B02038707E707D8087F80480069929B1182207F108000CF027
:20C5EC0015F804E0182207F108000CF00DF8394620460CF002F9002002E0132000E00220F0
:20C60C00BDE8F08110B54FF47A746243BDE810400CF0BDBC10B504001EBF2078FF28FE2868
:20C62C0003D00CF048FCFF20207010BD80B5009313460A46014615480078FFF7B8FF02BD66
:20C64C0030B583B004460D46FCF777F950B901A80090ADF804507F230C4800780022214684
:20C66C00FFF7A5FF37BD00B583B07E238DF804108DF8052001A900910022014603480078ED
:20C68C00FFF795FF07BD0000904300202546002079430020052923D006291BD0072918BFA4
:20C6AC0009291DD00B2918BF0D2919D00E2913D00F291CBF1129122912D0162918BF17294B
:20C6CC000CD01B2918BF1D290AD0522918BFD22906D007E0C0687047006870478068704790
:20C6EC00406870470020704770B5052914461D4616D0062912D0092918BF112910D0122993
:20C70C0012D0162918BF17290CD01B2918BF1D290AD0522918BFD22906D007E0072606E0A1
:20C72C00022604E0052602E0032600E001264FF6FF72944203D1FCF715F9841B02E0D229C7
:20C74C0008BF0C34301980B201F0E8FD38B105B12C807142BDE8704009B20BF0FDBE70BD84
:20C76C0080B5FFF797FF18B1BDE802400BF021BF01BD00000022022970D10178407801EBF8
:20C78C00002080B24FF4C051401A2CD0401E2DD040F6FF71401A2CD0401E2DD0401E2ED083
:20C7AC00401E2FD0FD3830D0401E31D0401E32D0401E33D0401E34D0401E35D0401E36D092
:20C7CC00401E37D0401E38D0F83839D0401E3AD0401E3ED0401E39D0401E3DD0401E08BF7E
:20C7EC000FF2C0023AE00FF2780237E00FF2740234E00FF2740231E00FF270022EE00FF229
:20C80C0070022BE00FF26C0228E00FF26C0225E00FF2680222E00FF268021FE00FF2640266
:20C82C001CE00FF2640219E00FF2600216E00FF2780213E00FF2740210E00FF274020DE0FE
:20C84C000FF24C020AE00FF24C0207E00FF24C0204E00FF2440201E00FF2440210467047AE
:20C86C00001800000118000000280000012800000228000003280000002900000129000082
:20C88C0002290000032900000429000005290000002A0000012A0000022A0000032A00002C
:20C8AC00042A0000052A0000062900000729000008290000DFF86C1C0870704738B5DFF82D
:20C8CC00684CDFF8685C20762878C0000FF0BBFBE061C8B1002108E04FF6FF7220F8312070
:20C8EC0000EBC10300225A60491C2A789142F3DB052000F0AFF8207EFFF7D6F8BDE83240C4
:20C90C00DFF82C0C01F041BD31BD38B50C46200418D5DFF8140C007E0BF0CEFE05000ED0B0
:20C92C002878B02808D1284600F007F920B1297905F10800FFF714FF28460BF088FE84F45B
:20C94C00004032BD002032BD7CB506001C460DD0ADF800108DF8022001966846FFF736F852
:20C96C0005001AD1CCB17689300001D1022514E00C200FF068FB08B913250EE0002101602B
:20C98C0086808460DFF8AC1B0A6812B9086004E00A4611680029FBD11060284676BD30B5C6
:20C9AC000C46DFF8901B0546086883B0002201E00246006898B18388AB42F9D10368002A56
:20C9CC000CBF0B6013600FF040FB69462846FFF74BF8010002D10CB1019921603EBD01204A
:20C9EC003EBD70B550BB012926D1DFF83C0BC169002300E05B1CDFF8344B2478A34217DA55
:20CA0C0031F833404FF6FF75AC42F3D0002400E0641C467EE5B2B542ECD201EBC305E4B226
:20CA2C006D680C266643AD5B002DF1D0012070BD1078BDE870400DE0182070BD022070BD78
:20CA4C000022002803BFDFF8E00A407E08700222104670472DE9F843DFF8CC7A04460020BE
:20CA6C0078760C25F869DFF8C46A406805FB04F870B10FF0EAFA002006E0F969C0B201EBB7
:20CA8C00C00100224A60401C3278C1B29142F4D3307808FB00F080B20FF0D5FA5FEA0009FD
:20CAAC0028D0307808FB00F2002148460BF0ACFD00200FE0516805FB0CF34FF0000E21F855
:20CACC0003E019440CF1010CC1F808E0A445F1DBC144401C3278C1B2914208D2F969C0B2AB
:20CAEC0001EBC0024FF0000CC2F80490EEE77C76002000E01320BDE8F28301460020C90798
:20CB0C0005D5002310220121DFF82C0C1CE7704701460020C90704D5DFF81C0C40890021F6
:20CB2C003DE77047DFF80C1A096821B18A888242FAD188687047002070472DE9F04186B032
:20CB4C0004460020ADF8100001208DF81200DFF8D859286A38B900F03EFF0FF074FA0028A5
:20CB6C00286200F0E2801822002128460BF04CFD2079461C02284FF6FF7817D006282CD0CE
:20CB8C0008282FD00A2833D00C2857D00E2800F08B80102800F08D80122800F08F801628ED
:20CBAC0000F09380182800F09780BBE000F013FF288029466088FBF721FB002821892888F3
:20CBCC0004D0814228BF01462980A0E0814228BF01466088FFF734FDA4E004A9204600F0D4
:20CBEC00AEF87DE004AA0021204600F02CF977E000F0A0F8070052D0608805AB42460B2188
:20CC0C00FFF772FD03006B6024D02079BDF81620039000953946BDF81400029000200190AA
:20CC2C0000F026FA070004D160882946FBF730FB29E0162F686808BF00272BE000F07AF80F
:20CC4C0007002CD0608805AB42460D21FFF74CFD686020B92089ADF81000112745E0217942
:20CC6C00BDF8162003910346BDF814100291618901910095394600F0FBF9070006D160883A
:20CC8C002946FBF713FB002841D12AE0162F686808BF00270BF08DFC380001D121E001271B
:20CCAC002089ADF810001CE004A9204600F06EF916E004A9204600F0E9F911E00DF11202C6
:20CCCC0004A9204600F086FA0AE00DF1120204A9204600F0C0FA03E004A9204600F029FB02
:20CCEC000746380011D0162F11D0607814280CD0207928702F712946BDF8100068806088D7
:20CD0C00FBF773FA08B1012601E0162F0AD160882B46F2B21621FFF789FC18B1F1B228463E
:20CD2C00FFF71EFD2046FFF7B8FB9DF8120006B0BDE8F08120890DF11601FEF766BF2DE966
:20CD4C00FA47044686B06088DFF8DC57FBF70AFE80460DF1120000F0D4F8002781464FF05B
:20CD6C00FF0AB9F1000F5BD009E0BDF810304354BDF81000696892B2000A8854571CBFB2A1
:20CD8C00A8F1050087424BDA207903900026A8F1070080B20290019605F11A0000902B6A79
:20CDAC00BDF812206088494600F0CCFB002802BF6A8B208A904214D1296A60690BF0ACFC14
:20CDCC0078B1686858B900F055F90721FFF78CFC686020B9069920890880112030E0B9F8F6
:20CDEC000A60BDF81220618904AB4846FEF733FF002E8146B5D06868C655781C6A6880B28B
:20CE0C0031121154411C4A1C6868B9F1000F89B2ABD100F801A092B2686800F802A0571CA1
:20CE2C00B8B248B13F04B80C288029466088FBF709FA28B1162003E00699208908800A209C
:20CE4C0008B0BDE8F0872DE9F043044685B0608888469146FBF786FD851EADB2DFF8C87611
:20CE6C0001E0401C2081A81E398988422FDB5FEA08002CD104A800F044F8060027D0708950
:20CE8C002081BDF81020317A6088FEF711FE5FEA00081CD120793B6ABDF8102003903146FE
:20CEAC00A81E80B200F0EBF800F0E2F85FEA00080DD173897A8B396A608800F02AF85FEABB
:20CECC00000804D120894FF6FF718842C9D1388901000AD0798890FBF1F03880394660887F
:20CEEC00FBF7C0F950B1162008E05FEA08002089A9F8000008BF4FF00A08404605B0BDE8C9
:20CF0C00F0830090237B6189208904F10D02FEF74DBE2DE9F8468246894615461E46FBF731
:20CF2C0021FDDFF804460746208990B900F0A3F809215046FFF7D8FB606008B9112023E09E
:20CF4C00A81C60803A1F208901466B189A4206D203E06088A91C8842F4D0012014E0401C12
:20CF6C002081606846542089411C2181310A62681154606823892A46494618440BF046FB85
:20CF8C002089281820810020BDE8F2862DE9F047044686B06088DFF890750D46FBF7E2FC0A
:20CFAC000026A0F10109A0F1010814E03888798B0346C9188845BCBFA9EB00007883786871
:20CFCC007A8B396A18440BF021FB3888798B0818761C3880B6B2A0898642BCBF38884045E3
:20CFEC0034DAA06810F8162000EB460004A9407802EB002080B2FEF708FE010009D14FF0E7
:20D00C00010A00F02BF8786808B10BF0D2FA5046DDE02079BDF8102003901FFA89F000F0A0
:20D02C002EF83B6A00F024F800288246E9D178680028BBD100F01EF80F21FFF755FB00282B
:20D04C007860B3D100F00AF81120E1E760883946FBF73AF90028DBD01620D9E7A06810F818
:20D06C00161000EB4600407801EB002028807047608867E2608800234FF6FF7270470290EF
:20D08C000020019007F11A00009070472DE9F047044686B06088DFF890548946FBF762FCEB
:20D0AC00059004F10D0204A80090237B61892089FEF77CFD0026B24607464FF0FF0810E04F
:20D0CC00696801F8068080B2696801F80080461C68686A8B296AB6B280190BF097FA688B3E
:20D0EC008619B6B2FFB1BDF81020397A6088FEF7DFFC5FEA000A13D12079BDF810200390D5
:20D10C0039460598801F80B202900020019005F11A0000902B6AFFF7ABFF5FEA000A10D0CB
:20D12C007889A9F80000002E48D0688896FBF0F0288029466088FBF7D6F8002847D0162066
:20D14C0045E07EB9FFF796FF1121FFF7CDFA686020B97889A9F80000112038E0688B001D51
:20D16C00688009E0688B6988021D9142DDD10599891F80198142D8DB696878898855798948
:20D18C006A68701C80B2090A1154461CBDF8102061890DF112033846FEF75DFD0746701C91
:20D1AC00002FB6B28CD06A68BDF81210915580B2BDF812106A68090A115488E75FEA0A00CC
:20D1CC002089A9F8000008BF4FF00A0A504606B0BDE8F087FEB504460D462089164602A977
:20D1EC00FEF713FD07002ED0387A80060BD5BDF8080000F0A1F903000BD060881222394641
:20D20C009847070020D1607C002814BF5220207901E00E2718E00190002000906389E268C4
:20D22C002189608800F08AFA070007D1607C68B96088FBF769F848B11620FEBD162F03D1C2
:20D24C000027377002E0012720892880607C00B100273846FEBD2DE9F041044682B00D4696
:20D26C0060889046012101F04EF9002718B9142060700E205BE020896946FEF7C6FC060010
:20D28C0051D0307A80060BD5BDF8000000F054F9030013D06088122231469847070043D1EC
:20D2AC006688304600F008F928B94FF6FF7000F003F9A0B3068000219B4E02E00E2733E07F
:20D2CC00491C737ECAB29A4229D24268C9B20C234B4313441A88002AF2D10C2204F10801A5
:20D2EC0018460BF093F9002088F800000C2204F1080130460BF08AF9A2896088002317210F
:20D30C00FFF7F2F9B06060B1A28921690BF07EF960883146FAF7FEFF40B1162007E009274D
:20D32C0002E0112700E00127208928803846BDE8F6812DE9F043044683B06088894600F067
:20D34C00BBF800265FEA00084CD0207A012845D1414604F1080000F051F8A0B1D8F8047050
:20D36C001820019078880090BB88BA683988608800F0E4F90646162E02D10020B8602DE0C5
:20D38C0060B3388828E000270EE0019068880090AB88AA68608800F0D1F90646162E18D120
:20D3AC000020A8607F1CFFB25F48407E874215DAD8F804100C227A430A44154629880B009C
:20D3CC000CD07B1C83421DBF9089002816201820DBE7002EE6D02888A9F80000404600F011
:20D3EC0080F82EB96088FAF7A2FF20B1162003E0162E08BF00263046BDE8FE832DE9F84F34
:20D40C000C460020002700264FF00C0B46490DE0984202BFBCF8025093B2AB4224D1BCF8F3
:20D42C000430DF19BFB29A1892B2761C4B7E9E420FDA63680BFB06FC9C44BCF8003043B19E
:20D44C000028E5D1BCF80470BCF802201846BA18EAE7022E2DDB38004FF0000904D00BF05C
:20D46C008FF85FEA000801D1002023E0CA461AE00BFB0AF14518A96859B1AA8808EB090022
:20D48C000BF0C4F8A88848441FFA80F9A8680BF090F8BAF1000F04D00C22002128460BF0A2
:20D4AC00B3F80AF1010AB2456068E1DBC0F8088087800120BDE8F28F10B51B4AD269002120
:20D4CC0000E0491C194C2478CBB2A34207D2C9B232F831308342F4D102EBC10010BD002094
:20D4EC0010BD70B5044600250BE0B06808B10BF060F80C22002130460BF086F800203080A2
:20D50C006D1C0949497EE8B2884207D26068EDB20C216943461830880028E6D14FF6FF7037
:20D52C00208070BD2646002098430020F4430020F5D70000BC43002080B5FFF7F3FA00B180
:20D54C00806802BD2DE9FE4F0D468046287AC00693461E464FF0000A0CD55846FFF7ECFF4E
:20D56C00030000F0E4800A222946404698470028824649D128780C9F0D9CDDF83890022883
:20D58C0016D100F018F94FF42051401A012810D9801E3AD0401E14D0FD3876D0401E00F0C4
:20D5AC007D80401E6AD0401E6FD0401E00F09180A7E0002C2AD1E86801783980027841687B
:20D5CC0083E0002C22D1012038800021E868007830706889401C80B2FEF717FB398860B103
:20D5EC000278921C51183980418971704189090AB17002784168F01C68E0081D38800422B2
:20D60C000021701C0BF000F893E0002C62D1E8680488042038803470200A70700DF1020125
:20D62C002046FEF7F2FA05001ED0EC68BDF802204FF6FF786B464146FEF70DFB40B92B78EC
:20D64C006A688C480221FBF71DF908B9ADF80080207802280AD161680222301D0AF0D6FF61
:20D66C003888801C388001E0ADF80040BDF80000B070BDF80000000AF0705AE054BBE86837
:20D68C00016840460EF039FE02E01CBBE8680088022139803070000A70704AE0E8680BF0EE
:20D6AC0002FB82B2A242B8BF4FF0070A41DB944208BF002206D009EB04019142B2BF4A4604
:20D6CC00121B92B23A80E968214430460AF09EFF2FE014B14FF00B0A2BE0E86807213980EC
:20D6EC0001783170417871704188B1704188090AF17001793171C1887171C088000AB07189
:20D70C0017E05846FFF70EFA00281CBFD0F800C0BCF1000F0BD00F980290CDF80490009422
:20D72C003B46324629464046E047824601E04FF00E0A5046BDE8FE8F304600202DE9FE4313
:20D74C008046894617461E4602A94846FEF75DFA05002CD0BDF80800FFF7E4F900281CBF4E
:20D76C00D0F804C0BCF1000F1FD00A980B9C0090019433463A4629464046E0470646B8B926
:20D78C00FE2C15D02878022812D100F014F842F6021188420CD13878797800EB012082B2F2
:20D7AC004946404600F04AF802E00E2600E001263046BDE8FE8368680178407801EB002050
:20D7CC0080B27047704700207047E0B58DF808200223120A8DF80920FE220192002200922E
:20D7EC0002AAFFF7ABFF0EBD7CB50129044605D0022922D1012100F086FEF0B92046FFF7D3
:20D80C005BFE08B1FFF76DFE01A800904FF6FF750223194A29460120FEF7C8F90BE0F06886
:20D82C00016820460EF071FDBDF80420002329463046FEF710FA0600F1D173BDF8B50F4FBE
:20D84C0004463878FF280D46164611D00A200AF0E9FE68B1B121017044800021417001719C
:20D86C00C580068101463878BDE8F4400AF0C5BFF1BD000078C800008CC8000026460020B4
:20D88C000A4610B5052A18BF042A03D0062A18BF072A08D10C24514B62431A4422F8301D19
:20D8AC009070002010BD022010BD38B50D4604462888052818BF042803D0062818BF07280F
:20D8CC0001D1686808B9022032BD0121204600F01AFE08B9142032BD4FF6FE70844207D004
:20D8EC00204600F04CFE2989884201D21B2032BD3B48007800282946204603D0BDE834401F
:20D90C0000F094BABDE8344000F046BA80B5354B009313460A4601212CE0E0B5019200234A
:20D92C000522009202930A462F4B0A2100F0CAF90EBD70B50D4684B004461646EB88AA8823
:20D94C006988288803F01CFE58B1002002900196042000902A46254B1221204600F0B2F9F3
:20D96C0000E0182004B070BD80B5214B009313460A46132100F0D8F902BD38B504461D4875
:20D98C000129017011D11C480088051DADB201200EF004FD94FBF5F082B2284601B0BDE805
:20D9AC003040002300210EF0FDBCBDE8324000200EF0F4BC03B50F480078012881B003D156
:20D9CC0002AA01A90EF0F2FC07BD0B4A001F1080034801707047084800887047C04300200C
:20D9EC004246002039DF000029E00000B7DF00001DE000007B43002048460020704700007C
:20DA0C0010B59D4C207000F099FC302200219B480AF0FAFD9A4960780978081860700006BE
:20DA2C00000D0EF010FB606088B161780A0100210AF0EAFD00206278C1B2914208D2616802
:20DA4C00C0B201EB0011FF224A72401CF3E76070207809F0D6FBBDE810400FF2292000F0D7
:20DA6C0094BC30B50C46200489B0834D0CD528780AF022FE050004D000F02AF828460AF0F8
:20DA8C00E6FD84F4004021E0E0071ED500F097F930B1A878B0B1287801210AF0F1FE11E086
:20DAAC00A97808001CBFE878FF280BD08DF80810652302A901910022002100914FF6FF7109
:20DACC0000F035FB84F0010000E0002009B030BD3EB504462078902849D16078132815D15F
:20DAEC000020654A06E0A368C0B233F8103059189170401CA5789178C3B2AB42F3D3002938
:20DB0C0035D0107801210AF0BBFE37BD65882146684600F0E0F90199F9B1BDF800000528B2
:20DB2C0004D16946284600F026F818E004281CBF0628072813D10C2250495043084430F8CB
:20DB4C00301D61B180786A46294600F0CEFA30B9BDF8000004280AD005E0012803D1A068FD
:20DB6C0008B10AF026FD01212846FFF723FF37BD4149C8707047F0B50E4689B00446308979
:20DB8C000025042844DB716802A800F091F8BDF80A20182A63DA3189101D814235D19DF86A
:20DBAC000800C00736D57068071D9DF8090000F015FB06002CD035719DF8080001280BD09C
:20DBCC00132821D13078042822D1BDF80A20394603A800F01EFA05E0BDF80A20394603A846
:20DBEC0000F0C3F90546304600F017FB03A80190002000902A469DF80830307A214600F080
:20DC0C0096FA304600F0E3FA15B1204600F033FB09B0F0BD9DF80800122817D17068011DC0
:20DC2C0003A800F0D8F90500EED1144881890029EAD003A9019100229DF809109DF8083084
:20DC4C00807B0091214600F072FADDE79DF80910ADF800506A462046FFF758FED4E70120C4
:20DC6C00ADF800001720ADF802006A469DF809102046FFF74BFECBE740460020C043002097
:20DC8C00F443002010B504464FF6FE7084420ED0012906D002290AD10121204600F033FC0E
:20DCAC0028B92046BDE81040002100F0E5BA10BD0A7802704A7842708A78C97802EB0121E5
:20DCCC00418070472DE9FC410D4616461F460A9A0999044601AB00F051FA804608BB0199BF
:20DCEC00089808703346DFF818060178491CCAB2002A06BF012101220A460170294601983B
:20DD0C000271009701980279204600F00DF8804620B901981E2100F076FA02E0019800F03C
:20DD2C0056FA4046BDE8F6812DE9F041044684B00E4617469846172000F0F0FA050026D085
:20DD4C000A9A100003D04146281D904700E00020010A2E70E9706F70A8700521001DADF8AC
:20DD6C000800ADF8001001956946DFF8980500780028204602D000F059F801E000F00CF833
:20DD8C000446200004D028460AF013FC00E01324204604B0BDE8F08110B50B88DFF86825BF
:20DDAC000C2463431A44303A536833B94B685360098950811181002010BD162010BD80B592
:20DDCC00052000F00FF858B9062000F00BF838B9042000F007F818B9072000F003F800B159
:20DDEC00012002BD0C2210B5DFF81C1542431144A1F1300484B06168A9B1DFF808251278B7
:20DE0C007AB1ADF80000019169462089ADF80800608900F00BF810B160680AF0CAFB00204B
:20DE2C006060012000E0002004B010BD70B50D4604462889010004D0DFF8D014098881421D
:20DE4C0001D21B2070BD686804210AF085FB0646288930702889000A70702888B070288854
:20DE6C00000AF0702889051D4FF6FE70844213D10C200AF0D7FB01000CD0902008704C8033
:20DE8C0002200871CD808E60DFF8840400780AF0B4FC18E0132070BD3346AAB2002120466B
:20DEAC000EF088FA010007D002280ED0072810D012280CD01F280DD1DFF8480401780A0006
:20DECC001CBF491E0170002070BD142070BD022070BD042070BD38B504460020606008799D
:20DEEC00022821D1CA88042A1EDB886801784378C57801EB0321837889B203EB05230D1D9A
:20DF0C0095429BB210D1052B18BF042B03D0062B18BF072B08D1218123806FF003010AF032
:20DF2C001BFB6060002032BD012032BD0B88037002220B881B0A43700B88012B06D14A88E3
:20DF4C00827004224988090AC1700CE0022B0AD14A8882704A88120AC2708A880271062203
:20DF6C008988090A417110467047022A1BDB0A784B7802EB032202800288012A05D18A782A
:20DF8C00C97802EB012141800BE0022A09D18A78CB7802EB032242800A79497902EB012106
:20DFAC00818000207047012070470A8802700A88120A42704A8882704A88120AC2708A884B
:20DFCC0002718A88120A4271CA888271C988090AC17108207047082A18D10A784B7802EBDA
:20DFEC000322028011F8022F4B7802EB0322428011F8022F4B7802EB0322828011F8022F52
:20E00C00497802EB0121C180002070470120704705E0022A00D10EE00120704700BF0A883B
:20E02C0002700988090A417002207047022A00D101E0012070470A78497802EB01210180AB
:20E04C000020704780B54B8800F8013B04224B881B0A00F8013B0B8800F8013B0B881B0AD0
:20E06C0000F8013B0B8873B94B88022B04D149680AF058FE082206E0032B04D10822091D68
:20E08C000AF0C4FA0C22104602BD10B50446042A084628DB0178437801EB0321618010F8BE
:20E0AC00021F437801EB03212180801C21880B0013D16188022906D1082A14D104210AF072
:20E0CC0018FE60600DE0032908BF0C2A0BD101460822201D0AF09AFA03E0012908BF042A2E
:20E0EC0001D1002010BD012010BDF8B504460D46164610200AF096FA070016D0A0203870B2
:20E10C007D80002078702EB10C223146381D0AF07DFA04E00C220021381D0AF075FA394634
:20E12C0020460AF06AFB0020F2BD0120F2BD2DE9F04180460D4616461F4620200AF072FAA8
:20E14C00040019D0A220207066706580069820716771079929B1182204F108000AF056FAB7
:20E16C0004E0182204F108000AF04EFA21464046BDE8F0410AF041BBBDE8F08170B51E0024
:20E18C0004460D4621D0012100F0BDF9D8B161480078002100E0491CC9B2814211DA5E4B3B
:20E1AC001B6803EB01125388002BF4D10020107001F14000508022B1D48015723260002002
:20E1CC0070BD152070BD142070BD012070BD10B50446102200210AF017FA23E0002200E083
:20E1EC00521C4C4909788A420BDA4B49096801EB02114B88002BF3D00B798342F0D10846C1
:20E20C007047002070474FF47A724A4300F1090301460FF219000AF0BABE10B50446607AEF
:20E22C000AF049FEFF20607210BD000010B504001CBF6088002807D01721204600F005F8BD
:20E24C002046BDE81040C2E710BD1CB50446207804280FD10020019000900A46E188207A8E
:20E26C001323FFF764FFE18802B0BDE81040122205202EE013BD072170B50446002539BB0C
:20E28C0018E025480068EDB200EB0516307800281CBF707AFF280CD0F088A04209D13046BE
:20E2AC00FFF7BBFF14213046FFF7CFFF3046FFF78EFF6D1C17490978E8B28842E1D304258F
:20E2CC00FF222146284600F004F86D1C082DF7DB70BD10B50C240C4B60431844A0F1300483
:20E2EC00608988420AD1606840B1FF2A1CBF0178914203D10AF05DF90020606010BD0000AA
:20E30C00F043002042460020C04300204846002040460020414600204446002080B5001DDC
:20E32C0080B20EF04BF828B1BDE804406FF003010AF012B902BD70470020704738B5B94C35
:20E34C0000220021204606F0F1FB2078302568430DF079FE6060B8B100210AE005FB01F2F3
:20E36C0002444FF6FF735380491C00231371D362C9B222789142F1DB0020002104EB80021A
:20E38C00401C0C289160F9DB31BD0021A54A02EB8102936813B9906000207047491CC9B240
:20E3AC000C29F3DB132070472DE9F04106460C4617469846204600F078F808B1112024E090
:20E3CC004FF6FF7000F071F805001DD085F8058006220699A81D0AF019F90622002105F159
:20E3EC000C000AF011F96C802F712E700020E86200210898A8740998A8820A98E882204653
:20E40C0000F0FFF8002000E01520BDE8F08110B500F04BF8040012D06088012100F0F1F8FD
:20E42C00E06A08B10DF011FE3022002120460AF0EBF84FF6FF7060800020207110BD0220D7
:20E44C0010BD38B50C46154600F02FF858B10179002D14BF2143A14301710221408800F01A
:20E46C00D0F8002032BD152032BD38B50C4600F01CF8050017D0287920700622687960705C
:20E48C00A91DA01C0AF0C2F8062205F10C0104F108000AF0BBF8A87CA073A88A2082E88AE8
:20E4AC006082002032BD012032BD10B500225D4B00E0521C1C78D1B2A14209D25968D2B258
:20E4CC003024544321444C888442F2D1084610BD002010BDF0B5534B5C6800224FF6FF7797
:20E4EC0000E0521C19788A420BDA302101FB02F561194E88BE42F4D0655D8542F1D108468F
:20E50C00F0BD0020F0BD10B50C464FF6FE71884206D0FFF7CAFF00281CBF0079204201D09C
:20E52C00012010BD002010BD80B5FFF7BEFF00B1807C02BD10B5002000213A4A08E0536873
:20E54C00C9B230244C4323441B7903B1401C491C1478CBB2A342F2D3C0B210BD31480078FE
:20E56C00704710B50C46FFF7A0FF00281CBFC18AA14202D0C482002010BD012010BD80B5D3
:20E58C00FFF793FF00B1C08A02BD70B505460C461646FFF78AFF28B94FF6FE70854218D04D
:20E5AC00142070BD0179C06A28B9CA0609D5C90609D40F2070BD01F01202102AF7D1002E7E
:20E5CC00F5D0052070BD20B1807EA04201D20C2070BD002070BD70B5040011D00026114D60
:20E5EC000BE068683021714308444FF6FF724188914218BFA047761CF6B228788642F0DB86
:20E60C0070BD70B504460D460026064800EB86008268100002D0294620469047761C0C2ED6
:20E62C00F3DB70BDF443002080B5DFF87405007800074CBFDFF86C05002000F08FFE002068
:20E64C0002BDDFF86405006800B9704780B5017891B1417811290FD1C16D69B18A7E009232
:20E66C0001F112030A8AC08800F007F820B1BDE80240082001F05AB901BD70B504460D009E
:20E68C0088B01E4608BF022020D0100A8DF800208DF801001022002103A809F0B5FF0C9A63
:20E6AC00294603A809F0B2FF2EB10822314601A809F0ACFF04E00822002101A809F0A4FF49
:20E6CC0003AB6A4601A920460DF07CFE08B070BDF0B5DFF8D4640746306889B01546002413
:20E6EC0058B90B2912D1284600F0BBFB034679883878BA1DFBF7F7F8D2E0C2887B889A4245
:20E70C0018BF082002D102780AB90720CEE0891E09295BD8DFE801F0050A15C6445C7A8DB4
:20E72C00ADC4284600F0C8F80446BEE010222946383009F06BFF00F0BEFF00B1082405203B
:20E74C0074E010222946483009F060FF306800F1480105AA083000F005FF306800F1380179
:20E76C00102205A809F0D8FF012817D1306800F1280200F1480101AB083000F03DFB50B9CB
:20E78C0001F0ECF8009000233068C088002201A9FFF773FF00B10824062047E0042484E01B
:20E7AC004178072912D1C06D20B91C200DF04BFC3168C8653068C06D40B100F079F801F02D
:20E7CC00CDF83168C96D887608202FE007246CE0C36D002BFAD040780828F7D128881882CE
:20E7EC000822A91C03F1120009F010FF3068816ED1F89810C1F34002002A1FBFC26ED268B0
:20E80C00C2F34002002A27D0092130E041780929DCD1006E20B917200DF015FC316808666F
:20E82C003068006E08B100F043F80A20316848703BE041780A29C9D1006E0622691C11306A
:20E84C0009F0E4FE31682878096E40F0020008743068816ED1F89810C1F3800100291FBF3F
:20E86C00C16EC968C1F38001002916D00B2141701BE0406E38B914200DF0E5FB3168486619
:20E88C0008B9082411E03068406E30B100F010F83168496E4FF0FF30086100F06FF804E00D
:20E8AC00002003E0287801F041F8204609B0F0BD1022294609F0AABE38B500F011FF0024A0
:20E8CC0000284ED1B84D2868816E91F89510C90709D5C16E097901F00301012903D1C178A8
:20E8EC0041F00101C17028680179022903D0032903D004290CD1012100E00221C088002208
:20E90C00FBF710FA00F034F80320296848702DE0012918BF052929D102214170102228689B
