:20000000483F0020A996000001CA011001CA011001CA011001CA011001CA011001CA0110D2
:1C00200001CA011001CA011001CA011001CA011001CA011001CA01103FCA011082
:20003C009EB524482249244A34300860234917880968D7B1224A1268114216D0214A126838
:20005C00114204D1204A1268128811420DD01F4A4FF489771468009709A301931C4F1D4BDC
:20007C00029018683A8801A3A0479EBD627574746F6E5F736572766963652E6300C046C067
:20009C00526567697374657265642063616C6C6261636B7320746F206170706C6963617405
:2000BC00696F6E2E2053747275637420257000C00C150020C00700205ADB0000C4DB00009A
:2000DC00400500003C05000044050000D8DB000084050000E0DB0000014908607047C046CF
:0400FC00B825002003
:200100003C000000000000000000000034010000000000000000000001000000000000006D
:1C01200000000000000000000000000001000000000000000800000000000000BA
:20013C00340000000000000000000000680100000000000000000000010000000000000005
:14015C00010000000000000000000000080000000000000086
:2001700030000000000000000000000098010000040000000000000001000000FFFFFFFFA5
:10019000FF00000001000000080000000000000057
:2001A0002C0000000000000000000000C4010000040000000000000001000000FFFFFFFF4D
:0C01C000FFFFFFFF08000000000000002F
:2001CC0034050000E401000099A1011095A70110A5C2011009B2011045B80110000000000B
:0801EC00000000002E000000DD
:2001F400280000000000000000000000140200000000000000000000FFFFFFFF00000000B1
:080214000800000000000000DA
:20021C00300500003002000069C201106DC101101FC2011095BA011000000000000000008E
:04023C002C00000092
:20024000300500005402000075C20110A9B601109DBF011049B601100000000000000000DE
:040260002D0000006D
:200264002400000000000000000000008002000000000000000000000000000008000000CC
:040284000000000076
:20028800240000000000000000000000A40200000000000000000000000000000800000084
:0402A8000000000052
:2002AC00240000000000000000000000C8020000000000000100000000000000080000003B
:0402CC00000000002E
:2002D00000000000DC1200200400000000000000000000002000000070010000300000003B
:2002F0001C020000081300200400000000000000000000000C000000300400001800000039
:200310004002000014130020040000000000000000000000240000004804000018000000B8
:20033000000000001C13002004000000000000000000000010000000A00100002C0000007D
:20035000CC01000024130020040000000000000000000000200000006402000024000000BB
:20037000FFFFFFFF4413002004000000000000000000000028000000880200002400000020
:20039000FFFFFFFF74130020040000000000000000000000580000003C01000034000000DD
:2003B000FFFFFFFF7C130020040000000000000000000000100000006004000018000000F2
:2003D000FFFFFFFF841300200400000000000000000000001C000000AC0200002400000068
:2003F000FFFFFFFF8C13002004000000000000000000000038000000F401000028000000D9
:20041000FFFFFFFF9413002004000000000000000000000054000000000100003C00000074
:1804300018000000000000000000000040040000080000000000000050
:1804480018000000000000000000000058040000080000000000000020
:18046000180000000000000000000000700400000800000000000000F0
:0804780002000000A0DB0000FF
:040480000BF011BCB0
:040484000100000073
:0404880000008C0FD5
:04048C000000BC0FA1
:040490003200000036
:040494000100000063
:04049800E41200204A
:04049C00000200005A
:0404A0000000000058
:0404A40001CA011078
:0404A8000000000050
:0404AC00000000004C
:0404B0000800000040
:0404B40000007612BC
:0404B800D01600203A
:0404BC00010000003B
:0404C0002C130020D9
:0404C400080000002C
:0404C8000000000030
:0404CC00000000002C
:0404D0000000000028
:0404D4000000000024
:0404D8000000000020
:0404DC00010000001B
:0404E00038170020A9
:0404E400060000000E
:0404E800010000000F
:0404EC00381600209E
:0404F0000000000008
:0404F4000000000004
:0404F80000020000FE
:0404FC0000000000FC
:02050000704742
:020502002800CF
:020504000100F4
:020506002400CF
:020508002C00C5
:02050A002D00C2
:02050C002E00BF
:02050E000100EA
:0105100001E9
:08051400030000008CDB000075
:08051C000000000000000000D7
:040524000000930D33
:040528000000AD0D15
:04052C0087C401106F
:04053000380500008A
:040534003805000086
:0405380000000000BF
:04053C0090610000CA
:0405400090610000C6
:0405440000000000B3
:040548002C13002050
:04054C009DB8000056
:040550002000000087
:0405540004DB0000C4
:04055800D4D90000F2
:04055C000DC30110BA
:0405600097AB000055
:040564000FAE0000D6
:0405680099C801101D
:04056C009BC8011017
:040570000000000087
:040574009CBE000029
:04057800D8D70000D0
:04057C00F0D70000B4
:04058000C0D70000E0
:020584000280F3
:020586000380F0
:02058800C0179A
:02058A0001006E
:01058C00016D
:040590000000000067
:040594000000000063
:04059800000000005F
:04059C00000000005B
:0405A00027BD000073
:0405A4009D9E000018
:0405A80029AD000079
:0405AC002DA6000078
:0405B000BBA30000E9
:0405B4005DA6000040
:0405B8009D8600001C
:0405BC00BBBA0000C6
:0405C000918900001D
:0405C40011C8011049
:0405C80021C8011035
:0405CC000800000023
:0405D0002400000003
:0405D400180000000B
:0405D80028000000F7
:0405DC0020000000FB
:0405E0003C000000DB
:0405E4000C00000007
:0405E80034000000DB
:2005EC002DE9F04FADF1940D0AF0F8FA8548DFF828B2016884480FF2FC1805882391DDB1D8
:20060C0082480068014217D081480068014204D180480068008801420ED0584604684FF403
:20062C00BC77B7A600230097C64F0196C44E02933A8830684346A047C34C4FF0000A04F1FA
:20064C0044065146C4F81CA030460BF01DFC04F15C0004F16801E66006F034FEDFF8EC9239
:20066C00A06100BB48460168DDB168480068014217D067480068014204D16648006800881E
:20068C0001420ED05846066840F28917C5A30097AC4F0193AA4BCDF808A03A881868434694
:2006AC00B0470BF0EDFB04F1500004F1740106F009FE2146486110BB48460168DDB15348AD
:2006CC000068014217D052480068014204D151480068008801420ED05846066840F28F17D4
:2006EC00B9A30097974F0193954BCDF808A03A8818684346B0470BF0C3FB20464069CF4992
:20070C000BF02CFA00B348460168DDB13F480068014217D03E480068014204D13D48006868
:20072C00008801420ED05846066840F29517AEA30097844F0193824BCDF808A03A8818684F
:20074C004346B0470BF09CFB06A85146242208230BF092FBBB4F4FF47A7932260D20B84977
:20076C003A680C9006AB04F1D800B9FBF2F292B272430BF07DFB39680E2006ABB9FBF1F197
:20078C0089B24E43AE490C9004F1FC0032460BF06FFB0126ADF80EA040F2053003AA8DF80D
:2007AC000C60314602F090F940F2063002210DF10E0202F089F9621C4FF44270314602F0E6
:2007CC0083F904F1900740F2073013213A4602F07BF9239F002D32D00C48006807422ED08E
:2007EC000B480068074219D10A4800680088074225D013E070726F6A6563745F7A65726F76
:20080C002E6300C0C4DB00005ADB0000400500003C05000044050000D8DB000008F06AFEC5
:20082C0040F2C71559467BA30C68009545490193434D02900A88286843463946A04706205D
:20084C00A02109F093FB0720A02109F08FFB0820A02109F08BFB0920A02109F087FB304696
:20086C001E2109F083FBCDF810A034468DF816A04FF481608DF8144004218DF8154004AAE2
:20088C008DF8174009F058FB4FF48060314605AA09F052FB40F2024031460DF1150209F09C
:2008AC004BFB40F2034031460DF1160209F044FB40F2064031460DF1170209F03DFB0BF07A
:2008CC00D7F9FFF7D7FD0AF073FF0BF00FF91E48007806F077FA05F0F1FB05F06FFE06F085
:2008EC0067F9FFF7A5FB06F0BDF90FA85146282207F02EF9544919A8282206F0AFFB27E045
:20090C00496E697469616C697A696E67207468652075736572207461736B2C2068617264E2
:20092C00776172652C20424C4520737461636B20616E642073657276696365732E00C0469C
:20094C00E0DB000084050000C0070020C0DB0000504631460FAA02F021FD304631460FAA49
:20096C0002F01CFD504631460FAA00F061FF304631460FAA00F05CFF5046282119AA00F0C7
:20098C0019FC304614210FAA00F014FC0AF03CFD09F034FF0BF051F90BF053F925B0BDE86D
:2009AC00F08FC0464572726F7220696E697469616C697A696E6720626F617264204C454454
:2009CC002070696E7300C0464572726F7220696E697469616C697A696E6720627574746FA8
:2009EC006E2070696E7300C04572726F72207265676973746572696E6720627574746F6E5A
:200A0C002063616C6C6261636B2066756E6374696F6E00C04E616D6520696E2061647665FF
:200A2C007274446174612061727261793A201B5B33336D25731B5B306D00C046A9610000AD
:200A4C00F1820000B4DB000059D800002DE9F04F09AFADF13C0D00240FF2F018DFF8FCB1B2
:200A6C00DFF800A208903D880B9338790A92DFF8F8910C90FF200E9008780991022809D1D2
:200A8C000846594640680F88008842F60216864200F0EC80099808F067FA5946DFF8C0B141
:200AAC0006469AA0002E0F880D963ED0761E1FD058460168D7B1A6480068014216D0A548B0
:200ACC000068014204D1A4480068008801420DD0A44840F22927A5A605680097A04B01964F
:200AEC009E4F02941A8838684346A8470A200AE14A465146002F4FF014090968079202F1E9
:200B0C00040A3DD0924A1268114239D0914A1268114204D1904A12681288114230D0924A62
:200B2C0016684FF4097398A21AE04A4651464FF028090968079202F1020A0FB3844A12688E
:200B4C0011421DD0834A1268114204D1824A12681288114214D0844A166840F216238CA2DE
:200B6C00009301900292089803900B9B049305950C987B4B06901A88784B18684346B04742
:200B8C00A9452FDD0B9E7619B1451FDA58460168D7B16F480068014216D06E4800680142F0
:200BAC0004D16D480068008801420DD06D484FF40D7779A306680097694F0193674B02945E
:200BCC003A8818684346B0470D242AE009980A990B9AC068281806F041FAAAF800600D98E3
:200BEC000E901EE058460168D7B159480068014216D058480068014204D1574800680088DD
:200C0C0001420DD0574840F22F276CA306680097534F0193514B02943A8818684346B04743
:200C2C0007240E98FF280ED00798806858B107684FB10B980D9A0A9B2D18A8B20090089815
:200C4C0041F23011B84720465DE0C046646174615F736572766963652E6300C05ADB0000FC
:200C6C00C0DB0000C4DB0000C013002051460868002F82462BD0364800681AEA000F26D053
:200C8C00344800681AEA000F05D13348006800881AEA000F1BD00C98FE280CBF50A757A788
:200CAC00099808F061F9304940F2FB130E68009355A201920290089803900497284905947F
:200CCC00264B06940A88186851464346B04708980B9B09990A9A009508F00EFB4A460832E8
:200CEC001768061C0ED16FB1786858B1099808F03BF902460B980A9B00907C68089841F2BB
:200D0C003011A047F0B20FB0BDE8F08F5772697465417474724342203A20257320636F6E7D
:200D2C006E48616E646C6528256429206C656E28256429206F666673657428256429206DCC
:200D4C006574686F64283078253032782900C046400500003C05000044050000E0DB0000EB
:200D6C0084050000D8DB0000DCDB000041747472696275746520776173206E6F7420666FEF
:200D8C00756E642E00C046C053747265616D00C0537472696E6700C0496E76616C696420C2
:200DAC0076616C7565206C656E677468207761732072656365697665642E00C0416E206970
:200DCC006E76616C6964206F666673657420776173207265717565737465642E00C046C091
:200DEC002D20726573746F72696E6720626F6E64656420737461746500C046C02D204F543A
:200E0C0041207772697465005772697465417474724342202843434344293A207061726193
:200E2C006D3A20256420636F6E6E48616E646C653A202564202573002DE9FE4FB84C0F46E5
:200E4C000646F80B80F04781B80880F0D480B54DDFF8D892DFF8E0B2DFF8E882DFF8F4A221
:200E6C002C68B80F67D2B0480678002E47D1380947D3AF4801264946067000240C70204692
:200E8C0006F087F9AB48FFF72FF9AC49224658460AF030FFAA48017801291CD141460B780F
:200EAC00CBB9A94E306880B10AF08CFC2B68A8493668A64D0A68C01A000B82182860B2EB35
:200ECC00C61F28BF0C6007D20A60A4484FF000510AF01EFC2CE00670504640F60901018022
:200EEC00417B01F0F00141F0010141734480017B01F0F00101734460974E306018E0390978
:200F0C0014D2B80BC0F004819D48001D0AF0FDFE061C08D0706830B17468F068B6F91C102E
:200F2C0098A20CCAA04727F40057F1E00021017027F00807ECE0ECB104200AF089F9C8B131
:200F4C000AF040FC864A29681060814226BF401A401E401A000BF060F06800F58D70F060CF
:200F6C00F16840F6C410884203D340F2EE228A4200D9F0600024D6F818C02C60BCF1000F19
:200F8C0010D050460D30007810F00F0F0AD1708C40F60901814205D17CA20CCA30466FF47F
:200FAC008071E0476F49584622460AF0A3FE4546287850B10220ADF8000068460AF022F8FF
:200FCC002C70BDF808006849088049460120674A674B087010781C70401C107019200AF0C5
:200FEC00C5FC756925B16BA20CCA30462146A84727F000578CE004F10C0A50460AF085FEC9
:20100C00061C5FD008F07CFF7368B2690025B561E3B1F37F42F002024FF00009904603F082
:20102C0007035B1E07D05B1E03D09B1E06D15BA002E05CA000E05DA090E800037268F0680B
:20104C00B6F91C104B4694464246E0470AF00CFF8046B4F91200401C6FF31F306082E068CE
:20106C001F30017801F07F01017050460AF0D4FA40460AF0F5FEF068B0F99410B4F9122065
:20108C0091421FD13B49097801291BD090F896409CB904688CB1384909680968B1F1FF3FC8
:2010AC0010D0364909687030B4FBF1F10AF0D4FEF06870300AF0CCFE04E080F896502846EB
:2010CC0007F0B4FA50460AF020FE27F0020708B147F002071CE00AF0C7FE014620460830F8
:2010EC000AF013FE0646B46908460AF0B9FEA0080CD25EB17068B169A143B16130B1756836
:20110C00F068B6F91C1000232246A84727F480471FB1124839460AF0FBFABDE8FE8FC04664
:20112C0060250020A8250020CB250020C7250020C5250020917E000014250020A1AE000034
:20114C00C9250020C4250020A4250020B0250020A025002074250020001004401024002048
:20116C00AC2500202D550000D8240020CD250020C6250020FC170020B4250020B4DB0000FC
:20118C00602500200000000020000000000000000000000200000000000000040000000078
:2011AC0000000010000000000000004000000000000000202DE9F04F05467F487F4CDFF8AA
:2011CC0000A2DFF800B2DFF800E20F46ADF1340D0FF2302C0FF2F4182E1C01880892E068CC
:2011EC00079145D0761E21D0BC48079F0168002F00F0DE80BA480068014200F0D980B9482A
:20120C000068014205D1504600680088014200F0CF80B6484FF49A7770A6046800975B462D
:20122C000196B14F02951A88386879E0261D814604F1100300294FF014020A967046099357
:20124C004FF001010B9205680C9142D0A448006805423ED0A3480068054204D15046006872
:20126C000088054235D04FF498736DA200211FE0A61C04F1240300294FF000020A96704673
:20128C0009934FF028010C9205680B9121D09448006805421DD093480068054204D1504639
:2012AC0000680088054214D040F225135EA20C998F4806680093CDF804C0029203970491D4
:2012CC0005915B46069188491A88086843462946B0470B98B84226DA8048079E0168002EC1
:2012EC0066D07F480068014262D07E480068014204D1504600680088014259D07C4840F2DA
:20130C004D16046800964AA501950297002303930B9A04925E460593734D0693328828686B
:20132C004346A04744E0099808993A4605F096FE0C9E0A98002E07803AD007982946002881
:20134C002BD067480068014227D066480068014204D150460068008801421ED05846644B03
:20136C00614E028899F802701D683068002F08BF3DA303D0012F0CBF42A348A34FF4A27639
:20138C0000964BA70197B9F800600296039300270497059743460697A8472078554F099991
:2013AC0004F14C02062300904846019705F0F2FE0DB0BDE8F08FC0465ADB0000C01300200B
:2013CC004405000084050000C4DB0000646174615F736572766963652E6300C053657450D9
:2013EC006172616D657465723A20506172616D6574657220232564206E6F742076616C698C
:20140C00642E00C0536574506172616D65746572203A202573206C656E3A20256400C04647
:20142C0053747265616D00C0537472696E6700C04C656E677468206F75747369646520623C
:20144C006F756E64733A204C656E3A202564204D696E4C656E3A202564204D61784C656E50
:20146C003A2025642E00C0461B5B33336D4E6F74692F696E642064697361626C65641B5B2E
:20148C00306D00C04E6F74696669636174696F6E20656E61626C656400C046C0496E6469C7
:2014AC00636174696F6E20656E61626C656400C0547279696E6720746F2073656E64206E1F
:2014CC006F74692F696E643A20636F6E6E48616E646C652025782C20257300C0C0DB0000FA
:2014EC00400500003C050000E0DB0000D8DB0000DCDB0000992800002DE9F04F09AFADF1C9
:20150C003C0D00900292388801911E46ADF83400101C08BF002000F0828100274FF0010B4B
:20152C0000F10109B846DA466BE1252940F062811078521C02922D2818BFADF8228004D107
:20154C001078ADF822B0521C029230281CBF4246434605D1114608785B465A46491C029154
:20156C002A284FF0FF3516D128460B93346809900299CDF81C80E01C4B1C20F00300001DE3
:20158C00306050F8044C08780293002C44BFADF822A0644212E0444609E0610001EBC4014F
:2015AC0040180299A0F130040878491C0291302801DB3A28F1DB0B93294609912E282BD194
:2015CC000299087843462A2801F10101029111D1099330680794C01C20F00300001D306035
:2015EC0050F8045C002D48BF454608780995491C029112E045460AE0690001EBC501401888
:20160C000299A0F1300508782B46491C0291302801DB3A28F0DB099307940AB122460B921C
:20162C006C2804D04C2818BFADF8208005D102990878ADF820A0491C029103A9CDF828803F
:20164C0007AB0E9164280C9300F08B80692800F08880BDF834C0752872D078286ED06F2881
:20166C006AD0702850D063283DD073281ED0019802990128A1F10101029115D96B490C68B1
:20168C00B5F1FF3F03D0A84288BF6D1C00D8019D0995684602A9324607ABA047C7190299D4
:2016AC000A9801F1010974E040462AE030680299C01C20F00300001D306050F8040CBCF1C8
:2016CC00000F01F10109014608B956A001460E910AF0AAF80A90B5F1FF3F5BD0A842C4BF5D
:2016EC00281C0A9056E03068C01C20F00300001D306010F8040C5D468DF80C0002990A9510
:20170C00584601F1010945E0082035680B90E81C20F00300001D306050F8041C0822102315
:20172C0007A806F005FD401E0E904021017002990E9801F1010929E0082302E0102300E0C2
:20174C000A230299306801F10109C01C20F00300001D306050F8041CAA42BCBF2A1C0B92D3
:20176C0010E00299306801F10109C01C20F00300001D306050F8041CAA42BCBF2A1C0B92F0
:20178C006FF0090307A806F0D3FC0E900C9D281A0A90079CBDF82250241A65B906E0684681
:2017AC00202101AA09F0C8F9079C7F1C641E0794F5D50A9800E007940546401E0A9075B9C4
:2017CC00BDF82200E8B10798401E079019D46846202101AA09F0B0F907987F1CF4E70E9815
:2017EC00411C0E91017801AA684609F0A5F90A987F1CE1E7684601AA09F09EF97F1C09F1F5
:20180C0001094A46029812F8011C401C002902907FF48BAE009808B14146017038460FB018
:20182C00BDE8F08F286E756C6C2900C0ECDB00002DE9F04F0546BD4CBB48DFF8FCB2DFF8DD
:20184C00FCA2DFF80093DFF804E30F46ADF1340D0FF2FC1C0FF2BC182E1C0892216902889C
:20186C00E06807923CD0761E20D0B1480168171C00F0CD80AF480068014200F0C8805846A1
:20188C000068014205D1504600680088014200F0BE80AD484FF4A57763A6046800974B46D3
:2018AC000196A74F02951A883868AEE0A61D7046A31C0B91002A0A96056809933AD09D4892
:2018CC000068054236D058460068054204D150460068008805422DD04FF4A37363A217E006
:2018EC000B90261D7046631C0A96056809930AB39048006805421DD058460068054204D1CD
:20190C00504600680088054214D040F23B1359A28F4806680093CDF804C0029203970021DF
:20192C00049105914B46069185491A88086843462946B047022F44DA002F42D009980899A7
:20194C003A4605F08BFB079E0A982946002E07802BD078480068014227D05846006801426F
:20196C0004D150460068008801421ED04846784B0288734E0B981D6887783068002F08BF7E
:20198C003EA703D0012F0CBF43A749A74FF4AD734CA600930B9B01961E880296039700278A
:2019AC000497059743460697A8472078694F099904F11402072300900B98019705F0EAFB03
:2019CC0025E05C4D5A4C07982A682168061C1ED011421CD058460068014204D15046006882
:2019EC000088014213D05A4840F26316046800963FA50195029701230393002204934E46C4
:201A0C0005924F4D0692328828684346A0470DB0BDE8F08F627574746F6E5F736572766930
:201A2C0063652E6300C046C0536574506172616D657465723A20506172616D657465722093
:201A4C00232564206E6F742076616C69642E00C0536574506172616D65746572203A2025D3
:201A6C0073206C656E3A20256400C046425554544F4E3100425554544F4E30001B5B3333AA
:201A8C006D4E6F74692F696E642064697361626C65641B5B306D00C04E6F74696669636171
:201AAC0074696F6E20656E61626C656400C046C0496E6469636174696F6E20656E61626C8B
:201ACC00656400C0547279696E6720746F2073656E64206E6F74692F696E643A20636F6E49
:201AEC006E48616E646C652025782C20257300C04C656E677468206F7574736964652062BE
:201B0C006F756E64733A204C656E3A202564204D696E4C656E3A202564204D61784C656E89
:201B2C003A2025642E00C0465ADB000004150020C0DB0000400500003C05000044050000AA
:201B4C00E0DB000084050000D8DB0000C4DB0000DCDB0000592600002DE9F04F09AFADF102
:201B6C00440D08900B930A92099138793F880C90084607F091FAB249DFF8CCA2DFF8CCB223
:201B8C00DFF8CC927B4B0E8800240FF2EC180546FF2084A2002D0E90B149B2480D953DD081
:201BAC006D1E1FD0A7480168D6B150460068014216D058460068014204D1484600680088FD
:201BCC0001420DD0A54840F2ED176FA605680097A14B01969F4F02941A8838684346A847DC
:201BEC000A20C4E000F1040C002E07900968CDF83CC03CD050460068014238D058460068B8
:201C0C00014204D148460068008801422FD018464FF4F4730568009373A319E000F1020CCA
:201C2C0007900968CDF83CC00EB35046006801421DD058460068014204D148460068008844
:201C4C00014214D018464FF4ED730568009368A301920293089803900B9A049205970C986F
:201C6C007D4B06901A887B4B18684346A847002F4BD10B9D60A2ED19022D27DAC5B90C984D
:201C8C00182818BF122813D150466E4900680968002E38D0014236D058460068014204D140
:201CAC0048460068008801422DD040F201261FE009980A990B9AC068381805F0CFF9002DB7
:201CCC0042D00D980E900F9E35803DE05D480168CEB150460068014215D058460068014228
:201CEC0004D148460068008801420CD04FF4FC765A4805680096584B0192564E02941A88FA
:201D0C0030684346A8470D241EE04E480168D6B150460068014216D058460068014204D1AD
:201D2C0048460068008801420DD04C4840F2F3163AA305680096484E0193464B029432883F
:201D4C0018684346A84707240E98FF280ED00798806858B106684EB10B980D9A0A9B3F1866
:201D6C00B8B20090089841F21011B047204611B0BDE8F08FDCDB00006C65645F736572761C
:201D8C006963652E6300C04641747472696275746520776173206E6F7420666F756E642E75
:201DAC0000C046C05772697465417474724342203A20257320636F6E6E48616E646C6528D2
:201DCC00256429206C656E28256429206F666673657428256429206D6574686F642830781A
:201DEC00253032782900C0464C45443100C046C04C45443000C046C0496E76616C6964202B
:201E0C0076616C7565206C656E677468207761732072656365697665642E00C0416E2069FF
:201E2C006E76616C6964206F666673657420776173207265717565737465642E00C046C020
:201E4C005ADB0000C0DB0000400500003C05000044050000E0DB000084050000D8DB0000E0
:201E6C00C4DB00008C1500202DE9FE430646DFF8DC82DFF8DC92B2780024101C00F03581B9
:201E8C00801E00F00D81401E012840F2E180801E00F0A880401E7BD0401E59D0083800F0EA
:201EAC004681801E40F046814546B08895F83E70ADF80000052F45D001208DF80A0005F128
:201ECC00CC0009F024FF95F83E0001281BD0042819D0032806D0022804D0F28831897089EE
:201EEC00B38907E0B5F84020B5F84210B5F84400B5F84630ADF80220ADF80410ADF8060068
:201F0C00ADF8083020E0B5F84000F1888842D8BF081CADF802003189B5F842008842D8BF3C
:201F2C00081CADF804007189B5F844008842D8BF081CADF80600B5F84630B0898342D8BFF5
:201F4C00031CDDE78DF80A40684609F0C9FDF1E0454605F1F00009F0DAFE7078002840F003
:201F6C00E980F088E882308928837089688305F1CC0009F0F3FC002840F0DC80AB6A002B24
:201F8C0000F0D8801B68E88A298B6A8B9847D1E0B08808F012FF45462146062205F1380036
:201FAC0005F0D6FDEC822C836C83B079687305F1CC0009F0ACFE05F1F00009F0A8FE01242E
:201FCC004FF6FF706F79A8824FB9B079082814BF04200520A870204609F05AFBAAE0032039
:201FEC00A870A7E0707858BB311D0A68454605F138000260898881800627AF707089A882DF
:20200C00F089E882308A2883708A6883F0784446287394F83E00012818BF02280AD11F20EC
:20202C0007F02AFD4FF47A71024604F1CC00514307F0A2FEF0787289311D07F049FE7BE0CA
:20204C00707831286FD14D4604202870204623E07778002F67D14546698AA878032A13D037
:20206C002A796F7921B9012A14BF6C712C7106E0174304D005F1A80007F07EFEA878072803
:20208C0014BF0420062007E0062807D02879002808BF0324DAD00220A8704DE00724D5E77C
:2020AC007078751C00283ED14246F7789078D1799FB9022816D0072814D0062802D15179D5
:2020CC0001290FD103280DD002F1A80009F046FC40B9012009F0DCFA04E08732204606F02A
:2020EC0055FE28702878F0B924E07078D8B945460220102105F1480208F08EF80320102133
:20210C0005F1580208F088F8F61C05F12C00B7883168878005F1680201600120A979A870BC
:20212C0006F034FE40B108204D46287004E0B08809F0CAFC012C06D14546686A18B10168B9
:20214C0009B1A8788847BDE8FE83C046780C00207A0C00202DE9F04FA349A44EA54DA64C3D
:20216C00DFF898B2DFF898A2DFF898920F88401E0FF2B418ADF1240D00F09080401E75D0EC
:20218C00801E61D0401E4DD0401E2ED0401E17D0401E40F0C6803168002F00F0C28094489E
:2021AC000068014200F0BD802868014204D120680088014200F0B58040F20A305EA766E064
:2021CC003168002F00F0AD8089480068014200F0A8802868014204D120680088014200F08F
:2021EC00A08040F2FE2056A751E040F2153004A902F05EFF04A806F041FE3168002F00F029
:20220C0090807B4A1268114200F08B802A68114204D122681288114200F0838040F2F9279F
:20222C004EA673E03168002F7BD071480068014277D02868014203D120680088014270D053
:20224C0040F206304FA722E03168002F69D068480068014265D02868014203D120680088CA
:20226C0001425ED040F202304CA710E03168002F57D05F480068014253D02868014203D18F
:20228C002068008801424CD040F2EF2048A74A46146800900197002602963CE04FF4417091
:2022AC0006A902F005FF00218DF814109DF819308DF813109DF81A208DF811309DF81800DB
:2022CC008DF812209DF81B108DF810009DF81D308DF815109DF81C208DF8173004A88DF88C
:2022EC00162009F0E3FA06A806F0C8FD3168C7B13F4A1268114214D02A68114203D12268CF
:20230C00128811420DD040F2EA272CA64A4614680097019602905B46554618682A8843460F
:20232C00A04709B0BDE8F08F70726F6A6563745F7A65726F2E6300C04572726F7200C04656
:20234C00436F6E6E656374656420616E64206164766572746973696E6700C046436F6E6E37
:20236C0065637465642E205065657220616464726573733A201B5B33326D25731B5B306D1F
:20238C0000C046C0436F6E6E656374696F6E2074696D6564206F757400C046C04469736367
:2023AC006F6E6E6563746564202F2049646C65004164766572746973696E6700474150205C
:2023CC00697320737461727465642E204F757220616464726573733A201B5B33326D25733A
:2023EC001B5B306D00C046C05ADB0000C4DB0000400500003C05000044050000E0DB00009A
:20240C0084050000D8DB00002DE9FF4705468448DFF828C2DFF81092DFF81082DFF810E295
:20242C00DFF810A2844E0788687846A3162856D02A797E2A38D07B487F2A1CD00168002F36
:20244C006FD04846006801426BD040460068014204D1704600680088014262D0604640F2C4
:20246C006147046800973BA701970292574632883868A04755E00168002F52D048460068D4
:20248C0001424ED040460068014204D1704600680088014245D0604640F25C47046800974D
:2024AC0036A20192288918E065480168002F38D048460068014234D040460068014204D16C
:2024CC0070460068008801422BD0604640F257470468009730A20192287A0290C6E75A48AB
:2024EC000168CFB148460068014215D040460068014204D170460068008801420CD0604658
:20250C0040F23E470468009732A2019228795746029032883868A0476888082108F084F9EF
:20252C0030B1297905F1080008F05AFE012005E0012002F0C9F94348056000200090BDE89E
:20254C00FF87C04670726F6A6563745F7A65726F2E6300C052656365766965642047415459
:20256C0054204D6573736167652E204F70636F64653A2030782530327800C0464D54552051
:20258C0053697A65206368616E67653A20256420627974657300C046466C6F7720636F6EE6
:2025AC0074726F6C2076696F6C617465642E204F70636F6465206F66206F6666656E64693E
:2025CC006E6720415454206D73673A2030782530327800C04F7574676F696E6720524620C5
:2025EC004649464F2066756C6C2E2052652D7363686564756C65207472616E736D69737355
:20260C00696F6E206F66206D73672077697468206F70636F64652030782530327800C046C9
:20262C005ADB0000C4DB0000400500003C05000044050000E0DB000084050000D8DB0000F4
:20264C00C0DB0000D0070020C8DB00002DE9F04F834609AF0846ADF1340D099397F808A063
:20266C000892B98807903F880A9106F057FC06467B48DFF8F8910588824ADFF80CE27948E3
:20268C000FF23C180FF2681C002E4FF00004C18880880B9538D0761E1FD073480168D5B1BD
:2026AC0048460068014216D071480068014204D170480068008801420DD071484FF4EA7791
:2026CC0044A6056800976D4B01966B4F02941A8838684346A8470A206FE00D4610460B9EDC
:2026EC000168002E37D048460068014233D060480068014204D15F480068008801422AD0F8
:20270C0040F2CF1349A214E0054610460B9E01680EB34846006801421DD0554800680142D8
:20272C0004D1544800680088014214D04FF4E27340A2704606680093CDF804C00292CDF8F2
:20274C000CB00497CDF814A04C4B06941A884A4B18684346B047BD420EDB0A98E91B8142E4
:20276C00D4BF8AB2021C099802800798C0683918089804F073FC1FE03B480B9F0168D7B105
:20278C0048460068014216D039480068014204D138480068008801420DD039484FF4ED7755
:2027AC0026A605680097354B0196334F02941A8838684346A847072420460DB0BDE8F08FE2
:2027CC00627574746F6E5F736572766963652E6300C046C0417474726962757465207761FE
:2027EC0073206E6F7420666F756E642E00C046C052656164417474724342203A20257320EB
:20280C00636F6E6E48616E646C653A202564206F66667365743A202564206D6574686F64A4
:20282C003A2030782530327800C046C0425554544F4E3100425554544F4E3000416E206974
:20284C006E76616C6964206F666673657420776173207265717565737465642E00C046C0F6
:20286C005ADB000004150020C0DB0000400500003C05000044050000E0DB00008405000030
:20288C00D8DB0000C4DB0000DCDB00002DE9F04F834609AF0846ADF1340D099397F808A04D
:2028AC000892B98807903F880A9106F05DFB06468448DFF8F0910588804ADFF804E27748A7
:2028CC000FF23C180FF2641C002E4FF00004818840880B9538D0761E1FD071480168D5B101
:2028EC0048460068014216D06F480068014204D16E480068008801420DD06F484FF4E5775A
:20290C0043A6056800976B4B0196694F02941A8838684346A8470A206FE00D4610460B9E9E
:20292C000168002E37D048460068014233D05E480068014204D15D480068008801422AD0B9
:20294C0040F2C51348A214E0054610460B9E01680EB34846006801421DD0534800680142A3
:20296C0004D1524800680088014214D04FF4DD733FA2704606680093CDF804C00292CDF8B8
:20298C000CB00497CDF814A04A4B06941A88484B18684346B047BD420EDB0A98E91B8142A6
:2029AC00D4BF8AB2021C099802800798C0683918089804F053FB1FE039480B9F0168D7B1E6
:2029CC0048460068014216D037480068014204D136480068008801420DD037484FF4E8771E
:2029EC0025A605680097334B0196314F02941A8838684346A847072420460DB0BDE8F08FA5
:202A0C00646174615F736572766963652E6300C041747472696275746520776173206E6F53
:202A2C007420666F756E642E00C046C052656164417474724342203A20257320636F6E6E6A
:202A4C0048616E646C653A202564206F66667365743A202564206D6574686F643A2030780E
:202A6C002530327800C046C053747265616D00C0537472696E6700C0416E20696E76616C39
:202A8C006964206F666673657420776173207265717565737465642E00C046C0C013002072
:202AAC00C0DB0000400500003C05000044050000E0DB000084050000D8DB0000C4DB00000A
:202ACC00DCDB00005ADB0000F8B5A0F2013517460E46022D40F20C818649874C874A884BA4
:202AEC002D1F0F2D04D9143D4AD0AD1E1CD011E0DFE815F0BA00B500EB00DB00AE00A700FC
:202B0C00FE009F00980010001000900086007A006F006200282880F2EB80022E40F0E880FE
:202B2C00398807F023FAF8BD012E40F0E1800A469078012800F0DC80D1783878D07081B9FF
:202B4C00002800F0D5801078012800F0A080042800F09D80062800F09A80052800F0978096
:202B6C00F8BD3878002840F0C3801078032800F09980072800F09680052800F09380F8BD73
:202B8C00012E40F0B5803878012840F0B180254605F1F00008F0E2FE002840F0A98004F1BC
:202BAC003E01002005F0A8F9002840F0A18004F1CC0009F0ACF8F8BD022E40F0998038884F
:202BCC000A28C0F29580B0F5486F00F39180114614E0022E40F08C803888B0F5FA7F80F289
:202BEC00878011460880F8BD022E40F08180388806287DDBB0F5486F7ADC1946891CF1E7F9
:202C0C00022E75D13888062872DBB0F5486F6FDC1946E7E7012E6BD13878062868DA114641
:202C2C00891F0CE0012E63D13878042860DA093105E0012E5CD13878082859DA083108703C
:202C4C00F8BD012E54D13878042851DAC91DF6E7012E4DD1387804284ADC891DEFE7022E9A
:202C6C0046D138881031BDE7012E41D10A46D07801283DD091783878907061B9002837D07B
:202C8C001078012803D0042818BF052830D1012008F0FEFCF8BD387850BB1078022818BF67
:202CAC00052825D108F012FEF8BD254600211F2205F18704204604F04BFF394632462046D9
:202CCC0004F0CCF90020EE710EE0254600211F2205F16804204604F03BFF394632462046A2
:202CEC0004F0BCF90120AE713146224606F04EF8F8BDC0467A0C0020780C0020BC0C0020D7
:202D0C00B80C00202DE9F04F834609AF0846ADF1340D099397F808A00892B98807903F88B4
:202D2C000A9106F0B9F906467A48DFF8F4910588814ADFF808E278480FF23C180FF2641C2B
:202D4C00002E4FF00004818840880B9538D0761E1FD072480168D5B148460068014216D032
:202D6C0070480068014204D16F480068008801420DD0704840F2A11743A6056800976C4B02
:202D8C0001966A4F02941A8838684346A8470A206FE00D4610460B9E0168002E37D0484690
:202DAC000068014233D05F480068014204D15E480068008801422AD04FF4CE7348A214E0FD
:202DCC00054610460B9E01680EB34846006801421DD054480068014204D1534800680088A6
:202DEC00014214D040F291133FA2704606680093CDF804C00292CDF80CB00497CDF814A080
:202E0C004B4B06941A88494B18684346B047BD420EDB0A98E91B8142D4BF8AB2021C099861
:202E2C0002800798C0683918089804F017F91FE03A480B9F0168D7B148460068014216D00D
:202E4C0038480068014204D137480068008801420DD0384840F2A71725A605680097344B19
:202E6C000196324F02941A8838684346A847072420460DB0BDE8F08F6C65645F7365727618
:202E8C006963652E6300C04641747472696275746520776173206E6F7420666F756E642E64
:202EAC0000C046C052656164417474724342203A20257320636F6E6E48616E646C653A201E
:202ECC002564206F66667365743A202564206D6574686F643A2030782530327800C046C06B
:202EEC004C45443100C046C04C45443000C046C0416E20696E76616C6964206F6666736546
:202F0C007420776173207265717565737465642E00C046C05ADB00008C150020C0DB00004F
:202F2C00400500003C05000044050000E0DB000084050000D8DB0000C4DB0000DCDB000069
:202F4C002DE9F04F0746824DB97805F18002ADF12C0D781D924605F001FB7E4804886CA0B8
:202F6C003E79DFF808B2DFF80892079069A0089069A0099078480FF258180FF2641E0FF2FD
:202F8C007C1C002E4CD0761E40F09E8005681CB37248006805421FD071480068054204D190
:202FAC00704800680088054216D0484640F25E3306680093CDF804E0CDF808C052A203921F
:202FCC00CDF810A0002105915B46069166491A88086843462946B0475D487A798069072128
:202FEC0006F0E0FD002C6FD05C48006805426BD05B480068054204D15A48006800880542F9
:20300C0062D058464946584E02887F790C683068002F0CBF0799089940F2663342A647E0FC
:20302C0005681CB34D48006805421FD04C480068054204D14B4800680088054216D04846BF
:20304C0040F24F3306680093CDF804E0CDF808C039A20392CDF810A0002105915B460691A5
:20306C0041491A88086843462946B04738487A798069062106F096FD34B338480068054297
:20308C0022D037480068054204D1364800680088054219D058464946334E02887F790C68ED
:2030AC003068002F0CBF0799089940F2573324A60093099F01970296039100270497434661
:2030CC00059729460697A0470BB0BDE8F08FC04670726F6A6563745F7A65726F2E6300C009
:2030EC0056616C7565204368616E6765206D73673A2025732025733A202573004C45442069
:20310C0053657276696365004C45443100C046C06F6666006F6E00C05475726E696E672027
:20312C00257320257300C0461B5B33326D4C4544311B5B306D00C0464C45443000C046C0FB
:20314C001B5B33316D4C4544301B5B306D00C046C00700205ADB0000C4DB000040050000FE
:20316C003C05000044050000E0DB000084050000DCDB00002DE9F04F0128ADF1140D40F051
:20318C00F280DFF81492D9F8DC00012840F0E9800220C9F8DC0008F057FE0290012006F010
:2031AC00F1F920B101210646C9F8DC10D5E008F047FE03906E484FF00008C0F80080012052
:2031CC0008F046F8012818BFCDF8008004D1404605F0B8FC0120009066486E4CC0F8008013
:2031EC001934D4F8FF0F112008F0C4FC00280CBF46460126102008F0BDFC08B146F0020635
:20320C000F2008F0B7FC08B146F004060B2008F0B1FC30B1584800685849006B0246088832
:20322C0090470A2008F0A6FC0028404618BF01204FF0805B0BF5DC7528B128685049006B69
:20324C000246088890474F480127076028688069014646F0200088474B48076008F084FC36
:20326C0000F001010191400815D2484808F0E7FB8246BAF1040FF8D0BAF1010F06D1DBF872
:20328C00D801406802464148032190474049086820F003000860404600F08EF92868D4F808
:2032AC00FF1F806B8047019801280ED0BAF1010F06D1DBF8D8014068024634483946904792
:2032CC003349086840F0030008602A480760286840690146304688470B2008F04BFC28B17A
:2032EC0028682649C06A0246088890470A2008F041FC28B128682249C06A024608889047DE
:20330C00204807600322C9F8DC201F4BC3F800802868406B0146304688470128F8D104206E
:20332C0006F030F9124807601A48D4F8FF1F01688909FCD30098012802D1384605F002FC86
:20334C0008F006FC082006F01DF906460398C9F8DC7008F071FD05F0B9FA029808F068FD3A
:20336C0002E0042600E00126304605B0BDE8F08F0C40094000022243B801001056D70000ED
:20338C0052D700002820086080010443004003402422084014100940C41100202DE9F04FB8
:2033AC0005460F467948DFF8F0B1DFF8F0A1DFF8F4917E49ADF1240D0FF26C1C0FF23018FC
:2033CC002E1C089202887B48079238D0761E1FD06F480168171C00F087806E4800680142E1
:2033EC0000F0828058460068014204D1504600680088014278D06C484FF48C7740A6046854
:20340C0000974B460196664F02951A88386862E00968041D002AA4F1030635D05D480068A5
:20342C00014231D058460068014204D1504600680088014228D04FF48A7342A213E00968D5
:20344C00841C064602B35348006801421CD058460068014204D1504600680088014213D0C3
:20346C004FF4867339A2524805680093CDF804C00292039700230493059306934B461A88BA
:20348C00474B18684346A847022F00DA37BB414D3F4C07982A682168061C25D0114223D069
:2034AC0058460068014204D150460068008801421AD03F484FF492760468009625A50195FB
:2034CC00029701230393002204934E460592344D0692328828684346A04705E008993046DA
:2034EC003A4603F0BBFD278009B0BDE8F08FC0466C65645F736572766963652E6300C046EF
:20350C00536574506172616D657465723A20506172616D6574657220232564206E6F74207A
:20352C0076616C69642E00C0536574506172616D65746572203A202573206C656E3A2025C4
:20354C006400C0464C45443100C046C04C45443000C046C04C656E677468206F75747369A8
:20356C00646520626F756E64733A204C656E3A202564204D696E4C656E3A202564204D615B
:20358C00784C656E3A2025642E00C0465ADB0000C0DB0000400500003C05000044050000D2
:2035AC00E0DB000084050000D8DB0000C4DB0000DCDB00008C1500202DE9F84F82467A480A
:2035CC00DFF8D89135380068800880F0D88007F02DFB054678480830D0F8008000244FEA73
:2035EC002876761C5FEA98500AD2C5F13E0015F10A0F4FEAE000D8BF08208642B8BF061C36
:20360C00634FD7F87C01C0F3046008F011FA83463868C0F3044008F00BFA06EB0B0200909B
:20362C00162A05DA12F10A0FB8BF6FF0090200E01522584B584F02F01F0141F4F8511980D8
:20364C00396811F0030F18BF0124C90828BF44F00204BAF1000F18BF44F00404494691F9D6
:20366C000730EB1A052B04DA8B79A34208BF888864D0DFF82CE10F2DA5F10F0C25DB0CEB38
:20368C000513A3F1F00C4FEA2C27072F88BF07273E46062E88BF06265EF82600042303EB83
:2036AC0086037646F3581B1A03F0FF06E00824BFC3F307200644A00824BFC3F3074006447D
:2036CC00600828BF06EB136601E0002637465EF827E0E0080EF0FF0324BFCEF3072003444A
:2036EC00A00824BFCEF307400344600828BF03EB1E630098B6B2ACEB07277E43801A06F10F
:20370C00800603EB1623D8BF0120342208F0FF0742437A43B2FBF3F04FF6FF72824238BFA1
:20372C00101C802D80B2888005DA15F1800FB8BF6FF07F0500E07F25CD718C71194A126800
:20374C001F280A604FF0000208D340F2FF11814206D24008521C8142FBD301E01F20888044
:20376C00124F11490F38000942EAC00247EA0200C1F8FB0F0026C1F8FF6FBDE8F88F0D4F79
:20378C000B4E494608203760891D0870BDE8F88F3C1100506E62084024220840982500200C
:2037AC009C130050082009403500094000E7A48030100940FDFDA400AC3F00502DE9F0415B
:2037CC001C4615468C4208BF854282BF00230022E5E0002C08BF002D0AD100290EBF002860
:2037EC006FF000006FF0000100F0E1F8BDE8F0815FF000085FF0000E002C08BF8D429CBF4E
:20380C002C1C0025070C47EA01470E0CB44208BFBD429EBF5FEA044444EA15445FEA0545C5
:20382C00070A47EA01670E0AB44208BFBD429EBF5FEA042444EA15645FEA0525470847EA96
:20384C00C1774E08B44208BFBD4200F29380870847EA81778E08B44208BFBD427CD8C708E0
:20386C0047EA4177CE08B44208BFBD4266D8070947EA01770E09B44208BFBD4250D847097F
:20388C0047EAC1674E09B44208BFBD423AD8870947EA81678E09B44208BFBD4224D8C709D6
:2038AC0047EA4167CE09B44208BFBD420DD8E60146EA5566EF01B14208BFB84201D3C01B86
:2038CC00B14158EB08085EEB0E0EA60146EA95664FEA8517B14208BFB84201D3C01BB14136
:2038EC0058EB08084EEB0E0E660146EAD5666F01B14208BFB84201D3C01BB14158EB08082A
:20390C004EEB0E0E260146EA15762F01B14208BFB84201D3C01BB14158EB08085EEB0E0E27
:20392C00E60046EA5576EF00B14208BFB84201D3C01BB14158EB08084EEB0E0EA60046EAD8
:20394C009576AF00B14208BFB84201D3C01BB14158EB08084EEB0E0E660046EAD5766F0054
:20396C00B14208BFB84201D3C01BB14158EB08085EEB0E0EA14208BFA84201D3401BA14189
:20398C0058EB08085EEB0E0EA34208BFAA423EBF2D0A45EA0465240A89D3734642461E46D0
:2039AC0017460B46024631463846BDE8F08170472DE9F04F0D468246DFF89881694C28788E
:2039CC0009AF9B460FF20419ADF1240D0228079207D140466B680688188842F60211814225
:2039EC0024D0284605F09AFA5B48474601683888D0B15A480068014216D059480068014277
:203A0C0003D12068008801420ED05948046840F2132733A600250097544B0196524F029519
:203A2C001A8838684B46A0470A204CE051480068002E80462BD04948006818EA000F26D07A
:203A4C004748006818EA000F04D12068008818EA000F1CD03879FE280CBF28A62EA62846BE
:203A6C0005F05CFA444940F201230C6800932DA201920290CDF80CA0002104963B4B0591C9
:203A8C00394E06911A88306841464B46A04738880090079A5B462946504605F02DFC0646C2
:203AAC003648076876B96FB1786858B1284605F035FACDF800B07C68079B02464FF48951E3
:203ACC005046A047304609B0BDE8F08F627574746F6E5F736572766963652E6300C046C0C7
:203AEC0041747472696275746520776173206E6F7420666F756E642E00C046C02D207265D6
:203B0C0073746F72696E6720626F6E64656420737461746500C046C02D204F5441207772C6
:203B2C00697465005772697465417474724342202843434344293A20706172616D3A2025A4
:203B4C006420636F6E6E48616E646C653A202564202573005ADB0000C0DB0000400500002B
:203B6C003C05000044050000E0DB000084050000D8DB0000C4DB0000DCDB00000C15002021
:203B8C002DE9F843814607F0DDFF002100B901216B4E30680028FCD06C4D01242D1DEF6A6C
:203BAC00346009B107F0D4FFDFF89881C7F3072008F1BC01086007F0C5FF002100B92146F6
:203BCC0030680028FCD02F68346009B107F0C0FFC7F38440C8F8C00007F0B4FF01460020A3
:203BEC0001B92046014630680028FCD0ED69346009B107F0ADFFC5F38120C8F8D000B9F5E8
:203C0C00C061C8F8B81000F0968098F8D80068B9C8F8D410D8F8C000C8F8C800D8F8BC70A8
:203C2C00C8F8C470D8F8D060C8F8CC60D8F8D410D8F8BC60002954BF02206FF001004546AF
:203C4C0005F1C8031A6801EB41014018411000EB917002EBA0021A60D5F8C810C5F8C460C3
:203C6C0000291CDD1E293DDDD5F8CC0030B93429B4BF15391E21C5F8C81025E02A29BABF70
:203C8C00D5F8C8000B381E20C5F8C800D5F8C4003F28B4BF401C3F20C5F8C4001FE0D5F80A
:203CAC00CC00032812D011F10B0FC6BFD5F8C8000B30201CC5F8C800D5F8C4000028CCBFA9
:203CCC00401E0020C5F8C400032009E011F1150FC6BFD5F8C8001530201CC5F8C800002067
:203CEC00C5F8CC00B5F8C400174E30214FF47F4208230090304605F049FB009404214FF49E
:203D0C0000321123304605F041FBB5F8C80004214FF4F80212230090304605F037FBB5F8A4
:203D2C00CC0020214FF440620A230090304605F02DFBBDE8F883002088F8D800BDE8F8837D
:203D4C0000800C40C411002000A00C4000A00C402DE9FC416F4C204607F0D7FF15460E46CE
:203D6C00009008F081F805F001078046B6F1FF3F0DD1606820B9B4F91200401C06B202E05A
:203D8C006068B0F91C6064490020C91C0870304606F03CFE0326002800F0A4806168814269
:203DAC0070D0009FDFF848C1B84231D03FB100990A68904209D0096800290091F7D1832EF3
:203DCC0044D0404608F04CF840E0604607F08EF900990868AA0803D202680B4601461A60B1
:203DEC0000220A60009078B10C340146C87F40F00400C877684607F00FFC0146204606F0DE
:203E0C00BDF900980028F0D1404608F029F81CE0604607F06BF9A8083ABF2068006800200A
:203E2C002060404608F01CF80C340099C87F40F00400C877684607F0EFFB0146204606F09F
:203E4C009DF9009808B1A808EFD2832629482C4A007890B928480078012846D02748FCF724
:203E6C0043F90221104607F053FC2648007801283BD02548FCF738F937E01046022107F009
:203E8C0047FC32E0A90803D32168009100262660C27F0121B9401143C17707F0D1FF064679
:203EAC00002F14BF19481A4807F0ACF8404607F0D7FFA80811D3009878B10C340146C87F20
:203ECC0040F00400C877684607F0A6FB0146204606F054F900980028F0D1304607F0ACFF94
:203EEC00832602E0404607F0BBFF3046BDE8FC8178240020C6250020C5250020450E000038
:203F0C0010240020C725002081620000010002040100010460250020D82400202DE9F04F2F
:203F2C00ADF1840D209001F053F905F00BFA0024012804D107F0F8FA022808BF012459499C
:203F4C000868C0F38150012805D151F80C1C0120090E884004435448007806F077FFDFF853
:203F6C004C81DFF84CA1C8F8000030B15246FF2107467F1E02F8011BFBD120990968002530
:203F8C0001F0FF02FE2A1BD0DDF880C052462B46012701F0FF06FF2E0BD0B04203D907FAFD
:203FAC0006F6344201D0022079E001F0FF01354353545CF8041F5B1C01F0FF06FE2EEAD15C
:203FCC00092002F02DFA3B49209824220823086001A8002107F028FF4FF0010901AA3E481C
:203FEC008DF81C90494607F01BFFD8F800303BB33A4E00274FF0040BBA4609FA07F00442B9
:20400C0018D1054204BF07F0FF0141F4C04104D027482099C05D51F82010274802F0B4FCD1
:20402C00F8B24FF0FF3107F03DF9D8F80030C6F800A001E0C6F800B07F1C361D9F42DCD303
:20404C000AA800213022082307F0E6FE1B4D1D4A2878002410210AAB12901948009407F022
:20406C00D7FE16A828220823214607F0CDFE686816AA16491C9014481D94234607F0C0FE3D
:20408C00134A52F80D0C494620F4F85040F4005042F80D0C0F4BC2F8FF1F2046196021B0B0
:2040AC00BDE8F08FB43F0050CC250020942100209C240020BC250020007FC76798DB0000A6
:2040CC00DC240020CDB20000DC230020299400000D30094008000940F824002060230020A3
:2040EC002DE9F84F9A4693460D46044607F0BCFEDFF85C810AAFB8F91220B8F9101000909F
:20410C0040F6F870891A0840082880F29280B8F91000401C6FF31F30A8F81000B8F9109087
:20412C0006F0B0FF064604F1700006F0DFFFB56086F81EB0C6F804A0F460A6F81C9097E869
:20414C000C0051A003C800251040F577D8F8002006F11007194087E80300002A5CD1404604
:20416C00314606F00BF800285BD0A4F894904448F17F0778DFF8DCA041F08001F17784F84C
:20418C00965067B151460F784FB1344A3449324B0570012015700A781870521C0A700098DA
:2041AC0007F05EFED8F8040000284ED15146087800282DD12B480078012846D007F054FED5
:2041CC00054629480078F8B9B06804F0E5FC284B2C4A26491B681268086038B9284607F0EE
:2041EC003FFE2448042107F093FA2EE0D0680968214C091AB1FBF3F1204607F02DFE20469C
:20420C0007F026FE28461EE01C4901200870F9E7192007F0ABFB18E04046314605F0AEFFC0
:20422C0050B9B8F9100000F6FF706FF31F30A8F810006FF0010905E0A4F89490F07F40F035
:20424C008000F077009807F00BFE4846BDE8F88F60250020C7250020CB250020C42500204F
:20426C00CD250020C6250020C5250020A4250020B4DB00001024002078240020C825002076
:20428C00CA250020B4250020F1EFFF9F200000002DE9DF4F6548DFF88CC1DFF874B1DFF884
:2042AC0074A1DFF87491DFF87481DFF874E1078856480E1C32A313D10168002F5DD0584696
:2042CC000068014259D050460068014204D1484600680088014250D040F201572CA62DE09E
:2042EC00012E17D0022E48D1002A46D10168002F43D05846006801423FD0504600680142CE
:20430C0004D1484600680088014236D040F2125723A613E0A2B90168002F2ED058460068A7
:20432C0001422AD050460068014204D1484600680088014221D040F2075725A6002212E0FD
:20434C0039480168CFB158460068014215D050460068014204D148460068008801420CD006
:20436C0040F20B5722A660460468009701967746464602923A883068A0470090BDE8DF8FD4
:20438C0070726F6A6563745F7A65726F2E6300C050616972696E67207374617274656400C9
:2043AC0052652D65737461626C69736865642070616972696E672066726F6D2073746F72BF
:2043CC00656420626F6E6420696E666F2E00C04650616972696E6720636F6D706C65746502
:2043EC0064207375636365737366756C6C792E0050616972696E67206661696C65642E203D
:20440C004572726F723A202530327800C4DB0000400500003C05000044050000E0DB000004
:20442C0084050000D8DB0000C0DB00005ADB00002DE9F0438046D8F80460D8F808700C4687
:20444C00ADF1340D07F010FD3178012903D107F007FD0020A3E04FF0010986F8009007F0DA
:20446C00FFFC207870706078B07060687060A068B060E068F06020693061207D3075607D44
:20448C007075A07DB075A069B061207F3077607F00257077A07F35623563102186F83C1055
:2044AC00B0772C4674627463B462B46386F82C4086F82D4086F83D40786801F0B1FF4046A6
:2044CC0002F0E0F8404603F0B1F878B935480068C068014638688847786801F037FF07F0F2
:2044EC00C3FC347007F0BCFCA04657E001A821463022082307F090FCCDF818803A7B0992C4
:20450C000095294AB96806F1680001AB07F080FC01A828220823214607F076FC39690791C0
:20452C002249CDF8148006F1840001AA234607F067FC01A824220823214607F075FCB078B1
:20454C008DF81C9038B906F1B800214601AA07F067FC17483061707838B906F1D400214617
:20456C0001AA07F05DFC1348F06001A821462422082307F081FC0694ADF8144006F1F0001A
:20458C000D49CDF81C800A2201AB07F071FC0B4A06F154000421434606F070FB40460DB02A
:2045AC00BDE8F083D0010010F95E00003D9100006FBC000067BC00006573000089B9000069
:2045CC002DE9FC415E4C574D574EDFF860815A4F94F8E410481E0B2861D8DFE800F07B2C78
:2045EC0043062343062343067664042907D001220A2945F8212C14BF0220032004E0202193
:20460C00012045F8211C024684F8E200002045F8390C0827C5F8FF7FC5F8F37F45F8392C70
:20462C00BDE8FC81052914BF09200620002584F8E400356070E094F8E1700120383D002FF0
:20464C00C5F81B0004BF0620002102D00021F160032084F8E400032045F8010C316030680F
:20466C00800859D294F8E400012503280DD00021404660220523009104F088FE94F8E40011
:20468C00062814BF0A200720D1E702200090002160220523404604F079FE0420C7E707F0CD
:2046AC00ABFBBDE8FC812249002622480E60012505600E2001F04AFE022005F009FF84F830
:2046CC00E45084F8E360BDE8FC81002038600C2578601FE019480068006801462020884772
:2046EC002C3D41F61D560F2000214FF4C072072345F8010C4046C5F803600225009504F00C
:20470C0045FE404600214FF4C072072305F014F90120386084F8E45004F1780007F098FBA2
:20472C00BDE8FC8139400C4038600C4000A00C402C500C4004800C4034600C40A00100108D
:20474C00C41100202DE9F04F0446564DDFF858B1564FDFF85CA1DFF85C9120790FF2C40893
:20476C00ADF11C0D002829D0401E58D1584629680088002853D03868014250D050460068BB
:20478C00014204D1484600680088014247D04C4840F2CD370568009726A601966079029081
:2047AC00A0790390E07900230490444F0593424E06933A8830684346A84730E0414E00214B
:2047CC002822304603F0C4F9641D27222146304602F044FC58462968008800B33868014237
:2047EC001DD050460068014204D1484600680088014214D0324840F2C637046800971CA598
:20480C00019522A3029325A20392002704962B4D0597294B069718682A884346A04707B001
:20482C00BDE8F08F70726F6A6563745F7A65726F2E6300C056616C7565204368616E67657E
:20484C00206D73673A204461746120536572766963652053747265616D3A20253032783A01
:20486C00253032783A253032782E2E2E00C046C056616C7565204368616E6765206D7367DA
:20488C003A2025732025733A2025730044617461205365727669636500C046C0537472699D
:2048AC006E6700C0C4DB00005ADB0000400500003C05000044050000E0DB00008405000070
:2048CC00DCDB0000E00800202DE9F04F5B4C103C27690246ADF11C0D002F64D04E48DFF856
:2048EC004091DFF84081DFF840E1DFF840B1DFF840A1DFF840C106882CA32ABB47490968B0
:20490C00002E4AD048460068014246D040460068014204D170460068008801423DD0604652
:20492C0040F2AB460568009624A2019238790290A0780390002604960596574606965E46C6
:20494C003A883068A84728E03B48016806B34846006801421CD040460068014204D1704674
:20496C0000680088014213D060464FF49666056800961DA60196387902900392002604963B
:20498C000596574606965E463A883068A8472769397907F1080006F023FC206906F07CFDFB
:2049AC0000202061A07007B0BDE8F08F70726F6A6563745F7A65726F2E6300C053656E745E
:2049CC00206D6573736167652077697468206F70636F6465203078253032782E2041747412
:2049EC00656D70742025640047617665207570206D6573736167652077697468206F706381
:204A0C006F6465203078253032782E205374617475733A20256400C05ADB0000C4DB000042
:204A2C00400500003C05000044050000E0DB000084050000DCDB0000C0DB0000D00700200E
:204A4C002DE9F04F0146B1F80500ADF11C0D48B1401E04D0401E08BF0FF2A40A04E00FF255
:204A6C00B40A01E00FF2C40A484806880F79494ADFF824B1DFF824914A4DDFF82C814448A4
:204A8C002FA30FF2CC0E0FF2E40CA7B17F1E34D10168002E31D0106801422ED0584600681B
:204AAC00014204D1484600680088014225D040F29D3732A610E00168FEB1106801421CD08F
:204ACC0058460068014204D1484600680088014213D040F292372BA6404604680097CDF8EE
:204AEC0004E0CDF808C00396CDF810A0002205922B4F06922A883868A04707B0BDE8F08F4C
:204B0C00496E6469636174696F6E7320656E61626C6564004E6F74696669636174696F6E42
:204B2C007320656E61626C656400C0464E6F74692F496E642064697361626C656400C046C3
:204B4C0070726F6A6563745F7A65726F2E6300C043434344204368616E6765206D73673ACE
:204B6C002025732025733A20257300C0427574746F6E205365727669636500C0425554549B
:204B8C004F4E3100425554544F4E30005ADB0000C4DB0000400500003C050000440500008C
:204BAC00E0DB000084050000DCDB00002DE9F0410646524DB088ADF1200D002804BF05F1D8
:204BCC000C04A0460DD005F10C040346A62137A2204606F00BFC204606F026FE281800F1F3
:204BEC000C083768B8B206F05DFA40A20CCA00F09FFE40A20CCA00F09BFE04F0E7FCA4EB53
:204C0C00080100902BA23B0CA631404606F0EEFB204606F009FE2218A8682146121B06F068
:204C2C00F8FFF088D8B107F0E3F835490A8832B9B1680091F168034622A201911FE0F168A9
:204C4C0000913169019171690291B1690391F1690491316A0591716A0691B3680EE030693C
:204C6C00009070690190B0690290F0690390306A0490002705970697F368B06802462046E8
:204C8C00A62106F0B3FB204606F0CEFD22180D2002F8010B0A2702F8017BA8682146121BBE
:204CAC0006F0B7FF08B0BDE8F081C04623253036752000C05B2025642E25303375205D2099
:204CCC0000C046C07B6576743A20666D743D25702C20617267733D5B307825782C203078FB
:204CEC002578202E2E2E5D7D00C046C0000000000000F03E0000000000408F40080200205A
:204D0C008A050000B0B50246107A02F1090102F10904ADF1200D002845D0401E35D0401EFB
:204D2C0058D0401E52D0401E4CD0401E55D14248424F0168388820B341480068014220D086
:204D4C0040480068014204D13F4800680088014217D0A07800280CBF21A224A23D4840F253
:204D6C00A9270568009727A3019302920027039704970597364B0697344F1A8838681DA3C6
:204D8C00A847208805F02CFB27E00F88B7F5895705D0103F21D1084600F0A8FA1DE00846E9
:204DAC00FFF74EFE19E00F8841F210103F1A05D0203F12D10846FFF7C5FC0EE00846FEF71C
:204DCC00BFF80AE0204600F037FC06E0507AFDF7C1F902E0084605F09AFE08B0B0BDC04657
:204DEC00446973706C6179696E6700C053656E64696E670070726F6A6563745F7A65726FF5
:204E0C002E6300C0426F6E644D6772205265717565737465642070617373636F64652E20FA
:204E2C005765206172652025732070617373636F6465202530366400C4DB00005ADB000045
:204E4C00400500003C05000044050000E0DB000084050000DCDB00002DE9F041424C474D13
:204E6C008046C8F38140401E02D0401E2AD025E0284620300168880C20D24FF48040206027
:204E8C003A48D0F802204B0AC1F3033703F0800322F08F02134347EA0302C0F80220D0F810
:204EAC0001300E1266F30303C0F80130026801F0E70722F0E70247EA020102E04FF0004173
:204ECC00204601602A4E06F108000068C0F3C0070FB94020A0624FF40070206406F026FD2C
:204EEC0040F0300084F8C800C8F3815038B3401E03D0401E1ED002211DE0012006F0A8F936
:204F0C0007460420394604F0EDF8042006F0A0F98742FAD1366826F07F4005F0C1FA1548F5
:204F2C000068036807214FF06022300E98474FF4806020600321042004F0D4F806E00420D7
:204F4C00012104F0CFF80C4805F0AAFA284600680B4947F6180700F03F0084F8CB0F094E19
:204F6C000F803068BDE8F08140A00C400A600840A83F0050B4010010BD3786006C130050C5
:204F8C0070B00C402C20094070B5ADF1380D00F01FF9324908682822082340F002000860FA
:204FAC0001A8002106F030FF2D4EB0782E4907902C48002301AA06F023FF0021302208234D
:204FCC0001A806F029FF002519213078284AADF81C5001AB09902548009506F019FF2822D5
:204FEC00082301A8294606F00FFFF07822490790204801AA2B4606F003FF3022082301A852
:20500C00294606F009FF01241A2170781C4AADF81C4001AB09901948009506F0F9FE1948DF
:20502C0019492A46134606F023FF1848FBF75CF81849194E0C70164835704FF6FF72828379
:20504C00C577164B1D70164C257016490D70174E3560154A15700EB070BDC046002009400F
:20506C00A8DB000010240020E5B6000014250020A1AE0000442400207D6E00003025002022
:20508C00F98B0000782400206DA5000081620000BC240020C4250020C9250020C6250020AD
:2050AC00C5250020CA250020CB250020A82500202DE9F04F0C464549CA7AADF12C0D8446B4
:2050CC000592487B09900D7900958A7A488B4B8A0E7B91F805A091F802800492B1F846E0E3
:2050EC0008904A7A088B0392CD7807900A7AC88A02920F6A0690CA79888A01928A79E146B9
:20510C00A9F54079B9F11D0F10D8DFE809F05B5553514F4D4B494643413F3C3A380F3431FF
:20512C002E2B2923201E1C0F19181716BCF1280F49DA604604F0A0FC21E0099EB246D04604
:20514C00CDF814801DE00898079007980690DDF818E005E03831086820608888A08032E034
:20516C0070460AE0B1F8440009E0B1F8420004E0B1F8400001E091F83E00034612E0208072
:20518C0021E0059804900498039001E03231E2E7039802900298009006E0019A87310DE018
:2051AC0068310BE01846EAE7009D0BE02C31D2E7276008E0583100E048311022204601F0B8
:2051CC004DFF00E025700BB0BDE8F08F780C00202DE9F041444C94F8E700ADF1280D00283A
:2051EC006FD1394F387B01250021242284F8E7507E6884F8E6000823C4F80C6101A806F0AD
:20520C003BFE002604F10C00069601ABADF814602E490796324606F02BFE2D4904F130007B
:20522C0001AB324606F024FE2A4904F1540001AB324606F01DFEB868014628468847DFF8BA
:20524C009C8025487B7B0078D8F80410C1F381571BB1032F03D184F8E150032F16D0022F13
:20526C0014D0012F26D103201D4C009031464FF040521C23204604F089F8009531464FF44A
:20528C0000720923204604F081F813E0022005F037F9032F0CBF4FF47A7142F2107111481E
:2052AC0000685434B1FBF0F1204606F0D5FD204606F0CEFDD8F80000C00802D2304605F039
:2052CC001FF90AB0BDE8F0815CDB0000C78300001D750000D97A0000CC250020B03F005024
:2052EC0000A00C40B4DB0000C411002090B50146B1F80500ADF11C0D38B1401E03D0401EB9
:20530C0008BF18A202E01CA200E021A20879012826D1364C3648278801680FB3354800685D
:20532C0001421DD034480068014204D1334800680088014214D02C4840F2FA3704680097C9
:20534C001CA3019322A7029725A303930492002705972B4B06972B4F1A88386811A3A0476B
:20536C0007B090BD496E6469636174696F6E7320656E61626C6564004E6F74696669636190
:20538C0074696F6E7320656E61626C656400C0464E6F74692F496E642064697361626C650B
:2053AC006400C04670726F6A6563745F7A65726F2E6300C043434344204368616E6765207D
:2053CC006D73673A2025732025733A20257300C044617461205365727669636500C046C0ED
:2053EC0053747265616D00C0DCDB00005ADB0000C4DB0000400500003C050000440500001B
:20540C0084050000E0DB00002DE9F0430746880FADF1140D75D303F0B1FE404D00261C3562
:20542C002E60394845F81C0C012001F0B2FE3748FAF75AFEBC68B14640F60A01344A6680A2
:20544C00537B118090465680107BC2F8049003F0F00300F0F000107343F00103537300E036
:20546C001C46636813B118888142F9D1C4F80480607B00F0F0006073264806F046FC8068A6
:20548C000088C91F81421DD0491C81421AD03B8CC3B197F82C107E8497F82D00C7F8249097
:2054AC0001F0F00100F0F00087F82C1040F0010087F82D0007F12003C8F80430507B00F0BC
:2054CC00F0005073B868694605F0ACFD684606F025FAB86802F075FB28680028FCD02E6049
:2054EC00012005F0B5FE012808D0607B00F0F00040F0010060730848FAF7F6FDB86845F886
:20550C001C0C05B0BDE8F08301010E04450E00007425002060250020F98A000000100440EE
:20552C002DE9F04106F018F83F4D3E4EDFF8FC800446A00820D330464168E9B10022426045
:20554C008B690A690F6922401A4342F0020205F108038A611A68BA4301F110071A6097E8FE
:20556C000C002A680C301B1C9A432A6004F006FE4046022106F0CCF87068A10815D200F1F3
:20558C00100191E80C00002702EA04013B40002B08BF002909D081691440B0600C43846160
:2055AC004FF48041404606F0B3F87068002837D1304606F0AAFB071C32D01E48F968006847
:2055CC00884228D1B86803F0E7FA19490860E8B905F1080138690A68104308602B6807F145
:2055EC00100494E80300081C1843286000222A61B86845F80C0C05F1100000680028FAD083
:20560C00304606F009F87760BDE8F081086803F00DF8BDE8F08140464FF4805106F078F8A6
:20562C00BDE8F081602500200C10044010240020A4250020B425002030B5054636480168F6
:20564C0036480088ADF11C0D002829D034480068014225D033480068014204D13248006857
:20566C00008801421CD028780D2814BF14A217A2687800280CBF18A31CA32E48046840F2EF
:20568C002330009022A0019002920393002204920592274B06921A88244B186818A3A04712
:2056AC0028780D3804D0401E07D10120014601E0002001216A1CFCF7BBF807B030BDC0468E
:2056CC00427574746F6E203100C046C0427574746F6E203000C046C01B5B33336D72656C0D
:2056EC0065617365641B5B306D00C0461B5B33326D707265737365641B5B306D00C046C06C
:20570C0070726F6A6563745F7A65726F2E6300C0257320257300C046C4DB00005ADB0000EC
:20572C00400500003C05000044050000E0DB000084050000DCDB00002DE9F04707467D6814
:20574C00D7F8089090460C4606F08EFBAE6A8246002E64D105F1F00005F0C8FC2C6200249B
:20576C00EC7750466C6206F07BFB06F07DFB2F4E3378824623B9022004F0C2FE0120307019
:20578C00504606F06DFB2A4A1068414640F480701060384604F098FBA862C0B93846414675
:2057AC0003F05EFDA878D0B9A96805F1B80006F01BFBE8B9AC621020E8774946284602F0EE
:2057CC00D5FB06F051FB8246307840B323E0D9F80010886B40F020008863A87810B12046EF
:2057EC00BDE8F087A96805F1B80006F0FDFA10B1686ABDE8F0873846414603F031FD1020D0
:20580C00AC624946E877284602F0B0FB06F02CFB8246307818B1022004F05AFE3470504677
:20582C0006F01EFB4FF0FF30BDE8F087D0250020301000402DE9F047ADF1180D01F020FE0F
:20584C003A4D4FF0030908274FF6FF78002605F13E0A2C4605F0EEFC20BB009601A80DF1B2
:20586C0006016A4604F085FFE0B9BDF80400102814D160789DF8061088420FD10098018830
:20588C00884509D14088C00B08D3042005F12002014604F0C1FC01E003F096FC009808B1FC
:2058AC0005F006FE208A41082DD320F0010063792179208253EA010225D073B9207A637AEF
:2058CC008DF8070005F132018DF808300A680DF109031A608988998001E08DF80790A07A13
:2058EC008DF80F00E37A8DF810300DF1070006F0E5F838B1636AA77023B11A6812B11968A7
:20590C0038468847208A810807D320F0020020825146304602F0F0FA208AC1089AD320F094
:20592C000400208205F0E8FC94E7C046780C00202DE9FC4191EA03084CBF4FF000484FF00D
:20594C0000084FEAC32545EA52554FEAC2264FEA43077F0D11BF45F0004500210020BDE8DC
:20596C00FC815FF4E06E1EF1FF0E774555D04FEAC12343EA50534FEAC0224FEA4104640D09
:20598C0011BF43F0004300210020BDE8FC81744543D0E419A3FB0501A3FB06E7A2FB066354
:2059AC001EEB030E57F1000751F10001A2FB05631EEB060E57F1000751F10001FF1851F122
:2059CC000001C01951F100014CBF4FF4806E4FF4007E10EB0E0051F1000148BF641C01D4F9
:2059EC00400049415FF44077FF37E41BDEBF00210020BDE8FC8117F58067BC420DD24FEA89
:205A0C00D02040EA41504FEA41014FEA113141EA045141EA0801BDE8FC810020FF21C900FA
:205A2C00C91D090551EA0801BDE8FC8130B5344C2069ADF11C0D00283FD0A1780830491C5E
:205A4C00A17003F059FF0546162D04D02069042D00F102002AD12B482B4D016828880028A8
:205A6C002BD02A480068014227D029480068014204D128480068008801421ED0264A206990
:205A8C0040F2964315680093001D11A3019300780290A078039000220492204B0592204C9F
:205AAC0006921A88206806A3A84706E00088002104F0BAFE2846FEF707FF07B030BDC04632
:205ACC0070726F6A6563745F7A65726F2E6300C05265747279696E67206D657373616765FA
:205AEC002077697468206F70636F6465203078253032782E20417474656D70742025640087
:205B0C00C0070020C8DB00005ADB0000400500003C05000044050000DCDB000084050000AB
:205B2C00E0DB00002DE9F04390460A68D8F800401678814600271D46ADF1140D3846531C72
:205B4C00242E0B6053D112F8016F5B1C4C2E0B600ED1AA68E41C24F00304241D54F8040CD9
:205B6C00494602F03DFF2968EF600127091A2960462E1AD1E41C24F00304241D54F8040C91
:205B8C00E41C029024F00304241D54F8040C002749460390AA68ADF8047001A801F0ACFAFB
:205BAC002968EF600127091A2960532E1FD1E41C24F00304241D54F8040CE861C8F80040B3
:205BCC00288B0090A968EA69D9F800004346FBF793FCD9F80040002714B10119C9F800104F
:205BEC00D8F800402968EF60091A01272960662E0AD12B8B23B9E41D24F00704083403E095
:205C0C00E41C24F00304241D1FB9E9690E700127EF60C8F8004005B0BDE8F08334482DE99E
:205C2C00F0410D4601683348008806AF98461646ADF1200DF8B13048006801421BD02F4880
:205C4C000068014204D12E4800680088014212D02E484FF4A4630468009311A20192029591
:205C6C0003960023049305930693274B1A88254B186807A3A047CDF8008038882A46334611
:205C8C000190002003F006F808B0BDE8F081C04670726F6A6563745F7A65726F2E6300C01B
:205CAC00284342292043686172616374657269737469632076616C7565206368616E676576
:205CCC003A20737663283078253034782920706172616D4944282564292E2053656E64693F
:205CEC006E67206D736720746F206170702E00C0C4DB00005ADB0000400500003C050000B0
:205D0C0044050000E0DB000084050000DCDB00002DE9F043804634480D46016830480088EC
:205D2C0007AF99461646ADF11C0DF8B12F48006801421BD02E480068014204D12D48006816
:205D4C000088014212D0274840F22D530468009311A2019202950396002304930593069309
:205D6C00254B1A88254B186807A3A047CDF80090388841462A4633460190012002F08AFFD2
:205D8C0007B0BDE8F083C04670726F6A6563745F7A65726F2E6300C02843422920436861B9
:205DAC007220636F6E666967206368616E67653A2073766328307825303478292070617246
:205DCC00616D4944282564292E2053656E64696E67206D736720746F206170702E00C0466D
:205DEC005ADB0000DCDB0000C4DB0000400500003C0500004405000084050000E0DB0000F9
:205E0C002DE9F0430646ADF11C0D05F0E9FF04F02FFB4FF000090546CDF8009005F0C8FE7C
:205E2C0030F0010002D00098A84202D16FF0040059E070684C4658B1B0F1FF3F05D001A9A1
:205E4C0004F0FEFA30B107464CE04FF0FF3000E02046019005F0C0FF0199012701EB000841
:205E6C0000E001936868019905F0BEFF00282ED003A804F0AFF8D8B99DF8100002A904F045
:205E8C008FF888B9B368BDF808009DF81210059A984748B19DF81270B773BDF80800B081F9
:205EAC00059B33614F4612E00599684604F014FD0198641CB0F1FF3FD4D00028D2D005F06F
:205ECC008BFFB8EB000302D001989842C9D2009905F1080004F06EFE24B1686805F078FF9E
:205EEC00641EFAD1384607B0BDE8F0832DE9F8430746D7F80880D8F800007D68066C16F4D6
:205F0C00F06F466426D1F00910D2700952D395F83C00AC6B401E844288BF041C38462146AC
:205F2C0003F07EFFA86B001BA86308E0A96B384603F076FF014695F82D00A96318B9A86BD9
:205F4C00002837D101E00020A86305F1840005F03BFF2FE0F00A0ED3D8F8000000214468C9
:205F6C004160A96B04F00F04202988BF2021384603F056FF1AE04FF000094C4602E0A86BF9
:205F8C00401EA863A86B88B13846012103F048FFD8F80000446814F00F04C0F80490EED0C9
:205FAC00296B686B491E2963401E6863EC77384602F04EF8B0090DD3AE6A5EB13846314684
:205FCC0003F082FFA862A86A314618B93846091D03F046F9BDE8F8837CB50446084602F02C
:205FEC00EDF9344E02461821304604F0CDFC05F04BF940F2FF32002380B22C210090304635
:20600C0003F0C4F905F09AFC1C210246304604F0BBFC05F02BF902461421304604F0B4FCE3
:20602C0005F0BEFA02461021304604F0ADFC204602F0ECF802460C21304604F0A5FC2046F9
:20604C0005F096FA1C4D400040F020002870204605F09AFA40F010002870204604F0F2FF0C
:20606C0002462821304604F08FFC204605F0A4FA400040F06000E870204605F0A9FAC000AF
:20608C0040F0800005F8080C204605F0ADFA800040F47C40A5F89300204604F08BFC024668
:2060AC000821304604F070FC4FF48000A5F2091108607CBD00A00C4049A10C407FB52E48F4
:2060CC00A338067804F0F2FB294C0028E06030D004F038FF04F0EAFB2061002829D004F003
:2060EC0031FF244A04F11400072103F0E3FC2348234D01682888D8B122480068014217D07A
:20610C0021480068014204D120480068008801420ED01F4840F20113056800930BA2019224
:20612C00072302931B4B1A881B4B186802A3A847267000907FBDC046627574746F6E5F733C
:20614C006572766963652E6300C046C05265676973746572656420736572766963652C20F3
:20616C002564206174747269627574657300C046041500208CD8000063080020C4DB000056
:20618C005ADB0000400500003C05000044050000D8DB000084050000E0DB00007FB5064678
:2061AC002B480D4601682B480088F0B12A48006801421AD029480068014204D12848006838
:2061CC000088014211D00D2D0CBF11A213A2274840F28E530468009317A30193224B0292CA
:2061EC001A88204B186810A3A04745F0004230464FF4E02103F08EFF2846B0F10D011C483A
:20620C0002D0491E02D1243005F022FE00907FBD427574746F6E203000C046C04275747400
:20622C006F6E203100C046C070726F6A6563745F7A65726F2E6300C0427574746F6E2069F2
:20624C006E746572727570743A20257300C046C0C4DB00005ADB0000400500003C0500009C
:20626C0044050000E0DB000084050000D8DB000098080020042998B54CD1274805F045FDD5
:20628C00264C48B9264800F11F010978490838BF206803D3406800E0C06820604168214A95
:2062AC0009781160416812680978914206D0876927B124A20CCA6FF0FF01B847022004F0BB
:2062CC001FF9112000F0ACF801222168164B087C1A7018B115480078012803D00E2000F002
:2062EC009FF82168496812488F680FB9CF681FB10021C1610F4F07600F4A40F2FF7111602D
:20630C00002787610D4941610D48F9F7EDFE192005F056FD98BDC04660250020B4250020C0
:20632C00BC240020D0210840C6250020C925002000100440510007060000046002000040A7
:20634C001554000000000000000000022DE9F843044605F089FD81462D48021992F8ED10D2
:20636C00491ECFB2002F82F8ED704BD12B4D05EB84052E78698836F07F0788461AD1F10920
:20638C0011D24FF08054D4F8B801806901464046884704F5DC742068406B014640468847D9
:2063AC000228F8D121E000EB8800D0F80011002088471AE04FF08054D4F8B801006A01465F
:2063CC0040468847D4F8B801806A014640468847D4F8B801006B01464046884701210D4A4C
:2063EC000D48116001688908FCD306F03F003F2801D0FFF7ABFF687800F03F003F2801D0AE
:20640C00FFF7A4FF484605F02BFDBDE8F883C046C4110020282008602820084028D70000D2
:20642C002DE9F041064605F01FFD2D4D8046A91991F8ED00421C002881F8ED204AD1294C98
:20644C0004EB8604277807F03F003F2801D0FFF7E7FF607800F03F003F2801D0FFF7E0FFBA
:20646C00668837F07F001AD1F80911D24FF08054D4F8B801406901463046884704F5DC7497
:20648C002068406B0146304688470128F8D121E005EB8605D5F80011012088471AE04FF0BC
:2064AC008054D4F8B801C069014630468847D4F8B801406A014630468847D4F8B801C06A58
:2064CC000146304688470121074A0848116001688908FCD3404605F0C3FCBDE8F081C046D1
:2064EC00C411002028D700002820086028200840294A2DE9F0418046012628481660076860
:20650C00002FFCD0294C2A4FC020443C206007F1080001682348890804D20168090C41F0BC
:20652C00F00100E072211E4D85F85412002111638768384601F046FB40463946FFF74CFD25
:20654C001C48B038816D40F20F226FF31F418A4212D901680068C1F30363C0F3034003B184
:20656C005B1E072805D006280EBF0720801C00F00F0043EA001028703846FEF76DFC0E48CE
:20658C0014380068C1680220884740202060064F3E60BDE8F081C0461010094094022243CE
:2065AC0002600840AC3F00509404604244600C40A83F00506C130050B40100107FB5264853
:2065CC00067804F05DF9254D0028E86028D004F0B9FC234A05F14C00062103F06BFA2148CD
:2065EC00214C01682088D0B120480068014216D01F480068014204D11E4800680088014217
:20660C000DD01F48EE23046800930AA20192062302931A4B1A88184B186802A3A0472E7009
:20662C0000907FBD646174615F736572766963652E6300C0526567697374657265642073A6
:20664C006572766963652C202564206174747269627574657300C046C0070020C013002094
:20666C00C0D80000C4DB00005ADB0000400500003C05000044050000E0DB0000840500008F
:20668C00D8DB00002B4AF0B538CAADF11C0D02A938C10CCA4FF0805681E80C0084684568BB
:2066AC00D6F8D0112068C9688847216822488A6B10408863206840F2F271416495F83C00E9
:2066CC0095F83D202168C0100DEB8000806810434863684605F070FB1A4FDFF864E0D6F8AD
:2066EC00D0112B7FDFF854C06A7FA87F496857F823705EF82260AA695CF820300D4620680B
:20670C0001993E433343A8470F490A1F106840F010001060086840F001000860A07DFF28F7
:20672C0006D0E07DFF2803D0086840F44040086007B0F0BD34D800000DF8FFFF20D8000029
:20674C0018D8000008D80000301000402DE9F041DFF8B080044698F800001F4615460E46A1
