:040000050000FD01F9
:020000040000FA
:1000000020430020B9AD000001CA011001CA01104F
:1000100001CA011001CA011001CA011001CA011070
:1000200001CA011001CA011001CA011001CA011060
:1000300001CA011001CA01103FCA01102149086814
:10004000C2430A600A680242FAD170471E490A6830
:10005000002AFCD1CA610860C8690028FCD00020D1
:10006000C86148687047194801686FF00202114082
:1000700041F40071016003211548816041F23001B3
:1000800041610121C160502141610121C1604FF4F2
:10009000CA6141610121C160016070470D48026879
:1000A0000A6082684A60C2688A60406B20F07840CB
:1000B00040F08050C86070477047014610220648E3
:1000C00001F01CBE10100440001004400000046049
:1000D000004104404C1300501800002170470120DB
:1000E00070470000200000000A00000008100020F7
:0400F0000400000008
:100100003C0000000000000000000000340100007E
:1001100000000000000000000100000000000000DE
:1001200000000000000000000000000001000000CE
:100130000000000008000000000000003400000083
:100140000000000000000000680100000000000046
:10015000000000000100000000000000010000009D
:100160000000000000000000080000000000000087
:1001700030000000000000000000000098010000B6
:10018000040000000000000001000000FFFFFFFF6E
:10019000FF00000001000000080000000000000057
:1001A0002C0000000000000000000000C40100005E
:1001B000040000000000000001000000FFFFFFFF3E
:1001C000FFFFFFFF080000000000000034050000F2
:1001D000E401000099A1011095A70110A5C201102A
:1001E00009B2011045B80110000000000000000035
:1001F0002F000000280000000000000000000000A8
:10020000140200000000000000000000FFFFFFFFDC
:1002100000000000080000000000000030050000A1
:100220003002000069C201106DC101101FC201102F
:1002300095BA011000000000000000002D00000031
:10024000300500005402000075C20110A9B601106B
:100250009DBF011049B60110000000000000000021
:100260002E0000002400000000000000000000003C
:1002700080020000000000000000000000000000FC
:100280000800000000000000240000000000000042
:1002900000000000A40200000000000000000000B8
:1002A0000000000008000000000000002400000022
:1002B0000000000000000000C80200000000000074
:1002C0000100000000000000080000000000000025
:1002D00000000000700F002004000000000000007B
:1002E000000000002000000070010000300000004D
:1002F0001C020000900F002004000000000000001D
:10030000000000000C000000300400001800000095
:1003100040020000980F00200400000000000000D0
:100320000000000024000000480400001800000045
:1003300000000000D80F00200400000000000000B2
:100340000000000010000000A00100002C000000D0
:10035000CC010000E00F00200400000000000000BD
:1003600000000000200000006402000024000000E3
:10037000FFFFFFFF0010002004000000000000004D
:100380000000000028000000880200002400000097
:10039000FFFFFFFF301000200400000000000000FD
:1003A00000000000580000003C0100003400000084
:1003B000FFFFFFFF381000200400000000000000D5
:1003C00000000000100000006004000018000000A1
:1003D000FFFFFFFF401000200400000000000000AD
:1003E000000000001C000000AC020000240000001F
:1003F000FFFFFFFF48100020040000000000000085
:100400000000000038000000F40100002800000097
:10041000FFFFFFFFB01000200400000000000000FC
:100420000000000054000000000100003C0000003B
:100430001800000000000000000000004004000060
:10044000080000000000000018000000000000008C
:100450000000000058040000080000000000000038
:100460001800000000000000000000007004000000
:1004700008000000000000000100000010AE0000B5
:01048000007B
:100484000100000000000E0000000F003200000018
:1004940001000000780F00200002000000000000AE
:1004A40001CA011000000000000000000800000064
:1004B40000002300A00F002001000000E80F00202E
:1004C4000800000000000000000000000000000020
:1004D4000000000000000000010000005010002097
:1004E4000600000001000000B81000200000000019
:0C04F400000000000002000000000000FA
:0F0502002900010025002D002E002F000100010F
:1005140004000000E4AD0000000000000000000042
:10052400000001000000030087C40110380500002A
:10053400380500000000000090000000900000005A
:1005440000000000E80F0020759800002000000063
:10055400D0AD000050AB00000DC30110C91C000059
:10056400CB1C000099C801109BC8011000000000BA
:100574008004000010AA000028AA0000F8A90000C6
:090584000800090001000000015B
:10059000000000000000000000000000000000005B
:1005A000151C0000351C0000391B00005F1C0000FA
:1005B000811B0000571B0000B31B00008B1C0000B8
:1005C000ED970000399900003D99000008000000F7
:1005D0002400000018000000280000002000000097
:1005E0003C0000000C00000034000000DFF800F0C8
:1005F00049C10110DFF800F019C20110DFF800F066
:1006000041AC0110DFF800F0CDA00110DFF800F0E0
:1006100085C10110DFF800F0C1C20110DFF800F061
:10062000E3BF0110DFF800F0CDC10110DFF800F0EA
:100630003DC10110DFF800F0DDB20110DFF800F07D
:1006400085B00110DFF800F029AF0110DFF800F0ED
:1006500079B50110DFF800F0C1C10110DFF800F03A
:1006600009B70110DFF800F0D5C00110DFF800F085
:10067000E1B5011020B1082328220021FFF7D2BFE5
:10068000704720B1082330220021FFF7CFBF704709
:1006900038B500F091FF25680DB129682160FFF79A
:1006A000A9FF284632BD70B504460D4626680020D5
:1006B00028601EB9FFF79AFF25600DE0FFF796FF4F
:1006C00000E0366831680029FBD1AE4203D1FFF764
:1006D00091FF002070BD3560FFF78CFF012070BDD9
:1006E0000022DFF8541C01EB4211CB7F1B0605D51D
:1006F000B1F91C30834201D108467047521C082AC8
:10070000EFDB0020704770B50646FFF76FFFDFF89C
:10071000545C0446A87E01001AD0401EA876C0B2E0
:10072000B0B9082100F026FC96B1A86B703001F03A
:10073000B0F800F010FE301AB0FBF1F1022938BF1A
:100740000121EC352846FFF765FF2846FFF766FFD5
:10075000204600F065BE10B50446207B00F00F0077
:1007600002280FD100F012FDA168081ADFF8F41B6F
:10077000896BC968800801F57A71814238BFB0F190
:10078000405F00D3002010BD38B5DFF84C0ADFF819
:100790004C2A0168DFF87C4C02EA0105E94301605C
:1007A000A90608D54068800605D54FF4005104F12C
:1007B0004C0001F060F915F4602F08D0206905F4B1
:1007C000602108432061002104F19C00D0E131BD8B
:1007D00070B5FFF70BFFDFF83C4C0646206910F4BC
:1007E000602F27D02069C5012D0EE80748BF0025DE
:1007F00006D4A80748BF012502D4680748BF0225D0
:10080000681D40B200F040FF2069012105F111028E
:100810009140884320613046FFF7ECFE04EB8500F1
:100820004668300009D0206800224FF00063691D3F
:10083000B04702E03046FFF7DDFE206930B104F139
:100840009C00BDE87040002101F015B970BD70B585
:10085000FFF7F4FBDFF80C5BDFF8BC4BAB6A02463A
:1008600090071DD4D3E90401104007D0EB629969C9
:10087000084398614FF4804100F07CFBA86A00288F
:1008800047D16E6A002E44D0F068A96B884224D00C
:1008900005F14C00BDE870404FF4805101F0EBB819
:1008A0000BB9A86AEAE70020A862D3E904019E69AF
:1008B000024042F0020232439A61626982436261FD
:1008C000E26822EA0100E060194605F13000FFF716
:1008D000EAFE022100F04EFBE3E7B068FFF73BFFC2
:1008E000A86408B1A86CD8E0D6E9040162690243A3
:1008F0006261E26841EA0200E0600020E061B06805
:100900002060E0690028FCD005F12400FFF7C0FE5C
:10091000AE6270BD0020F6E6F8B506461446376EA6
:100920001D4607B1B847A00708D4D6E916012040F4
:1009300029400022914208BF904207D0C6E91A45DB
:1009400006F13800BDE8F240FFF758BEF1BDFEE702
:1009500080B501F081F8DFF8BC2A0146906BD26BBC
:10096000BDE80840104710B5DFF8A84A0FF2311172
:10097000E06B884202D101F0B5F9206404F14C002B
:10098000BDE81040042101F076B880B5FFF756FBB2
:10099000DFF8881A084207D0BDE804404FF0005144
:1009A000DFF8100C01F067B801BD70B5040073D01A
:1009B000A168202001E04968401E79B1C2B26AB145
:1009C0000A8840F603039A421CBF40F604039A4289
:1009D000F1D1E0681822203001F0A0F9A0690021CF
:1009E000A1616168D9B140F00202E07F002300F00C
:1009F0000700012807D0022809D0042804BF0022DC
:100A00004FF0805306E000224FF0005302E0002236
:100A10004FF08043B4F91C10E0686568A847FFF701
:100A2000E5FDDFF840590646E88E401CC0F30B0098
:100A3000E8860020296BC87705F13000FFF728FE13
:100A40003046FFF7D7FDB5F93610E06800F1B8027F
:100A5000B2F90030994204BF297E00291CD1917857
:100A600009B9016811B90020907016E0AA6B1268EC
:100A700012F1010F10D0DFF8F42B1268B1FBF2F184
:100A8000022938BF01217030FFF7C4FDE068BDE8DE
:100A900070407030FFF7C2BD70BDBDE8704032E6F7
:100AA00038B50D46A807DFF8BC4816D5206BFFF710
:100AB0007CFF206B25F0020510B145F0020109E032
:100AC000680702D4606A002851D004F1EC0000F0FD
:100AD000E0FE042104F14C004AE0680747D5606A53
:100AE00008B1C068A063A06BDFF8E42A41680B7806
:100AF0001360126809788A421CBF8569002D05D0F1
:100B000000224FF000736FF0FF01A847022001F0B0
:100B100061FA112001F073FA01206077A06BE17E89
:100B2000007C084204BF0E2001F069FAA06BDFF8D8
:100B3000E81840688268002A04BFC068002804D012
:100B40000020C861DFF8D80A086040F2FF70DFF8C3
:100B5000D42A106000208861DFF8C00848610FF2D5
:100B60001900E0631920BDE83240FFF763BD31BDD5
:100B7000BDE8344000F07FBF2DE9FF478046880084
:100B800040F1B580DFF8DC57A86B40684068010091
:100B900018BF8047A86BDFF88098406881680029FB
:100BA00004BFC168002914D0D9F81C100029FBD05B
:100BB0000021C9F81C108068010018BF8047A86B8D
:100BC0004068C068010018BF8047DFF8B40AFFF72B
:100BD0003DFA0020C9F81C0040F60A0ADFF8A40A12
:100BE000DFF8E07AC9F8000008F108040120FFF7F7
:100BF00075FA0FF25110E863A7F800A00020788082
:100C0000002100F0B0F900F0A7F9206806467180D5
:100C1000E97E09B1617A99B1018840F602029142F8
:100C200005D1318A4FF60F421140318204E0318BF9
:100C30004FF60F421140318300216172FFF73CFAF9
:100C400020686946FFF72AFA6846FFF736FA00E09F
:100C50000646706800281CBF01885145F8D17760AE
:100C600040F60301707B00F0F0007073686A8068E2
:100C7000008888421CBF40F60401884202D100204F
:100C8000286417E0208BA8B100206083E06108F1A0
:100C90002C00017801F0F0010170417801F0F001C1
:100CA00041F00101417008F120007860787B00F08C
:100CB000F0007873D9F81C000028FBD00020C9F898
:100CC0001C00012001F05AFC012808D0707B00F0C4
:100CD000F00040F0010070730FF21900E8634FF666
:100CE000FF322068018A11400182C9F80000BDE886
:100CF000FF870000DFF8D009014200D170470120D2
:100D000010B501F03BFC0128DFF8584608D10FF27E
:100D10003500DFF80417E063DFF8A809086010BDAC
:100D2000DFF8481909683220B0FBF1F1022938BF19
:100D30000121EC342046FFF76DFC2046BDE8104051
:100D4000FFF76CBC2DE9FE4306460C466004DFF855
:100D5000145619D5FFF74AFCEE6AB769B9070ED4E5
:100D60006EB10021B161FFF745FC706848B1B6F97A
:100D70001C10F06876683A460023B04701E0FFF7A0
:100D800039FC24F48044E1E0A0070AD5286BFFF782
:100D90000CFE286B002824F0020401D044F0020469
:100DA000D4E0A00005F1800840F60909DFF81479C5
:100DB00071D5B068018840F60202914205D1028ADD
:100DC0002D2161F30912028204E0028B2D2161F3CF
:100DD00009120283286CB8B1042001F0CFFB98B14E
:100DE00000F080FF296C814228BF401E401A718AA2
:100DF00011EB1030F06040F2D761A0F2EE20884293
:100E000024BF40F6C410F060D6F818C0BCF1000F43
:100E10001CBFDFF8BC188C450DD0787B0F21084231
:100E200004BF708C484506D100224FF000736FF468
:100E300080713046E0470022DFF89818404600F005
:100E40004BFE287F50B10220ADF800006846FFF746
:100E5000FDF8BDF80800A8820020287701206876F8
:100E6000A87E401CA87600206877686A18B119200F
:100E700000F035FE01E044F00204D6F81480B8F129
:100E8000000F05D000224FF0806300213046C0479C
:100E900024F000545AE095F8200024F0080628B108
:100EA000200703D5002085F820003CE020073CD532
:100EB000002068760120A8770020FFF70FF90FF2D5
:100EC000BD00DFF81418DFF86047E86300224046F1
:100ED00000F002FE297FE87E81F00101084202D184
:100EE0000120E8760FE0A86CB8B100F0FBFE296C99
:100EF0006A6C401A02EB10306864A96CB0EBC11F39
:100F00000BD300206864A7F8009000F025F80020BB
:100F1000788000F028F8276003E04FF0005100F0DF
:100F200029F800202864344610E0A0040ED5AE6AEB
:100F3000002E1CBF7068002806D0B6F91C10F0689F
:100F4000766800222023B04724F4005414B12146CF
:100F500000F010F8BDE8F783787B00F0F00040F077
:100F6000010078737047387B00F0F0003873002080
:100F70007860704705F14C0000F07DBD70B5054606
:100F80000E46B007DFF8DC430BD5206BFFF70DFDF5
:100F9000206B08B1022129E0B0002DD54FF000519F
:100FA00024E0B00028D5FFF75EF8DFF83007DFF85F
:100FB0003067E063307818B905F13800FFF71EFBA1
:100FC000DFF8601600200860022000F099FF112071
:100FD00000F0AAFF287C10B90E2000F0A5FF002029
:100FE000E083B07840B10020B070042104F14C00DF
:100FF000BDE8704000F03FBD70BD30B58DB000F071
:1010000000FFDFF8E006DFF8E0460168DFF8545340
:1010100041F00201016001A8FFF72CFBA078DFF886
:10102000CC160790002301AA05F14C00FFF706FB40
:1010300001A8FFF726FB0020ADF81C0001AB2078CB
:10104000DFF89426099019210020009005F1800016
:10105000FFF7F8FA01A8FFF70DFBE078DFF890162C
:101060000790002301AA05F19C00FFF7E7FA01A809
:10107000FFF707FB0120ADF81C0001AB6078DFF83B
:10108000742609901A210020009005F1D000FFF786
:10109000D9FA00230022DFF8601605F1EC00FFF713
:1010A000D5FADFF83806E8630DB04FF6FF70A88276
:1010B000012028770020E875E8766877E88385F8CE
:1010C0002000286430BD2DE9F041DFF814660446A5
:1010D00030788EB00F4690461D4618B9FFF78DFF49
:1010E00001203070002F1CBF6760B8F1000F4BD09B
:1010F000C4F80880FFF77AFA7178002942D10121FB
:101100007170FFF777FA35B909A80FF2246114223C
:1011100000F004FE09AD286820606868E060287C63
:101120002074A868606101206074688A6082E86841
:10113000010018BFA061A02104F1200001F0D4FA41
:101140000823242200216846FFF784FA01208DF845
:1011500018006A46002104F13800FFF77FFA0823DF
:10116000242200216846FFF751FA06946B460022BC
:10117000DFF8881504F17000FFF768FA20460EB01A
:10118000BDE8F081FFF736FA0020F8E738B5FFF741
:101190002DFA7449497E31B1DFF868150C68FFF704
:1011A00029FA204632BDFFF725FA00F09BFD10F525
:1011B0000030DFF8542541F10001A2FB0045DFF8C3
:1011C0000C0502FB015501690020221845EB0103C3
:1011D000184632BD000000000810044020000E0038
:1011E0002DE9F84F04460E4692469B46FFF7FEF95E
:1011F0005C4D8046B5F93400B5F93610401AC0F39D
:101200000B0008286FF0010944DAA88E401CC0F3D7
:101210000B00A886B5F93400ADF80000002046495F
:1012200001EB4017F97F090604D5401CC0B208281D
:10123000F5DB002704F1700000F02BFBBE6087F89F
:101240001EA0C7F804B02021BDF80000B883FC60E0
:10125000DDE90A23DFF8B40410401940C7E90401AE
:10126000B8340020F87740F6FF76686A00283946DF
:1012700005F1240006D0FFF716FA30B100F05EF851
:1012800040464BE0FFF70FFA40B9A88E3018C0F384
:101290000B00A88600F070F948464AE000F04EF8CE
:1012A000E87F697E084208D0012085F820000020F0
:1012B000E8772877A87E401CA87600F05DF9A86A38
:1012C000002834D1687E18B1192000F008FC2EE007
:1012D000687F60BBFFF78AF90446A87F20B1DFF87A
:1012E00000140120887018E0B868FFF734FAA86489
:1012F000B8B100F030F8AA6C121AB2FBF1F2022A6F
:1013000023BFAA6C101AB0FBF1F10121EC3528467D
:10131000FFF780F92846FFF781F92046FFF76AF9C1
:1013200005E02046FFF766F90421FFF723FEBDF92B
:101330000000BDE8F28F000078120020BDF8000028
:101340002080F87F40F08000F877A07810B100206E
:10135000A07028777047A86BDFF81013C068096881
:1013600070470000E02600202DE9F04106460F46B8
:1013700014461D46FFF776F980463846FFF7B0F968
:10138000070003D14046FFF771F90AE0F87F072113
:10139000084209D04046FFF769F90721F87F084263
:1013A000FCD10220002116E07968DFF86403814255
:1013B00002D0796831667860C6E916454046FFF785
:1013C00055F94FF0FF3106F13800FFF71BF9002007
:1013D0003066D6E91A01BDE8F081DCB5DDE90667C3
:1013E0000446CDE90067180008BFDFF82433204623
:1013F000FFF7F6FE002803D500204FF00041DCBDCA
:101400000146204602B0BDE8D04002224FF0E04342
:10141000AAE70000E026002000100440020000407F
:10142000BDE87040FFF7E6B801E042F002022DE9A6
:10143000F843DFF8CC42606A0090894603271546DE
:10144000FFF7D4F819F1010F05F0010680460AD123
:10145000A06A002819BFA06AB0F91C90E08E00F1C4
:1014600001090020E0750FFA89F0FFF739F9010052
:1014700070D0A06A814205F0020525D1280003D072
:10148000606A0090002060620122C87FB240104371
:10149000C877FFF7E7F80746002E14BFDFF874029D
:1014A000DFF87402FEF7D2FD00F066F825B906E019
:1014B00000F055F800F05BF800980028F8D13846A5
:1014C000FFF7D4F8832747E0009A8A4204F1EC0042
:1014D00016D100F0DEF9280012BF0020606A006813
:1014E000606200F049F8009800F039F800F03FF829
:1014F000009818B32800F6D120E0009A12680092F4
:10150000009AEAB112688A42F7D100F0C2F9009855
:1015100000681DB1009A0021116004E00168009A82
:10152000116000210160009003E000F018F800F065
:101530001EF800980028F8D100F01EF8832701E07B
:1015400000F01AF8607F38B9022104F14C0000F075
:1015500092FA01E000F010F83846BDE8F283C07F4F
:10156000009940F00400C8776846FFF791B801463B
:1015700004F13000FFF797B84046FFF73BB838B5A5
:1015800000F01AF805465E48407E68B12046FEF736
:101590005DFD044600F04AF804F0FF00012801D187
:1015A000812032BD022032BD00F040F8012032BD62
:1015B000000000002C2700200446FFF717B80A4659
:1015C0004F49896B884201D00320704709E0000031
:1015D000D02108400A464A49896B884201D003203D
:1015E000704700211046CAE770B545498A6B9042A2
:1015F0006FF07F0411D1487E78B1FEF7F7FF054602
:101600004648FEF723FD064600F010F806F0FF00FE
:10161000012802D13002001670BD204670BD0000C6
:101620005100070600000460001004402846FEF741
:10163000E1BF70B50E461546FEF7D8FF832430494A
:101640001EB1022E0DD005D30EE08A6A3AB1896A26
:10165000898B02E00A7F12B9898A298005E08024FB
:1016600003E0497E297000E003245BE0E80000000D
:1016700080B50846FFF734F800B1806802BD00006D
:101680000100070601010E0438B5FFF795FF1C495C
:10169000CA7D520702D58B7D9C420FD001228B8AD6
:1016A00002FA04F52B438B820C341D4B1D68A240BB
:1016B00025EA02021A601A6802B90A76BDE83240C9
:1016C000FEF798BFF027002004000020F02700203C
:1016D0004F0900004F0800008B090000A10A00001C
:1016E0000D31002000200940B4A60000510900007F
:1016F000D1070000890700006709000015090000F4
:10170000E02600200430044000093D00F1EFFF9F77
:101710001909000001000204010001040100030492
:101720000C100440FEF766FF204670BD000000006C
:10173000FFFFFFFFC4090000000000004F09000088
:1017400001001A01DFF800F0F5C00110DFF800F029
:1017500049BA0110DFF800F013C10110DFF800F002
:10176000E5C10110DFF800F0F5B80110DFF800F076
:1017700021B30110DFF800F095C00110DFF800F090
:101780000DA80110DFF800F0BDBE0110DFF800F079
:1017900021C10110DFF800F0A5B90110DFF800F059
:1017A00021BA0110DFF800F0BDC20110DFF800F02F
:1017B000B5C10110DFF800F015B60110DFF800F038
:1017C00019A70110DFF800F0D5C20110FEE7DFF81D
:1017D0009002007D70476EE038B5FFF7FCFFDFF840
:1017E00088520446A8680021FFF7C4FF6969081AF7
:1017F000A969814238BF002084F3118832BD2DE9E8
:10180000F041FFF7E8FFDFF860520446A8680121C5
:10181000FFF7B0FF0121A9830021E9836E692968E0
:101820002A68871B801A711A884204D20020A88374
:1018300084F311882BE084F31188002406E0A619B4
:1018400031460120FFF79AFF3F1B0446A742F6D21C
:10185000FFF7C1FF8046E88B012804D13146002004
:10186000FFF78CFF0446A96914F1010F08BF084671
:1018700003D0E01B814238BF08468119FFF782FF81
:10188000012028840020A8832E6088F31188BDE8F9
:10189000F08100218182DFF8CC11C068496988425B
:1018A00004D1DFF8F4010068FEF7B8BE7047808A03
:1018B0007047704700BFDFF8E4110968EFF311804B
:1018C00081F3118870470021DFF8D421016012688C
:1018D0001044FFF747BF38B50446FFF7EBFF054656
:1018E000207C022808D12046FFF750FF00202074FA
:1018F0002946A068FFF74EFF00F0D6B803681A40EB
:1019000003680B408B4208BF0A4312B10168914340
:101910000160104670472DE9F0411F4617F1010F95
:1019200018BF002F92B000F0B3F80AD06B463A46C9
:10193000DFF8701108A8FFF731FF08A80390022014
:1019400002E00020039003208DF810000695079612
:10195000FFF704FF0290FFF7ADFF804632462946AD
:101960002046FFF7CBFF050009D0039818B1FFF719
:1019700019FF0020039088F31188284632E01FB930
:1019800088F3118800202DE0FFF7DCFE0546029960
:10199000DFF80C01C1F818D0694600682044FFF751
:1019A00005FF0298FFF706FF9DF81000022804BF0C
:1019B0000398FFF703FF88F311882846FFF7C6FE58
:1019C000FFF778FF0446039818B1FFF7EBFE0020FD
:1019D000039000200299886184F311889DF810001B
:1019E00000B1059812B0BDE8F081F8B50446DFF803
:1019F000B00000680E462718FFF75CFF0546206818
:101A0000304320603846FFF7A5FE10B185F31188FA
:101A1000F1BDFFF797FE06463846FFF7D3FE0746AF
:101A2000FA69B9692046FFF769FF786160B1384605
:101A3000FFF7ACFE01203874F86808B1FFF729FF02
:101A4000B8682946FFF7A6FE85F311883046BDE841
:101A5000F240FFF77BBE2EE7DFF854008068704746
:101A6000A40100207801002078010020616280F349
:101A700011882046704738B504460D46FFF7EBFF46
:101A8000616A2943FFF7F2FFBDE83240FFF76EBEFF
:101A900004460D4616467047EC000000E4000000C6
:101AA000F0000000D718000085F3118831BD000058
:101AB000C801002010280ED3A0F11002DFF830106A
:101AC000520901EB82011038012200F01F0002FAD6
:101AD00000F0C1F8800270478160426070471028B2
:101AE00004D3DFF80C101038C1F8000F7047000065
:101AF00000E000E000F0FCBDFFF7DDBEDFF898116C
:101B0000C20744BF01220A60820744BF4FF48072BB
:101B10000A60400744BF4FF4803008607047DFF828
:101B20007C21C30748BF1160830748BF516040074D
:101B300048BF91607047000010B504460020D4E90A
:101B40000A2347F6906100F07FFE0123994228BFE7
:101B50004FF0FF3010BD10B50C4600F0B9F8011D74
:101B6000201AB0F1004F05D8081BB0F1004F38BF64
:101B70008C4200D20C462146BDE810400120CEE741
:101B80002DE9F04180460A46D8E90A01D8E90C451A
:101B9000A0FB026701FB0277A6196F41340C0022FB
:101BA00044EA07414046FFF7D6FFC8E90E67BDE8A3
:101BB000F081F8B50646FFF79FFF0446DFF8E050D6
:101BC000DFF8E0700120E861FFF798FFF96A096A21
:101BD000142088473069B0F5802F34BF0421010CF0
:101BE0000120FFF79CFF3A681268232100209047EC
:101BF000DFF8B41001200860DFF8B400016821F4B8
:101C0000E02141F4803101600120286084F31188D3
:101C1000F1BD000000F066B810B5DFF89000446830
:101C200000F006F86069A169BDE8104008470000AF
:101C3000012063E7F8B504460D4600F053F8D4E9F7
:101C40000A6732463B4600F0FFFD3DB1A6FB00238C
:101C500006FB013307FB0033C4E90C23F2BD10B5CA
:101C6000DFF83C00DFF84C40002101600121C16138
:101C700021602068FFF7DCFFDFF848100968096A77
:101C800014208847206810BD000080B500F02AF8B5
:101C9000000C40EA014002BD042009401820094020
:101CA000000024438401001080022443E40100204A
:101CB000002009402C200940DFF81000C088704740
:101CC00000000000B0010010FEE77047F0010020A6
:101CD00009480168426803689942FAD1100C40EA49
:101CE0000140704710B5044A136850681468A34255
:101CF0001946F9D110BD00000820094062B38B07D6
:101D000008D0521E11F8013B00F8013B00F024807E
:101D10008B07F6D1830740F0208000BF103A07D32D
:101D200030B4B1E83810103AA0E83810F9D230BC1D
:101D3000530724BFB1E80810A0E8081044BF51F8C9
:101D4000043B40F8043BD20724BF31F8022B20F8B3
:101D5000022B44BF0B7803707047083A07D3B1E8F1
:101D60000810083A40F8043B40F804CBF7D2530778
:101D7000E4E7000020B1082324220021FEF746BC3E
:101D8000704780B50120009009234FF400720021B4
:101D9000DFF8080700F015FE01BD80B50023012221
:101DA0003421DFF8F80600F01FFE00B10120C0B2B8
:101DB00002BDDFF8EC0680687047DFF8E4164018D3
:101DC00090F8ED0070470022022904D1012806D1C5
:101DD00040F2EE2203E0012808BF4FF47A72104669
:101DE0007047DFF8BC06D0F8DC007047DFF8B006BB
:101DF00090F8E61021B1D0F80C01010018BF00479F
:101E000070472DE9F041DFF8988608F1E1058AB0C6
:101E1000A879002861D10120A871DFF88866DFF871
:101E20008876307B68717068C8F80C0101A8FFF7EC
:101E3000A1FF00200690ADF81400079001AB00222E
:101E40000FF2F54108F10C00FEF700FC01AB002297
:101E50000FF2A15108F13000FEF7F8FB01AB0022B0
:101E60000FF2D94108F15400FEF7F0FBB1680120F0
:101E70008847DFF8380600787868C0F38154707BB3
:101E800020B1032C02D10120287003E0032C18BFDD
:101E9000022C16D1022000F09DF8032CDFF810165A
:101EA0000CBF4FF47A7042F210700968B0FBF1F188
:101EB00008F15400FEF7AEFB08F15400FEF7AEFB4C
:101EC00005E0012C03D100F063FAFFF75AFF3868F0
:101ED00040075CBF002000F07DF80AB0BDE8F0814B
:101EE00010B508B1140001D1022010BD8160C2609C
:101EF00003610146DFF8A80500F090FD002010BD49
:101F000010B50446FEF772FBDFF89415621892F8DC
:101F1000E8305B1E82F8E830DBB223B98A6801231F
:101F2000A3409A438A6066E02DE9F0410546FEF73A
:101F30005DFB8046DFF86815681890F8ED20521EAA
:101F400080F8ED20D2B2002A3FD10FF2A050DFF886
:101F5000644500EB85052E786F88300615D521681D
:101F6000096A384688472168896A3846884721685F
:101F7000096B38468847DFF8401501200860DFF814
:101F80003C0500688007FAD512E0700606D501EB23
:101F900087010020D1F80011884709E0216889698C
:101FA000384688472168496B384688470228F9D166
:101FB00006F03F003F2818BFFFF7B6FF687800F033
:101FC0003F003F2818BFFFF7AFFF4046BDE8F04194
:101FD000FEF710BB10B50446FEF708FBDFF8C0148F
:101FE0008A680123A3401A438A60611891F8E820A7
:101FF000521C81F8E820BDE81040FEF7FBBAF8B5A6
:102000000646FEF7F3FA0446DFF89454701990F888
:10201000ED104A1C002980F8ED2039D10FF2CC4098
:1020200000EB8607387800F03F003F2818BFFFF725
:10203000E6FF787800F03F003F2818BFFFF7DFFF8A
:102040007E883878DFF86C7401060ED53968C96966
:10205000304688473968496A304688473968C96ACE
:102060003046884700F019F812E0400606D505EB27
:1020700086010120D1F80011884709E039684969D3
:10208000304688473968496B304688470128F9D17E
:102090002046BDE8F240FEF7ADBADFF81C1401207F
:1020A0000860DFF8180400688007FAD570472DE94A
:1020B000F04F002483B04FF0000A0128D04618BF2B
:1020C000012664D1DFF8D893D9F8DC0001285DD16E
:1020D0000220C9F8DC00FFF735FB0090012000F07A
:1020E00062F9060054D1FEF7BDFADFF8D81301906B
:1020F0000C60012000F042FA012804D1002000F019
:10210000A7F94FF0010ADFF8C013DFF8B4030C6041
:1021100000681120FFF751FE08B14FF001081020B0
:10212000FFF74BFE08B148F002080F20FFF745FE0D
:1021300008B148F004080B20FFF73FFEDFF8746396
:1021400020B13168096B4FF4806088470A20FFF79F
:1021500034FE20B13168096B4FF481608847DFF8A5
:102160005813DFF86873DFF868B30120086048F09F
:102170002000316889698847DFF85813012008601A
:1021800099F80800C00707D5012416E0042673E07B
:102190000120C9F8DC006CE0584600F061FC0546FF
:1021A000042DF9D0012D04D1326A5268032158461A
:1021B00090473868800880003860002000F05CFCA0
:1021C000BF4800683068806B804754B9012D04D146
:1021D000326A5268012158469047386840F003003F
:1021E00038600120B849086040463168496988472D
:1021F0000B20FFF7E2FD20B13168C96A4FF480601F
:1022000088470A20FFF7D9FD20B13168C96A4FF429
:1022100081608847A849012008600020AD49086016
:102220000320C9F8DC003168496B40468847012823
:10223000F9D1042000F0B7F8A24901200860A048B5
:102240000068A54800688006FBD5BAF1000F1CBFE6
:10225000012000F0FDF800F05BFD082000F0A3F87D
:1022600006460120C9F8DC000198FEF7FFF900F0EE
:10227000D3FC0098FFF76AFA3046BDE8FE8F38B508
:102280000446FEF7B3F905462146854800F0DAFB1F
:1022900028464BE030B5002401288BB004D021D370
:1022A00003281DD018D31DE001A8FFF763FD7C4D66
:1022B0008A490694ADF81440079401AB012205F158
:1022C0007800FEF7C3F900940023854A2C2105F11C
:1022D0009C00FEF7B7F905E000F03AFD044601E086
:1022E00000F0DCFD20460BB030BD00F054B938B52D
:1022F000FEF77CF905466A4890F8E000012410B129
:10230000FFF74BFD04462846FEF774F9204632BD20
:1023100038B5FEF76BF9624D044695F8E00020B140
:1023200000F080F9002085F8E0002046BDE832404A
:10233000FEF760B9000000007047000010B582B0E1
:10234000042000F01BF9022818BF032807D100F071
:102350001FF8FFF716FDBDE816400220D0E56148E2
:10236000534900684E4CC0F3815003280CBF4FF412
:102370007A7041F288300968B0FBF1F104F1540041
:10238000FEF748F904F15400BDE81640FEF746B9DF
:10239000032000901C234FF0405200213F4800F0E2
:1023A00010BB0020704770B504463D4E304600F02B
:1023B0002BFB002598B9304600F02CFB0646B06890
:1023C000204207D03269F36800212046984705462D
:1023D000012D05D0304600F01FFB0600EFD1284646
:1023E00070BD414901280CBF40F2FF700020086019
:1023F0000020704770B5FEF7F9F8294E294D0446C4
:1024000096F8E00028B100F00DF968B1002086F8D8
:10241000E0000220AD68A84706461020FFF7C3FF82
:102420008EB10320A8470EE0214909683220B0FB95
:10243000F1F101B9012106F13000FEF7EBF806F1E8
:102440003000FEF7EBF82046BDE87040FEF7D2B84A
:1024500038B501281ED100F091F801281CD000F0F9
:10246000D7F80F4C1249012084F8E00032200968A7
:10247000B0FBF1F505B9012504F13000FFF709FAC9
:10248000294604F13000FEF7C5F804F13000FEF7EC
:10249000C5F801E000F0E8F8002032BD00A00C40D3
:1024A0003811002038A70000B03F00501231002042
:1024B000E8000000B801001028200860282008402B
:1024C0002C2009400C4009400002224324220840ED
:1024D000004003408001044314100940D92F00003C
:1024E000A92D0000B43F0050000004608F3F0000A1
:1024F0008F3F01008F3F02008F3F0300903F00019C
:102500008F3F0101903F0002903F00038F3F010485
:102510008F3F00058F1208048F3F00048F3F000695
:10252000513F00007F3F01003F3F04003F3F02005A
:102530003F3F01007F3F020070B50446E00782B0D4
:102540000D46624E05D5A8B200900023012200F08E
:1025500011F8A00705D5A8B200900123022200F0CF
:1025600009F8600705D5ADB2009502230C2200F0F2
:1025700001F873BD0021304600F023BA014604295A
:1025800007BF1D234FF0C0421C234FF080524F481D
:10259000342100F029BA38B50546FFF799FB4C4CB9
:1025A000A168401A4FF47A71484305EB104500F0DA
:1025B000E9FD2169401A48BF404240F6B9318D42D9
:1025C00007D2062805DAA068E168814201D32268B3
:1025D0005AB940494A68D2074FF4FA6017D40868DC
:1025E00000F0FF007D21484308E0081A3A494843BB
:1025F000000C00EB9000904238BF1046C82801D272
:10260000C82032BDB0F57A6F88BF4FF47A6032BD12
:1026100080B501210320FFF78FFFFFF759FB2C49FD
:10262000886001BD80B50120FFF7A8FF012819D0FF
:10263000002301223421254800F0D6F998B100F09A
:1026400026F8FFF745FB22498B680A68C860A2EBB1
:102650009202C01A204B5843000C0860904238BFC9
:1026600010460860012002BD10B500210320FFF7CD
:1026700063FF0120FFF782FF08B100F008F8144C57
:10268000FFF726FB606000F07DFD206110BD134860
:10269000006800F08BBD10B511490A68114909683E
:1026A000140424161B384443E41004EB224412069D
:1026B00000FB00F3121609065A435843091604EBAF
:1026C000A222484302EBA04010BD000000A00C4035
:1026D0009C300020AC3F005040420F0080000010B2
:1026E00090130050A4100050002200F07BBD0000A9
:1026F00010B54048046814F1010F08BF002400F031
:10270000F3FD3D490020086001203C4908603C4938
:10271000086000F0B9FF3B48006820B13A48006803
:10272000204600F01CF83949394A00200860394831
:1027300001686FF31B411143016037480168C1F321
:102740000131012906D10168344A114041F40032B7
:1027500002600160324800680028FBD110BD70B5EE
:1027600005463048012101602F4909680029FBD046
:102770002E4C2F4AC021216053682E499B075DBF14
:1027800013681B0C43F0F00372230B7000210163EC
:102790009668304600F0B2FD3146284600F0E1FD73
:1027A0002548816D89B240F20F22914213D201680F
:1027B0000068C1F30361C0F3034001B1491E07285B
:1027C00005D006280EBF0720801C00F00F0041EA4C
:1027D00000101A490870304600F032FE18490968A6
:1027E000C968022088474020206001201549086000
:1027F00070BD00001C130050840460425C600C40FB
:102800000822044380012843000120438C21084012
:10281000000039014820034004000940FFFFFCFC90
:102820000C006842101009409402224300600C40E2
:10283000AC3F005056620840BC1200500260084095
:10284000A0010010940460421B4213D1094236D10A
:102850002AB18446B0FBF2F002FB10C2704700F0D0
:1028600083BFFCD30022002370470B00020000212D
:1028700000207047904271EB030CF6D370B5B1FAAB
:1028800081F4B3FA83F52C1BA340C4F1200532FA7E
:1028900005F63343A2405FF00046E64002E05B08E5
:1028A0005FEA3202841A71EB030524BF20462946F1
:1028B0007641F4D302000B003000002170BD012AE4
:1028C000CFD970B5140C20D0B1FA81F4B2FA82F5E8
:1028D000C4F120046419B4F12006D6D3B2405FF0ED
:1028E0000044F440002502E052085FEA3303C61AB0
:1028F00071EB020E24BF3046714664416D41F3D343
:1029000002000B002000290070BD0C46B1FBF2F163
:1029100002FB11452D0445EA1045B5FBF2F402FB1C
:10292000145580B240EA0545B5FBF2F002FB1052A7
:1029300040EA044070BD000070B504460D461646DE
:1029400000F0E2F9401E8041C00F1A490A68002ACF
:10295000FCD0012E02D0022E02D003E0257002E04E
:10296000258000E0256001220A6000281CBFBDE828
:10297000704000F0CDB970BD38B504460D4600F08A
:10298000C3F9401E8041C00F0A490A68002AFCD0E2
:10299000012D02D0022D02D003E0247802E0248829
:1029A00000E0246801220A6008B100F0B1F9204675
:1029B00032BD000000800C400B461146042218185E
:1029C000BAE710B500EB4100102B144600F500707B
:1029D00002D3103B001D240C0299994041EA0441A6
:1029E000BDE810400422A7E738B51D460818102D91
:1029F000144602D3103D801C240C0221FFF7BCFFBB
:102A0000204080B2E84032BD006800280CBF0120A1
:102A100000207047006870470068704738B504466A
:102A20000D4600F0A2FE00212960616869606168BE
:102A3000002914BF0D6025606560FFE7BDE83240E6
:102A400000F095BE0B684A68002B0CBF42605A60CC
:102A50004A680968002A0CBF0160116070470000D5
:102A6000006801074CBF042000F00300704700001D
:102A70001628A8BF203870472DE9F84F064693481E
:102A8000934C0068934D800704D50820A8719248A4
:102A90002060BFE000F076FB804690480068009020
:102AA0000027001700F101090098800208D4C8F13E
:102AB0003E00C0100928A8BF08208145B8BF814644
:102AC00087480068C0F30460FFF7D2FF824685485C
:102AD0000068C0F30440FFF7CBFF09EB0A01162999
:102AE000A8BF152104DA6FF009029142B8BF114660
:102AF00001F01F027C4B42F4F8521A807B4A1268A4
:102B000012F0030F18BF0127520748BF47F0020712
:102B10000EB147F0040795F90720A8EB0202052A39
:102B200002DAAA7997425DD0A8F10F0C0026BCF119
:102B3000000FB64607F0010207F00403DFF8B0917A
:102B400023D40CEB0C1C4FEA2C2EBEF1080F28BF2F
:102B50004FF0070E7646072E28BF062609EB860A99
:102B600059F82660DAF804A0AAEB060A0AF0FF0674
:102B700013B1CAF3072B5E445FEA877B44BFCAF3F5
:102B8000074B5E440AB106EB1A6659F82E9009F01D
:102B9000FF0A13B1C9F307239A44BB0744BFC9F323
:102BA00007439A440AB10AEB196A401AACEB0E22A9
:102BB0000099AF71724380320128B8BF01203423DD
:102BC00001F0FF0158430AEB12224843B0FBF2F038
:102BD000B0F5803F28BF4FF6FF7008F30708A880C4
:102BE00085F8078043480068A988286000201F29CD
:102BF00004D21F21A98004E04908401CB1F5007FE0
:102C0000FAD20F39090940EAC1003B490843206064
:102C100000206060BDE8F18F10B53848006884B2CC
:102C20001CB300F0AFFA2B4991F90720904205DA66
:102C30006FF07F029042B8BF1046C8718888844206
:102C400001D28C8010BD2B4A12680B68D21A921CDC
:102C5000202A28BF1F22231A5208D3401818B0F583
:102C6000803F28BF4FF6FF70888010BD244802685F
:102C700002B9704710B5234B996801F04060B0F17C
:102C8000406F21D011480468A4071DD45C68A407D4
:102C90001AD404681B68C3F303531C331B0114F0DC
:102CA000050F06D09A420FD26FF005012140016056
:102CB00010BD934208D20A0158BF44F001044901F3
:102CC00058BF44F00404046010BD00000000094037
:102CD00030100940B0300020FDFDA400B43F00508A
:102CE000B81200503C1100506E6208402422084087
:102CF0009C1300500820094000E7A48034100940CC
:102D000028500940AC3F0050EFF3108072B6704776
:102D1000EFF3108062B670470138FDD170477047FD
:102D2000DFF800F099C8011010B50C18FFF7ECFFA0
:102D3000401E8041C00FDFF8F0130A68002AFCD063
:102D4000246801220A6008B1FFF7E2FF204610BDA7
:102D500038B5DFF8D843DFF8D8132078897B002511
:102D600008430AD0FDF742FCA178002906BF0121E3
:102D7000A1700125FDF73EFC0DB1002032BD0220FF
:102D8000FFF728F90E20FFF73AF9DFF8A8030168EA
:102D900009B1012032BDDFF8A023402111600121DB
:102DA000C1610020607032BD70B5DFF88C0382B065
:102DB000002101604821C160DFF8800300F1D804E0
:102DC000A17A002968D00129DFF8742329D110687D
:102DD0004BF2F5214843050ADFF868030068C0F3A9
:102DE0008140012806D100F0CDF9FFF754FC68437B
:102DF00005EB9055607B10B10020607305E0D24870
:102E00000068000215EB10204508D0480560290C29
:102E1000416001218160C648807B00283AD00520AE
:102E200039E0022909D11568284600F0FDF8A5F21D
:102E3000FF5003282ED308202DE003292CD1116840
:102E400000F1B805A1F5C0612868E961002848BF14
:102E50004042002948BF49428842A8BF002018DAF2
:102E60006868BB4E80B2009008234FF47F42302147
:102E70003046FFF7A6FDA86800F072F9042130463D
:102E8000FFF79FFDA86900F071F93046FFF799FD43
:102E9000012020700B202073BDE873402DE9F04124
:102EA000A64CDFF8AC82AB4FAB4EA34804F1E10572
:102EB00082B0E9784A1E0B2A00F28080DFE802F037
:102EC000062233465B33465B3346636EA34909688B
:102ED0000968202088470F20F860072341F61D501D
:102EE00038614FF4C0720220009000F070F80723A0
:102EF0004FF4C07200214046FFF776FD012030609C
:102F0000022044E00120F861287800281DBF00203D
:102F1000306103200620E8700320386000207060D4
:102F20007068800734D4E878032804D1022000F0C8
:102F30004BF8042007E0002000F046F8E878062867
:102F40000CBF07200A20E87001201AE0042903D1F1
:102F50002021B961012105E00122BA610A290CBFD3
:102F6000032102216970002139600821C1600160DC
:102F70000120386026E005290CBF06200920E870F2
:102F80000020706004E00020306070600C20E87069
:102F900004F17800BDE8F641FDF740BB0021016077
:102FA0000120644908600E20FEF7BEFF0220FEF7F4
:102FB000A7FF0120E8700020A87003E0BDE8F341FE
:102FC000FFF7AEBEBDE8F38100900523602200212B
:102FD0004046FFF7F6BC000080B558495E4891F8BE
:102FE000E410891E0A291AD8DFE801F0060A0E1932
:102FF0000A0E190A0E19120001688907FCD510E0A3
:1030000041688907FCD40CE041688907FCD508E0D9
:1030100001688907FCD441688907FCD401E0FFF707
:103020007FFEBDE8014039E7F8B50746484C30213E
:103030002046FFF779FE414E06F1B805C0F30720A0
:10304000686004212046FFF76FFEC0F38440A8604B
:1030500020212046FFF768FEC0F38120A861B7F564
:10306000C060286002D186F8D800F1BD296996F8C1
:10307000D8202AB96A68A968EA60E861AA696A6121
:10308000E86900284CBF6FF00102022200EB40000B
:103090001018421000EB927001EBA0006968E96023
:1030A000012810DA6A69032A04D1153001281DDAD3
:1030B00001201BE00B300128B8BF0120491E48BF8A
:1030C0000021E96007E01F2812DB6A692AB9153878
:1030D0001F28A8BF1E20032109E00B381F28A8BF06
:1030E0001E20491C4029A8BF3F21E96000216961D9
:1030F00028610823E86880B200904FF47F423021B5
:1031000000F03CF80120009011234FF4003200F051
:1031100034F8286900F024F800F02FF8686900F00E
:1031200025F800F02BF8F1BD00800C4019120020AA
:1031300038A7000004800C402C500C4038110020AF
:1031400008400C40B43F0050102009403C600C4047
:1031500000A00C4000400C4034600C40A001001066
:1031600080B2009012234FF4F802704780B20090B2
:103170000A234FF440622021704704212046FFF7C4
:1031800020BC00000748084A81681278006852B2E3
:10319000A0F54070C9035043C913A1EB2010803043
:1031A00000127047285009400C13005070B50446B7
:1031B000FFF7AAFD451EAD41ED0F074E3068002810
:1031C000FCD0A04701203060002D1CBFBDE870403E
:1031D000FFF79EBD70BD000000800C4062F30F221F
:1031E00062F31F4200B500BF1300964694461039A3
:1031F00028BFA0E80C50FAD85FEA417C28BF0CC079
:1032000048BF40F8042BC90728BF20F8022B48BF4D
:1032100000F8012B00BD000030480068000C00F0F1
:103220000700052828BF4FF0FF3070472C490A6877
:10323000C2F30F324BF69A139A424FF0FF3006D189
:103240000868000F0B280CBF0420002070474BF6C5
:10325000BE118A4201D1012070474BF641318A42AA
:1032600001D1032070474BF620318A4208BF02206B
:10327000704700001A48F8B50068050F1948006843
:1032800000F0FF06802E28BF0026FFF7CFFF04289E
:103290004FF0FF3406F10A071DD8DFE800F00312F3
:1032A0001A1A1B00012D12D0032D06D0072D06D0AF
:1032B000082D08BF06F116040DE014240BE01524B8
:1032C00009E025B1022D08BF06F1140403E00A2429
:1032D00001E005B93C4660B2F2BD00009412005016
:1032E00018130050A010005080B5FFF79FFF20B9C1
:1032F000FFF7C0FF162800DB01BDFEE7DFF8E8138B
:103300000968C1F304611629A8BF203901EB2071B7
:10331000491C1629A8BF152104DA6FF00902914251
:10332000B8BF114601F01F01DFF8C02341F4F85186
:103330001180DFF8BC13096889074FBF40F0406077
:103340000021DFF8B0231160DFF8AC13C0F3C062D6
:1033500082F00102C0F380600A6080F001008860A2
:10336000704770B5054682B0084600F0EEF8024698
:10337000DFF88843182100F060F800F012F980B2FD
:103380000090002340F2FF322C212046FFF719FB6A
:10339000DFF86C63F068C0F30D021C2100F04DF8FB
:1033A000706800F0FC32142100F047F83068DFF854
:1033B0005413DFF8546301EA0002102100F03DF8D5
:1033C000284600F0F8F802460C2100F036F82846AE
:1033D00000F01CF9400040F020003072284600F058
:1033E0001EF940F010003072284600F021F9024624
:1033F000282100F022F8284600F0FFF8400040F0B5
:103400006000F072284600F02DF9C00040F0800006
:103410003070284600F02FF98000BC4940F47C4011
:103420000880284600F011F90246082100F005F84E
:10343000B7494FF48000086073BD2046FFF7BCBA5F
:10344000F8B5810C01F003010129B24CB04D02D056
:1034500002292AD026E0216A8A0323D44FF480422D
:103460002A606FF08F06AC4AD2F8023033404E0A21
:1034700006F080063343C1F303363343C2F802300B
:10348000C1F30326D2F801301B0946EA0313C2F840
:1034900001306FF0E7061368334001F0E70119438C
:1034A000116002E04FF0004129609C4E9C4AB168D7
:1034B00009075CBF4021A9624FF400712964800DA7
:1034C000216AC90C01F0030141F0300110F0030042
:1034D000117003D0022826D008D326E00121042051
:1034E000FFF72AF88F4800F0F0F822E00120FFF7FC
:1034F00045F8074639460420FFF71EF80420FFF779
:103500003DF8B842FAD1366826F07F4000F0DDF889
:10351000854B1B681B684FF060220721300E9847CF
:103520004FF480602860032100E002210420FFF7AF
:1035300003F820687D4900F03F00087047F6180046
:103540007B4908807B480068F1BD7B490968C1F36D
:1035500083628303C1F38F2120D4000400164FF649
:10356000FF7307E0490804D11946520804BF01223D
:103570000121401C0028F5D401280FDB490041F04F
:103580000101B1F5803F21BF0121520042F001024B
:10359000102A24BF0F221946401EEDE741EA0240DF
:1035A00070476548016800680002C1F3870100F4B4
:1035B00040700843704730B5604C61490A686568DF
:1035C000ED07C2F30351C2F303430AD4246825056F
:1035D00001EB2571240481F3040103EB247383F3CD
:1035E00004031B0443EA015193B21943222824BF68
:1035F00002F080400143084630BD0021202803D35B
:1036000050480068C0F30151084670470121222844
:1036100003D34D480068C0F300710846704701218C
:10362000222803D348480068C0F340710846704719
:103630000021202807D343480068C10C01F44071E1
:10364000C0F3845001430846704720283F4907D300
:103650003C483F4A0068810A02EA003040EA815152
:10366000084670470021222803D337480068C0F37A
:10367000C061084670470021222803D33248006801
:10368000C0F3455108467047324800680028FBD116
:103690003148324A416812688908890041F0005176
:1036A00041F00401520748BF41F001010BD4026808
:1036B00012F0030F07D041F003024260026802F0EB
:1036C0000302032AFAD141607047254982B20A6099
:1036D000C0F3074048600120886022480068002845
:1036E000FBD0002088607047B81200506E6208401E
:1036F0000000094094042A430000204300A00C402D
:1037000070130050FFFFFC0041A10C40DCA10C40F5
:1037100040A00C406C1300500A600840A83F0050C5
:1037200008A10C40BD378600B40100100BB00C405E
:1037300070B00C402C20094050130050AC3F00509A
:1037400078130050981300508C13005000803F40B5
:1037500000F03F000C00684200400340B03F0050C2
:103760003C600C4084088C437047FCF73FBFFCF77B
:1037700041BF0000DFF800F0D9C10110DFF800F010
:1037800025B10110E0B50821ADF800100190042129
:1037900000F00FF808B100200EBD02980EBD00B574
:1037A00083B00821ADF800100190052100F001F868
:1037B00007BDADF802106846DFF8DC190968084754
:1037C00000B58FB008233C2200216846FFF7D2FFE6
:1037D000DFF8C80900F15001079100234FF4C871C8
:1037E00008916A46022106910FF20901FFF7C6FF10
:1037F0000FB000BDFEB500F0DCF80120DFF89849FD
:10380000DFF89C592168DFF89C69ADF80200684632
:1038100088479DF8040028730298E86105F1780054
:1038200000F02DFD286200230220019043F698222B
:103830000020009005F130000FF6051100F0D4FCD7
:1038400000208DF800006A46012140F20D4001F091
:103850000DF84FF0FF3000F0AFFE4FF0FF3000F0FA
:103860007EFE01F0E5F901F051FA01F06DFB0FF277
:10387000F16001F072FA0FF2F16001F08CFB0020B0
:103880000190009000234FF47A720FF6ED0105F1DC
:10389000840000F0A9FC3BE0A87501F0D3FD288B63
:1038A00081070CD54FF6FD7108402883687B0628F8
:1038B00005D101F086FA05F1300000F0B9FC288B43
:1038C000010725D54FF6F77108402883A87B00280B
:1038D0001CBFA87D00281BD0287D6A7D904211D096
:1038E000401C0B2190FBF1F10B2202FB110028750B
:1038F0000C21287D4843304482784178C31C0078ED
:1039000000F060FB287D697D884201D000F0F1FA6B
:1039100000F04FF80A20ADF802004FF0FF300190A0
:1039200068462168884798BB00F043F80920ADF845
:1039300002006846216888479DF80610029F10BB68
:10394000BDF80400102801BF287B81423878B028D8
:1039500004D1397907F1080000F0FFFF9FB100F0B2
:1039600028F80320ADF802000197684621688847CF
:1039700009E0286A00F0AEFC070004D000F0E5F989
:103980003846FFF70CFF286AFDF7E4FE0028F0D068
:10399000288B410783D54FF6FB7108402883687B4D
:1039A000062805D1E87B00283FF476AF00F0A6F9A1
:1039B00075E70820ADF80000704780B5DFF8E8072C
:1039C00001F028FDBDE802400FF2E87000F088BD6C
:1039D0001CB5DFF8CC47A162E06200281CBF02687A
:1039E000002A0AD00420019000230020009004F156
:1039F00054000FF24D7100F0F7FB13BDDFF8A02764
:103A0000516290747047F8B516460A2E04460D466A
:103A10001F461CDADFF88807417B06290BD1817B22
:103A200069B1017D407D814209D12946204601B01E
:103A3000BDE8F040C6E2022918BF00F075F93B4628
:103A400032462946204601B0BDE8F04012E3F1BD00
:103A500070B5002490BB79BBDFF8445769782878AB
:103A600000F098FA06001AD0A9780A290ADA00228A
:103A700000E0521CD3B28B420CD2D2B2AB18DB782E
:103A8000002BF6D0E81C01F0DBFFA9783088EA1C97
:103A900000F0CAFA00200021002207C50C3D687B17
:103AA000062808BF01F0CEFCAC820022002140F2C3
:103AB000094000F0DBFE02E0182400E0022420466A
:103AC00070BD00220128DFF8D83602D0022802D0CB
:103AD00004E0587B00E0587C087000E002221046A9
:103AE00070470A460146DFF8B806408B00F001BD7A
:103AF000F0B583B048681446027840781D46002629
:103B000002EB002708980300BFB242F64B2203D015
:103B1000974227D00B20FEBD42F64D239F421CBF8B
:103B200042F622239F4207D042F632239F421CBF17
:103B300042F633239F4213D1488900F016FA08B9A0
:103B4000288049E0019400950123DFF85446A46AD7
:103B5000417A007A24683A46A04706003ED13BE00D
:103B6000974214D1DFF8442613781F4684466745F0
:103B700038BF072632D3099AA3EB0C039A42A8BF99
:103B80003A1A2A80C8682A8800EB0C0107E042F63E
:103B90004A20874207D1042028800422C968204691
:103BA000FEF7ACF818E042F6081087420DD042F656
:103BB0004E20874205D101202880C86800782070F7
:103BC0000AE042F60710874206D102202880C86822
:103BD000017821704178617000F090F83046FEBDA8
:103BE0002DE9FE430F460A991646002409B10B2021
:103BF00033E07968DFF8A8950A784978D9F8285031
:103C000002EB01211FFA81F842F64D2188451CBFC5
:103C100042F63221884510D1788900F0A6F9C8B162
:103C200002A9009101960023417A007A2C6842464D
:103C3000A047044620000FD10CE042F64C218845F5
:103C40000FD1012B58D13078010008D0012851D173
:103C50006968884700F052F82046BDE8FE830020DE
:103C6000F6E742F60211884531D101210191009415
:103C70003246BDF80830394601F063FF0400D9D15F
:103C8000307871787A8999F8123000EB0121D9F8EF
:103C9000240001E05B1E0C30DDB2002DDAD0456857
:103CA000002DF7D06D899542F4D10028D2D001962D
:103CB00089B2D9F82850012902A900910CBF02232A
:103CC0000323417A007A2D684246A847C2E742F6AC
:103CD0004E208045BED1012B0ED13078010018BF97
:103CE000012807D1F96808703078002814BF032034
:103CF0000220ADE78024AFE70D24ADE7DFF8A00494
:103D0000C16A29B1096800291CBF543000F090BA7B
:103D10007047DFF88C04C16A29B1096800291CBF0B
:103D2000543000F0A3BA704780B500F0FCF948B1F8
:103D30002021062000F04AFD3021072000F046FD3A
:103D40000521D8E100F0CDF901BD70B50546DFF8D9
:103D500050642888012806D0102808D020284AD08E
:103D6000402818D070BDA878BDE8704063E0A978FD
:103D7000012908D1707B062852D106F13000BDE838
:103D8000704000F055BA02294AD106F13000BDE872
:103D9000704000F06BBA6868AC780278200002D1FD
:103DA0000120F07313E0012C06F1840006D10021FC
:103DB000F17332745AB900F034F808E0022C08BFED
:103DC000002A04D100F02DF8708B01F0E7F8B16AF9
:103DD0007474052049688847307D717D88421CBF16
:103DE000B07B002818D0308B40F008003083F06999
:103DF000FCF704FC10E06C68B16A637A227AE08810
:103E000031B18E68310003D001462046B04703E04F
:103E10000022002100F06DFB6868BDE87040BEE440
:103E200070BD0121B1734FF47A7100F003BA0146FD
:103E3000002201208BE170B50446062C82B040F2CE
:103E40000536D74D15D100208DF8000005F11A0177
:103E500040F20E3001F04EFA0020A87300F050F846
:103E6000FFF74CFF287D697D88423CD000F041F887
:103E700039E0687B062836D1FFF74BFF0020E88148
:103E80000120CB490870FF20687400210020002227
:103E900007C500F048F90C3DC0B1E86A0079800719
:103EA00014D54FF4C861062000F090FC4FF4C861AF
:103EB000072000F08BFC0021012000F087FC00F0BF
:103EC00029F901208DF8000000F01AF8A96A496864
:103ED000052088470120E874287C042803D100F0DD
:103EE00000F9002028746C730420A96A4968884787
:103EF00073BD288B40F008002883E869FCF77EBB7F
:103F00006A460121304601F0B1B838B50C46154675
:103F10000120FFF737FC020005D015702146BDE8EF
:103F20003840402013E131BD2DE9F04180460D4677
:103F300016461F460A20FFF725FC04000CD0062277
:103F40004146FDF7DBFEE580267267722246BDE83A
:103F5000F04100212020FAE0BDE8F08100000000DF
:103F6000014600221020F2E0704710B58C4A516AD9
:103F7000927C01E0521E0C31D3B24BB10B888342CC
:103F800001BF8B7A8A4C2478A342F3D1084610BD36
:103F9000002010BD30B5824B5A6A9B7C01E05B1E4D
:103FA0000C32DCB264B1147A844204BF547A8C427D
:103FB00001BF947A7E4D2D78AC42F0D1104630BDD1
:103FC000002030BD2DE9F84304460D469046994641
:103FD000FFF7E0FF060025D07068714FC0680168E8
:103FE000788B01F0D6FDC0071CD5F87C40B107F1F5
:103FF0001302012140F2193001F038F80020F87462
:104000004A463088414600F00FF840B93C707D7058
:1040100087F8028042464946F81CFDF76FFEBDE86E
:10402000F1436BE6BDE8F183F0B55D4F83B0044624
:104030000D461646788B00232A461B2100F07EFC95
:104040000190A0B10198ADF80040ADF802502A46A9
:104050003146FDF753FE788B0022694600F01FFBC6
:10406000040005D01B21684600F077FC00E0132413
:104070002046FEBD2DE9F04104460D461646984601
:1040800000F051F858B3464F787D411C0B220B20AD
:1040900091FBF2F200FB121179753A7D797D914224
:1040A00006D1521C0B2392FBF3F300FB132038754F
:1040B0000C223C48514308440470457086703246D7
:1040C0004146C01CFDF71AFEB87B40B1388B40F06A
:1040D00008003883F869BDE8F041FCF78FBABDE805
:1040E000F08180B53021062000F070FB50210720C0
:1040F00000F06CFB3C21012000F068FB00F00AF8A6
:1041000001208DF800006A46012140F2053000F0E0
:10411000ADFF01BD00208DF800006A46012140F28C
:104120000D3000F0A3BF80B500208DF80000694677
:1041300040F20E4000F0B5FB9DF8000002BD00000B
:1041400017490A8B10430883C869FCF757BA70B542
:1041500004460D4616460820FFF714FB50B10480B4
:10416000857046600246BDE870400D4BD969186AFB
:1041700000F08CB870BD0000094801218175427DB6
:10418000017D914206D0018B41F008010183C06995
:10419000FCF734BA70470000C40C0020C82100208E
:1041A000040A0020A8230020AC0A0020641200208A
:1041B00068120020293F00000B3F0000DFF800F0EC
:1041C0002DBF0110DFF800F011BF011000B583B062
:1041D0000821ADF8001001900521ADF802106846E5
:1041E00043490968884707BDF0B589B004460D46C4
:1041F00016461F460823242200216846FCF706FACB
:104200000F983C49096806906B464FF47A70B0FBF2
:10421000F1F101FB07F0059001FB06F20E98ADF8F5
:10422000100029462046FCF711FA204609B0F0BDDF
:10423000FCF7F4B938B504460D46FDF738FB10B16C
:104240002046FDF726FB00F013F800FB05F12046A1
:10425000FCF7E0F92046BDE83240FCF7DFB980B555
:10426000FDF725FB00B10120C0B202BDFDF711BB77
:10427000204909684FF47A70B0FBF1F0704710B52F
:1042800004460021FDF76EFA204610BD70B584B0DB
:1042900004460820ADF800000D460420ADF80200E9
:1042A0000C2013490968019016466846884758B99A
:1042B000029949B18E602046FFF780FF15B128466C
:1042C000FCF79CF9012003E03046FFF77FFF002058
:1042D00004B070BD10B50446FFF774FFA04204D0CF
:1042E0008468FFF773FF204610BD002010BD00005A
:1042F000C40C0020E8000000E0B50821ADF8001073
:104300000190022100F00FF808B100200EBD0298C4
:104310000EBD00B583B00821ADF800100190032157
:1043200000F001F807BDADF802106846DFF8381359
:10433000096808471FB5ADF806108DF80400082479
:10434000DFF824138DF808200393ADF80040ADF892
:10435000024068460968884704B010BD30B585B092
:10436000144608220291ADF800201922DFF8F81255
:1043700009680190ADF802201D466846884714B1CF
:10438000BDF80C10218015B19DF80E102970089A07
:104390000499116005B030BD00B583B00820ADF8B8
:1043A00000001A2000F015F810B99DF804000EBDA9
:1043B000FF200EBD00B583B0ADF800008DF80610EB
:1043C000002000F006F810B99DF807000EBDFF2090
:1043D0000EBDDFF894120968ADF802006846084780
:1043E00050B110F1040F01D10420704710F1030FF8
:1043F00001D102207047012070478123037042EAF7
:10440000C111002341F47C41C37081807047822335
:10441000037081800023C370827170473EB50446EB
:104420000820ADF800000D462020ADF80200102055
:10443000DFF834120968ADF804006846884720B9EF
:10444000029810B16FF004003EBD009500230022D9
:1044500021464FF0FF30FFF781FF3EBD10B582B01F
:104460001446CA78012A03D18A88DFF800351A80F9
:1044700000F010F858B9009069462046FFF7CEFFCB
:1044800028B900984478FFF744FF204616BDFFF78F
:10449000A7FF16BD0B46022210214BE738B51C467C
:1044A0001546FFF7F7FFC0B9009069462846FFF7A9
:1044B000B5FF90B900984578280002BF0098C079F0
:1044C000A04205D10098816804982246FDF716FCA9
:1044D0000098FFF71EFF284632BDFFF781FF32BD6F
:1044E00038B500F007FA050002D00422012157E098
:1044F00031BDF8B500F0CFF907000AD0132200F063
:104500002CF800F072FB3946BDE8F840DFF8602473
:10451000A4E70420F2BD2DE9F04100F04DF90700B9
:104520000FD0142200F019F83C72FD603E8287F82B
:104530001280FFF731FF3946BDE8F041DFF834243F
:104540008CE725E038B500F028F8050004D01522E6
:1045500000F003F82C8126E031BD012157E700224D
:1045600004216CE02DE9F04100F026F907000FD09E
:10457000022200F010F8BC60BD81BE73C7F8108045
:10458000FFF70AFF3946BDE8F041DFF8EC2365E7A5
:104590000420BDE8F081042139E704460A20ABE697
:1045A000FFF735FFAC60FFF7F7FE2B4601B0BDE823
:1045B000304002221021BDE6002203213FE000B579
:1045C00083B00FF24903019306230093032300F005
:1045D0004DF80EBD1078802802BF508840F27F61F0
:1045E000884208D19088984202BF91790098814210
:1045F00001D1012070470020704710B582B0062419
:10460000FFE70094FFF7E6FF16BD00000323F4E781
:104610001078802802BF508840F27F6188420CD118
:104620009088032818BF042807D1907901001CBF87
:104630001028112801D10120704700207047F8B5DB
:1046400000F048FA07000CD032462946FFF7DFFE9B
:10465000BC60FFF7A1FE3946BDE8F840DFF81C2337
:10466000FCE60420F2BD0000C40C00202DE9F0415E
:1046700000F02BF807000AD0069A4146FFF7C7FE64
:104680003C817D8100F0B3FA079A00F050BA7FE7D1
:1046900004460D460C202FE642460321ADE670B5D8
:1046A00082B000F082F9FFF777FE1B2100910346EC
:1046B00032462946204600F027F976BD10B582B073
:1046C0001D24009400F020F916BD04460D46164640
:1046D00098461020FFF710BE2DE9F04180460D46A8
:1046E00016461F461820FFF707FE040014D00022CC
:1046F00000F069F800F043FA20726572A672E76074
:104700000698206107986061FFF746FE2146BDE8E4
:10471000F0410FF20D32A1E63AE70FF20933112210
:10472000002146E10FF201331222F9E7F8B500F05B
:10473000E5F807000FD00A2200F045F800F00DF868
:1047400038727D813E73FFF727FE3946BDE8F84099
:104750000FF2D92282E60420F2BD21465020FFF755
:1047600029BE0FF2CD23062234E12DE9F041804627
:104770000D4616461F461020FFF7BEFD040011D05F
:10478000072200F020F800F0FAF920726572A67294
:10479000E760FFF701FE2146BDE8F0410FF29522E8
:1047A000FFF75CBEF4E60FF291230822002111E12D
:1047B0000FF289231022E7E004460D46164698467C
:1047C0001420FFF799BD0421FFF717BE70B5FFF75E
:1047D0005FFF06000BD03022FFF7F5FF00F009F86D
:1047E0003146BDE870400FF25922FFF737BE042072
:1047F00070BD34817581FFF7CFBD30B583B00446FD
:104800000020ADF8040000F013F805000DD03122AF
:10481000FFF7D9FF2C81FFF7BFFD01A9009102230B
:104820000FF221222946FFF739FEBDF804003EBDF4
:104830000A20FFF761BD1CB500F052F904000AD050
:104840001222FFF78AFEFFF7A7FD00F005F80FF22E
:10485000F91200F008F803E001A900910123704764
:104860009DF8040016BD2146FFF718BEF8B500F00C
:1048700012F807000DD03622FFF7A5FF3C817D819D
:1048800000F0B5F93946BDE8F8400FF2CD12FFF758
:10489000E5BD0420F2BD04460D4616461020FFF784
:1048A0002BBD70B5054682B00C46FFF7C1FF060070
:1048B0001ED03722FFF787FF3581FFF76DFD3346A6
:1048C000FFF7E9FD88B9009069460FF29110FFF7F4
:1048D000A5FD50B900984578280001D100F0F3F803
:1048E0000098FFF716FD284676BDFFF779FD76BDE7
:1048F000042076BD04460C20FFF7FEBC04460D469E
:1049000016460E20FFF7F8BC2DE9F041FFF754FFE3
:10491000070011D0069AFFF7C0FE3C813E74FD608F
:1049200000F02DF97874FFF737FD3946BDE8F04106
:104930000FF25D12FFF792BDFFF72ABE38B514469D
:104940000F4A15682A0006D0009302460B462146FE
:104950000120A84732BD002032BD0A4A13681A0060
:1049600003D00A460146012018477047561200201E
:10497000B14A0000B74A0000BD4A000011460000DD
:10498000C4240020C82400202DE9F04100F00DF8D7
:1049900098460C20FFF7B0FC070004D000F016F892
:1049A0003C81BD72C0E0FFF7F3BD04460D461646DC
:1049B00070472DE9F041FFF788FE070004D000F0B2
:1049C00005F8BC60FD60AFE0FFF7E2BD32460421B0
:1049D000FFF713BD2DE9F041FFF777FE070006D082
:1049E000FFF7F4FFFFF7B9FE3872FD609CE0FFF7B8
:1049F000CFBD1078802802BF508840F27F61884286
:104A00000CD190884FF680710140B1F57E4F04BF04
:104A100000F07F00984201D10120704700207047CC
:104A20000023E6E71123E4E71223E2E70A23E0E7A5
:104A30000623DEE70723DCE70823DAE71023D8E7BD
:104A40003023D6E73123D4E780B512230093012326
:104A5000FFF7C0FD02BD00003623CAE73723C8E7D1
:104A60001078802802BF508840F27F6188420DD1C3
:104A700090884FF6807101404FF68052914204BFFA
:104A800000F07F00984201D101207047002070475C
:104A900070B5FFF78AFF1D23FFF7E2FF30B93246FA
:104AA00029462046BDE870401B23D9E7012070BD90
:104AB00080B51323CAE780B51423C7E780B5022366
:104AC00000930423C4E70098C27981682046FDF76B
:104AD00015B9000004460D4616460C20FFF70CBC25
:104AE00000208DF804000820FFF706BC2DE9F041F6
:104AF000FFF75BFF98460E20FFF7FEFB070009D08B
:104B000000F00AF83D817E81A7F80C80FFF744FC95
:104B1000069A0CE0FFF73CBD812038700120F87048
:104B2000BC8070473D81FE60FFF736FC4246394647
:104B3000BDE8F041FFF792BC1078802802BF508892
:104B400040F27F61884204BF9088984201D10120E1
:104B5000704700207047000080B50FF22D0100F073
:104B600006F84FF60140FFE7FFF7C0FF02BD0091D6
:104B700000230146002270473C817D81BE81414671
:104B80005020FFF717BC00004FF60143D4E70000A8
:104B9000F8B5FFF780FE07000DD0012200F022F8E3
:104BA0003C727D7200F023F83946BDE8F8400FF200
:104BB0007902FFF753BC0420F2BDF8B5FFF76BFE96
:104BC00007000DD0022200F00DF83C727D7200F05B
:104BD0000EF83946BDE8F8400FF25102FFF73EBC2F
:104BE0000420F2BD0521FFF708BC3C81BD72FE60C8
:104BF000FFF7D2BB1078802802BF508840F27F6157
:104C000088420DD190884FF6807101404FF6806246
:104C1000914204BF00F07F00984201D1012070470B
:104C200000207047000000000123E3E70223E1E7D2
:104C30000FF2CC03304810221321FFF793BC000081
:104C40002DE9FE4990464A680A9C107852780B9DDF
:104C500000EB02201F46002680B242F62322274B9B
:104C6000801A03EB040C07D0401E052810D9801FC2
:104C70001ED0263829D03AE0092C28D2C4F10800E9
:104C8000854228BFC4F108053D800CF1080129E0E8
:104C9000D1F80CB0584600F0E9FF80B2A04216DB14
:104CA000011B8D42A8BF051B3D800BEB040119E0E1
:104CB00018780146A1420AD3001B8542A8BF0D1BEC
:104CC0003D8058683A8801190DE0082C01D3072669
:104CD0000FE0C4F10700854228BFC4F107053D80FD
:104CE0000CF1B0013A884046FDF708F801E03E803B
:104CF0000A263046BDE8FE8984070020CC06002045
:104D0000414C0000000000000000000010B584B01D
:104D10000820ADF800000420ADF802008049814869
:104D200000780968804C8000019068468847002818
:104D300014BF002002982066010008BF13200AD08B
:104D40004FF6FF7000F080FE0FF2F01310220621E4
:104D50002046FFF707FC04B010BD74490860704797
:104D600010B50024012808D1107871498870C978DD
:104D7000814203D200F09EF800E00224204610BDDC
:104D800010B500220328684B694C17D8DFE800F003
:104D90000204070AE07800E0A07808700FE0588964
:104DA00008800CE02078087260784872588D08807E
:104DB00003F1300048600120887200E002221046B2
:104DC00010BD80B500F060F85949CA789042BCBF68
:104DD000C87000F06FF8002002BD70B5049814464A
:104DE0001D46002608B10B2070BD48680278407847
:104DF00002EB002080B242F6192290420DD100F061
:104E000043F84B49CB7802469A4288BF1A46CA708B
:104E100001202880C87820700CE042F608129042E9
:104E200007D102202880C86801782170417861701C
:104E300000E00A26304670BD30B583B014464A689B
:104E40001578527805EB022292B242F60215AA4278
:104E500017D101220192069A0092224600F071FEBB
:104E600005000FD13148016808000BD02078627826
:104E700000EB022080B200280CBF022001208847EE
:104E800000E00A2528463EBD38B52A4C606801007E
:104E900018BF8047284800687D21484340096421A5
:104EA00048432188B0FBF1F5A068010018BF804796
:104EB000E8B232BDF0B583B000241B4D194E28E096
:104EC000296EE4B231F824704FF6FF7087421FD08C
:104ED000384600F05EFEC0071AD5002301221B21D0
:104EE0003846FFF72BFD019090B1698DADF80010A9
:104EF00000220121ADF802100D49C9780170384631
:104F00006946FFF7CCFB18B11B216846FFF725FD6A
:104F1000641C3178E0B28842D2D3F7BD00000000B3
:104F2000C40C0020C00D00200C060020F81B00203F
:104F300050120020F805002028500940DB4D0000E9
:104F4000394E00000000000010B584B00820ADF814
:104F500000000420ADF802003D493E480078096891
:104F60003D4C8000019068468847002814BF00200F
:104F700002982066010008BF13200AD04FF6FF7088
:104F800000F062FD0FF2D803102206212046FFF741
:104F9000E9FA04B010BD31490860704730B52E4DB4
:104FA000296E83B0044600F0F4FDC0071BD5002332
:104FB00001221B212046FFF7C1FC019098B1B5F8F2
:104FC0005A000199ADF8000000220120ADF802005E
:104FD0000020087069462046FFF761FB18B11B21CD
:104FE0006846FFF7BAFC37BD002070477CB50D4618
:104FF00011461A46069B00240BB10B2076BD6B6848
:105000001E785B7806EB03239BB242F64F26B34231
:105010000BD1042A07D1E868FCF770FE0F49096834
:105020000120884711E00D240FE042F60214A3424C
:105030000AD1012301930023009313460A4629460F
:1050400000F07FFD044600E00A24204676BD000003
:10505000C40C0020C00D0020DC0E0020042800201D
:10506000E94F0000ED4F0000000000002DE9F04E78
:10507000DFF8BC799246002640F2013B0C46BA7834
:105080007B7997F804C097F80190B0EB0B0540F6D8
:105090007B4132D06D1E38D06D1E3DD0AD1E41D04B
:1050A0006D1E00F07A806D1E00F07D806D1E00F098
:1050B00087806D1E00F094806D1E00F099806D1E3B
:1050C00000F09E806D1E00F0A5806D1E00F0AA808D
:1050D000ED1E00F0AF806D1E00F0B4806D1E00F07C
:1050E000B9806D1E00F0BE806D1E00F0C3806D1F84
:1050F00000F0CB80AD1E2DD0E1E0102C40F0DD8023
:105100001022514607F1A40081E0102C69D1102231
:10511000514607F1B4007AE0042C62D1DAF80000BD
:10512000F862D7E0012C5CD1012B34D09AF8000052
:105130003871BCF1000F06D00028F2D1022A19D034
:10514000052AEED116E00028EBD0012A1FD0042A50
:105150001BD11CE0012C44D1BCF1010F1BD09AF8EB
:105160000000787153B1002807D1032A1CBF072A19
:10517000052A02D14846FFF716FBABE00028FCD019
:10518000012A1CBF042A062A01D0052A02D10120C7
:1051900000F047FC9EE012269CE0022C21D1BAF8D8
:1051A0000000F88396E0202C0BDA07F1CC0600F023
:1051B00094F800F09AF8BC713346224601210BE0C6
:1051C000202C7ADA07F1EC0600F087F800F08DF871
:1051D000FC713346224600214846FFF7C6FA76E0C6
:1051E000012C6AD19AF80000052866DA387271E05D
:1051F000012C62D19AF8000004285EDA787269E026
:10520000062C5AD14FF48670062251463844FCF7DA
:1052100075FD5FE0012C50D19AF8000008284CDAA7
:10522000B87257E0012C48D19AF80000042844DAFB
:10523000F8724FE0012C40D19AF8000006283CDAC1
:10524000387447E000F04DF837D1821F8A4234D2DB
:1052500078823FE000F045F82FD1821F8A422CD29D
:10526000B88237E000F03DF827D1B0F5FA7F24DAB4
:10527000F8822FE000F035F81FD1A0F10A0140F6C6
:105280007742914219D2388324E0012C04BF9AF866
:105290000000012811D107F18000FEF7E0FF50B9AE
:1052A00007F1100100F070FB060013D107F15C005C
:1052B000FEF7DCFF0EE016260CE018260AE0282890
:1052C00007DA022C05D1BAF80010FFF77FFA06467C
:1052D00000E002263046BDE8F08E1F21304600F087
:1052E000AFBBBAF80000022C704722465146304648
:1052F000FCF704BD38B500244FF440730D46C21AC4
:10530000DFF82C1736D0521E36D0521E37D0521E20
:1053100038D0521E39D0521E3AD0521E3CD0521EA6
:105320003CD0521E3DD0521E3ED0521E3ED0521E88
:105330003ED0521E40D0521E40D0521E40D0921E2F
:1053400040D0521E40D0521E40D0521E40D0521E5D
:1053500040D0521E40D0521E46D0521E46D0521E41
:1053600046D0921E48D0521E14D0521E42D0521E19
:1053700044D046E0C87842E01022A43130E0102248
:10538000B4312DE0C86A286042E00622C43127E02B
:10539000087934E0487932E0C88B36E08A79CC313C
:1053A0001EE0CA79EC311BE0087A28E0487A26E052
:1053B00006224FF4867012E0887A20E0C87A1EE058
:1053C000088C22E0087C20E0488A1EE0888A1CE0E5
:1053D000C88A1AE0088B18E006224FF48A7001444C
:1053E0002846FCF78BFC13E0488C0EE0888C0CE020
:1053F000C88C0AE0087B02E0887800E0487B2870CF
:1054000006E0282803DAFFF7F8F9288000E00224F4
:10541000204632BD1CB5DFF81846A17881B900B12D
:10542000206304F12C00019004F1B400009004F119
:10543000A403E17860780022FFF74EF9002016BD42
:10544000112016BDDFF8E8058178062918BF072965
:1054500004D1018C40781322FFF768B912207047FD
:1054600000B58FB008233C2200216846FEF782F980
:10547000DFF8C00500F15001079100234FF4DC7103
:1054800008916A46032106910FF2D101FEF776F9E1
:105490000FB000BD70B584B000F019F90120DFF83D
:1054A0009815DFF88C4509680FF29155ADF80200A8
:1054B0000026684688479DF8040060700298A06244
:1054C0000020A0704FF6FF702084FFF7B4F9207021
:1054D000002301200190002200200090294604F1C1
:1054E0003800FEF781FE022000F02FF804F15C0086
:1054F000FEF77AFE042000F028F804F18000FEF7A1
:1055000073FE0420E07004F1A402002000210023B7
:1055100000252BC204F1B405103A4BC5E06220729D
:105520006072E1720720A07210210220FFF730FBA9
:10553000103D2A4610210320FFF72AFB04F12C021C
:1055400004210420FFF724FB7FBD019000230020ED
:10555000009000222946704700000000FEB5FFF7CA
:1055600099FFDFF8CC54DFF8D04405F1800700F054
:10557000AEF80A20ADF802004FF0FF300190684607
:105580002168884700284BD100F0A1F80920ADF828
:1055900002006846216888479DF80610029E002890
:1055A0003ED1BDF80400102804BF687881422DD197
:1055B00030884FF6FF71884209D17088400425D5A4
:1055C00005F12C0204210420FFF7F7FA1EE03078E1
:1055D000A22805D0D02804BF304600F07CF815E0A2
:1055E0007079132812D13089012804BFA87B0228C2
:1055F00005D13846FEF73AFEFFF724FF06E0052006
:10560000FFF7FBF801463846FEF714FE46B100F0FE
:105610005EF80320ADF802000196684621688847CD
:10562000A88BC10730D54FF6FE710840A8832979B1
:105630006879014328D018B103208DF800000DE0EF
:10564000287A8DF800000622687A8DF801004FF460
:10565000867029180DF10200FCF750FBA87A8DF82E
:1056600008006946E87A8DF809006878FFF779F84C
:1056700000281FBF0820A870286B002804D00168EC
:1056800008001CBF08208847A88B810708D54FF663
:10569000FD710840A88305F11001002000F074F9A5
:1056A000A88B41070AD54FF6FB710840A883A87B59
:1056B000012804D0022808BFFFF7C4FE57E7009076
:1056C0002B8BEA8AA98A688A00F093F94FE70820B1
:1056D000ADF800007047FEB5D54DA9784FF48A7338
:1056E0000446EE18A2786879130005F1800715D0FA
:1056F000022A3CD0032A18BF042A5CD0052A00F0F5
:105700007F80062A00F0AC80072A00F0CD800F2AA7
:1057100000F0E580112A00F0E780F7BD6078010015
:105720001AD105F1A40210210220FFF746FA05F173
:10573000B40210210320FFF740FA0622E11C05F114
:10574000C400FCF7DBFA0120A87005F1CC03AA79AC
:1057500068780121FFF709F808B10820A870286BC4
:1057600020B1016808001CBFA8788847F7BD62789F
:10577000EAB9E27842B1EA79687805F1EC030021F0
:10578000FEF7F3FF607012E0022918BF07290ED060
:10579000062902D101280AD101E0032907D005F129
:1057A0003800FEF75CFD10B9012000F03AF960788E
:1057B0000028DBD0D1E763780BBB2B79032A08D113
:1057C000062908BF0720C9D0002B0CBF03200220E8
:1057D000C4E7E98B0A0006D018430AD005F1380067
:1057E000FEF728FD05E0012B07BF002028710020EF
:1057F0006871A878072814BF04200620AEE7ACE73C
:105800006078010026D10622211D3046FCF776FA89
:10581000608928840620A870E0896884208AA8848A
:10582000608AE884E0782873287C012818BF022861
:1058300009D11F20FEF7E1FF4FF47A71414305F1D2
:105840005C00FEF7F7FC6289E0780423211DFEF777
:1058500062FE84E73128D2D10020287104207DE740
:10586000A088FEF76FFE0621FFF738FD0020688450
:10587000A884E884A079687305F15C00FEF7F6FC63
:105880003846FEF7F3FC4FF6FF702884687908B1BC
:10589000032063E7A07908280CBF05200420A87026
:1058A000012000F0BEF85AE73846FEF7DFFC6078CA
:1058B000002813D1E08868842089A8846089E8845E
:1058C00005F15C00FEF7CBFC002807D16B6B002BC9
:1058D00004D0EA8CA98C688C1B689847F7BDA08817
:1058E0000521FEF765FFF7BDA088ADF80000287C14
:1058F000052803D100208DF80A0041E001208DF831
:105900000A0005F15C00FEF7B1FC287C012818BFF5
:1059100004281AD1688AE188814228BF0846ADF878
:105920000200A98A2089884238BF0846ADF80400E1
:10593000E98A6089884238BF0846ADF80600298B9D
:10594000A08988421AD2084618E0032818BF022806
:105950000AD1688AADF80200A88AADF80400E88A86
:10596000ADF80600288B09E0E088ADF80200208938
:10597000ADF804006089ADF80600A089ADF8080014
:105980006846FEF7CFFEF7BDFEB50F46284D7A8874
:105990000446688C904224BFB988814207D3A88C02
:1059A000F988884202BFE88C398988421ED00520D8
:1059B000FEF723FF0646288CADF800007888ADF886
:1059C0000200B888ADF80400F888ADF80600388900
:1059D000ADF808006846FEF7A0FE070007D1AC73DB
:1059E000314605F18000FEF725FC00E01827384617
:1059F000FEBD3EB50E4CA578062D01D014203EBD4F
:105A0000ADF80200ADF80410ADF80620ADF808308E
:105A100004F15C00FEF72AFC06986946FFF7B4FF24
:105A20003EBD03498A8B10438883886AFAF7E6BD36
:105A3000C00D0020D8240020C40C0020F1E7000095
:105A4000002200F02FB9000038B54FF6FF74A042D5
:105A50000DD10020654A137898420EDA21F82040D3
:105A600001EB80050023401CAB70C0B2F3E700F0EF
:105A7000A9F810B104800021817031BD2DE9FE4FDD
:105A800080460026B8F1000F82B006D0080004D08E
:105A9000180002D0109F380001D1022035E00F9C81
:105AA00000252CE0EDB2A94638F829004FF6FF7129
:105AB00088421EBF08EB890A9AF8020000281DD010
:105AC000029ABDF83810049800F02AF85FEA000B3B
:105AD00014D09AF80200C00705D500F019F801218A
