:04000005000099B1AD
:020000040000FA
:10000000404300205965000001CA011001CA0110D7
:1000100001CA011001CA011001CA011001CA011070
:1000200001CA011001CA011001CA011001CA011060
:1000300001CA011001CA01103FCA01102149086814
:10004000C2430A600A680242FAD170471E490A6830
:10005000002AFCD1CA610860C8690028FCD00020D1
:10006000C86148687047194801686FF00202114082
:1000700041F40071016003211548816041F23001B3
:1000800041610121C160502141610121C1604FF4F2
:10009000CA6141610121C160016070470D48026879
:1000A0000A6082684A60C2688A60406B20F07840CB
:1000B00040F08050C86070477047014610220648E3
:1000C00001F000BD10100440001004400000046066
:1000D000004104404C1300501800002170470120DB
:0C00E00070470000200000000A00000033
:100100003C0000000000000000000000340100007E
:1001100000000000000000000100000000000000DE
:1001200000000000000000000000000001000000CE
:100130000000000008000000000000003400000083
:100140000000000000000000680100000000000046
:10015000000000000100000000000000010000009D
:100160000000000000000000080000000000000087
:1001700030000000000000000000000098010000B6
:10018000040000000000000001000000FFFFFFFF6E
:10019000FF00000001000000080000000000000057
:1001A0002C0000000000000000000000C40100005E
:1001B000040000000000000001000000FFFFFFFF3E
:1001C000FFFFFFFF080000000000000034050000F2
:1001D000E401000099A1011095A70110A5C201102A
:1001E00009B2011045B80110000000000000000035
:1001F0002F000000280000000000000000000000A8
:10020000140200000000000000000000FFFFFFFFDC
:1002100000000000080000000000000030050000A1
:100220003002000069C201106DC101101FC201102F
:1002300095BA011000000000000000002D00000031
:10024000300500005402000075C20110A9B601106B
:100250009DBF011049B60110000000000000000021
:100260002E0000002400000000000000000000003C
:1002700080020000000000000000000000000000FC
:100280000800000000000000240000000000000042
:1002900000000000A40200000000000000000000B8
:1002A0000000000008000000000000002400000022
:1002B0000000000000000000C80200000000000074
:1002C0000100000000000000080000000000000025
:1002D00000000000200300200400000000000000D7
:1002E000000000002000000070010000300000004D
:1002F0001C02000040030020040000000000000079
:10030000000000000C000000300400001800000095
:10031000400200004803002004000000000000002C
:100320000000000024000000480400001800000045
:10033000000000008803002004000000000000000E
:100340000000000010000000A00100002C000000D0
:10035000CC01000090030020040000000000000019
:1003600000000000200000006402000024000000E3
:10037000FFFFFFFFB00300200400000000000000AA
:100380000000000028000000880200002400000097
:10039000FFFFFFFFD8030020040000000000000062
:1003A00000000000580000003C0100003400000084
:1003B000FFFFFFFFE003002004000000000000003A
:1003C00000000000100000006004000018000000A1
:1003D000FFFFFFFFE8030020040000000000000012
:1003E000000000001C000000AC020000240000001F
:1003F000FFFFFFFFF00300200400000000000000EA
:100400000000000038000000F40100002800000097
:10041000FFFFFFFF58040020040000000000000060
:100420000000000054000000000100003C0000003B
:100430001800000000000000000000004004000060
:10044000080000000000000018000000000000008C
:100450000000000058040000080000000000000038
:100460001800000000000000000000007004000000
:100470000800000000000000010000009865000076
:01048000007B
:100484000100000000000E0000000F003200000018
:10049400010000002803002000020000000000000A
:1004A40001CA011000000000000000000800000064
:1004B40000002300500300200100000098030020E6
:1004C4000800000000000000000000000000000020
:1004D400000000000000000001000000F8030020FC
:1004E400060000000100000060040020000000007D
:0C04F400000000000002000000000000FA
:0F0502002900010025002D002E002F000100010F
:1005140004000000846500000000000000000000EA
:10052400000001000000030087C40110380500002A
:10053400380500000000000090000000900000005A
:100544000000000098030020A95E000020000000C5
:1005540070650000986300000DC30110911A00003B
:10056400931A000099C801109BC8011000000000F4
:1005740080040000D8620000F0620000C062000045
:090584000800090001000000015B
:10059000000000000000000000000000000000005B
:1005A000DD190000FD19000001190000271A0000E4
:1005B000491900001F1900007B190000531A0000A0
:1005C000215E00006D5F0000715F00000800000008
:1005D0002400000018000000280000002000000097
:1005E0003C0000000C00000034000000DFF800F0C8
:1005F00049C10110DFF800F019C20110DFF800F066
:1006000041AC0110DFF800F0CDA00110DFF800F0E0
:1006100085C10110DFF800F0C1C20110DFF800F061
:10062000E3BF0110DFF800F0CDC10110DFF800F0EA
:100630003DC10110DFF800F0DDB20110DFF800F07D
:1006400085B00110DFF800F029AF0110DFF800F0ED
:1006500079B50110DFF800F0C1C10110DFF800F03A
:1006600009B70110DFF800F0D5C00110DFF800F085
:10067000E1B5011020B1082328220021FFF7D2BFE5
:10068000704720B1082330220021FFF7CFBF704709
:1006900038B500F091FF25680DB129682160FFF79A
:1006A000A9FF284632BD70B504460D4626680020D5
:1006B00028601EB9FFF79AFF25600DE0FFF796FF4F
:1006C00000E0366831680029FBD1AE4203D1FFF764
:1006D00091FF002070BD3560FFF78CFF012070BDD9
:1006E0000022DFF8541C01EB4211CB7F1B0605D51D
:1006F000B1F91C30834201D108467047521C082AC8
:10070000EFDB0020704770B50646FFF76FFFDFF89C
:10071000545C0446A87E01001AD0401EA876C0B2E0
:10072000B0B9082100F026FC96B1A86B703001F03A
:100730007CF800F010FE301AB0FBF1F1022938BF4E
:100740000121EC352846FFF765FF2846FFF766FFD5
:10075000204600F065BE10B50446207B00F00F0077
:1007600002280FD100F012FDA168081ADFF8F41B6F
:10077000896BC968800801F57A71814238BFB0F190
:10078000405F00D3002010BD38B5DFF84C0ADFF819
:100790004C2A0168DFF87C4C02EA0105E94301605C
:1007A000A90608D54068800605D54FF4005104F12C
:1007B0004C0001F062F815F4602F08D0206905F4B0
:1007C000602108432061002104F19C00D0E131BD8B
:1007D00070B5FFF70BFFDFF83C4C0646206910F4BC
:1007E000602F27D02069C5012D0EE80748BF0025DE
:1007F00006D4A80748BF012502D4680748BF0225D0
:10080000681D40B200F040FF2069012105F111028E
:100810009140884320613046FFF7ECFE04EB8500F1
:100820004668300009D0206800224FF00063691D3F
:10083000B04702E03046FFF7DDFE206930B104F139
:100840009C00BDE87040002101F017B870BD70B584
:10085000FFF7F4FBDFF80C5BDFF8BC4BAB6A02463A
:1008600090071DD4D3E90401104007D0EB629969C9
:10087000084398614FF4804100F07CFBA86A00288F
:1008800047D16E6A002E44D0F068A96B884224D00C
:1008900005F14C00BDE870404FF4805100F0EDBF11
:1008A0000BB9A86AEAE70020A862D3E904019E69AF
:1008B000024042F0020232439A61626982436261FD
:1008C000E26822EA0100E060194605F13000FFF716
:1008D000EAFE022100F04EFBE3E7B068FFF73BFFC2
:1008E000A86408B1A86CD8E0D6E9040162690243A3
:1008F0006261E26841EA0200E0600020E061B06805
:100900002060E0690028FCD005F12400FFF7C0FE5C
:10091000AE6270BD0020F6E6F8B506461446376EA6
:100920001D4607B1B847A00708D4D6E916012040F4
:1009300029400022914208BF904207D0C6E91A45DB
:1009400006F13800BDE8F240FFF758BEF1BDFEE702
:1009500080B500F082FFDFF8BC2A0146906BD26BB5
:10096000BDE80840104710B5DFF8A84A0FF2311172
:10097000E06B884202D101F099F8206404F14C0048
:10098000BDE81040042100F078BF80B5FFF756FBAA
:10099000DFF8881A084207D0BDE804404FF0005144
:1009A000DFF8100C00F069BF01BD70B5040073D012
:1009B000A168202001E04968401E79B1C2B26AB145
:1009C0000A8840F603039A421CBF40F604039A4289
:1009D000F1D1E0681822203001F084F8A0690021EC
:1009E000A1616168D9B140F00202E07F002300F00C
:1009F0000700012807D0022809D0042804BF0022DC
:100A00004FF0805306E000224FF0005302E0002236
:100A10004FF08043B4F91C10E0686568A847FFF701
:100A2000E5FDDFF840590646E88E401CC0F30B0098
:100A3000E8860020296BC87705F13000FFF728FE13
:100A40003046FFF7D7FDB5F93610E06800F1B8027F
:100A5000B2F90030994204BF297E00291CD1917857
:100A600009B9016811B90020907016E0AA6B1268EC
:100A700012F1010F10D0DFF8F42B1268B1FBF2F184
:100A8000022938BF01217030FFF7C4FDE068BDE8DE
:100A900070407030FFF7C2BD70BDBDE8704032E6F7
:100AA00038B50D46A807DFF8BC4816D5206BFFF710
:100AB0007CFF206B25F0020510B145F0020109E032
:100AC000680702D4606A002851D004F1EC0000F0FD
:100AD000ACFE042104F14C004AE0680747D5606A87
:100AE00008B1C068A063A06BDFF8E42A41680B7806
:100AF0001360126809788A421CBF8569002D05D0F1
:100B000000224FF000736FF0FF01A847022001F0B0
:100B10004DF9112001F05FF901206077A06BE17EB3
:100B2000007C084204BF0E2001F055F9A06BDFF8ED
:100B3000E81840688268002A04BFC068002804D012
:100B40000020C861DFF8D80A086040F2FF70DFF8C3
:100B5000D42A106000208861DFF8C00848610FF2D5
:100B60001900E0631920BDE83240FFF763BD31BDD5
:100B7000BDE8344000F081BE2DE9FF478046880083
:100B800040F1B580DFF8DC57A86B40684068010091
:100B900018BF8047A86BDFF88098406881680029FB
:100BA00004BFC168002914D0D9F81C100029FBD05B
:100BB0000021C9F81C108068010018BF8047A86B8D
:100BC0004068C068010018BF8047DFF8B40AFFF72B
:100BD0003DFA0020C9F81C0040F60A0ADFF8A40A12
:100BE000DFF8E07AC9F8000008F108040120FFF7F7
:100BF00075FA0FF25110E863A7F800A00020788082
:100C0000002100F0B0F900F0A7F9206806467180D5
:100C1000E97E09B1617A99B1018840F602029142F8
:100C200005D1318A4FF60F421140318204E0318BF9
:100C30004FF60F421140318300216172FFF73CFAF9
:100C400020686946FFF72AFA6846FFF736FA00E09F
:100C50000646706800281CBF01885145F8D17760AE
:100C600040F60301707B00F0F0007073686A8068E2
:100C7000008888421CBF40F60401884202D100204F
:100C8000286417E0208BA8B100206083E06108F1A0
:100C90002C00017801F0F0010170417801F0F001C1
:100CA00041F00101417008F120007860787B00F08C
:100CB000F0007873D9F81C000028FBD00020C9F898
:100CC0001C00012001F046FB012808D0707B00F0D9
:100CD000F00040F0010070730FF21900E8634FF666
:100CE000FF322068018A11400182C9F80000BDE886
:100CF000FF870000DFF8D009014200D170470120D2
:100D000010B501F027FB0128DFF8584608D10FF293
:100D10003500DFF80417E063DFF8A809086010BDAC
:100D2000DFF8481909683220B0FBF1F1022938BF19
:100D30000121EC342046FFF76DFC2046BDE8104051
:100D4000FFF76CBC2DE9FE4306460C466004DFF855
:100D5000145619D5FFF74AFCEE6AB769B9070ED4E5
:100D60006EB10021B161FFF745FC706848B1B6F97A
:100D70001C10F06876683A460023B04701E0FFF7A0
:100D800039FC24F48044E1E0A0070AD5286BFFF782
:100D90000CFE286B002824F0020401D044F0020469
:100DA000D4E0A00005F1800840F60909DFF81479C5
:100DB00071D5B068018840F60202914205D1028ADD
:100DC0002D2161F30912028204E0028B2D2161F3CF
:100DD00009120283286CB8B1042001F0BBFA98B163
:100DE00000F064FE296C814228BF401E401A718ABF
:100DF00011EB1030F06040F2D761A0F2EE20884293
:100E000024BF40F6C410F060D6F818C0BCF1000F43
:100E10001CBFDFF8BC188C450DD0787B0F21084231
:100E200004BF708C484506D100224FF000736FF468
:100E300080713046E0470022DFF89818404600F005
:100E40002FFD287F50B10220ADF800006846FFF763
:100E5000FDF8BDF80800A8820020287701206876F8
:100E6000A87E401CA87600206877686A18B119200F
:100E700000F019FD01E044F00204D6F81480B8F146
:100E8000000F05D000224FF0806300213046C0479C
:100E900024F000545AE095F8200024F0080628B108
:100EA000200703D5002085F820003CE020073CD532
:100EB000002068760120A8770020FFF70FF90FF2D5
:100EC000BD00DFF81418DFF86047E86300224046F1
:100ED00000F0E6FC297FE87E81F00101084202D1A2
:100EE0000120E8760FE0A86CB8B100F0DFFD296CB6
:100EF0006A6C401A02EB10306864A96CB0EBC11F39
:100F00000BD300206864A7F8009000F025F80020BB
:100F1000788000F028F8276003E04FF0005100F0DF
:100F200029F800202864344610E0A0040ED5AE6AEB
:100F3000002E1CBF7068002806D0B6F91C10F0689F
:100F4000766800222023B04724F4005414B12146CF
:100F500000F010F8BDE8F783787B00F0F00040F077
:100F6000010078737047387B00F0F0003873002080
:100F70007860704705F14C0000F07FBC70B5054605
:100F80000E46B007DFF8DC430BD5206BFFF70DFDF5
:100F9000206B08B1022129E0B0002DD54FF000519F
:100FA00024E0B00028D5FFF75EF8DFF83007DFF85F
:100FB0003067E063307818B905F13800FFF71EFBA1
:100FC000DFF8601600200860022000F085FE112086
:100FD00000F096FE287C10B90E2000F091FE002053
:100FE000E083B07840B10020B070042104F14C00DF
:100FF000BDE8704000F041BC70BD30B58DB000F070
:10100000ECFDDFF8E006DFF8E0460168DFF8545356
:1010100041F00201016001A8FFF72CFBA078DFF886
:10102000CC160790002301AA05F14C00FFF706FB40
:1010300001A8FFF726FB0020ADF81C0001AB2078CB
:10104000DFF89426099019210020009005F1800016
:10105000FFF7F8FA01A8FFF70DFBE078DFF890162C
:101060000790002301AA05F19C00FFF7E7FA01A809
:10107000FFF707FB0120ADF81C0001AB6078DFF83B
:10108000742609901A210020009005F1D000FFF786
:10109000D9FA00230022DFF8601605F1EC00FFF713
:1010A000D5FADFF83806E8630DB04FF6FF70A88276
:1010B000012028770020E875E8766877E88385F8CE
:1010C0002000286430BD2DE9F041DFF814660446A5
:1010D00030788EB00F4690461D4618B9FFF78DFF49
:1010E00001203070002F1CBF6760B8F1000F4BD09B
:1010F000C4F80880FFF77AFA7178002942D10121FB
:101100007170FFF777FA35B909A80FF2246114223C
:1011100000F0E8FC09AD286820606868E060287C81
:101120002074A868606101206074688A6082E86841
:10113000010018BFA061A02104F1200001F0C0F956
:101140000823242200216846FFF784FA01208DF845
:1011500018006A46002104F13800FFF77FFA0823DF
:10116000242200216846FFF751FA06946B460022BC
:10117000DFF8881504F17000FFF768FA20460EB01A
:10118000BDE8F081FFF736FA0020F8E738B5FFF741
:101190002DFA7449497E31B1DFF868150C68FFF704
:1011A00029FA204632BDFFF725FA00F07FFC10F542
:1011B0000030DFF8542541F10001A2FB0045DFF8C3
:1011C0000C0502FB015501690020221845EB0103C3
:1011D000184632BD000000000810044020000E0038
:1011E0002DE9F84F04460E4692469B46FFF7FEF95E
:1011F0005C4D8046B5F93400B5F93610401AC0F39D
:101200000B0008286FF0010944DAA88E401CC0F3D7
:101210000B00A886B5F93400ADF80000002046495F
:1012200001EB4017F97F090604D5401CC0B208281D
:10123000F5DB002704F1700000F0F7FABE6087F8D4
:101240001EA0C7F804B02021BDF80000B883FC60E0
:10125000DDE90A23DFF8B40410401940C7E90401AE
:10126000B8340020F87740F6FF76686A00283946DF
:1012700005F1240006D0FFF716FA30B100F05EF851
:1012800040464BE0FFF70FFA40B9A88E3018C0F384
:101290000B00A88600F070F948464AE000F04EF8CE
:1012A000E87F697E084208D0012085F820000020F0
:1012B000E8772877A87E401CA87600F05DF9A86A38
:1012C000002834D1687E18B1192000F0ECFA2EE025
:1012D000687F60BBFFF78AF90446A87F20B1DFF87A
:1012E00000140120887018E0B868FFF734FAA86489
:1012F000B8B100F030F8AA6C121AB2FBF1F2022A6F
:1013000023BFAA6C101AB0FBF1F10121EC3528467D
:10131000FFF780F92846FFF781F92046FFF76AF9C1
:1013200005E02046FFF766F90421FFF723FEBDF92B
:101330000000BDE8F28F0000F8050020BDF80000B5
:101340002080F87F40F08000F877A07810B100206E
:10135000A07028777047A86BDFF81013C068096881
:1013600070470000101A00202DE9F04106460F4694
:1013700014461D46FFF776F980463846FFF7B0F968
:10138000070003D14046FFF771F90AE0F87F072113
:10139000084209D04046FFF769F90721F87F084263
:1013A000FCD10220002116E07968DFF86403814255
:1013B00002D0796831667860C6E916454046FFF785
:1013C00055F94FF0FF3106F13800FFF71BF9002007
:1013D0003066D6E91A01BDE8F081DCB5DDE90667C3
:1013E0000446CDE90067180008BFDFF82433204623
:1013F000FFF7F6FE002803D500204FF00041DCBDCA
:101400000146204602B0BDE8D04002224FF0E04342
:10141000AAE70000101A002000100440020000405B
:10142000BDE87040FFF7E6B801E042F002022DE9A6
:10143000F843DFF8CC42606A0090894603271546DE
:10144000FFF7D4F819F1010F05F0010680460AD123
:10145000A06A002819BFA06AB0F91C90E08E00F1C4
:1014600001090020E0750FFA89F0FFF739F9010052
:1014700070D0A06A814205F0020525D1280003D072
:10148000606A0090002060620122C87FB240104371
:10149000C877FFF7E7F80746002E14BFDFF874029D
:1014A000DFF87402FEF7D2FD00F066F825B906E019
:1014B00000F055F800F05BF800980028F8D13846A5
:1014C000FFF7D4F8832747E0009A8A4204F1EC0042
:1014D00016D100F0AAF9280012BF0020606A006847
:1014E000606200F049F8009800F039F800F03FF829
:1014F000009818B32800F6D120E0009A12680092F4
:10150000009AEAB112688A42F7D100F08EF9009889
:1015100000681DB1009A0021116004E00168009A82
:10152000116000210160009003E000F018F800F065
:101530001EF800980028F8D100F01EF8832701E07B
:1015400000F01AF8607F38B9022104F14C0000F075
:1015500094F901E000F010F83846BDE8F283C07F4E
:10156000009940F00400C8776846FFF791B801463B
:1015700004F13000FFF797B84046FFF73BB838B5A5
:1015800000F01AF805465E48407E68B12046FEF736
:101590005DFD044600F04AF804F0FF00012801D187
:1015A000812032BD022032BD00F040F8012032BD62
:1015B000000000005C1A00200446FFF717B80A4636
:1015C0004F49896B884201D00320704709E0000031
:1015D000D02108400A464A49896B884201D003203D
:1015E000704700211046CAE770B545498A6B9042A2
:1015F0006FF07F0411D1487E78B1FEF7F7FF054602
:101600004648FEF723FD064600F010F806F0FF00FE
:10161000012802D13002001670BD204670BD0000C6
:101620005100070600000460001004402846FEF741
:10163000E1BF70B50E461546FEF7D8FF832430494A
:101640001EB1022E0DD005D30EE08A6A3AB1896A26
:10165000898B02E00A7F12B9898A298005E08024FB
:1016600003E0497E297000E003245BE0E80000000D
:1016700080B50846FFF734F800B1806802BD00006D
:101680000100070601010E0438B5FFF795FF1C495C
:10169000CA7D520702D58B7D9C420FD001228B8AD6
:1016A00002FA04F52B438B820C341D4B1D68A240BB
:1016B00025EA02021A601A6802B90A76BDE83240C9
:1016C000FEF798BF201B002004000020201B0020F4
:1016D0004F0900004F0800008B090000A10A00001C
:1016E000371D002000200940206200005109000041
:1016F000D1070000890700006709000015090000F4
:10170000101A00200430044000093D00F1EFFF9F53
:101710001909000001000204010001040100030492
:101720000C100440FEF766FF204670BD000000006C
:10173000FFFFFFFFC4090000000000004F09000088
:1017400001001A01DFF800F021B30110DFF800F00A
:1017500095C00110DFF800F00DA80110DFF800F0CF
:10176000BDBE0110FEE7DFF8FC00007D70476BE0B6
:1017700038B5FFF7FCFFDFF8F4500446A8680021F5
:10178000FFF7E4FF6969081AA969814238BF0020A0
:1017900084F3118832BD2DE9F041FFF7E8FFDFF84F
:1017A000CC500446A8680121FFF7D0FF0121A9838E
:1017B0000021E9836E6929682A68871B801A711ADB
:1017C000884204D20020A88384F311882BE084F39C
:1017D0001188002406E0A61931460120FFF7BAFF60
:1017E0003F1B0446A742F6D2FFF7C1FF8046E88BB5
:1017F000012804D131460020FFF7ACFF0446A96957
:1018000014F1010F08BF084603D0E01B814238BF26
:1018100008468119FFF7A2FF012028840020A88331
:101820002E6088F31188BDE8F08100218182DFF805
:101830003810C0684969884204D1DFF85800006850
:10184000FEF7ECBE70477047DFF84C100968EFF305
:10185000118081F311887047F6E7DFF84000806857
:1018600070470000A40100207801002078010020CA
:10187000616280F311882046704738B504460D46F2
:10188000FFF7EAFF616A2943FFF7F2FFBDE8324044
:10189000FFF758BF94650000E4000000C801002075
:1018A000816042607047102804D3DFF80C101038B4
:1018B000C1F8000F7047000000E000E000F004BE37
:1018C000FFF7C2BFDFF89811C20744BF01220A60C8
:1018D000820744BF4FF480720A60400744BF4FF450
:1018E000803008607047DFF87C21C30748BF116073
:1018F000830748BF5160400748BF916070470000B0
:1019000010B504460020D4E90A2347F6906100F0A0
:1019100087FE0123994228BF4FF0FF3010BD10B55C
:101920000C4600F0B9F8011D201AB0F1004F05D89F
:10193000081BB0F1004F38BF8C4200D20C46214644
:10194000BDE810400120CEE72DE9F04180460A466F
:10195000D8E90A01D8E90C45A0FB026701FB027730
:10196000A6196F41340C002244EA07414046FFF7B4
:10197000D6FFC8E90E67BDE8F081F8B50646FFF767
:101980009FFF0446DFF8E050DFF8E0700120E861D7
:10199000FFF798FFF96A096A142088473069B0F5A3
:1019A000802F34BF0421010C0120FFF79CFF3A680F
:1019B0001268232100209047DFF8B410012008604E
:1019C000DFF8B400016821F4E02141F480310160C6
:1019D0000120286084F31188F1BD000000F066B892
:1019E00010B5DFF89000446800F006F86069A1695E
:1019F000BDE8104008470000012063E7F8B5044641
:101A00000D4600F053F8D4E90A6732463B4600F031
:101A100007FE3DB1A6FB002306FB013307FB0033A5
:101A2000C4E90C23F2BD10B5DFF83C00DFF84C40F0
:101A3000002101600121C16121602068FFF7DCFF06
:101A4000DFF848100968096A14208847206810BD2B
:101A5000000080B500F02AF8000C40EA014002BD09
:101A6000042009401820094000002443840100108C
:101A700080022443E4010020002009402C2009407A
:101A8000DFF81000C088704700000000B0010010AF
:101A9000FEE77047F00100200948016842680368CA
:101AA0009942FAD1100C40EA0140704710B5044A3F
:101AB000136850681468A3421946F9D110BD00009C
:101AC0000820094062B38B0708D0521E11F8013B71
:101AD00000F8013B00F024808B07F6D1830740F02B
:101AE000208000BF103A07D330B4B1E83810103A64
:101AF000A0E83810F9D230BC530724BFB1E8081071
:101B0000A0E8081044BF51F8043B40F8043BD2075A
:101B100024BF31F8022B20F8022B44BF0B7803704E
:101B20007047083A07D3B1E80810083A40F8043B78
:101B300040F804CBF7D25307E4E70000DFF800F0E9
:101B4000F5C00110DFF800F049BA011020B10823F8
:101B500024220021FEF75ABD704780B50120009075
:101B600009234FF400720021DFF8080700F015FE8A
:101B700001BD80B5002301223421DFF8F80600F012
:101B80001FFE00B10120C0B202BDDFF8EC06806884
:101B90007047DFF8E416401890F8ED007047002217
:101BA000022904D1012806D140F2EE2203E00128E7
:101BB00008BF4FF47A7210467047DFF8BC06D0F8C1
:101BC000DC007047DFF8B00690F8E61021B1D0F8DD
:101BD0000C01010018BF004770472DE9F041DFF804
:101BE000988608F1E1058AB0A879002861D1012022
:101BF000A871DFF88866DFF88876307B68717068D6
:101C0000C8F80C0101A8FFF7A1FF00200690ADF86D
:101C10001400079001AB00220FF2F54108F10C000F
:101C2000FEF714FD01AB00220FF2A15108F13000C4
:101C3000FEF70CFD01AB00220FF2D94108F1540070
:101C4000FEF704FDB16801208847DFF83806007808
:101C50007868C0F38154707B20B1032C02D101203D
:101C6000287003E0032C18BF022C16D1022000F0CC
:101C70009DF8032CDFF810160CBF4FF47A7042F277
:101C800010700968B0FBF1F108F15400FEF7C2FCD6
:101C900008F15400FEF7C2FC05E0012C03D100F06E
:101CA00063FAFFF75AFF386840075CBF002000F076
:101CB0007DF80AB0BDE8F08110B508B1140001D17B
:101CC000022010BD8160C26003610146DFF8A805F3
:101CD00000F090FD002010BD10B50446FEF786FC14
:101CE000DFF89415621892F8E8305B1E82F8E8304D
:101CF000DBB223B98A680123A3409A438A6066E075
:101D00002DE9F0410546FEF771FC8046DFF86815C5
:101D1000681890F8ED20521E80F8ED20D2B2002A0B
:101D20003FD10FF2A050DFF8644500EB85052E7817
:101D30006F88300615D52168096A384688472168BA
:101D4000896A384688472168096B38468847DFF832
:101D5000401501200860DFF83C0500688007FAD5CF
:101D600012E0700606D501EB87010020D1F80011C2
:101D7000884709E021688969384688472168496BA6
:101D8000384688470228F9D106F03F003F2818BF9F
:101D9000FFF7B6FF687800F03F003F2818BFFFF755
:101DA000AFFF4046BDE8F041FEF724BC10B5044645
:101DB000FEF71CFCDFF8C0148A680123A3401A4315
:101DC0008A60611891F8E820521C81F8E820BDE88B
:101DD0001040FEF70FBCF8B50646FEF707FC0446B8
:101DE000DFF89454701990F8ED104A1C002980F81F
:101DF000ED2039D10FF2CC4000EB8607387800F0A7
:101E00003F003F2818BFFFF7E6FF787800F03F005B
:101E10003F2818BFFFF7DFFF7E883878DFF86C7443
:101E200001060ED53968C969304688473968496A5C
:101E3000304688473968C96A3046884700F019F843
:101E400012E0400606D505EB86010120D1F800110D
:101E5000884709E039684969304688473968496BDD
:101E6000304688470128F9D12046BDE8F240FEF708
:101E7000C1BBDFF81C1401200860DFF818040068FB
:101E80008007FAD570472DE9F04F002483B04FF05A
:101E9000000A0128D04618BF012664D1DFF8D89384
:101EA000D9F8DC0001285DD10220C9F8DC00FFF779
:101EB00045FE0090012000F062F9060054D1FEF7C3
:101EC000D1FBDFF8D81301900C60012000F042FA3A
:101ED000012804D1002000F0A7F94FF0010ADFF833
:101EE000C013DFF8B4030C6000681120FFF751FE47
:101EF00008B14FF001081020FFF74BFE08B148F081
:101F000002080F20FFF745FE08B148F004080B2037
:101F1000FFF73FFEDFF8746320B13168096B4FF4BF
:101F2000806088470A20FFF734FE20B13168096BD2
:101F30004FF481608847DFF85813DFF86873DFF8E3
:101F400068B30120086048F020003168896988473B
:101F5000DFF858130120086099F80800C00707D57A
:101F6000012416E0042673E00120C9F8DC006CE0CF
:101F7000584600F061FC0546042DF9D0012D04D12E
:101F8000326A5268032158469047386880088000BA
:101F90003860002000F05CFCBF4800683068806B4F
:101FA000804754B9012D04D1326A52680121584644
:101FB0009047386840F0030038600120B849086055
:101FC00040463168496988470B20FFF7E2FD20B1A0
:101FD0003168C96A4FF4806088470A20FFF7D9FD4D
:101FE00020B13168C96A4FF481608847A84901204F
:101FF00008600020AD4908600320C9F8DC003168A2
:10200000496B404688470128F9D1042000F0B7F811
:10201000A24901200860A0480068A5480068800621
:10202000FBD5BAF1000F1CBF012000F0FDF800F055
:102030005BFD082000F0A3F806460120C9F8DC008B
:102040000198FEF713FB00F0D3FC0098FFF77AFD30
:102050003046BDE8FE8F38B50446FEF7C7FA0546A0
:102060002146854800F0DAFB28464BE030B50024D5
:1020700001288BB004D021D303281DD018D31DE034
:1020800001A8FFF763FD7C4D8A490694ADF8144022
:10209000079401AB012205F17800FEF7D7FA00940E
:1020A0000023854A2C2105F19C00FEF7CBFA05E0C0
:1020B00000F036FD044601E000F0D8FD20460BB0EC
:1020C00030BD00F054B938B5FEF790FA05466A48BD
:1020D00090F8E000012410B1FFF74BFD04462846BC
:1020E000FEF788FA204632BD38B5FEF77FFA624D1A
:1020F000044695F8E00020B100F080F9002085F852
:10210000E0002046BDE83240FEF774BA000000004F
:102110007047000010B582B0042000F01BF90228BF
:1021200018BF032807D100F01FF8FFF716FDBDE820
:1021300016400220D0E56148534900684E4CC0F378
:10214000815003280CBF4FF47A7041F2883009683F
:10215000B0FBF1F104F15400FEF75CFA04F1540015
:10216000BDE81640FEF75ABA032000901C234FF03A
:10217000405200213F4800F010BB0020704770B56E
:1021800004463D4E304600F02BFB002598B9304602
:1021900000F02CFB0646B068204207D03269F36895
:1021A0000021204698470546012D05D0304600F015
:1021B0001FFB0600EFD1284670BD414901280CBF26
:1021C00040F2FF70002008600020704770B5FEF7F5
:1021D0000DFA294E294D044696F8E00028B100F08A
:1021E0000DF968B1002086F8E0000220AD68A8472C
:1021F00006461020FFF7C3FF8EB10320A8470EE06C
:10220000214909683220B0FBF1F101B9012106F141
:102210003000FEF7FFF906F13000FEF7FFF9204627
:10222000BDE87040FEF7E6B938B501281ED100F0D0
:1022300091F801281CD000F0D7F80F4C124901206A
:1022400084F8E00032200968B0FBF1F505B90125FA
:1022500004F13000FFF7E9FA294604F13000FEF7F7
:10226000D9F904F13000FEF7D9F901E000F0E8F8FF
:10227000002032BD00A00C40E0040020D861000026
:10228000B03F00503D1D0020E8000000B8010010E4
:1022900028200860282008402C2009400C400940D4
:1022A00000022243242208400040034080010443EE
:1022B00014100940A92D0000792B0000B43F0050F4
:1022C000000004608F3F00008F3F01008F3F02003D
:1022D0008F3F0300903F00018F3F0101903F0002BC
:1022E000903F00038F3F01048F3F00058F120804C9
:1022F0008F3F00048F3F0006513F00007F3F0100E9
:102300003F3F04003F3F02003F3F01007F3F02008C
:1023100070B50446E00782B00D46624E05D5A8B2FE
:1023200000900023012200F011F8A00705D5A8B203
:1023300000900123022200F009F8600705D5ADB234
:10234000009502230C2200F001F873BD00213046F5
:1023500000F023BA0146042907BF1D234FF0C042F5
:102360001C234FF080524F48342100F029BA38B571
:102370000546FFF791FB4C4CA168401A4FF47A7167
:10238000484305EB104500F0E5FD2169401A48BFC0
:10239000404240F6B9318D4207D2062805DAA068DE
:1023A000E168814201D322685AB940494A68D2079C
:1023B0004FF4FA6017D4086800F0FF007D2148430D
:1023C00008E0081A3A494843000C00EB900090429C
:1023D00038BF1046C82801D2C82032BDB0F57A6F88
:1023E00088BF4FF47A6032BD80B501210320FFF72A
:1023F0008FFFFFF751FB2C49886001BD80B501209C
:10240000FFF7A8FF012819D0002301223421254815
:1024100000F0D6F998B100F026F8FFF73DFB22490D
:102420008B680A68C860A2EB9202C01A204B58431E
:10243000000C0860904238BF10460860012002BDC1
:1024400010B500210320FFF763FF0120FFF782FF93
:1024500008B100F008F8144CFFF71EFB606000F0B4
:1024600079FD206110BD1348006800F087BD10B5EC
:1024700011490A6811490968140424161B38444399
:10248000E41004EB2244120600FB00F312160906C6
:102490005A435843091604EBA222484302EBA040DA
:1024A00010BD000000A00C40141D0020AC3F0050E7
:1024B00040420F008000001090130050A410005004
:1024C000002200F077BD000010B54048046814F108
:1024D000010F08BF002400F0EFFD3D490020086017
:1024E00001203C4908603C49086000F0B5FF3B48CA
:1024F000006820B13A480068204600F01CF83949CD
:10250000394A00200860394801686FF31B411143C4
:10251000016037480168C1F30131012906D1016822
:10252000344A114041F400320260016032480068D0
:102530000028FBD110BD70B505463048012101606F
:102540002F4909680029FBD02E4C2F4AC021216059
:1025500053682E499B075DBF13681B0C43F0F003C3
:1025600072230B70002101639668304600F0AEFDC7
:102570003146284600F0DDFD2548816D89B240F2E4
:102580000F22914213D201680068C1F30361C0F3C6
:10259000034001B1491E072805D006280EBF0720B9
:1025A000801C00F00F0041EA00101A490870304604
:1025B00000F02EFE18490968C968022088474020AB
:1025C000206001201549086070BD00001C130050F8
:1025D000840460425C600C4008220443800128436C
:1025E000000120438C2108400000390148200340AD
:1025F00004000940FFFFFCFC0C0068421010094079
:102600009402224300600C40AC3F005056620840E8
:10261000BC12005002600840A00100109404604207
:102620001B4213D1094236D12AB18446B0FBF2F0E5
:1026300002FB10C2704700F07FBFFCD300220023D2
:1026400070470B000200002100207047904271EBA0
:10265000030CF6D370B5B1FA81F4B3FA83F52C1BF1
:10266000A340C4F1200532FA05F63343A2405FF0DF
:102670000046E64002E05B085FEA3202841A71EB32
:10268000030524BF204629467641F4D302000B00FF
:102690003000002170BD012ACFD970B5140C20D0B4
:1026A000B1FA81F4B2FA82F5C4F120046419B4F1EC
:1026B0002006D6D3B2405FF00044F440002502E08B
:1026C00052085FEA3303C61A71EB020E24BF30468C
:1026D000714664416D41F3D302000B0020002900D4
:1026E00070BD0C46B1FBF2F102FB11452D0445EA29
:1026F0001045B5FBF2F402FB145580B240EA0545E3
:10270000B5FBF2F002FB105240EA044070BD00003D
:1027100070B504460D46164600F0E2F9401E8041B1
:10272000C00F1A490A68002AFCD0012E02D0022EDE
:1027300002D003E0257002E0258000E02560012240
:102740000A6000281CBFBDE8704000F0CDB970BD24
:1027500038B504460D4600F0C3F9401E8041C00F55
:102760000A490A68002AFCD0012D02D0022D02D0AD
:1027700003E0247802E0248800E0246801220A6053
:1027800008B100F0B1F9204632BD000000800C40D5
:102790000B46114604221818BAE710B500EB4100A9
:1027A000102B144600F5007002D3103B001D240CC2
:1027B0000299994041EA0441BDE810400422A7E78C
:1027C00038B51D460818102D144602D3103D801C44
:1027D000240C0221FFF7BCFF204080B2E84032BD4C
:1027E000006800280CBF0120002070470068704777
:1027F0000068704738B504460D4600F09EFE002183
:102800002960616869606168002914BF0D602560F6
:102810006560FFE7BDE8324000F091BE0B684A6892
:10282000002B0CBF42605A604A680968002A0CBF3E
:102830000160116070470000006801074CBF042070
:1028400000F00300704700001628A8BF203870472A
:102850002DE9F84F06469348934C0068934D800746
:1028600004D50820A87192482060BFE000F072FBF8
:1028700080469048006800900027001700F1010989
:102880000098800208D4C8F13E00C0100928A8BFF3
:1028900008208145B8BF814687480068C0F30460BE
:1028A000FFF7D2FF824685480068C0F30440FFF777
:1028B000CBFF09EB0A011629A8BF152104DA6FF036
:1028C00009029142B8BF114601F01F027C4B42F44D
:1028D000F8521A807B4A126812F0030F18BF0127C2
:1028E000520748BF47F002070EB147F0040795F9B9
:1028F0000720A8EB0202052A02DAAA7997425DD0E6
:10290000A8F10F0C0026BCF1000FB64607F001023B
:1029100007F00403DFF8B09123D40CEB0C1C4FEA52
:102920002C2EBEF1080F28BF4FF0070E7646072E5B
:1029300028BF062609EB860A59F82660DAF804A0B3
:10294000AAEB060A0AF0FF0613B1CAF3072B5E448E
:102950005FEA877B44BFCAF3074B5E440AB106EBCC
:102960001A6659F82E9009F0FF0A13B1C9F307232C
:102970009A44BB0744BFC9F307439A440AB10AEB20
:10298000196A401AACEB0E220099AF717243803283
:102990000128B8BF0120342301F0FF0158430AEB9E
:1029A00012224843B0FBF2F0B0F5803F28BF4FF64B
:1029B000FF7008F30708A88085F80780434800687F
:1029C000A988286000201F2904D21F21A98004E0C3
:1029D0004908401CB1F5007FFAD20F39090940EAD5
:1029E000C1003B490843206000206060BDE8F18FD2
:1029F00010B53848006884B21CB300F0ABFA2B491C
:102A000091F90720904205DA6FF07F029042B8BF3B
:102A10001046C8718888844201D28C8010BD2B4A30
:102A200012680B68D21A921C202A28BF1F22231A70
:102A30005208D3401818B0F5803F28BF4FF6FF70FA
:102A4000888010BD2448026802B9704710B5234B36
:102A5000996801F04060B0F1406F21D011480468DE
:102A6000A4071DD45C68A4071AD404681B68C3F3C8
:102A700003531C331B0114F0050F06D09A420FD2EA
:102A80006FF005012140016010BD934208D20A0198
:102A900058BF44F00104490158BF44F004040460E5
:102AA00010BD00000000094030100940281D002022
:102AB000FDFDA400B43F0050B81200503C1100507E
:102AC0006E620840242208409C13005008200940F0
:102AD00000E7A4803410094028500940AC3F005062
:102AE000EFF3108072B67047EFF3108062B6704754
:102AF000DFF800F099C8011010B50C18FFF7F0FFCF
:102B0000401E8041C00FDFF8F0130A68002AFCD095
:102B1000246801220A6008B1FFF7E6FF204610BDD5
:102B200038B5DFF8D843DFF8D8132078897B002543
:102B300008430AD0FDF75AFDA178002906BF0121FC
:102B4000A1700125FDF756FD0DB1002032BD022018
:102B5000FFF72CF90E20FFF73EF9DFF8A803016814
:102B600009B1012032BDDFF8A0234021116001210D
:102B7000C1610020607032BD70B5DFF88C0382B097
:102B8000002101604821C160DFF8800300F1D80412
:102B9000A17A002968D00129DFF8742329D11068AF
:102BA0004BF2F5214843050ADFF868030068C0F3DB
:102BB0008140012806D100F0CDF9FFF758FC6843A9
:102BC00005EB9055607B10B10020607305E0D248A2
:102BD0000068000215EB10204508D0480560290C5C
:102BE000416001218160C648807B00283AD00520E1
:102BF00039E0022909D11568284600F0FDF8A5F250
:102C0000FF5003282ED308202DE003292CD1116872
:102C100000F1B805A1F5C0612868E961002848BF46
:102C20004042002948BF49428842A8BF002018DA24
:102C30006868BB4E80B2009008234FF47F42302179
:102C40003046FFF7AAFDA86800F072F9042130466B
:102C5000FFF7A3FDA86900F071F93046FFF79DFD6D
:102C6000012020700B202073BDE873402DE9F04156
:102C7000A64CDFF8AC82AB4FAB4EA34804F1E105A4
:102C800082B0E9784A1E0B2A00F28080DFE802F069
:102C9000062233465B33465B3346636EA3490968BD
:102CA0000968202088470F20F860072341F61D504F
:102CB00038614FF4C0720220009000F070F80723D2
:102CC0004FF4C07200214046FFF77AFD01203060CA
:102CD000022044E00120F861287800281DBF002070
:102CE000306103200620E870032038600020706007
:102CF0007068800734D4E878032804D1022000F0FB
:102D00004BF8042007E0002000F046F8E878062899
:102D10000CBF07200A20E87001201AE0042903D123
:102D20002021B961012105E00122BA610A290CBF05
:102D3000032102216970002139600821C16001600E
:102D40000120386026E005290CBF06200920E87024
:102D50000020706004E00020306070600C20E8709B
:102D600004F17800BDE8F641FDF758BC0021016090
:102D70000120644908600E20FEF7C2FF0220FEF722
:102D8000ABFF0120E8700020A87003E0BDE8F3412C
:102D9000FFF7AEBEBDE8F38100900523602200215D
:102DA0004046FFF7FABC000080B558495E4891F8EC
:102DB000E410891E0A291AD8DFE801F0060A0E1964
:102DC0000A0E190A0E19120001688907FCD510E0D5
:102DD00041688907FCD40CE041688907FCD508E00C
:102DE00001688907FCD441688907FCD401E0FFF73A
:102DF0007FFEBDE8014039E7F8B50746484C302171
:102E00002046FFF779FE414E06F1B805C0F30720D2
:102E1000686004212046FFF76FFEC0F38440A8607D
:102E200020212046FFF768FEC0F38120A861B7F596
:102E3000C060286002D186F8D800F1BD296996F8F3
:102E4000D8202AB96A68A968EA60E861AA696A6153
:102E5000E86900284CBF6FF00102022200EB40003D
:102E60001018421000EB927001EBA0006968E96055
:102E7000012810DA6A69032A04D1153001281DDA05
:102E800001201BE00B300128B8BF0120491E48BFBC
:102E90000021E96007E01F2812DB6A692AB91538AA
:102EA0001F28A8BF1E20032109E00B381F28A8BF38
:102EB0001E20491C4029A8BF3F21E960002169610B
:102EC00028610823E86880B200904FF47F423021E7
:102ED00000F03CF80120009011234FF4003200F084
:102EE00034F8286900F024F800F02FF8686900F041
:102EF00025F800F02BF8F1BD00800C40C105002042
:102F0000D861000004800C402C500C40E0040020EC
:102F100008400C40B43F0050102009403C600C4079
:102F200000A00C4000400C4034600C40A001001098
:102F300080B2009012234FF4F802704780B20090E4
:102F40000A234FF440622021704704212046FFF7F6
:102F500024BC00000748084A81681278006852B211
:102F6000A0F54070C9035043C913A1EB2010803075
:102F700000127047285009400C13005070B50446E9
:102F8000FFF7AEFD451EAD41ED0F074E306800283E
:102F9000FCD0A04701203060002D1CBFBDE8704070
:102FA000FFF7A2BD70BD000000800C4062F30F224D
:102FB00062F31F4200B500BF1300964694461039D5
:102FC00028BFA0E80C50FAD85FEA417C28BF0CC0AB
:102FD00048BF40F8042BC90728BF20F8022B48BF80
:102FE00000F8012B00BD000030480068000C00F024
:102FF0000700052828BF4FF0FF3070472C490A68AA
:10300000C2F30F324BF69A139A424FF0FF3006D1BB
:103010000868000F0B280CBF0420002070474BF6F7
:10302000BE118A4201D1012070474BF641318A42DC
:1030300001D1032070474BF620318A4208BF02209D
:10304000704700001A48F8B50068050F1948006875
:1030500000F0FF06802E28BF0026FFF7CFFF0428D0
:103060004FF0FF3406F10A071DD8DFE800F0031225
:103070001A1A1B00012D12D0032D06D0072D06D0E1
:10308000082D08BF06F116040DE014240BE01524EA
:1030900009E025B1022D08BF06F1140403E00A245B
:1030A00001E005B93C4660B2F2BD00009412005048
:1030B00018130050A010005080B5FFF79FFF20B9F3
:1030C000FFF7C0FF162800DB01BDFEE7DFF8E813BD
:1030D0000968C1F304611629A8BF203901EB2071EA
:1030E000491C1629A8BF152104DA6FF00902914284
:1030F000B8BF114601F01F01DFF8C02341F4F851B9
:103100001180DFF8BC13096889074FBF40F04060A9
:103110000021DFF8B0231160DFF8AC13C0F3C06208
:1031200082F00102C0F380600A6080F001008860D4
:10313000704770B5054682B0084600F0EEF80246CA
:10314000DFF88843182100F060F800F012F980B22F
:103150000090002340F2FF322C212046FFF71DFB98
:10316000DFF86C63F068C0F30D021C2100F04DF82D
:10317000706800F0FC32142100F047F83068DFF886
:103180005413DFF8546301EA0002102100F03DF807
:10319000284600F0F8F802460C2100F036F82846E0
:1031A00000F01CF9400040F020003072284600F08A
:1031B0001EF940F010003072284600F021F9024656
:1031C000282100F022F8284600F0FFF8400040F0E7
:1031D0006000F072284600F02DF9C00040F0800039
:1031E0003070284600F02FF98000BC4940F47C4044
:1031F0000880284600F011F90246082100F005F881
:10320000B7494FF48000086073BD2046FFF7C0BA8D
:10321000F8B5810C01F003010129B24CB04D02D088
:1032200002292AD026E0216A8A0323D44FF480425F
:103230002A606FF08F06AC4AD2F8023033404E0A53
:1032400006F080063343C1F303363343C2F802303D
:10325000C1F30326D2F801301B0946EA0313C2F872
:1032600001306FF0E7061368334001F0E7011943BE
:10327000116002E04FF0004129609C4E9C4AB16809
:1032800009075CBF4021A9624FF400712964800DD9
:10329000216AC90C01F0030141F0300110F0030074
:1032A000117003D0022826D008D326E00121042083
:1032B000FFF72EF88F4800F0F0F822E00120FFF72A
:1032C00049F8074639460420FFF722F80420FFF7A3
:1032D00041F8B842FAD1366826F07F4000F0DDF8B8
:1032E000854B1B681B684FF060220721300E984702
:1032F0004FF480602860032100E002210420FFF7E2
:1033000007F820687D4900F03F00087047F6180074
:103310007B4908807B480068F1BD7B490968C1F39F
:1033200083628303C1F38F2120D4000400164FF67B
:10333000FF7307E0490804D11946520804BF01226F
:103340000121401C0028F5D401280FDB490041F081
:103350000101B1F5803F21BF0121520042F001027D
:10336000102A24BF0F221946401EEDE741EA024011
:1033700070476548016800680002C1F3870100F4E6
:1033800040700843704730B5604C61490A68656811
:10339000ED07C2F30351C2F303430AD424682505A1
:1033A00001EB2571240481F3040103EB247383F3FF
:1033B00004031B0443EA015193B21943222824BF9A
:1033C00002F080400143084630BD0021202803D38D
:1033D00050480068C0F30151084670470121222877
:1033E00003D34D480068C0F30071084670470121BF
:1033F000222803D348480068C0F34071084670474C
:103400000021202807D343480068C10C01F4407113
:10341000C0F3845001430846704720283F4907D332
:103420003C483F4A0068810A02EA003040EA815184
:10343000084670470021222803D337480068C0F3AC
:10344000C061084670470021222803D33248006833
:10345000C0F3455108467047324800680028FBD148
:103460003148324A416812688908890041F00051A8
:1034700041F00401520748BF41F001010BD402683A
:1034800012F0030F07D041F003024260026802F01D
:103490000302032AFAD141607047254982B20A60CB
:1034A000C0F3074048600120886022480068002877
:1034B000FBD0002088607047B81200506E62084050
:1034C0000000094094042A430000204300A00C405F
:1034D00070130050FFFFFC0041A10C40DCA10C4028
:1034E00040A00C406C1300500A600840A83F0050F8
:1034F00008A10C40BD378600B40100100BB00C4091
:1035000070B00C402C20094050130050AC3F0050CC
:1035100078130050981300508C13005000803F40E7
:1035200000F03F000C00684200400340B03F0050F4
:103530003C600C4084088C437047FDF757B8FDF79A
:1035400059B80000DFF800F0D9C10110DFF800F031
:10355000ADB50110DFF800F019AE0110DFF800F092
:10356000E5C10110DFF800F085C20110DFF800F0BE
:1035700081C20110DFF800F055C10110DFF800F042
:1035800043C20110DFF800F079AB0110DFF800F062
:10359000D9B60110DFF800F0EDB3011020B1082317
:1035A0002C22002100F012BD704720B108233C22DC
:1035B0000021FFF7C7BF704780B5FEF7BFFAADF82F
:1035C0000000FDF713F8ADF80200009802BD01B548
:1035D000BDF80200FDF70EF8BDF80000BDE802409E
:1035E000FEF7B0BA38B5DFF8A008DFF8A018DFF8AA
:1035F000A04880088000091A2161E060034602E0CB
:10360000002523F8025B0D18AB42F9D38B0800EBC1
:103610008303002223F8042CE82202804FF6FC7278
:103620001140EC39A0F8E810E8306060002000F0AC
:1036300004F8A060E068606031BDF8B500240025A2
:10364000061D16F003001CBF311D0E1AFFF7B4FF54
:10365000DFF83C28B6B21060112EB4BF57689768E7
:103660003A88130403D582F4004200251AE02B00A7
:1036700014D0238839880B4423809BB2B34211D3E2
:1036800027461A46B7B1921B92B2042AA7BFBA5373
:1036900046F40041398841F4004109E0B242F1DAD0
:1036A00001253C4617443A88002ADAD1002701E078
:1036B00027F8041BFFF78BFF3846F2BD10B5044610
:1036C000FFF77AFFDFF8C817086034F8042CC2F35C
:1036D0000E0224F8042C221F4B689A4238BF4A601D
:1036E000BDE8104073E738B50446FFF765FF0021D9
:1036F0000C23DFF8A0274B43D518AA6C4AB194429B
:1037000004D1FFF764FF05F1480032BD491C0329CD
:10371000EED3FFF75CFF002032BD70B50546FFF722
:103720004BFF044600200C22DFF8681742438E1836
:10373000B16C49B900203065B5640022FFF706FF7F
:10374000F06418B900F04CFC8D4205D12046FFF71B
:103750003EFF06F1480070BD401C0328E3D320461D
:10376000FFF735FF002070BD38B50446FFF724FF92
:103770000025DFF820170C226A438A5A130008D06C
:10378000944203D1FFF723FFE8B232BD6D1C062D32
:10379000F1D3FFF71CFFFF2032BD10B5044620888F
:1037A000FFF7E2FFFF2800D16BE10C22DFF8E416FF
:1037B000504308448168080002D16FF0010010BD39
:1037C0002046BDE81040084702460FF23870104707
:1037D00010B500200C21DFF8BC26002401FB00F30B
:1037E0001344401C03289C641C65F7D3002000236D
:1037F00001FB00F4401C13530628F9D30820108065
:103800000FF2E9609060BDE81040EBE670B590B053
:10381000FEF794F904466846FFF7C7FE05200690B8
:10382000002240F2B6300890694649F6B110049083
:10383000DFF864060590DFF86406FFF78BFE0500ED
:1038400006D0FFF7B9FE06462846FFF766FF08B91F
:1038500000F0C6FB3046FFF7BAFE2046FEF772F9CD
:1038600010B070BDF8B500F0E6F8FFF756FF0500A0
:103870006FF0020616D0FFF79FFEA28800210C27EA
:10388000DFF810364F433B441F883FB91A805D6014
:10389000A2689A60217369682161C4E2BA4203D1C7
:1038A000FFF795FE3046F2BD491C0629E7D300F02C
:1038B00097FB00BF38B500F0BEF8FFF72EFF0500FC
:1038C00016D0FFF779FE00210C23DFF8C8254B4303
:1038D0001A4413884BB94FF6F873138055600023D0
:1038E000936021716968A16013E7491C0629EBD335
:1038F00000F076FB00BF10B5044660680C3080B263
:10390000FFF79BFE00B91AE06168018100210160A8
:10391000FF2181720C30A060002010BD80B540688E
:103920000C3811E080B288E610B50446606880B2B9
:10393000FFF783FEA06000B901E0002010BD6FF02A
:10394000030010BD80B54068FFF7B8FE002002BD3F
:1039500038B504460D46FFF72FFE002145F80C1C34
:10396000216811B9256006E0114651F80C2C002A97
:10397000FAD141F80C5CBDE8324028E62DE9F0416F
:1039800004466FF00206E068A0F10C05A079062855
:10399000BCBF207906280BDAFFF70EFEA179DFF80D
:1039A000F4840C2779434144496819B9FFF70FFEA5
:1039B000304617E0FFF70BFE20792871A079687177
:1039C000207AA871A079E1687843404440680830C3
:1039D000FFF7BEFFA0797843404440684068FCF799
:1039E0000DFE0020BDE8F08170B500F024F8FFF76F
:1039F0007AFE060002D16FF0040070BDFFF7DCFD17
:103A0000B168002541B10D46A5F10C010A68B2600C
:103A100000220A60FF228A72FFF7D9FD2800A56004
:103A200001D1022070BDA5F10C000179217140790E
:103A3000A071002070BD0446FFF790BD06280ADA89
:103A40000C23DFF850245843105A02001CBF4FF6D5
:103A5000F872904202D14FF0FF307047088000208A
:103A60007047811D0079E9E710B50446E088FFF74B
:103A70007BFEFF2800D104E0A0712046BDE8104085
:103A80007CE74FF0FF3010BD3EB50446FFF7ACFFBA
:103A9000050017D120796946FFF7D0FF78B10820DB
:103AA000ADF804000320ADF80600DFF8F413A068B9
:103AB0008968029001A888476FF005003EBDBDF8F7
:103AC0000000A08028463EBD10B5DFF8D82312685C
:103AD0000C464FF47A71A1FB00010023FEF7A0FD14
:103AE000002399424FF0004201D8904202D36FF078
:103AF000020010BD2060002010BD38B5FFF79BFF0D
:103B0000FFF7F1FD0546FDF72EFE002818BF01283E
:103B100000D015B96FF0040032BD606840B9009064
:103B200000996868FCF76EFD401E8041C00F32BDF1
:103B300010F1010F08BF4FF0FF30F0D06946FFF7DA
:103B4000C3FF0028ECD032BD80B54068FCF756FDBD
:103B5000002002BD00F044FA00BF80B54068FFF7C6
:103B600001FD002002BD80B54068FFF7FFFC00208A
:103B700002BD80B5FFF7FEFCFFF700FD002002BD8F
:103B800080B5FDF7DBFFFCF731FD002002BD10B56D
:103B90008CB004466846FFF701FDE02000F013F802
:103BA00008B900F01DFA0BE010B58CB00446684669
:103BB000FFF7F4FCE06800F006F808B900F010FA2E
:103BC00000200CB010BD08900023A16860686A4610
:103BD000FFF7D8BC10B50446FFF7D8FC60600020A2
:103BE00010BD0146886849680847F0B507468BB0A4
:103BF000BC68AB4D6CBB0C20FFF71FFD04006FF0E1
:103C000003061ED008232422002101A8FCF7FEFC95
:103C10000020ADF814000690079400237968A248AC
:103C200001AAFFF7B7FC206068B90820ADF80000D2
:103C30000C20ADF802006846A96888472046FFF7C7
:103C40003DFD304618E0F86860603869A060BC60EF
:103C50000AE02868804706462068FDF7E6FD3869D7
:103C6000A06030466968884779682068FCF7D2FC14
:103C70002068FCF7D3FC00200BB0F0BD10B5044663
:103C800082B060686946FFF71FFF20B90098606046
:103C90002046FFF7AAFF16BD80B5406810B96FF047
:103CA000020002BD0068FDF7C0FD002002BD7D4995
:103CB000096841600020704750B5044679480268A1
:103CC0006FF00046A6FB020100234FF47A72FEF764
:103CD000A7FC002399424FF0004201D8904200D344
:103CE00030466060002050BD2DE9F04186B00646A8
:103CF000FFF734FCFFF7F7FC044600200290002594
:103D0000FDF731FD002818BF012800D014B96FF06D
:103D1000040063E0706820B110F1010F03D14FF08F
:103D2000FF30009004E06946FFF7CEFE070054D153
:103D3000FFF72CFC0099012701EB000800E0009040
:103D400000996068FCF75EFC78B303A8FFF74CFEAF
:103D500007001AD19DF8100001A9FFF76FFE80B986
:103D6000059A9DF81210BDF80400B368984740B159
:103D7000BDF80400B0819DF81200B0730598306161
:103D800013E0059902A8FFF7E3FD009801276D1CD9
:103D900010F1010F18BF0028D2D0FFF7F7FBB8EBE6
:103DA000000002D000998142C9D2029EFFF704FCB4
:103DB00056B1314600E0114651F80C2C002AFAD1D8
:103DC000A26841F80C2CA660FFF701FC002D03E06F
:103DD0006068FCF713FC6D1EFAD1384606B0BDE8EA
:103DE000F081F8B5FFF727FE0546FDF7BCFC00287B
:103DF00018BF01286FF0040613D0FFF7DDFB002188
:103E0000244A0C234B43D75A4FB113445B681B68B9
:103E1000AB4201D1217106E0491C0629F1D3FFF71D
:103E2000D6FB3046F2BDFFF7D2FB0020F2BDF8B55D
:103E30000446FDF798FC002818BF012802D16FF056
:103E40000400F2BDFFF78AFB0546FFF7B5FB002132
:103E5000104A0C234B43D65A37000ED0A788BE42D7
:103E600008D1D11849680968A9420CBF0121002175
:103E7000A160D8E7491C0629EBD3FFF7A8FB4FF058
:103E8000FF30F2BD00000000441D0020403F002034
:103E9000E413002078130020F0020020C93700004E
:103EA000DC020020E8000000E33B000070B504469F
:103EB0003C20FFF7C2FB05006FF0030611D0FFF7AF
:103EC00074FB207AA8610022608928622946E06894
:103ED00028616068FFF73EFB04462846FFF7EEFBCB
:103EE0000CB9304670BD002070BD000041882D29FE
:103EF00002D36FF0010070470FF2140252F8211044
:103F0000084700009B370000B9350000CF3500009E
:103F100065380000B5380000F73800001D39000092
:103F200029390000453900007D390000E9390000D9
:103F3000693A0000893A0000FB3A0000493B000062
:103F4000553B00005B3B0000673B0000733B0000FB
:103F5000813B00008F3B0000D53B00007D3C000012
:103F6000AF3C0000B93C0000633A00008B5C0000ED
:103F70005F5D0000E93C0000E33D0000EB3B00001A
:103F8000993C0000F95C0000315D0000455D0000D7
:103F90002F3E0000915D0000A95D0000AD3E0000D5
:103FA00000000000000000009F5D0000B75D000001
:103FB000A93B00000000000000000000000000001D
:103FC00000000000DFF800F0F1C5011001B901495F
:103FD000FFF7F8BFA0010000DFF800F0ED8C011042
:103FE0000120FFF7F9BF0000DFF800F061C2011007
:103FF000DFF800F0E9C20110DFF800F0E1C20110C3
:10400000DFF800F0B9C20110DFF800F0F9BF0110CD
:1040100050F8382F11430160704750F8382F22EACA
:10402000010101607047817DFF291DBFC07DFF2810
:1040300001200020704738B50446FCF7D7FA054642
:10404000207820B90220FDF7B1FE012020700BE09E
:1040500038B50446FCF7CAFA0546207820B102209C
:10406000FDF73AFE002020702846BDE83240FCF7FC
:10407000C1BA4068D030FCF7C1BA4068EC30FCF7F8
:10408000BDBA70B5446885680E4606E0206A401CDB
:104090002062761E606A401C60624EB1206ADFF8C2
:1040A0008828126801782868926990470028EDD125
:1040B000304670BD70B5456886680C4608E0296BCF
:1040C0000870641E286B401C2863686B401C686382
:1040D0002CB100F01AF8884710F1010FEFD12046FB
:1040E00070BD70B5456886680C4605E0C1B205F143
:1040F00040001AF0ACFF641E2CB100F006F88847AF
:1041000010F1010FF2D1204670BDDFF81C180968CC
:1041100030680969704770B5446804F584750E46C7
:104120002846FDF782FB217F627FDFF800080068E8
:104130005118C91D7143DFF8F8275143A269B1FB3B
:10414000F2F141186331B1FBF0F0411C2846FCF755
:1041500061FA2846BDE87040FCF760BAF8B504463D
:104160006568A76805F584763046FDF75EFB38681C
:104170008069000711D5DFF8B41709684FF4FA70A9
:10418000B0FBF1F1022938BF01213046FCF742FAB9
:104190003046BDE8F240FCF741BADFF89807FFF778
:1041A00057FF38682021FFF738FF00F080FA00F051
:1041B00077FA01B0BDE8F040184738B504460D461F
:1041C00020212868FFF729FF297D606E01221BF05E
:1041D0003BF9297D606E01221BF050F9297D606E4C
:1041E00000221BF072F9A97D606E00221BF06DF9B0
:1041F000A078012804D1286880690007FBD405E075
:104200004FF0FF3104F1D000FCF7FCF900F0A6FB01
:104210002846FFF708FF30B1A97D606EBDE8384041
:1042200011221BF052B931BD2DE9F047804600261E
:10423000D8F808502A68D8F80490146C546409F12E
:1042400028073869FB69D7F820C014F4F06F0146DD
:10425000A3EB0C0A34D0600518D5101D026802F0DB
:104260000F06002202602129ACBF20250D462946F9
:1042700000F05DF8C5F120015145C8BF51464046E8
:10428000FFF72FFF16E03869401E3861386988B1A2
:10429000012100F04CF8286850F8041F01F00F06C7
:1042A0000021002E0160EED0B868401EB860F868AA
:1042B000401EF86089F81F60404600F07BFA25E058
:1042C000620609F19C050AD5E1B100F030F83861C9
:1042D000787908B13E6111E0386900280DE0E20606
:1042E00014D579B1397D4E1E864228BF0646314627
:1042F00000F01DF83869801B386107D12846FDF7AA
:1043000021FA03E051464046FFF7EBFEA0060CD52C
:104310003D6855B129464046FFF7B3FE386020B9E5
:10432000291D4046BDE8F047F5E6BDE8F087404668
:10433000C0E638B50446DFF800066568FFF788FE7A
:1043400056E2406800210170DFF8EC050170417011
:104350007047F0B504468DB06568A6680F46FCF757
:1043600045F92978002944D101212970FCF742F947
:104370003878687000217878A87078686860B868C4
:10438000A860F868E86038692861387D2875787D0C
:104390006875B87DA875B869A861387F2877787F77
:1043A0006877B87FA8770020286205F12C0041606B
:1043B00069628160A962C16001704170102101745D
:1043C000002141747068FDF706FD204600F01AFADE
:1043D000204600F069FA80B9DFF84C1509683068AA
:1043E000C96888477068FDF78BFCFCF7FFF800216F
:1043F0002970FCF7FFF8002064E008233022002138
:1044000001A8FCF713F9069401AB307BDFF82C25EB
:1044100009900020009005F18000B168FCF712F9C6
:1044200008232822002101A8FCF7FCF805940023AA
:104430003069DFF80C15079001AA05F19C00FCF724
:10444000FDF808232422002101A8FCF703F901202C
:104450008DF81C00A87840B901AA002105F1D00010
:10446000FCF7FCF8DFF8DC042861687840B901AAA1
:10447000002105F1EC00FCF7F1F8DFF8CC04E8606E
:1044800008232422002101A8FCF7C0F80020069090
:10449000ADF81400079401AB0A22DFF8B01405F55B
:1044A0008470FCF7D3F8F269B16905F140001AF0A5
:1044B000A7FD23460FF2B142042105F16C00FDF780
:1044C000FBFB20460DB0F0BD38B544688568606ED2
:1044D0001AF0ABFF286840F2F271FFF79EFDDFF89B
:1044E000481409682868C96888476868FDF708FCA7
:1044F00004F18000FFF778FD04F19C00FFF778FDE0
:10450000A07818B904F1D000FFF776FD607818B9EB
:1045100004F1EC00FFF770FD04F58470FFF770FD07
:10452000FCF764F800212170FCF764F804F16C00DA
:10453000BDE83240FDF78FBD70B5024620295468B2
:104540006FF0010004D023D3222909D004D370BD19
:10455000012084F82D001AE0002084F82D0070BDA1
:104560009668FCF743F80546FFF7CFFD884710F142
:10457000010FF9D104F1380000210161C168491E21
:1045800041610021816101602846FCF733F8002079
:1045900070BD2DE9F84304466668A76889469046D1
:1045A000FCF724F80546B06A18B12846FCF722F853
:1045B00043E006F58470FDF738F90020F07770626B
:1045C000C6F820902846FCF715F8DB4D681CFFF76D
:1045D00032FDDFF87C03016841F480710160204600
:1045E0004146FFF74EFDB06206F1D00958B9414689
:1045F0002046FFF790FDB07820BBB1684846FCF735
:1046000001F8E8B90FE038682021FFF701FDB07824
:10461000C0B9B1684846FBF7F5FF88B94146204666
:10462000FFF779FD0020B06239461020F077304660
:10463000FFF7C3FD681CFFF70BFD4FF0FF3002E0F2
:10464000706A00E00020BDE8F283B0E070B5044677
:104650006568A668FBF7CAFFA96A39B93168896934
:1046600009075CBFBDE87040FBF7C4BF0021A96229
:10467000FBF7C0FF3046FFF7D6FC18B1314628469D
:10468000FFF79BFD30682021FFF7C7FC00F00FF813
:10469000A848FFF7DDFC00F003F8BDE870401847BC
:1046A0006A6A286A2B69811A296220467047A848DD
:1046B000016821F48071016070472DE9F84381465B
:1046C0008846D9F80850D9F80440286817464FF4AE
:1046D000FA61FFF7A2FC04F13006B06820B100F0E7
:1046E00061F84FF0FF305BE0B760271DF876C6F841
:1046F000008070600CE031689DF800000870306840
:10470000401C30607068401C7060B068401EB06033
:10471000B068002837D0694604F140001AF07AFCEE
:104720000028E8D5DFF810924846FFF784FC884857
:10473000016841F4007101604FF4FA612868FFF7E5
:1047400067FC607880B9396804F1EC00FBF75AFF28
:1047500028BBB0604846FFF77BFC30687168401AA0
:1047600030601020F8761AE094F82D0000281CBF65
:104770007068002805D00020B06004F19C00FCF7B0
:10478000E1FF00200CE000F00DF872683068811A3B
:1047900031606078012802D1BB684846984770684C
:1047A000BDE8F28328684FF4FA6131E400BF4FF0AE
:1047B000FF30704738B504464FF4FA61A068656869
:1047C0000068FFF72AFC6248016821F4007101606B
:1047D0005948FFF73DFCFBF709FFA96B002904BF0F
:1047E000BDE83240FBF706BF0021A963FBF702FFDB
:1047F0006A6B286BEB68811A2963204601B0BDE81B
:1048000030401847F0B587B0044602A80FF268118F
:10481000454E1422FDF766F96568A4683168206882
:10482000C968884740F2F27720683946FFF7F5FB00
:10483000206805F13C01476402AB4A780978C90851
:1048400053F82110114341636846FFF7DDFB05F182
:1048500018000FF23811027951F822100FF23C12B1
:10486000437952F82320837935686D6811430FF23C
:10487000341252F8232042EA0103026801992068A9
:10488000A847344D286840F010002860686840F060
:10489000010068602046FFF7C6FB18B1686840F465
:1048A0004040686007B0F0BD2DE9F04186B08568F2
:1048B0004468687DDFF8A08040F0004000906E46BC
:1048C000287D48EA0000706008272846FFF7ABFB08
:1048D00040B1A87D40F00040B0601027E87D48EA74
:1048E00000000390FE20B851694604F158001AF008
:1048F00034FD6066A0B1697D0F221AF0E6FD00F07C
:104900002DF82846FFF78FFB48B1A97D606E112274
:104910001AF0DBFDE97D606E12221AF0D6FD01204F
:1049200006B0BDE8F0810000D0010010E8000000F2
:1049300040420F003C1D00203B1D0020294200008A
:1049400033430000734000007B4000005D410000E5
:10495000301000402C1000400000C0A0297D606E87
:1049600010221AF0B2BD000080B5042804BF104622
:10497000FFF748FF002002BD000000000800000013
:1049800010000000180000002000000000000000DF
:104990002000000040000000600000000000000057
:1049A00008000000000000000600000002000000F7
:1049B0008600000082000000DFF800F025B1011041
:1049C000DFF800F02DBF0110DFF800F0A9C10110E1
:1049D000DFF800F013C10110DFF800F011BF011083
:1049E000DFF800F021B9011000B583B000F00DF838
:1049F000032114E0E0B500F008F8042100F012F8FB
:104A000008B100200EBD02980EBD0821ADF80010BF
:104A10000190704700B583B0FFF7F7FF052100F064
:104A200001F807BDADF802106846DFF8C413096845
:104A300008472DE9F04784B0DFF8B483DFF8B453BA
:104A4000DFF8B463DFF8B4730EE0B869FBF7D6FDA6
:104A5000B888410708D54FF6FB710840B88000F0D0
:104A6000D7F808B900F0D7F8B8694FF0FF31FBF775
:104A7000C9FD30688047FA883B89B9881A437B8929
:104A80001A431143B9800021F9803981798129685D
:104A90008847B888010603D54FF67F710840B88073
:104AA0000820ADF800000920ADF802006846D8F8EB
:104AB00000108847002801BF029C9DF80600397845
:104AC000884231D1396A080007D0B878012802D06D
:104AD00002281BD001E02046884720461AF04AFDF4
:104AE000040021D00C20FFF785FF5FEA000919D0F0
:104AF000306880478246C9F80840207848B9F8688D
:104B00004946FFF75DFF00F086F807E0204688473A
:104B10000AE04846FFF77EFF00F01AF92968504680
:104B2000884701E000F014F93879C0062ED500F06E
:104B30006FF8F8B900F08AF9E0B9306880470446A8
:104B400000F066F898B9F868FFF73EFF5FEA0009E1
:104B50000DD0D9F8081048687861498800F0B0F99C
:104B6000D9F80800FFF756FF4846FFF753FF2968BA
:104B70002046884700F04CF828B1B8884FF6EF710E
:104B80000840B88002E0B869FBF738FD3879800743
:104B90000DD51AF021FD00F006FA28B9B8884FF6B5
:104BA000FD710840B88002E0B869FBF727FD38794D
:104BB00000072CD53869FFF70BFFE8B93869FFF714
:104BC0000BFF040018D0F96938780A001CBF7A7806
:104BD000002A0CD0022A01D002D30BE0A06804E026
:104BE000A16800F098F8A068F969884702E0A16818
:104BF00000F091F800F0ACF83869FFF7E9FE002802
:104C00003FF423AFB8884FF6F7710840B8801FE72C
:104C1000F868FFF7DDBEB88840F01000B880B869CA
:104C2000FBF7ECBC10B5754C0020A080606186B02D
:104C30000021FFF7D5FEE06000210020FFF7D0FE45
:104C400020610820ADF800000020ADF802003820F7
:104C5000ADF804000020664909680290684688475C
:104C60009DF80C0020700498A0610FF209101AF052
:104C700078FC0FF295120FF259110FF2D90000F0E3
:104C8000CDF8FFF7D6FE06B010BDCBE730B55C4CD3
:104C900020604FF400758FB0DD22294604F15400E6
:104CA000FEF784F908233C2200216846FEF74AFCFF
:104CB00004F15400079008950220069000236A46EC
:104CC0005049201DFFF778FE0FB030BD70B51AF0C7
:104CD00051FC04460C20FFF78DFE0546464800684F
:104CE0008047002C18BF002D06460ED0AC602078FF
:104CF00058B9424CE0682946FFF762FEA08840F0B0
:104D00001000A080A069FBF779FC3046BDE8704038
:104D100038490968084730B585B00C468DF804005D
:104D2000082137480068ADF80600ADF800100020F3
:104D30008DF80800ADF8021060682D4909680390ED
:104D400068468847054600F003F8284605B030BDA0
:104D500020465FE610B5294C606918B1FFF744FEA4
:104D6000002060610420E080A069BDE81040FBF7EE
:104D700045BC0000F8B504460D4616460C20FFF76A
:104D800039FE07460820FFF735FE002F18BF002820
:104D90001CD045604480B8607EB90021174C01707A
:104DA00039462069FFF70CFEA08840F00800A0807B
:104DB000A069BDE8F240FBF721BCFFF72BFE3846A7
:104DC000FFF728FE2846BDE8F2400DE6F1BD0000E1
:104DD00010B5044600F0F7F8844208DAA0B200F0FB
:104DE000BBF8064802214181BDE8104012E0FEE711
:104DF000E4020020E0020020DC02002080170020F6
:104E00002C1500208B4C0000004801E0801700208A
:104E1000802101818069FBF7F1BB000070B5044679
:104E20004A4800680D468047064649480FF2250269
:104E3000C4604FF4947105610144183000F0D2FA57
:104E40003046BDE87040434909680847404800784B
:104E50007047000038B50C463D4D0021A9806880A0
:104E6000010003D029690A0018BF8847200008D034
:104E700000202870E968080003D0E88808B92046B7
:104E80008847E988080003D06869BDE8344017E026
:104E900031BDF8B504460D4600F047F8A84202D2ED
:104EA00000F043F805462A4EB788F01900F11801C2
:104EB0002A462046FCF706FEE819B0802846F2BDD7
:104EC0002DE9F04104462148214E0068214F0D464E
:104ED00080478046307820B13968404688470020B6
:104EE00021E0B5F5877F07DD4FF48770A5F5877161
:104EF00020444FF4877500E00021F18070612A465C
:104F00004FF4947021463018FCF7DCFD012030701E
:104F1000B068401CB060284600F0ECFA05463968DD
:104F2000404688472846BDE8F08109484188808886
:104F3000081A00F587704FF4877190FBF1F14FF478
:104F4000877202FB110080B270470000DC02002073
:104F5000A4170020E0020020F8B52C4C2C4F064688
:104F6000608800258119B1F5877F08DDC0F5877558
:104F7000A9B23818FFF78DFF0020761B6080B1B210
:104F800060883844FFF785FF6088301880B24FF49E
:104F9000877190FBF1F14FF4877202FB1100608082
:104FA000A81980B2F2BD194841880088081A00F596
:104FB00087704FF4877190FBF1F14FF4877202FB19
:104FC000110080B2704780B5FFF7EDFFC0F5877024
:104FD00080B202BDF0B50D4B0D4D1C8800220EE0D5
:104FE000A4B24FF487772E5D00F8016B641CA4B265
:104FF0004FF4877694FBF6F607FB1644521C96B2E4
:105000008E42EDD31C800846F0BD0000301D00200C
:105010001C140020E0B50821ADF800100190022119
:1050200000F00FF808B100200EBD02980EBD00B5CB
:1050300083B00821ADF800100190032100F001F8C1
:1050400007BDADF802106846DFF8901209680847FE
:105050001FB5ADF806108DF804000824DFF87C12A7
:105060008DF808200393ADF80040ADF80240684683
:105070000968884704B010BD30B585B014460822D1
:105080000291ADF800201922DFF850120968019052
:10509000ADF802201D466846884714B1BDF80C10D3
:1050A000218015B19DF80E102970089A049911609D
:1050B00005B030BD00B583B00820ADF800001A205F
:1050C00000F015F810B99DF804000EBDFF200EBDCC
:1050D00000B583B0ADF800008DF80610002000F098
:1050E00006F810B99DF807000EBDFF200EBDDFF8D1
:1050F000EC110968ADF802006846084750B110F19C
:10510000040F01D10420704710F1030F01D10220D8
:105110007047012070478123037042EAC1110023C8
:1051200041F47C41C3708180704782230370818089
:105130000023C370827170473EB504460820ADF865
:1051400000000D462020ADF802001020DFF88C1181
:105150000968ADF804006846884720B9029810B184
:105160006FF004003EBD00950023002221464FF061
:10517000FF30FFF781FF3EBD10B582B01446CA78FC
:10518000012A03D18A88DFF8A0311A8000F010F8D4
:1051900058B9009069462046FFF7CEFF28B900981D
:1051A0004478FFF744FF204616BDFFF7A7FF16BD62
:1051B0000B46022210214BE7F8B500F0BBF800F0D7
:1051C000ACF807000DD032462946FFF7AEFF00F0DD
:1051D000A0F83872FFF76EFF3B4601B0BDE8F04023
:1051E00021E0F1BD10220121E6E71022FFE70021B6
:1051F000E2E7002204215CE00420BDE8F08110B564
:1052000000F0B0F804000AD0112200F00AF8FFF70D
:1052100051FF2146BDE81040DFF81021ACE7042023
:1052200010BD022181E70222102111E70022032193
:105230003FE000B583B00FF24903019306230093CA
:10524000032300F04DF80EBD1078802802BF50886F
:1052500040F27F61884208D19088984202BF9179DC
:105260000098814201D1012070470020704710B59D
:1052700082B00624FFE70094FFF7E6FF16BD0000AA
:105280000323F4E71078802802BF508840F27F6142
:1052900088420CD19088032818BF042807D1907940
:1052A00001001CBF1028112801D1012070470020E7
:1052B0007047F8B500F04DF807000CD0324629468B
:1052C000FFF733FFBC60FFF7F5FE3946BDE8F84055
:1052D000DFF85C2050E70420F2BD0000E40200206B
:1052E0002DE9F04100F00EF807000AD0069A414679
:1052F000FFF71BFF3C817D8100F041F8079A00F029
:1053000034B879E704460D46164698461020FFF754
:1053100081BE21465020FFF7DBBE0A20FFF77ABE90
:1053200004460C20FFF776BEF40500204953000028
:105330008552000004460D4616467047009301232F
:10534000FFF782FF02BD000080B511230093022306
:10535000F6E704460D4616460C20FFF75BBE00201C
:105360008DF804000820FFF755BE3946BDE8F0412E
:10537000FFF702BF0521FFF7CEBE3C81BD72FE6084
:10538000FFF798BE1078802802BF508840F27F61F6
:1053900088420DD190884FF6807101404FF68062AF
:1053A000914204BF00F07F00984201D10120704774
:1053B00000207047000038B5FFF7B2FF05000CD0A1
:1053C0000422FFF7D7FFAC60FFF774FE2946BDE863
:1053D00038400FF20D02FFF7CFBE042032BD0000AF
:1053E0000423CFE710B5514CE0628AB02163A2627A
:1053F000684600F0B9F84FF4E130069069460020A5
:105400008DF815008DF8160003208DF81C00002083
:105410008DF81D0001208DF800008DF8010000209E
:105420008DF817000FF2410003900FF22100049055
:10543000002000F084F8606218B10022202100F002
:105440007BF800F045F80AB010BD000010B53848F0
:105450000068804704463548826A110002D0418CBA
:105460000020904740E00000F8B500F05AF81446DC
:1054700080470546CCB1318C002089B2B1F5877FD9
:1054800009DAF76A335C7B5400223254401C491C11
:10549000C0B2A042F1D38442318406D0B26A100077
:1054A00009D0718C4FF487709047B26A100002D017
:1054B0000021A0B29047002030842022706A31463B
:1054C00000F057F82846BDE8F4401A490968084733
:1054D00010B5174800688047044614490020088426
:1054E0002022486A00F045F8204612490968BDE8C4
:1054F0001040084770B5044600F013F88047054691
:10550000316B706A7484224600F036F8094910F154
:10551000010F04BF00207084096828468847708CFA
:1055200070BD0348014E006870470000DC19002080
:10553000DC020020E002002003685B681847084A8C
:105540001268904201D30020704709B90FF2300170
:10555000044A0C2303FB00200268D26810470000B5
:10556000F0050020086200000FF214012422FCF76D
:10557000B9BA03681B6918470368DB69184700005C
:1055800000000000FFFFFFFFFFFFFFFF0000000023
:10559000000000000101010100C201000300000041
:1055A00000000000E0B50821ADF8001001900221D4
:1055B000ADF8021068468F490968884708B1002095
:1055C0000EBD02980EBD00B58FB008233C2200210D
:1055D0006846FDF7B7FF884800F1500107910023A6
:1055E0004FF4217108916A46012106910FF2A5013D
:1055F000FFF7E2F90FB000BD10B584B00820ADF898
:10560000000001207B497D4C0968ADF80200684626
:1056100088479DF80400207000212161FFF7E2FD1A
:10562000FFF7EDFD201DFFF7C6FE4FF0FF30FFF73F
:10563000FDFD4FF0FF30FFF7DCFDE08900F00C01CD
:105640000C2903D10A220FF2B8210DE0010703D57E
:105650000E220FF2B82107E0400747BF11220FF2D8
:10566000BC210E220FF2C82104F11800FCF73AFA0F
:1056700004F1180000F064F9C1B204F1180200202E
:10568000FFF7D7FD04F1140202210120FFF7D1FD3D
:105690001FBD000070B586B0FFF7AEFF574C554DEB
:1056A0000820ADF800000A20ADF802004FF0FF30EE
:1056B00001906846296888470028F1D10820ADF894
:1056C00008000920ADF80A0002A829688847BDF83B
:1056D0000C109DF80E20049E0028E1D1102904BF73
:1056E0002078824205D13078912804BF304600F0FE
:1056F0000BF80820ADF800000320ADF80200019679
:10570000684629688847CBE77CB5411C3C4B0C7840
:105710001D88021D0E2C4FF6FF7608D00F2C11D0DD
:10572000102C55D03E2C39D0FF2C56D073BD11888B
:105730008D4255D0536830F8040CA0F10C02D2B25F
:105740000E2053E01488A5424AD042F2320084422F
:105750004ED14D780F20FFF725FF002848D00421B7
:105760000170FF2141700721418000F10801416073
:105770000421426811700F2142685170042142686F
:1057800091704168CD7001214268117141684C717E
:10579000210A42689171FFF799FA73BD48780C2885
:1057A00026D18DF80000062089788DF80110118827
:1057B0008DF802101188090A8DF8031091788DF880
:1057C0000410D1788DF80510694600F070F873BDAB
:1057D0000021082000F002F973BD1488A54201D110
:1057E0001E8073BD53684A782146FF2000F00AF8F6
:1057F00073BD0000E4020020A4100020AC020020D1
:10580000F40500202DE9F04281460C461546B9F119
:10581000FF0F05F10B0014BF0321022108181E46DB
:10582000C0B2FFF7BFFE07003FD004203870FF2052
:10583000787007F10800786004207968087078684B
:1058400080F80190200A7968B9F1FF0F10D0EA1CA6
:105850008A7001217A68D1702A4679680C7179685A
:10586000487131467868801DFCF72CF9A81D15E0B9
:10587000AA1C8A707A683178D1707A68717811714F
:105880007A68B1785171EA1E79688C717968C8714B
:10589000F11C78680830FCF715F9681DC0B27880F3
:1058A0003846BDE8F042FFF711BABDE8F08270B5A6
:1058B000044604F10B000D46C0B2FFF773FE06006C
:1058C0001DD004203070FF207070E01C708006F145
:1058D000080070600420716808703E20716848708C
:1058E00070688470200005D0706822462946C01C6C
:1058F000FCF7E8F83046BDE87040FFF7E7B970BD47
:10590000544920424C4520416C6C000054492042CF
:105910004C452043656E7472616C0000544920420E
:105920004C45205065726970686572616C000000BA
:10593000544920424C4520556E6B6E6F776E0000C7
:1059400000F10103810704D010F8011B89B1810720
:10595000FAD10268B2F10131914311F0803F04BFE6
:1059600050F8042FF6E710F8011B11B110F8011BD5
:10597000FBE7C01A70470000DFF800F055C00110C7
:1059800038B50FF25900124C124D00F03FF8124892
:1059900019F027FC23681B6801220121284698473B
:1059A000226852680121284690470220FCF7FEF940
:1059B0000320FCF7FBF9FDF70BFFFDF727FFFFF7CF
:1059C00002FE1020FFF762F9FFF7D6FF002032BD7C
:1059D000D801001000400340A4610000022818BF55
:1059E000042881B010D0052807D101208DF80000CF
:1059F0009DF800000028FBD106E001208DF8000092
:105A00009DF800000028FBD101B0704701490860F3
:105A100070470000A802002081B001208DF800002E
:105A20009DF800000028FBD101B070477047016865
:105A30000A680A4482604B681A44C26008310160F7
:105A400070478168C268914208D101680A680A44B7
:105A500082604B681A44C260083101608168491C49
:105A6000816011F8010D704738B504460D46A068F5
:105A7000E168884212D120686168884208BFFEF759
:105A8000AFFA2068227C016802B14944A1604268F3
:105A90000A44E260083091422060ECD0A068401CCB
:105AA000A06000F8015D31BD2DE9F0418AB000F140
:105AB000080105910268520801EBC201069100211C
:105AC000079108910168490800EBC1010831009174
:105AD000017901F001018DF810104068009940082B
:105AE00001EBC000019000200290039006E005A8A1
