:040000050000D955C9
:020000040000FA
:10000000104300201180000001CA011001CA011034
:1000100001CA011001CA011001CA011001CA011070
:1000200001CA011001CA011001CA011001CA011060
:1000300001CA011001CA01103FCA01102149086814
:10004000C2430A600A680242FAD170471E490A6830
:10005000002AFCD1CA610860C8690028FCD00020D1
:10006000C86148687047194801686FF00202114082
:1000700041F40071016003211548816041F23001B3
:1000800041610121C160502141610121C1604FF4F2
:10009000CA6141610121C160016070470D48026879
:1000A0000A6082684A60C2688A60406B20F07840CB
:1000B00040F08050C86070477047014610220648E3
:1000C00001F0C0BF101004400010044000000460A4
:1000D000004104404C1300501800002170470120DB
:0C00E00070470000200000000A00000033
:100100003C0000000000000000000000340100007E
:1001100000000000000000000100000000000000DE
:1001200000000000000000000000000001000000CE
:100130000000000008000000000000003400000083
:100140000000000000000000680100000000000046
:10015000000000000100000000000000010000009D
:100160000000000000000000080000000000000087
:1001700030000000000000000000000098010000B6
:10018000040000000000000001000000FFFFFFFF6E
:10019000FF00000001000000080000000000000057
:1001A0002C0000000000000000000000C40100005E
:1001B000040000000000000001000000FFFFFFFF3E
:1001C000FFFFFFFF080000000000000034050000F2
:1001D000E401000099A1011095A70110A5C201102A
:1001E00009B2011045B80110000000000000000035
:1001F0002F000000280000000000000000000000A8
:10020000140200000000000000000000FFFFFFFFDC
:1002100000000000080000000000000030050000A1
:100220003002000069C201106DC101101FC201102F
:1002300095BA011000000000000000002D00000031
:10024000300500005402000075C20110A9B601106B
:100250009DBF011049B60110000000000000000021
:100260002E0000002400000000000000000000003C
:1002700080020000000000000000000000000000FC
:100280000800000000000000240000000000000042
:1002900000000000A40200000000000000000000B8
:1002A0000000000008000000000000002400000022
:1002B0000000000000000000C80200000000000074
:1002C0000100000000000000080000000000000025
:1002D00000000000FC0600200400000000000000F8
:1002E000000000002000000070010000300000004D
:1002F0001C0200001C070020040000000000000099
:10030000000000000C000000300400001800000095
:10031000400200002407002004000000000000004C
:100320000000000024000000480400001800000045
:10033000000000006407002004000000000000002E
:100340000000000010000000A00100002C000000D0
:10035000CC0100006C070020040000000000000039
:1003600000000000200000006402000024000000E3
:10037000FFFFFFFF8C0700200400000000000000CA
:100380000000000028000000880200002400000097
:10039000FFFFFFFFB4070020040000000000000082
:1003A00000000000580000003C0100003400000084
:1003B000FFFFFFFFBC07002004000000000000005A
:1003C00000000000100000006004000018000000A1
:1003D000FFFFFFFFC4070020040000000000000032
:1003E000000000001C000000AC020000240000001F
:1003F000FFFFFFFFCC07002004000000000000000A
:100400000000000038000000F40100002800000097
:10041000FFFFFFFF34080020040000000000000080
:100420000000000054000000000100003C0000003B
:100430001800000000000000000000004004000060
:10044000080000000000000018000000000000008C
:100450000000000058040000080000000000000038
:100460001800000000000000000000007004000000
:1004700008000000000000000100000050800000A3
:100484000100000000000E0000000F003200000018
:10049400010000000407002000020000000000002A
:1004A40001CA011000000000000000000800000064
:1004B400000023002C070020010000007407002026
:1004C4000800000000000000000000000000000020
:1004D400000000000000000001000000D40700201C
:1004E40006000000010000003C080020000000009D
:0C04F400000000000002000000000000FA
:0F0502002900010025002D002E002F000100010F
:10051400040000003C800000000000000000000017
:10052400000001000000030087C40110380500002A
:10053400380500000000000090000000900000005A
:100544000000000074070020A92D00002000000016
:1005540028800000187E00000DC30110FB1D000060
:10056400FD1D000099C801109BC801100000000087
:10057400462A0000807D0000987D0000687D000010
:090584000800090001000000015B
:10059000000000000000000000000000000000005B
:1005A000E1190000011A0000051900002B1A0000D3
:1005B0004D190000231900007F190000571A000090
:1005C000212D0000312F0000352F00000800000011
:1005D0002400000018000000280000002000000097
:1005E0003C0000000C00000034000000DFF800F0C8
:1005F00049C10110DFF800F019C20110DFF800F066
:1006000041AC0110DFF800F0CDA00110DFF800F0E0
:1006100085C10110DFF800F0C1C20110DFF800F061
:10062000E3BF0110DFF800F0C1C10110DFF800F0F6
:1006300009B70110DFF800F03DC10110DFF800F04C
:1006400029AF0110DFF800F0CDC10110DFF800F094
:1006500085B00110DFF800F0DDB20110DFF800F026
:1006600079B50110DFF800F0D5C00110DFF800F017
:10067000E1B5011020B1082328220021FFF7E2BFD5
:10068000704720B1082330220021FFF7D3BF704705
:1006900038B500F091FF25680DB129682160FFF79A
:1006A000A9FF284632BD70B504460D4626680020D5
:1006B00028601EB9FFF79AFF25600DE0FFF796FF4F
:1006C00000E0366831680029FBD1AE4203D1FFF764
:1006D00091FF002070BD3560FFF78CFF012070BDD9
:1006E0000022DFF8541C01EB4211CB7F1B0605D51D
:1006F000B1F91C30834201D108467047521C082AC8
:10070000EFDB0020704770B50646FFF76FFFDFF89C
:10071000545C0446A87E01001AD0401EA876C0B2E0
:10072000B0B9082100F026FC96B1A86B703001F03A
:100730007CF800F010FE301AB0FBF1F1022938BF4E
:100740000121EC352846FFF765FF2846FFF766FFD5
:10075000204600F065BE10B50446207B00F00F0077
:1007600002280FD100F012FDA168081ADFF8F41B6F
:10077000896BC968800801F57A71814238BFB0F190
:10078000405F00D3002010BD38B5DFF84C0ADFF819
:100790004C2A0168DFF87C4C02EA0105E94301605C
:1007A000A90608D54068800605D54FF4005104F12C
:1007B0004C0001F064F815F4602F08D0206905F4AE
:1007C000602108432061002104F19C00D0E131BD8B
:1007D00070B5FFF70BFFDFF83C4C0646206910F4BC
:1007E000602F27D02069C5012D0EE80748BF0025DE
:1007F00006D4A80748BF012502D4680748BF0225D0
:10080000681D40B200F040FF2069012105F111028E
:100810009140884320613046FFF7ECFE04EB8500F1
:100820004668300009D0206800224FF00063691D3F
:10083000B04702E03046FFF7DDFE206930B104F139
:100840009C00BDE87040002101F019B870BD70B582
:10085000FFF7F4FBDFF80C5BDFF8BC4BAB6A02463A
:1008600090071DD4D3E90401104007D0EB629969C9
:10087000084398614FF4804100F07CFBA86A00288F
:1008800047D16E6A002E44D0F068A96B884224D00C
:1008900005F14C00BDE870404FF4805100F0EFBF0F
:1008A0000BB9A86AEAE70020A862D3E904019E69AF
:1008B000024042F0020232439A61626982436261FD
:1008C000E26822EA0100E060194605F13000FFF716
:1008D000EAFE022100F04EFBE3E7B068FFF73BFFC2
:1008E000A86408B1A86CD8E0D6E9040162690243A3
:1008F0006261E26841EA0200E0600020E061B06805
:100900002060E0690028FCD005F12400FFF7C0FE5C
:10091000AE6270BD0020F6E6F8B506461446376EA6
:100920001D4607B1B847A00708D4D6E916012040F4
:1009300029400022914208BF904207D0C6E91A45DB
:1009400006F13800BDE8F240FFF758BEF1BDFEE702
:1009500080B500F084FFDFF8BC2A0146906BD26BB3
:10096000BDE80840104710B5DFF8A84A0FF2311172
:10097000E06B884202D101F059FB206404F14C0085
:10098000BDE81040042100F07ABF80B5FFF756FBA8
:10099000DFF8881A084207D0BDE804404FF0005144
:1009A000DFF8100C00F06BBF01BD70B5040073D010
:1009B000A168202001E04968401E79B1C2B26AB145
:1009C0000A8840F603039A421CBF40F604039A4289
:1009D000F1D1E0681822203001F044FBA069002129
:1009E000A1616168D9B140F00202E07F002300F00C
:1009F0000700012807D0022809D0042804BF0022DC
:100A00004FF0805306E000224FF0005302E0002236
:100A10004FF08043B4F91C10E0686568A847FFF701
:100A2000E5FDDFF840590646E88E401CC0F30B0098
:100A3000E8860020296BC87705F13000FFF728FE13
:100A40003046FFF7D7FDB5F93610E06800F1B8027F
:100A5000B2F90030994204BF297E00291CD1917857
:100A600009B9016811B90020907016E0AA6B1268EC
:100A700012F1010F10D0DFF8F42B1268B1FBF2F184
:100A8000022938BF01217030FFF7C4FDE068BDE8DE
:100A900070407030FFF7C2BD70BDBDE8704032E6F7
:100AA00038B50D46A807DFF8BC4816D5206BFFF710
:100AB0007CFF206B25F0020510B145F0020109E032
:100AC000680702D4606A002851D004F1EC0000F0FD
:100AD000ACFE042104F14C004AE0680747D5606A87
:100AE00008B1C068A063A06BDFF8E42A41680B7806
:100AF0001360126809788A421CBF8569002D05D0F1
:100B000000224FF000736FF0FF01A847022001F0B0
:100B10000DFC112001F01FFC01206077A06BE17E2D
:100B2000007C084204BF0E2001F015FCA06BDFF82A
:100B3000E81840688268002A04BFC068002804D012
:100B40000020C861DFF8D80A086040F2FF70DFF8C3
:100B5000D42A106000208861DFF8C00848610FF2D5
:100B60001900E0631920BDE83240FFF773BD31BDC5
:100B7000BDE8344000F083BE2DE9FF478046880081
:100B800040F1B580DFF8DC57A86B40684068010091
:100B900018BF8047A86BDFF88098406881680029FB
:100BA00004BFC168002914D0D9F81C100029FBD05B
:100BB0000021C9F81C108068010018BF8047A86B8D
:100BC0004068C068010018BF8047DFF8B40AFFF72B
:100BD0003DFA0020C9F81C0040F60A0ADFF8A40A12
:100BE000DFF8E07AC9F8000008F108040120FFF7F7
:100BF00075FA0FF25110E863A7F800A00020788082
:100C0000002100F0B0F900F0A7F9206806467180D5
:100C1000E97E09B1617A99B1018840F602029142F8
:100C200005D1318A4FF60F421140318204E0318BF9
:100C30004FF60F421140318300216172FFF73CFAF9
:100C400020686946FFF72AFA6846FFF736FA00E09F
:100C50000646706800281CBF01885145F8D17760AE
:100C600040F60301707B00F0F0007073686A8068E2
:100C7000008888421CBF40F60401884202D100204F
:100C8000286417E0208BA8B100206083E06108F1A0
:100C90002C00017801F0F0010170417801F0F001C1
:100CA00041F00101417008F120007860787B00F08C
:100CB000F0007873D9F81C000028FBD00020C9F898
:100CC0001C00012001F006FE012808D0707B00F016
:100CD000F00040F0010070730FF21900E8634FF666
:100CE000FF322068018A11400182C9F80000BDE886
:100CF000FF870000DFF8D009014200D170470120D2
:100D000010B501F0E7FD0128DFF8584608D10FF2D1
:100D10003500DFF80417E063DFF8A809086010BDAC
:100D2000DFF8481909683220B0FBF1F1022938BF19
:100D30000121EC342046FFF76DFC2046BDE8104051
:100D4000FFF76CBC2DE9FE4306460C466004DFF855
:100D5000145619D5FFF74AFCEE6AB769B9070ED4E5
:100D60006EB10021B161FFF745FC706848B1B6F97A
:100D70001C10F06876683A460023B04701E0FFF7A0
:100D800039FC24F48044E1E0A0070AD5286BFFF782
:100D90000CFE286B002824F0020401D044F0020469
:100DA000D4E0A00005F1800840F60909DFF81479C5
:100DB00071D5B068018840F60202914205D1028ADD
:100DC0002D2161F30912028204E0028B2D2161F3CF
:100DD00009120283286CB8B1042001F07BFD98B1A0
:100DE00001F024F9296C814228BF401E401A718A03
:100DF00011EB1030F06040F2D761A0F2EE20884293
:100E000024BF40F6C410F060D6F818C0BCF1000F43
:100E10001CBFDFF8BC188C450DD0787B0F21084231
:100E200004BF708C484506D100224FF000736FF468
:100E300080713046E0470022DFF89818404600F005
:100E400031FD287F50B10220ADF800006846FFF761
:100E5000FDF8BDF80800A8820020287701206876F8
:100E6000A87E401CA87600206877686A18B119200F
:100E700000F01BFD01E044F00204D6F81480B8F144
:100E8000000F05D000224FF0806300213046C0479C
:100E900024F000545AE095F8200024F0080628B108
:100EA000200703D5002085F820003CE020073CD532
:100EB000002068760120A8770020FFF70FF90FF2D5
:100EC000BD00DFF81418DFF86047E86300224046F1
:100ED00000F0E8FC297FE87E81F00101084202D1A0
:100EE0000120E8760FE0A86CB8B101F09FF8296CFA
:100EF0006A6C401A02EB10306864A96CB0EBC11F39
:100F00000BD300206864A7F8009000F025F80020BB
:100F1000788000F028F8276003E04FF0005100F0DF
:100F200029F800202864344610E0A0040ED5AE6AEB
:100F3000002E1CBF7068002806D0B6F91C10F0689F
:100F4000766800222023B04724F4005414B12146CF
:100F500000F010F8BDE8F783787B00F0F00040F077
:100F6000010078737047387B00F0F0003873002080
:100F70007860704705F14C0000F081BC70B5054603
:100F80000E46B007DFF8DC430BD5206BFFF70DFDF5
:100F9000206B08B1022129E0B0002DD54FF000519F
:100FA00024E0B00028D5FFF75EF8DFF83007DFF85F
:100FB0003067E063307818B905F13800FFF71EFBA1
:100FC000DFF8601600200860022001F045F91120CA
:100FD00001F056F9287C10B90E2001F051F90020DB
:100FE000E083B07840B10020B070042104F14C00DF
:100FF000BDE8704000F043BC70BD30B58DB001F06D
:10100000ACF8DFF8E006DFF8E0460168DFF854539B
:1010100041F00201016001A8FFF72CFBA078DFF886
:10102000CC160790002301AA05F14C00FFF70EFB38
:1010300001A8FFF726FB0020ADF81C0001AB2078CB
:10104000DFF89426099019210020009005F1800016
:10105000FFF7F4FA01A8FFF70DFBE078DFF8901630
:101060000790002301AA05F19C00FFF7EFFA01A801
:10107000FFF707FB0120ADF81C0001AB6078DFF83B
:10108000742609901A210020009005F1D000FFF786
:10109000D5FA00230022DFF8601605F1EC00FFF717
:1010A000DDFADFF83806E8630DB04FF6FF70A8826E
:1010B000012028770020E875E8766877E88385F8CE
:1010C0002000286430BD2DE9F041DFF814660446A5
:1010D00030788EB00F4690461D4618B9FFF78DFF49
:1010E00001203070002F1CBF6760B8F1000F4BD09B
:1010F000C4F80880FFF77AFA7178002942D10121FB
:101100007170FFF777FA35B909A80FF2246114223C
:1011100000F0A8FF09AD286820606868E060287CBE
:101120002074A868606101206074688A6082E86841
:10113000010018BFA061A02104F1200001F080FC93
:101140000823242200216846FFF76CFA01208DF85D
:1011500018006A46002104F13800FFF767FA0823F7
:10116000242200216846FFF751FA06946B460022BC
:10117000DFF8881504F17000FFF770FA20460EB012
:10118000BDE8F081FFF736FA0020F8E738B5FFF741
:101190002DFA7449497E31B1DFF868150C68FFF704
:1011A00029FA204632BDFFF725FA00F03FFF10F57F
:1011B0000030DFF8542541F10001A2FB0045DFF8C3
:1011C0000C0502FB015501690020221845EB0103C3
:1011D000184632BD000000000810044020000E0038
:1011E0002DE9F84F04460E4692469B46FFF7FEF95E
:1011F0005C4D8046B5F93400B5F93610401AC0F39D
:101200000B0008286FF0010944DAA88E401CC0F3D7
:101210000B00A886B5F93400ADF80000002046495F
:1012200001EB4017F97F090604D5401CC0B208281D
:10123000F5DB002704F1700000F0F7FABE6087F8D4
:101240001EA0C7F804B02021BDF80000B883FC60E0
:10125000DDE90A23DFF8B40410401940C7E90401AE
:10126000B8340020F87740F6FF76686A00283946DF
:1012700005F1240006D0FFF716FA30B100F05EF851
:1012800040464BE0FFF70FFA40B9A88E3018C0F384
:101290000B00A88600F070F948464AE000F04EF8CE
:1012A000E87F697E084208D0012085F820000020F0
:1012B000E8772877A87E401CA87600F05DF9A86A38
:1012C000002834D1687E18B1192000F0EEFA2EE023
:1012D000687F60BBFFF78AF90446A87F20B1DFF87A
:1012E00000140120887018E0B868FFF734FAA86489
:1012F000B8B100F030F8AA6C121AB2FBF1F2022A6F
:1013000023BFAA6C101AB0FBF1F10121EC3528467D
:10131000FFF780F92846FFF781F92046FFF76AF9C1
:1013200005E02046FFF766F90421FFF723FEBDF92B
:101330000000BDE8F28F0000D8090020BDF80000D1
:101340002080F87F40F08000F877A07810B100206E
:10135000A07028777047A86BDFF81013C068096881
:1013600070470000581D00202DE9F04106460F4649
:1013700014461D46FFF776F980463846FFF7B0F968
:10138000070003D14046FFF771F90AE0F87F072113
:10139000084209D04046FFF769F90721F87F084263
:1013A000FCD10220002116E07968DFF86403814255
:1013B00002D0796831667860C6E916454046FFF785
:1013C00055F94FF0FF3106F13800FFF71BF9002007
:1013D0003066D6E91A01BDE8F081DCB5DDE90667C3
:1013E0000446CDE90067180008BFDFF82433204623
:1013F000FFF7F6FE002803D500204FF00041DCBDCA
:101400000146204602B0BDE8D04002224FF0E04342
:10141000AAE70000581D0020001004400200004010
:10142000BDE87040FFF7E6B801E042F002022DE9A6
:10143000F843DFF8CC42606A0090894603271546DE
:10144000FFF7D4F819F1010F05F0010680460AD123
:10145000A06A002819BFA06AB0F91C90E08E00F1C4
:1014600001090020E0750FFA89F0FFF739F9010052
:1014700070D0A06A814205F0020525D1280003D072
:10148000606A0090002060620122C87FB240104371
:10149000C877FFF7E7F80746002E14BFDFF874029D
:1014A000DFF87402FEF7D2FD00F066F825B906E019
:1014B00000F055F800F05BF800980028F8D13846A5
:1014C000FFF7D4F8832747E0009A8A4204F1EC0042
:1014D00016D100F0AAF9280012BF0020606A006847
:1014E000606200F049F8009800F039F800F03FF829
:1014F000009818B32800F6D120E0009A12680092F4
:10150000009AEAB112688A42F7D100F08EF9009889
:1015100000681DB1009A0021116004E00168009A82
:10152000116000210160009003E000F018F800F065
:101530001EF800980028F8D100F01EF8832701E07B
:1015400000F01AF8607F38B9022104F14C0000F075
:1015500096F901E000F010F83846BDE8F283C07F4C
:10156000009940F00400C8776846FFF791B801463B
:1015700004F13000FFF797B84046FFF73BB838B5A5
:1015800000F01AF805465E48407E68B12046FEF736
:101590005DFD044600F04AF804F0FF00012801D187
:1015A000812032BD022032BD00F040F8012032BD62
:1015B00000000000A41D00200446FFF717B80A46EB
:1015C0004F49896B884201D00320704709E0000031
:1015D000D02108400A464A49896B884201D003203D
:1015E000704700211046CAE770B545498A6B9042A2
:1015F0006FF07F0411D1487E78B1FEF7F7FF054602
:101600004648FEF723FD064600F010F806F0FF00FE
:10161000012802D13002001670BD204670BD0000C6
:101620005100070600000460001004402846FEF741
:10163000E1BF70B50E461546FEF7D8FF832430494A
:101640001EB1022E0DD005D30EE08A6A3AB1896A26
:10165000898B02E00A7F12B9898A298005E08024FB
:1016600003E0497E297000E003245BE0E80000000D
:1016700080B50846FFF734F800B1806802BD00006D
:101680000100070601010E0438B5FFF795FF1C495C
:10169000CA7D520702D58B7D9C420FD001228B8AD6
:1016A00002FA04F52B438B820C341D4B1D68A240BB
:1016B00025EA02021A601A6802B90A76BDE83240C9
:1016C000FEF798BF681E002004000020681E00205E
:1016D0004F0900004F0800008B090000A10A00001C
:1016E0007B23002000200940947A0000510900006B
:1016F000D1070000890700006709000015090000F4
:10170000581D00200430044000093D00F1EFFF9F08
:101710001909000001000204010001040100030492
:101720000C100440FEF766FF204670BD000000006C
:10173000FFFFFFFFC4090000000000004F09000088
:1017400001001A01DFF800F021B30110DFF800F00A
:1017500095C00110DFF800F00DA80110DFF800F0CF
:10176000BDBE0110FEE7DFF80001007D70476DE0AF
:1017700038B5FFF7FCFFDFF8F8500446A8680021F1
:10178000FFF7E4FF6969081AA969814238BF0020A0
:1017900084F3118832BD2DE9F041FFF7E8FFDFF84F
:1017A000D0500446A8680121FFF7D0FF0121A9838A
:1017B0000021E9836E6929682A68871B801A711ADB
:1017C000884204D20020A88384F311882BE084F39C
:1017D0001188002406E0A61931460120FFF7BAFF60
:1017E0003F1B0446A742F6D2FFF7C1FF8046E88BB5
:1017F000012804D131460020FFF7ACFF0446A96957
:1018000014F1010F08BF084603D0E01B814238BF26
:1018100008468119FFF7A2FF012028840020A88331
:101820002E6088F31188BDE8F08100218182DFF805
:101830003C10C0684969884204D1DFF85C00006848
:10184000FEF7ECBE7047808A70477047DFF84C1097
:101850000968EFF3118081F311887047F6E7DFF82C
:101860004000806870470000A4010020780100203B
:1018700078010020616280F311882046704738B5F6
:1018800004460D46FFF7EAFF616A2943FFF7F2FFBE
:10189000BDE83240FFF756BF4C800000E400000076
:1018A000C8010020816042607047102804D3DFF82F
:1018B0000C101038C1F8000F7047000000E000E085
:1018C00001F0C2B8FFF7C2BFDFF89811C20744BFEA
:1018D00001220A60820744BF4FF480720A60400709
:1018E00044BF4FF4803008607047DFF87C21C307A5
:1018F00048BF1160830748BF5160400748BF9160EF
:101900007047000010B504460020D4E90A2347F6CA
:10191000906101F045F90123994228BF4FF0FF3053
:1019200010BD10B50C4600F077FB011D201AB0F178
:10193000004F05D8081BB0F1004F38BF8C4200D2D1
:101940000C462146BDE810400120CEE72DE9F041CC
:1019500080460A46D8E90A01D8E90C45A0FB02678F
:1019600001FB0277A6196F41340C002244EA0741BB
:101970004046FFF7D6FFC8E90E67BDE8F081F8B52D
:101980000646FFF79FFF0446DFF8E050DFF8E070FF
:101990000120E861FFF798FFF96A096A1420884777
:1019A0003069B0F5802F34BF0421010C0120FFF70E
:1019B0009CFF3A681268232100209047DFF8B4109A
:1019C00001200860DFF8B400016821F4E02141F44F
:1019D000803101600120286084F31188F1BD00008E
:1019E00000F024BB10B5DFF89000446800F006F862
:1019F0006069A169BDE8104008470000012063E765
:101A0000F8B504460D4600F011FBD4E90A673246EA
:101A10003B4601F0C5F83DB1A6FB002306FB0133B0
:101A200007FB0033C4E90C23F2BD10B5DFF83C001E
:101A3000DFF86440002101600121C161216020685C
:101A4000FFF7DCFFDFF860100968096A1420884797
:101A5000206810BD000080B500F0E8FA000C40EAF4
:101A6000014002BD04200940182009400000244321
:101A70008401001080022443E4010020002009407A
:101A8000DFF8EC14096821B10A898242FAD10846CC
:101A900070470020704700002C200940DFF8D80470
:101AA000C088704700000000B001001000F008F886
:101AB0000EBD00BF08B582B00023009302ABF5E76E
:101AC00077B58DB01C461498ADF8180000250F9816
:101AD00028B92CE10EAA0DA800F070F96D1C00F0D9
:101AE00032F9080000F01D812529F3D100F02BF90F
:101AF0002D2905D10120ADF8060000F024F902E0FF
:101B00000020ADF80600302904D10120049000F037
:101B10001AF901E000200490002000904FF0FF30FF
:101B200002900A202A2918D12168216051F8042B3B
:101B30002160009200F0FDF8009A002A11D50122E0
:101B4000ADF80620009A524200920AE0009A00FB8B
:101B500002113039009100F0ECF8A1F130020A2AAC
:101B6000F4D32E291AD1002100F0F2F82A290F927D
:101B700010D100F0F9F80291002944BF0020029032
:101B800000F0E1F80AE0029A00FB0211303900F09F
:101B9000DFF80F92A1F130020A2AF4D3049808B1B9
:101BA000009804906C2918BF4C2905D10120ADF88C
:101BB000040000F0C8F802E00020ADF8040008A816
:101BC00007900CA805900020642918BF692903908C
:101BD0000DD1BDF818000028FFD000F0BFF86FF05D
:101BE00009030298049A8242B8BF049019E00A23BC
:101BF00075291FBF1023782908236F2903D1BDF849
:101C0000180038B906E0702913D1049320682060C9
:101C1000016814E000F0A2F8049A02988242B8BF6A
:101C20000490049A059800F0A5F807900599081A01
:101C30002FE0632919D12068206001680FE0001DA2
:101C4000206010230598082200F094F8401E0790A9
:101C500040200799087005980799401A19E0001D5F
:101C6000206007980170012013E0732913D100F060
:101C70007BF8079111B90FF244300790079801F0F3
:101C800007F80390029810F1010F1ED003998842C3
:101C90001BDA039019E00F98401E0F900E9802284F
:101CA00013D3029810F1010F02D00E99884201D38C
:101CB0000E9800E0401CDFF8C462366802906B4664
:101CC00022460FA90DA8B047451900980399401A5C
:101CD0000090BDF8060038B902E000F030F86D1C45
:101CE0000098401E0090F8D50398411E039150B112
:101CF0000798401C07900EAA10F8011D0DA800F0CF
:101D00005DF86D1CF0E7BDF8060000283FF4E7AE73
:101D10000098401E00903FF5E2AE00F010F86D1CF8
:101D2000F6E70D9810B10D9900200870284610B004
:101D300070BD0F990F9A0978521C0F9270470EAA26
:101D400020210DA83AE00F9810F8011B0F90704762
:101D500002910F990F9A0978521C704720682060F1
:101D60000168001D206070472068206050F8041B47
:101D700020607047F0B500240025002B44BF5B4273
:101D8000002902D54942521E2D25B1FBF3F60FF270
:101D9000342703FB1611641C795C00F8011D3146E1
:101DA0000029F2D19442BEBF302100F8011D641C0D
:101DB000F8DB290018BF00F8015DF0BD10B50C4636
:101DC000116802290BD3491E1160016819B14A1C20
:101DD00002600C7010BD01F0B1F800B100E010BD60
:101DE0002046BDE8104001F0A7B8654909680847DA
:101DF00064480068004701207047FEE7704770475D
:101E000010B50446606808B9012010BD0B460146B4
:101E1000206852A200F0BCF8A1684118A160616876
:101E20000129A4BF081A6060002010BD2DE9F0410F
:101E300004468846A088164600F021F80746F11BA4
:101E4000002E01D40A2904DB236845A200F083F8A0
:101E5000C719A08980B1F51BA468002E05D42046BF
:101E600000F016FF401D854206DB23460FF2681284
:101E7000294600F070F8C7193846BDE8F0813EB534
:101E80000D463A49098814468142034628BF0FF29D
:101E9000501210D237490988814207D3FFF7F0FD6D
:101EA00021464268284600F073F83EBD2D49098856
:101EB00031B90FF238122146284600F069F83EBDCC
:101EC000314B1B680095002C48BF47F6FF7400217A
:101ED000029101946A462D49984702983EBD2DE92A
:101EE000F843170048BF47F6FF77044688460026A8
:101EF00074B32088010004D03A464146FFF7BFFF83
:101F00000646B91B012922DB208820B116A24046D3
:101F100000F03EF88619A068C8B1656875B128461A
:101F200000F0B6FEA7EB0609401D814506DB2B46F7
:101F30000FF2CC02494600F00EF88619B91B12299F
:101F400005DBA3680FF2C00200F005F886193046E1
:101F5000BDE8F283000040461AE00000257300004F
:101F6000257000008A0500003A200000BA20000019
:101F7000CC09002014200000F00100205C8000004B
:101F8000548000005880000060800000011E0000A6
:101F900008B478B504001ABF2668002E00260D4646
:101FA00005AB3046FFF786FD854238BF681E16B187
:101FB00021680144216072BC5DF808FB286E756CD5
:101FC0006C290000303132333435363738396162AC
:101FD0006364656600000000282725732729000038
:101FE0007B6D6F64756C652325647D007B6D6F640C
:101FF000756C652D726F70653A25787D0000000064
:10200000222573222C2000006C696E652025643A1D
:1020100020000000FF7F0000094801684268036853
:102020009942FAD1100C40EA0140704710B5044AB9
:10203000136850681468A3421946F9D110BD000016
:102040000820094062B38B0708D0521E11F8013BEB
:1020500000F8013B00F024808B07F6D1830740F0A5
:10206000208000BF103A07D330B4B1E83810103ADE
:10207000A0E83810F9D230BC530724BFB1E80810EB
:10208000A0E8081044BF51F8043B40F8043BD207D5
:1020900024BF31F8022B20F8022B44BF0B780370C9
:1020A0007047083A07D3B1E80810083A40F8043BF3
:1020B00040F804CBF7D25307E4E70040DFF800F024
:1020C000F5C00110DFF800F049BA011020B1082373
:1020D00024220021FEF79ABA704780B501200090B3
:1020E00009234FF400720021DFF8080700F07BFF9E
:1020F00001BD80B5002301223421DFF8F80600F08D
:1021000085FF00B10120C0B202BDDFF8EC06806897
:102110007047DFF8E416401890F8ED007047002291
:10212000022904D1012806D140F2EE2203E0012861
:1021300008BF4FF47A7210467047DFF8BC06D0F83B
:10214000DC007047DFF8B00690F8E61021B1D0F857
:102150000C01010018BF004770472DE9F041DFF87E
:10216000988608F1E1058AB0A879002861D101209C
:10217000A871DFF88866DFF88876307B6871706850
:10218000C8F80C0101A8FFF7A1FF00200690ADF8E8
:102190001400079001AB00220FF2F54108F10C008A
:1021A000FEF75CFA01AB00220FF2A15108F13000FA
:1021B000FEF754FA01AB00220FF2D94108F15400A6
:1021C000FEF74CFAB16801208847DFF8380600783E
:1021D0007868C0F38154707B20B1032C02D10120B8
:1021E000287003E0032C18BF022C16D1022000F047
:1021F0009DF8032CDFF810160CBF4FF47A7042F2F2
:1022000010700968B0FBF1F108F15400FEF702FA12
:1022100008F15400FEF702FA05E0012C03D100F0AA
:1022200063FAFFF75AFF386840075CBF002000F0F0
:102230007DF80AB0BDE8F08110B508B1140001D1F5
:10224000022010BD8160C26003610146DFF8A8056D
:1022500000F0F6FE002010BD10B50446FEF7C6F9EA
:10226000DFF89415621892F8E8305B1E82F8E830C7
:10227000DBB223B98A680123A3409A438A6066E0EF
:102280002DE9F0410546FEF7B1F98046DFF8681503
:10229000681890F8ED20521E80F8ED20D2B2002A86
:1022A0003FD10FF2A050DFF8644500EB85052E7892
:1022B0006F88300615D52168096A38468847216835
:1022C000896A384688472168096B38468847DFF8AD
:1022D000401501200860DFF83C0500688007FAD54A
:1022E00012E0700606D501EB87010020D1F800113D
:1022F000884709E021688969384688472168496B21
:10230000384688470228F9D106F03F003F2818BF19
:10231000FFF7B6FF687800F03F003F2818BFFFF7CF
:10232000AFFF4046BDE8F041FEF764B910B5044682
:10233000FEF75CF9DFF8C0148A680123A3401A4352
:102340008A60611891F8E820521C81F8E820BDE805
:102350001040FEF74FB9F8B50646FEF747F90446B8
:10236000DFF89454701990F8ED104A1C002980F899
:10237000ED2039D10FF2CC4000EB8607387800F021
:102380003F003F2818BFFFF7E6FF787800F03F00D6
:102390003F2818BFFFF7DFFF7E883878DFF86C74BE
:1023A00001060ED53968C969304688473968496AD7
:1023B000304688473968C96A3046884700F019F8BE
:1023C00012E0400606D505EB86010120D1F8001188
:1023D000884709E039684969304688473968496B58
:1023E000304688470128F9D12046BDE8F240FEF783
:1023F00001B9DFF81C1401200860DFF81804006838
:102400008007FAD570472DE9F04F002483B04FF0D4
:10241000000A0128D04618BF012664D1DFF8D893FE
:10242000D9F8DC0001285DD10220C9F8DC00FFF7F3
:1024300045FE0090012000F062F9060054D1FEF73D
:1024400011F9DFF8D81301900C60012000F042FA76
:10245000012804D1002000F0A7F94FF0010ADFF8AD
:10246000C013DFF8B4030C6000681120FFF751FEC1
:1024700008B14FF001081020FFF74BFE08B148F0FB
:1024800002080F20FFF745FE08B148F004080B20B2
:10249000FFF73FFEDFF8746320B13168096B4FF43A
:1024A000806088470A20FFF734FE20B13168096B4D
:1024B0004FF481608847DFF85813DFF86873DFF85E
:1024C00068B30120086048F02000316889698847B6
:1024D000DFF858130120086099F80800C00707D5F5
:1024E000012416E0042673E00120C9F8DC006CE04A
:1024F000584600F0C7FD0546042DF9D0012D04D142
:10250000326A526803215846904738688008800034
:102510003860002000F0C2FDBF4800683068806B62
:10252000804754B9012D04D1326A526801215846BE
:102530009047386840F0030038600120B8490860CF
:1025400040463168496988470B20FFF7E2FD20B11A
:102550003168C96A4FF4806088470A20FFF7D9FDC7
:1025600020B13168C96A4FF481608847A8490120C9
:1025700008600020AD4908600320C9F8DC0031681C
:10258000496B404688470128F9D1042000F0B7F88C
:10259000A24901200860A0480068A548006880069C
:1025A000FBD5BAF1000F1CBF012000F0FDF800F0D0
:1025B000C1FE082000F0A3F806460120C9F8DC009F
:1025C0000198FEF753F800F039FE0098FFF77AFD06
:1025D0003046BDE8FE8F38B50446FEF707F80546DD
:1025E0002146854800F040FD28464BE030B50024E8
:1025F00001288BB004D021D303281DD018D31DE0AF
:1026000001A8FFF763FD7C4D8A490694ADF814409C
:10261000079401AB012205F17800FEF71FF8009442
:102620000023854A2C2105F19C00FEF707F805E000
:1026300000F09CFE044601E000F03EFF20460BB097
:1026400030BD00F054B938B5FDF7D0FF05466A48F3
:1026500090F8E000012410B1FFF74BFD0446284636
:10266000FDF7C8FF204632BD38B5FDF7BFFF624D0C
:10267000044695F8E00020B100F080F9002085F8CC
:10268000E0002046BDE83240FDF7B4BF0000000086
:102690007047000010B582B0042000F01BF902283A
:1026A00018BF032807D100F01FF8FFF716FDBDE89B
:1026B00016400220D0E56148534900684E4CC0F3F3
:1026C000815003280CBF4FF47A7041F288300968BA
:1026D000B0FBF1F104F15400FDF79CFF04F154004C
:1026E000BDE81640FDF79ABF032000901C234FF071
:1026F000405200213F4800F076BC0020704770B582
:1027000004463D4E304600F091FC002598B9304615
:1027100000F092FC0646B068204207D03269F368A8
:102720000021204698470546012D05D0304600F08F
:1027300085FC0600EFD1284670BD414901280CBF39
:1027400040F2FF70002008600020704770B5FDF770
:102750004DFF294E294D044696F8E00028B100F0BF
:102760000DF968B1002086F8E0000220AD68A847A6
:1027700006461020FFF7C3FF8EB10320A8470EE0E6
:10278000214909683220B0FBF1F101B9012106F1BC
:102790003000FDF73FFF06F13000FDF73FFF204618
:1027A000BDE87040FDF726BF38B501281ED100F006
:1027B00091F801281CD000F0D7F80F4C12490120E5
:1027C00084F8E00032200968B0FBF1F505B9012575
:1027D00004F13000FFF729F8294604F13000FDF735
:1027E00019FF04F13000FDF719FF01E000F0E8F8EF
:1027F000002032BD00A00C40BC080020EC79000095
:10280000B03F00507F230020E8000000B801001016
:1028100028200860282008402C2009400C4009404E
:102820000002224324220840004003408001044368
:1028300014100940F5350000C5330000B43F0050C6
:10284000000004608F3F00008F3F01008F3F0200B7
:102850008F3F0300903F00018F3F0101903F000236
:10286000903F00038F3F01048F3F00058F12080443
:102870008F3F00048F3F0006513F00007F3F010063
:102880003F3F04003F3F02003F3F01007F3F020007
:1028900070B50446E00782B00D46624E05D5A8B279
:1028A00000900023012200F011F8A00705D5A8B27E
:1028B00000900123022200F009F8600705D5ADB2AF
:1028C000009502230C2200F001F873BD0021304670
:1028D00000F089BB0146042907BF1D234FF0C04209
:1028E0001C234FF080524F48342100F08FBB38B585
:1028F0000546FFF791FB4C4CA168401A4FF47A71E2
:10290000484305EB104500F04BFF2169401A48BFD2
:10291000404240F6B9318D4207D2062805DAA06858
:10292000E168814201D322685AB940494A68D20716
:102930004FF4FA6017D4086800F0FF007D21484387
:1029400008E0081A3A494843000C00EB9000904216
:1029500038BF1046C82801D2C82032BDB0F57A6F02
:1029600088BF4FF47A6032BD80B501210320FFF7A4
:102970008FFFFFF751FB2C49886001BD80B5012016
:10298000FFF7A8FF012819D0002301223421254890
:1029900000F03CFB98B100F026F8FFF73DFB224920
:1029A0008B680A68C860A2EB9202C01A204B584399
:1029B000000C0860904238BF10460860012002BD3C
:1029C00010B500210320FFF763FF0120FFF782FF0E
:1029D00008B100F008F8144CFFF71EFB606000F02F
:1029E000DFFE206110BD1348006800F0EDBE10B599
:1029F00011490A6811490968140424161B38444314
:102A0000E41004EB2244120600FB00F31216090640
:102A10005A435843091604EBA222484302EBA04054
:102A200010BD000000A00C405C230020AC3F005013
:102A300040420F008000001090130050A41000507E
:102A4000002200F0DDBE000010B54048046814F11B
:102A5000010F08BF002400F055FF3D490020086029
:102A600001203C4908603C49086001F01BF93B48E3
:102A7000006820B13A480068204600F01CF8394947
:102A8000394A00200860394801686FF31B4111433F
:102A9000016037480168C1F30131012906D101689D
:102AA000344A114041F4003202600160324800684B
:102AB0000028FBD110BD70B50546304801210160EA
:102AC0002F4909680029FBD02E4C2F4AC0212160D4
:102AD00053682E499B075DBF13681B0C43F0F0033E
:102AE00072230B70002101639668304600F014FFDA
:102AF0003146284600F043FF2548816D89B240F2F7
:102B00000F22914213D201680068C1F30361C0F340
:102B1000034001B1491E072805D006280EBF072033
:102B2000801C00F00F0041EA00101A49087030467E
:102B300000F094FF18490968C968022088474020BE
:102B4000206001201549086070BD00001C13005072
:102B5000840460425C600C400822044380012843E6
:102B6000000120438C210840000039014820034027
:102B700004000940FFFFFCFC0C00684210100940F3
:102B80009402224300600C40AC3F00505662084063
:102B9000BC12005002600840A00100109404604282
:102BA0001B4213D1094236D12AB18446B0FBF2F060
:102BB00002FB10C2704701F0E5B8FCD300220023ED
:102BC00070470B000200002100207047904271EB1B
:102BD000030CF6D370B5B1FA81F4B3FA83F52C1B6C
:102BE000A340C4F1200532FA05F63343A2405FF05A
:102BF0000046E64002E05B085FEA3202841A71EBAD
:102C0000030524BF204629467641F4D302000B0079
:102C10003000002170BD012ACFD970B5140C20D02E
:102C2000B1FA81F4B2FA82F5C4F120046419B4F166
:102C30002006D6D3B2405FF00044F440002502E005
:102C400052085FEA3303C61A71EB020E24BF304606
:102C5000714664416D41F3D302000B00200029004E
:102C600070BD0C46B1FBF2F102FB11452D0445EAA3
:102C70001045B5FBF2F402FB145580B240EA05455D
:102C8000B5FBF2F002FB105240EA044070BD0000B8
:102C900000F10103810704D010F8011B89B18107FD
:102CA000FAD10268B2F10131914311F0803F04BFC3
:102CB00050F8042FF6E710F8011B11B110F8011BB2
:102CC000FBE7C01A70470000DFF800F00DC30110E9
:102CD000DFF800F081C60110DFF800F095B70110B1
:102CE000DFF800F08DC20110DFF800F03DC20110E6
:102CF000DFF800F009C30110DFF800F045C0011053
:102D0000DFF800F0D1C70110DFF800F067BE011056
:102D1000DFF800F011C80110DFF800F021C8011041
:102D20000C381F283ED8DFE800F0103D3D3D3D3D0A
:102D30003D3D3D3D3D3D3D153D3D3D1A3D3D1F2445
:102D40003D3D3D293D3D3D2E3338DFF8F40100681F
:102D500000687047DFF8E801006840687047DFF8F6
:102D6000E001006880687047DFF8D4010068C0683F
:102D70007047DFF8CC01006800697047DFF8C001D8
:102D8000006840697047DFF8B801006880697047E3
:102D9000DFF8AC010068C0697047DFF8A401006883
:102DA000006A70470020704700B589B00921684665
:102DB000FFF78AFF09B000BD00B581B0FEF780FDC6
:102DC000DFF88001DFF880110068884218BF00F04A
:102DD0009BF8DFF87801B0F5B26F03D001B05DF871
:102DE00004EB92E001B000BD2DE9F04184B01D4636
:102DF0000B6880461446002226681F78002003F1E5
:102E0000010C242FC1F800C038D15F780CF1010308
:102E10004C2F0B6006D156F8040BAA684146FFF709
:102E200005F825E0462F0DD156F8041B01914146C7
:102E300056F8040BADF8002002906846AA68FFF728
:102E40004EF815E0532F19D156F8040BE8612660AF
:102E50002346288B0090EA69A968D8F80000FEF79D
:102E60002FFED8F8001011B10144C8F800102668F0
:102E70000021E96001222968091A2960662F08D11A
:102E8000298B002911BF361DF11D21F0070101F129
:102E900008061AB9E9690F700121E960266004B0DB
:102EA000BDE8F0814FF0FF309060704700B581B011
:102EB000FEF7F4FD012818BFFEF754FC0FF21D00C9
:102EC000FFF706FFFFF708FFFFF70AFFFFF70CFF0A
:102ED00001B05DF804EBFFF70BBF000000B581B057
:102EE000FDF7C0FBFFF7EAF801B05DF804EB032043
:102EF000FFF702BF10B504460320FFF7FDFE204692
:102F0000BDE81040FFF7FCBEFEE7FEE700B581B06C
:102F1000FFF7FAFEDFF83800C06801B05DF804EB97
:102F2000FEF710BCDFF82C10DFF82C00886170472A
:102F3000FFF7EEBEFFF7F0BEFEF757BFFEF758BF34
:102F4000F001002098CA0110704728209005000069
:102F500078010020440100200004000070B5044600
:102F60000D46164600F0E2F9401E8041C00F1A4996
:102F70000A68002AFCD0012E02D0022E02D003E003
:102F8000257002E0258000E0256001220A6000280B
:102F90001CBFBDE8704000F0CDB970BD38B5044627
:102FA0000D4600F0C3F9401E8041C00F0A490A686F
:102FB000002AFCD0012D02D0022D02D003E024789B
:102FC00002E0248800E0246801220A6008B100F0D1
:102FD000B1F9204632BD000000800C400B4611467E
:102FE00004221818BAE710B500EB4100102B144664
:102FF00000F5007002D3103B001D240C029999408B
:1030000041EA0441BDE810400422A7E738B51D4657
:103010000818102D144602D3103D801C240C0221E8
:10302000FFF7BCFF204080B2E84032BD00680028B6
:103030000CBF01200020704700687047006870478F
:1030400038B504460D4600F09EFE002129606168F7
:1030500069606168002914BF0D6025606560FFE745
:10306000BDE8324000F091BE0B684A68002B0CBFEF
:1030700042605A604A680968002A0CBF016011600A
:1030800070470000006801074CBF042000F00300F7
:10309000704700001628A8BF203870472DE9F84F68
:1030A00006469348934C0068934D800704D508204A
:1030B000A87192482060BFE000F072FB8046904803
:1030C000006800900027001700F1010900988002B5
:1030D00008D4C8F13E00C0100928A8BF08208145C7
:1030E000B8BF814687480068C0F30460FFF7D2FF8D
:1030F000824685480068C0F30440FFF7CBFF09EB28
:103100000A011629A8BF152104DA6FF009029142BD
:10311000B8BF114601F01F027C4B42F4F8521A80EE
:103120007B4A126812F0030F18BF0127520748BFED
:1031300047F002070EB147F0040795F90720A8EB06
:103140000202052A02DAAA7997425DD0A8F10F0C93
:103150000026BCF1000FB64607F0010207F0040399
:10316000DFF8B09123D40CEB0C1C4FEA2C2EBEF1EF
:10317000080F28BF4FF0070E7646072E28BF0626F9
:1031800009EB860A59F82660DAF804A0AAEB060AC9
:103190000AF0FF0613B1CAF3072B5E445FEA877B90
:1031A00044BFCAF3074B5E440AB106EB1A6659F8EE
:1031B0002E9009F0FF0A13B1C9F307239A44BB0705
:1031C00044BFC9F307439A440AB10AEB196A401A8B
:1031D000ACEB0E220099AF71724380320128B8BF68
:1031E0000120342301F0FF0158430AEB1222484327
:1031F000B0FBF2F0B0F5803F28BF4FF6FF7008F348
:103200000708A88085F8078043480068A9882860D7
:1032100000201F2904D21F21A98004E04908401C76
:10322000B1F5007FFAD20F39090940EAC1003B49E4
:103230000843206000206060BDE8F18F10B5384879
:10324000006884B21CB300F0ABFA2B4991F9072057
:10325000904205DA6FF07F029042B8BF1046C87105
:103260008888844201D28C8010BD2B4A12680B687A
:10327000D21A921C202A28BF1F22231A5208D34098
:103280001818B0F5803F28BF4FF6FF70888010BD3A
:103290002448026802B9704710B5234B996801F0C1
:1032A0004060B0F1406F21D011480468A4071DD4DC
:1032B0005C68A4071AD404681B68C3F303531C3367
:1032C0001B0114F0050F06D09A420FD26FF00501D2
:1032D0002140016010BD934208D20A0158BF44F05A
:1032E0000104490158BF44F00404046010BD00000B
:1032F000000009403010094070230020FDFDA400AB
:10330000B43F0050B81200503C1100506E620840AB
:10331000242208409C1300500820094000E7A480A4
:103320003410094028500940AC3F0050EFF31080A2
:1033300072B67047EFF3108062B67047DFF800F0A6
:1033400099C8011010B50C18FFF7F0FF401E80411E
:10335000C00FDFF8F0130A68002AFCD024680122AD
:103360000A6008B1FFF7E6FF204610BD38B5DFF868
:10337000D843DFF8D8132078897B002508430AD08A
:10338000FDF734F9A178002906BF0121A1700125BC
:10339000FDF730F90DB1002032BD0220FEF7C6FF67
:1033A0000E20FEF7D8FFDFF8A803016809B101205D
:1033B00032BDDFF8A023402111600121C16100204E
:1033C000607032BD70B5DFF88C0382B000210160FF
:1033D0004821C160DFF8800300F1D804A17A0029F8
:1033E00068D00129DFF8742329D110684BF2F52148
:1033F0004843050ADFF868030068C0F381400128EC
:1034000006D100F0CDF9FFF7F2FA684305EB9055CD
:10341000607B10B10020607305E0D24800680002B4
:1034200015EB10204508D0480560290C41600121AA
:103430008160C648807B00283AD0052039E0022907
:1034400009D11568284600F0FDF8A5F2FF500328C1
:103450002ED308202DE003292CD1116800F1B805E6
:10346000A1F5C0612868E961002848BF40420029F1
:1034700048BF49428842A8BF002018DA6868BB4E9E
:1034800080B2009008234FF47F4230213046FFF78E
:10349000AAFDA86800F072F904213046FFF7A3FDE9
:1034A000A86900F071F93046FFF79DFD01202070FA
:1034B0000B202073BDE873402DE9F041A64CDFF8E6
:1034C000AC82AB4FAB4EA34804F1E10582B0E97882
:1034D0004A1E0B2A00F28080DFE802F00622334603
:1034E0005B33465B3346636EA34909680968202055
:1034F00088470F20F860072341F61D5038614FF4CC
:10350000C0720220009000F070F807234FF4C072E0
:1035100000214046FFF77AFD01203060022044E0A0
:103520000120F861287800281DBF002030610320A9
:103530000620E87003203860002070607068800703
:1035400034D4E878032804D1022000F04BF804209A
:1035500007E0002000F046F8E87806280CBF0720B6
:103560000A20E87001201AE0042903D12021B96162
:10357000012105E00122BA610A290CBF03210221C1
:103580006970002139600821C16001600120386044
:1035900026E005290CBF06200920E8700020706095
:1035A00004E00020306070600C20E87004F17800C6
:1035B000BDE8F641FDF732B8002101600120644901
:1035C00008600E20FEF75CFE0220FEF745FE01209B
:1035D000E8700020A87003E0BDE8F341FFF7AEBE3D
:1035E000BDE8F38100900523602200214046FFF7EB
:1035F000FABC000080B558495E4891F8E410891E75
:103600000A291AD8DFE801F0060A0E190A0E190A6B
:103610000E19120001688907FCD510E0416889077E
:10362000FCD40CE041688907FCD508E001688907F3
:10363000FCD441688907FCD401E0FFF77FFEBDE8B8
:10364000014039E7F8B50746484C30212046FFF7DE
:1036500079FE414E06F1B805C0F3072068600421E9
:103660002046FFF76FFEC0F38440A860202120466B
:10367000FFF768FEC0F38120A861B7F5C06028603D
:1036800002D186F8D800F1BD296996F8D8202AB968
:103690006A68A968EA60E861AA696A61E86900285D
:1036A0004CBF6FF00102022200EB400010184210E4
:1036B00000EB927001EBA0006968E960012810DA64
:1036C0006A69032A04D1153001281DDA01201BE0A4
:1036D0000B300128B8BF0120491E48BF0021E96016
:1036E00007E01F2812DB6A692AB915381F28A8BF0E
:1036F0001E20032109E00B381F28A8BF1E20491CEB
:103700004029A8BF3F21E9600021696128610823A1
:10371000E86880B200904FF47F42302100F03CF81E
:103720000120009011234FF4003200F034F8286992
:1037300000F024F800F02FF8686900F025F800F098
:103740002BF8F1BD00800C409D090020EC790000B1
:1037500004800C402C500C40BC08002008400C4059
:10376000B43F0050102009403C600C4000A00C40C9
:1037700000400C4034600C40A001001080B200906A
:1037800012234FF4F802704780B200900A234FF4DE
:1037900040622021704704212046FFF724BC00002E
:1037A0000748084A81681278006852B2A0F5407054
:1037B000C9035043C913A1EB201080300012704799
:1037C000285009400C13005070B50446FFF7AEFDB9
:1037D000451EAD41ED0F074E30680028FCD0A047D4
:1037E00001203060002D1CBFBDE87040FFF7A2BD76
:1037F00070BD000000800C4062F30F2262F31F4294
:1038000000B500BF130096469446103928BFA0E8C3
:103810000C50FAD85FEA417C28BF0CC048BF40F882
:10382000042BC90728BF20F8022B48BF00F8012B42
:1038300000BD000030480068000C00F007000528BB
:1038400028BF4FF0FF3070472C490A68C2F30F328F
:103850004BF69A139A424FF0FF3006D10868000FDA
:103860000B280CBF0420002070474BF6BE118A4283
:1038700001D1012070474BF641318A4201D103202A
:1038800070474BF620318A4208BF02207047000083
:103890001A48F8B50068050F1948006800F0FF06DF
:1038A000802E28BF0026FFF7CFFF04284FF0FF34FB
:1038B00006F10A071DD8DFE800F003121A1A1B00F0
:1038C000012D12D0032D06D0072D06D0082D08BFDC
:1038D00006F116040DE014240BE0152409E025B1CF
:1038E000022D08BF06F1140403E00A2401E005B923
:1038F0003C4660B2F2BD0000941200501813005014
:10390000A010005080B5FFF79FFF20B9FFF7C0FF60
:10391000162800DB01BDFEE7DFF8E8130968C1F3F4
:1039200004611629A8BF203901EB2071491C162912
:10393000A8BF152104DA6FF009029142B8BF114601
:1039400001F01F01DFF8C02341F4F8511180DFF8C6
:10395000BC13096889074FBF40F040600021DFF8C1
:10396000B0231160DFF8AC13C0F3C06282F0010233
:10397000C0F380600A6080F001008860704770B515
:10398000054682B0084600F0EEF80246DFF88843AC
:10399000182100F060F800F012F980B200900023C6
:1039A00040F2FF322C212046FFF71DFBDFF86C634D
:1039B000F068C0F30D021C2100F04DF8706800F0B3
:1039C000FC32142100F047F83068DFF85413DFF8B8
:1039D000546301EA0002102100F03DF8284600F08F
:1039E000F8F802460C2100F036F8284600F01CF9E1
:1039F000400040F020003072284600F01EF940F0F0
:103A000010003072284600F021F90246282100F00B
:103A100022F8284600F0FFF8400040F06000F07205
:103A2000284600F02DF9C00040F080003070284694
:103A300000F02FF98000BC4940F47C400880284603
:103A400000F011F90246082100F005F8B7494FF4DB
:103A50008000086073BD2046FFF7C0BAF8B5810C3E
:103A600001F003010129B24CB04D02D002292AD045
:103A700026E0216A8A0323D44FF480422A606FF043
:103A80008F06AC4AD2F8023033404E0A06F0800668
:103A90003343C1F303363343C2F80230C1F3032684
:103AA000D2F801301B0946EA0313C2F801306FF067
:103AB000E7061368334001F0E7011943116002E0A3
:103AC0004FF0004129609C4E9C4AB16809075CBFD9
:103AD0004021A9624FF400712964800D216AC90C4C
:103AE00001F0030141F0300110F00300117003D028
:103AF000022826D008D326E001210420FEF7C8FEC4
:103B00008F4800F0F0F822E00120FEF7E3FE0746C0
:103B100039460420FEF7BCFE0420FEF7DBFEB84267
:103B2000FAD1366826F07F4000F0DDF8854B1B683F
:103B30001B684FF060220721300E98474FF48060D9
:103B40002860032100E002210420FEF7A1FE206886
:103B50007D4900F03F00087047F618007B49088057
:103B60007B480068F1BD7B490968C1F38362830328
:103B7000C1F38F2120D4000400164FF6FF7307E035
:103B8000490804D11946520804BF01220121401CF2
:103B90000028F5D401280FDB490041F00101B1F5FF
:103BA000803F21BF0121520042F00102102A24BFB0
:103BB0000F221946401EEDE741EA02407047654872
:103BC000016800680002C1F3870100F440700843F7
:103BD000704730B5604C61490A686568ED07C2F30B
:103BE0000351C2F303430AD42468250501EB257170
:103BF000240481F3040103EB247383F304031B0403
:103C000043EA015193B21943222824BF02F08040B5
:103C10000143084630BD0021202803D350480068E6
:103C2000C0F30151084670470121222803D34D48B3
:103C30000068C0F30071084670470121222803D3B1
:103C400048480068C0F340710846704700212028AA
:103C500007D343480068C10C01F44071C0F384509D
:103C600001430846704720283F4907D33C483F4A54
:103C70000068810A02EA003040EA81510846704734
:103C80000021222803D337480068C0F3C0610846EA
:103C900070470021222803D332480068C0F3455101
:103CA00008467047324800680028FBD13148324A44
:103CB000416812688908890041F0005141F004010F
:103CC000520748BF41F001010BD4026812F0030F04
:103CD00007D041F003024260026802F00302032AA7
:103CE000FAD141607047254982B20A60C0F30740AB
:103CF000486001208860224800680028FBD000202E
:103D000088607047B81200506E6208400000094099
:103D100094042A430000204300A00C40701300507C
:103D2000FFFFFC0041A10C40DCA10C4040A00C4076
:103D30006C1300500A600840A83F005008A10C40D6
:103D4000BD378600B40100100BB00C4070B00C40C1
:103D50002C20094050130050AC3F00507813005005
:103D6000981300508C13005000803F4000F03F003B
:103D70000C00684200400340B03F00503C600C40E3
:103D800084088C437047FCF731BCFCF733BC00005F
:103D9000DFF800F0D9C10110DFF800F025B1011003
:103DA000DFF800F013C10110DFF800F0B9C2011014
:103DB00000B583B000F00DF8032114E0E0B500F089
:103DC00008F8042100F012F808B100200EBD029896
:103DD0000EBD0821ADF800100190704700B583B00A
:103DE000FFF7F7FF052100F001F807BDADF802105D
:103DF0006846DFF8E01A0968084700B58FB0082365
:103E00003C2200216846FFF7C3FFDFF8CC0A00F12F
:103E10005001079100234FF4587108916A4601211F
:103E200006910FF24D11FFF7B7FF0FB000BD10B5AF
:103E300086B00820ADF800000120DFF8981ADFF8FE
:103E40009C4A0968ADF80200684688479DF804005E
:103E500020700298606204F1500000F0A5FEA0629C
:103E600000230020019000904FF47A720FF6152184
:103E700004F12C0000F054FE0FF6192000F000FFB2
:103E800000214FF0004000F097FF20626A464FF695
:103E9000FF70E08101210020206108208DF80000E2
:103EA00040F2044000F0EEFF4FF47A61022001F08E
:103EB000E6FB4FF47A61032001F0E1FB0FF61442B8
:103EC0001521002001F0E6FA44F6C740019001AA4E
:103ED00001208DF80300042100208DF802008DF8E8
:103EE000010001208DF800004FF4816001F016FC04
:103EF0000DF1030201214FF4806001F00FFC0DF180
:103F00000202012140F2024001F008FC0DF1010221
:103F1000012140F2034001F001FC6A46012140F218
:103F2000064001F0FBFB01F07FFA207801F08EFAE9
:103F30004FF0FF3001F0ABFA4FF0FF3001F06BFAB9
:103F400004F15C0000F08CFF04F1600001F015FA50
:103F5000207801F00FFA207801F063FA00F0F8FA07
:103F6000206A0FF68413002100F051FF06B010BD47
:103F700070B586B0FFF75BFFDFF86049DFF8545992
:103F800024E0A06A00F03BFE060004D000F07EF8BA
:103F90003046FFF723FFA06AFFF702FF0028F0D0AA
:103FA000A08AC10712D54FF6FE710840A0820020FA
:103FB000A083608320830120607105A9E08B2278B3
:103FC000001FADF81400E08A01F0CEFA0820ADF829
:103FD00000000A20ADF802004FF0FF300190684663
:103FE000296888470028D6D10820ADF808000920A4
:103FF000ADF80A0002A8296888479DF80E10049EB3
:104000000028C8D1BDF80C00102801BF20788142DB
:10401000304600F006F8002EBDD03046FFF7C8FE4F
:10402000B9E700B585B0017891290BD0B02905D04A
:10403000D02929D105B05DF804EB84E005B05DF826
:1040400004EB8DE241780E2902D0102915D01BE037
:10405000818841F20542914216D100F072FA8068DF
:104060000FF6C81390F90300404200900421DFF8D6
:104070006C08006A00F0CBFE06E005B05DF804EBCA
:104080000021082001F032BD05B000BD2DE9F0414E
:10409000044686B02088022829D004282DD008287C
:1040A00011D0102809D020284CD16068FFF7B9FF43
:1040B000606806B0BDE8F0417AE6A17806B0BDE8D8
:1040C000F04100201FE1646860884FF6FF7188426C
:1040D00038D0012101F0EDFAA0B32188606800F02A
:1040E00045FD608806B0BDE8F04101F017BC60688E
:1040F0000178A07800F0C7FA1FE06068DFF8DC679D
:104100000578F78A01F0B4FCDFF8D417DFF8D02780
:10411000B0FBF1F102FB110855B100F0DEF8CDF86B
:1041200000800022306A0FF68413042100F06FFE35
:1041300042460021384601F029F9606806B0BDE822
:10414000F0414BE6EEE170B5DFF8905786B00446DB
:10415000286AA2780FF2E8764FF6FE7162B1012A62
:1041600046D0052A5CD0062A00F08B80072A00F092
:10417000A8800D2A11D0ADE06089E883E01C00F032
:104180004BFD00F0D6F9286A0022012100F03FFE25
:1041900000F0B0F80FF25C7399E02069217B0144D4
:1041A000491E00E010448842E5D210F8012B002A95
:1041B000F9D00378022B18BF032BF3D1401C521EF9
:1041C00001E0801C921ED2B2022A01DB884203D396
:1041D000012AE8D1401CE6E70378F02B04BF4378BE
:1041E000FF2BEED12179601D06B0BDE87040FAE2E8
:1041F0000021E970049103910291019100226978F4
:104200000FF2FC6300F091F9687830B100F072F8B9
:104210000FF20073032100F0FAFD6878A87059E0EE
:104220006278C2B9022028716089E8820120287270
:10423000A88B18B905F12C0000F096FC00F05AF894
:104240000FF2E06300F072F9201D00F0E5FC034678
:1042500000F043F810E00022E9822A716A710492AA
:10426000039202920192009202210FF2C46300F0C5
:10427000CEFD00F038F8607800900022286A032113
:1042800026E0002028716871A8832872E982A0883E
:1042900000F0D4F900F02EF80FF2B06300F046F908
:1042A00000F021F8A07900900022286A032100F094
:1042B000AEFD286A06B0BDE870400022042100F07F
:1042C000A1BD00F03EF9E1780FF290630091022168
:1042D00000F09DFD06B070BD002200200490039008
:1042E000029001907047002004900390029001908A
:1042F0003346704700200490039002900190009094
:104300000022286A70472DE9F041DFF8D045DFF838
:10431000D465206AA3786278E7780D0786B01CD54B
:10432000002F38D1110036D0591CCBB2934228BF90
:104330000021A17000F005F9A1780FF23463491C47
:1043400000F0F3F8A07806EBC000801C00F064FCDD
:10435000034600F0FDF80321E2E094F804C0E58A8A
:104360005FEA817853D5BCF1020F18D0A7B90121BB
:10437000E1700021617000F0B9F90FF2006300F004
:10438000D5F8206A0422032100F03CFD002201211F
:10439000032000F0E0FDC5E000F0F3FDC2E0A08BDB
:1043A0000100FBD0217A0029F8D1E179F9B100238D
:1043B00001221221284601F0F1F900280190EDD0E8
:1043C000A08B0199ADF800000120ADF80200A079A2
:1043D00008700020ADF8080069462278E08A01F0F4
:1043E000E5F868B11221684601F0E7F99AE0ADF806
:1043F000000069462278284601F0D4F8002805D14B
:1044000001202072E07980F00100E0718AE0C806A6
:104410000ED5BCF1020FF9D14FF4167000900023B5
:104420004FF448724FF4C871284600F084FD79E0DB
:10443000C80736D5BCF1000F1BD1002A72D001216C
:10444000217106EBC300851C42782B460021002019
:1044500000F056FD00F07CF8206A0FF2305300F0B7
:1044600065F8284600F0D8FB00F063F8002203212D
:104470000FE0BCF1010F18BFBCF1020F52D10320B5
:104480002071284600F036FD00F062F80FF2085364
:10449000022100F0A5F9206A0022042100F0B2FCFC
:1044A00040E048073ED5BCF1020F3BD1284600F062
:1044B000E1F868BB0121284601F0FBF8002831D063
:1044C000284600F0D7F807004FF47A7604D07868D1
:1044D00000F061FB3E8016E0E0894FF6FF718842F4
:1044E00020D12420FFF76AFC2061D8B1002101917E
:1044F0000091002300220FF2A53100F011FBE581AD
:1045000004F10C07A6813146786800F02FFB09E022
:10451000284600F093F800F01BF80FF28C430421BA
:1045200000F05EF906B0BDE8F0810091022100F0D4
:104530006EBC002104910391029101910091034608
:10454000704700210491039102910191002270476C
:104550000020049003900290019000900022704788
:1045600030B5DFF8785304462879022885B04FD15A
:104570006278286A2179162A05D100F051F8009155
:104580000FF234433BE00B2909D001290FD1217AE6
:104590000A291CD100F04AF80FF2304305E0FFF77A
:1045A000D0FFE1680FF234430978009109E0132944
:1045B00014D1A9790FF2444300914A1CAA7100F06A
:1045C0002FF8042100F023FC0020287220E012299B
:1045D00019D100F02BF80FF21443E6E77E2905D13C
:1045E00000F08CF80FF22443217A06E07F290AD1EB
:1045F00000F084F80FF22443218900910022042165
:1046000000F005FC04E0687910B1204600F07CF869
:10461000217904F1080005B0BDE8304001F0CDB8C3
:1046200000220492039202920192704700210491A9
:104630000391029101910022217B704738B5044615
:1046400000F018F8A0B14068A44D00F0A4FAE88981
:10465000A0420BD1286930B1FFF7A6FB2869FFF70C
:10466000BDFB002028614FF6FF70E881002032BDBD
:10467000122032BD9949CA89824202D101F10C004F
:104680007047002070470200944800B5006A85B06A
:1046900005D100F033F800910FF2A03321E0012A98
:1046A0000B460AD121B900F021F80FF2A03319E02E
:1046B00000F023F80FF2A43313E0022A05D199B9D0
:1046C00000F014F80FF2A8330CE0032A0CD121B942
:1046D00000F00CF80FF2A83304E000F00EF80FF22F
:1046E000B4330022FFF722FF05B000BD049103910F
:1046F00002910191009100227047009300210491E2
:10470000039102910191704710B5744C61790129B0
:1047100086B019D10079032860D10FF2A0300FF2D2
:10472000FC230088ADF81400FFF7D6FD0421172004
:10473000009000F055F80220607102222378E08A90
:1047400005A900F018FF49E002292ED101790729B7
:1047500028D1018951B1C1680A784B7802EB032254
:1047600022838A78C97802EB0121618340781A2874
:1047700034D1208B010031D0ADF800000321608BD3
:104780002278ADF80200617102208DF804006946BC
:10479000F1208DF80500FF208DF80600E08A00F07A
:1047A00003FF1BE0012919D1E3E7032916D10179A1
:1047B000092911D1018979B1C1680FF20433087850
:1047C000497800EB0120A083FFF786FD00900221CD
:1047D00000F006F8002020720020607106B010BDC5
:1047E000206A00F014BB2DE9F0473C4E7778082F83
:1047F00080468A461DDA0025DFF8E89000E06D1C4F
:10480000E8B2B8420AD2EDB209EBC500811C06221B
:10481000404601F02BFA0028F1D10AE009EBC70469
:1048200006224146A01CFDF70DFC84F801A0781C6F
:104830007070BDE8F08780B502460021202000F0AE
:1048400035F8401E8041C00F02BD38B50C461546F4
:104850000120FFF7B3FA020005D015702146BDE82C
:104860003840022022E031BD10B51C460120FFF780
:10487000A5FA30B104700246BDE8104000210420C2
:1048800014E010BD1548818A41F001018182406A1F
:10489000FBF7B4BE01460022102007E00F4901EBF0
:1048A000C00000F10C0200215FF0080070B5044662
:1048B0000D4616460820FFF781FA50B10480857036
:1048C00046600246BDE87040044B596A986A00F0A1
:1048D00072B970BD540600207C1E00209006002096
:1048E00040420F002C220020424C452043656E744C
:1048F00072616C00496E697469616C697A65640003
:104900004465766963657320466F756E642025641F
:10491000000000003C2D20546F2053656C656374CB
:1049200000000000436F6E6E6563746564000000F4
:10493000436F6E6E656374204661696C6564000048
:10494000526561736F6E3A20256400004469736399
:104950006F6E6E6563746564000000005061726183
:104960006D205570646174653A2025640000000074
:1049700044657669636520256400000044697363BB
:104980006F766572696E672E2E2E0000436F6E6E15
:10499000656374696E670000446973636F6E6E656A
:1049A0006374696E67000000525353492043616E7F
:1049B00063656C6C65640000415454205273702030
:1049C00064726F70706564202564000052656164D4
:1049D000204572726F722025640000005265616488
:1049E000207273703A2025640000000057726974C9
:1049F00065204572726F72202564000057726974D9
:104A0000652073656E743A20256400004643205685
:104A1000696F6C617465643A202564004D545520BB
:104A200053697A653A2025640000000052535349C7
:104A3000202D64423A202564000000005061697214
:104A4000696E672073746172746564005061697285
:104A5000696E672073756363657373005061697273
:104A6000696E67206661696C3A2025640000000069
:104A7000426F6E64696E672073756363657373005C
:104A8000426F6E642073617665207375636365732E
:104A900073000000426F6E6420736176652066616A
:104AA000696C65643A2025640000000050617373EE
:104AB000636F64653A20256400000000F0FF000089
:104AC00053696D706C652053766320466F756E6414
:104AD0000000000053696D706C6520424C45204316
:104AE000656E7472616C000000000000DFF800F079
:104AF000F5B80110DFF800F02DBF0110DFF800F06D
:104B000011BF011000B583B00821ADF8001001906D
:104B10000521ADF80210684651490968884707BD6C
:104B2000F0B589B004460D4616461F4608232422D8
:104B300000216846FBF76AFD0F984A49096806900C
:104B40006B464FF47A70B0FBF1F101FB07F0059072
:104B500001FB06F20E98ADF8100029462046FBF73F
:104B60007DFD204609B0F0BDFBF758BD38B50446C1
:104B70000D46FCF768FE10B12046FCF756FE00F02B
:104B80000CF800FB05F12046FBF744FD2046BDE88C
:104B90003240FBF743BDFCF748BE324909684FF489
:104BA0007A70B0FBF1F0704710B504460021FFF7B2
:104BB0009DFF204610BD70B584B004460820ADF8B6
:104BC00000000D460420ADF802000C2024490968BD
:104BD000019016466846884758B9029949B18E60D7
:104BE0002046FFF787FF15B12846FBF707FD012098
:104BF00003E03046FFF786FF002004B070BD10B51B
:104C00000446FFF77BFFA04204D08468FFF77AFFD9
:104C1000204610BD002010BD30B585B00446684662
:104C20000FF248011422FDF71DFA0F4830210170E0
:104C3000A21D782141700623811C12F8015D2D0907
:104C40005B1E1DF8055001F8015B157805F00F0596
:104C50001DF8055001F8015BEFD105B030BD000033
:104C600054060020E80000006C220020303132336E
:104C70003435363738394142434445460000000058
:104C800030B50446414D83B005F1300105F14800CF
:104C900001F088F9A8600FF2810101F053FAA868C9
:104CA0003B4A00F035F8A8683A4A00F031F8A868A5
:104CB000394A00F02DF8A868384A00F029F8A868A9
:104CC000374A00F025F8A868364A00F01DF8A868B1
:104CD000354A00F019F8A868344A00F015F8A868B9
:104CE000334A00F011F8A868324A00F00DF80020AD
:104CF000019000900023C8220FF2810105F10C0001
:104D0000FFF70EFF6C6037BD4FF0C05101F02ABABB
:104D10004FF4E02101F026BA10B51C4C00202070A1
:104D20000B2001F0DDF918B9207840F00100207067
:104D3000132001F0D5F918B9207840F00200207056
:104D40000C2001F0CDF918B9207840F00400207053
:104D50000F2001F0C5F918B9207840F00800207044
:104D6000122001F0BDF918B9207840F01000207031
:104D700004F10C00BDE81040FFF7F6BE034841689F
:104D80000A001CBF0078084770470000C4050020D7
:104D90000B000580130005800C0005800F000580C6
:104DA000120005800B000010130000100C00001012
:104DB0000F000010120000102DE9F8430D0008BF8D
:104DC0000FF2700504460027DFF8349000E07F1CE6
:104DD0000C2000FB07F859F8086076B1BC4203D0FC
:104DE000B06980472042F2D0C84432682946404624
:104DF00090470028EBD0404600E00020BDE8F28359
:104E0000A07A000010B103689B681847704700B98A
:104E1000704710B586B00C9C04940B9C03940A9CBC
:104E20000294099C0194089C00940468E468A047DB
:104E300006B010BD0300000000B583B0ADF800005F
:104E40008DF806100020DFF80C130968ADF8020099
:104E50006846884710B99DF807000EBDFF200EBDBB
:104E60001CB5BD4C00B1606004F10800019004F174
:104E70001C00009004F10C03A2786078082100F077
:104E8000A1FB16BD70B5034600244FF480661046A2
:104E90009B1B0A46B04D08D05B1E0CD05B1E12D087
:104EA0009B1E15D05B1E1AD021E0102915D101469A
:104EB00005F10C0004E010290FD1014605F11C009A
:104EC000FDF7C0F814E0042907D10068A8600FE0DE
:104ED000012902D10078A8700AE0182408E038B14E
:104EE000012905D10078032802DAE87000E00224E5
:104EF000204670BD014698484078132200F090BBD0
:104F0000FEB5064694480F46417814461D4650208B
:104F1000FFF792FF8DF800008DF801608DF80270A8
:104F20008DF803400622294601A8FDF78BF8684654
:104F300000F069FBFEBDE0B5ADF80000ADF8021071
:104F4000ADF80420ADF806300498ADF808006846C6
:104F500000F05DFB0EBD70B504467F480D464178FC
:104F600082B016465020FFF767FF8DF800008DF8DD
:104F700001408DF802508DF80360684600F06BFB2D
:104F800076BD7548407800F06ABB00B58FB0082345
:104F90003C2200216846FEF7FBFE704800F15001FC
:104FA000079100234FF4DC7108916A4603210691B2
:104FB0000FF20901FEF7F0FE0FB000BDF0B585B0AD
:104FC0000820ADF808000120624C634D2168ADF85F
:104FD0000A0002A888479DF80C00687000F083FB67
:104FE000287005F10C021021022000F0F1FC05F1FF
:104FF0001C021021032000F0EBFC05F10802042143
:10500000042000F0E5FC14E03078D02803D13046CD
:1050100000F042F80746002E18BF002F09D00820E4
:10502000ADF800000320ADF8020001966846216843
:1050300088470820ADF800000A20ADF802004FF0C4
:10504000FF3001906846216888470028F1D1082088
:10505000ADF808000920ADF80A0002A821688847C9
:10506000BDF80C109DF80E20049E0028E1D1012708
:10507000102904BF68788242CDD130884FF6FF7185
:105080008842C1D170884004C5D505F108020421C9
:10509000042000F0B2FCBEE73EB504462E4DA078D9
:1050A00040B105281CD0062823D00C2825D0112873
:1050B00028D045E06078002842D105F10C0210218B
:1050C000022000F09AFC05F11C021021032000F0E0
:1050D00094FC0622E11C05F12C00FCF7B3FF2FE045
:1050E000607868BB6289E0780823211D00F060F9D0
:1050F00026E0A08800F073F922E0217BA08800F070
:1051000079F91DE0E878012810D1A088ADF80000F9
:10511000E088ADF802002089ADF804006089ADF8A0
:105120000600A089ADF80800012004E040B9A0887D
:10513000ADF8000000208DF80A00684600F06CFA17
:10514000686828B10168080002D0204688473EBD43
:1051500001203EBD5406002018060020B81900208A
:10516000E0B50821ADF800100190022100F00FF821
:1051700008B100200EBD02980EBD00B583B0082115
:10518000ADF800100190032100F001F807BDADF863
:1051900002106846DFF8A813096808471FB5ADF884
:1051A00006108DF804000824DFF894138DF8082009
:1051B0000393ADF80040ADF802406846096888479F
:1051C00004B010BD30B585B0144608220291ADF888
:1051D00000201922DFF8681309680190ADF8022059
:1051E0001D466846884714B1BDF80C10218015B1E2
:1051F0009DF80E102970089A0499116005B030BD11
:1052000000B583B00820ADF800001A2000F015F8B2
:1052100010B99DF804000EBDFF200EBD00B583B08F
:10522000ADF800008DF80610002000F006F810B967
:105230009DF807000EBDFF200EBDDFF804130968BE
:10524000ADF802006846084750B110F1040F01D1D3
:105250000420704710F1030F01D102207047012094
:1052600070478123037042EAC111002341F47C415D
:10527000C370818070478223037081800023C370D4
:10528000827170473EB504460820ADF800000D4617
:105290002020ADF802001020DFF8A4120968ADF854
:1052A00004006846884720B9029810B16FF00400E6
:1052B0003EBD00950023002221464FF0FF30FFF74E
:1052C00081FF3EBD10B582B01446CA78012A03D1D1
:1052D0008A88DFF8F8341A8000F010F858B9009086
:1052E00069462046FFF7CEFF28B900984478FFF7BB
:1052F00044FF204616BDFFF7A7FF16BD0B4602224E
:1053000010214BE738B51C461546FFF7F7FFC0B92B
:10531000009069462846FFF7B5FF90B90098457898
:10532000280002BF0098C079A04205D1009881688A
:1053300004982246FCF786FE0098FFF71EFF2846D9
:1053400032BDFFF781FF32BDF8B500F04DFA00F035
:10535000ADF907000DD032462946FFF78CFF00F06B
:1053600076F93872FFF74CFF3B4601B0BDE8F040DC
:105370008AE0F1BD10220121E6E738B500F0ECF932
:10538000050002D00422012175E031BDF8B500F01E
:10539000DAF907000AD0132200F03BF800F045FBD1
:1053A0003946BDE8F840DFF828248BE70420F2BD39
:1053B0002DE9F04100F059F907000FD0142200F058
:1053C00028F83C72FD603E8287F81280FFF718FFD4
:1053D0003946BDE8F041DFF8FC2373E71EE038B53D
:1053E00000F041F8050004D0152200F012F82C81DD
:1053F00044E031BD70B500F0BAF8060008D01622BE
:1054000000F007F800F032F83346BDE870403BE0AA
:1054100070BD01212FE7002204217CE00420BDE8BB
:10542000F081102202218FE710B500F088FA040005
:105430000AD0112200F01DF8FFF7E2FE2146BDE878
:105440001040DFF894233DE7042010BD38B500F08C
:105450000AF8050006D0122200F00BF800F0F7F869
:1054600028720BE031BD04460A2079E63481B5721A
:10547000C6E60221FFE6FFF7FEFEAC60FFF7C0FEC6
:105480002B4601B0BDE830400222102186E6002202
:10549000032140E000B583B00FF2490301930623D6
:1054A0000093032300F04EF80EBD1078802802BF51
:1054B000508840F27F61884208D19088984202BFAC
:1054C00091790098814201D10120704700207047F6
:1054D00010B582B00624FFE70094FFF7E6FF16BD83
:1054E000000000000323F3E71078802802BF5088F3
:1054F00040F27F6188420CD19088032818BF0428AD
:1055000007D1907901001CBF1028112801D101207A
:10551000704700207047F8B500F008FA07000CD07B
:1055200032462946FFF7A7FEBC60FFF769FE394601
:10553000BDE8F840DFF8A422C4E60420F2BD000074
:10554000540600202DE9F04100F035F807000AD09C
:10555000069A4146FFF78FFE3C817D8100F067FA95
:10556000079A00F010BA59E7022300F0FFB804468A
:105570000D460C20F4E52DE9F04100F076F8070027
:105580000FD0062200F015F83C81BE72FD6000F0DD
:105590001BFA00F0DEF83946BDE8F0410FF25D324B
:1055A00090E63BE70A23E1E03423DFE01223DDE06D
:1055B0004246032155E604460D46164698461020FD
:1055C000FFF7CEBD2DE9F04180460D4616461F4639
:1055D0001820FFF7C5FD040014D0002200F04CF89D
:1055E00000F0F2F920726572A672E76006982061F9
:1055F00007986061FFF704FE2146BDE8F0410FF215
:1056000061225FE60AE70FF25D23092202E00FF252
:10561000592311220021EBE00FF251231222F9E766
:10562000F8B500F09DF807000FD00A2200F024F82A
:1056300000F00DF838727D813E73FFF7E1FD3946C9
:10564000BDE8F8400FF229223CE60420F2BD2146D5
:105650005020FFF7E3BD0FF21D230422DAE70FF21B
:1056600019230522FFE70021D3E004460D46164624
:1056700098461420FFF774BD0421FFF7F2BD70B502
:10568000FFF775FF06000BD03022FFF7F5FF00F0A3
:1056900009F83146BDE870400FF2E112FFF712BE83
:1056A000042070BD34817581FFF7AABD0A20FFF781
:1056B00057BD7CB5044600208DF804000D460C2033
:1056C000FFF74EFD06000BD01122FFF7A2FEFFF7F9
:1056D000CDFE00F019F80FF2A9123146FFF712FEC5
:1056E0009DF8040076BD1CB500F026F904000AD030
:1056F0001222FFF78EFEFFF783FD00F005F80FF290
:10570000891200F008F803E001A900910123704715
:105710009DF8040016BD2146FFF7F4BDF8B500F072
:1057200012F807000DD03622FFF7A6FF3C817D81DD
:1057300000F07DF93946BDE8F8400FF25D12FFF741
:10574000C1BD0420F2BD04460D4616461020FFF7E9
:1057500007BD3874FFF754BD04460C20FFF700BDA9
:1057600004460D4616460E20FFF7FABC2DE9F0411F
:10577000FFF77BFF07000FD0FFF71AFF3C81FD60AA
:10578000314600F022F9FFF7E4FF3946BDE8F04169
:105790000FF20912FFF796BDFFF740BE38B5144669
:1057A0000F4A15682A0006D0009302460B46214690
:1057B0000120A84732BD002032BD0A4A13681A00F2
:1057C00003D00A460146012018477047D40900203B
:1057D00001590000075900000D590000E95400006C
:1057E000401C0020441C002004460D46164670470D
:1057F0002DE9F041FFF7DFFE070004D000F005F8C7
:10580000BC60FD60BCE0FFF709BE32460421FFF733
:1058100028BD2DE9F041FFF7CEFE070006D0FFF7C7
:10582000F4FFFFF714FF3872FD60A9E0FFF7F6BD43
:105830001078802802BF508840F27F6188420CD1E6
:1058400090884FF680710140B1F57E4F04BF00F0A3
:105850007F00984201D1012070470020704700006E
:105860000023E5E70923E3E71123E1E71223DFE75C
:105870000A23DDE70423DBE70523D9E73023D7E755
:1058800080B5112302E0000080B5122300930123AC
:10589000FFF70BFE02BD00003623C9E71078802811
:1058A00002BF508840F27F6188420DD190884FF648
:1058B000807101404FF68052914205D100F07F0087
:1058C000012801DB012070470020704710788028F4
:1058D00002BF508840F27F6188420DD190884FF618
:1058E000807101404FF68052914204BF00F07F006A
:1058F000984201D101207047002070470623E5E758
:1059000080B51323C2E780B51423BFE780B5112308
:1059100000930223BCE700F015F802BD80B50FF23A
:10592000910100F049F841F20540F4E704460D46C4
:1059300016460C20FFF714BC00208DF80400082048
:10594000FFF70EBC2DE9F041FFF74EFF98460E2001
:10595000FFF706FC070009D000F00AF83D817E81C0
:10596000A7F80C80FFF74CFC069A0CE0FFF756BD39
:10597000812038700120F870BC8070473D81FE6046
:10598000FFF73EFC42463946BDE8F041FFF79ABCBE
:105990001078802802BF508840F27F61884204BF9F
:1059A0009088984201D10120704700207047000084
:1059B00041F20543ECE7000000910023014600227C
:1059C00070473C817D81BE8141465020FFF726BC57
:1059D000F8B5FFF7B8FE07000DD0012200F022F85D
:1059E0003C727D7200F023F83946BDE8F8400FF2B2
:1059F0007902FFF767BC0420F2BDF8B5FFF7A3FEFC
:105A000007000DD0022200F00DF83C727D7200F00C
:105A10000EF83946BDE8F8400FF25102FFF752BCCC
:105A20000420F2BD0521FFF71CBC3C81BD72FE6065
:105A3000FFF7E6BB1078802802BF508840F27F61F4
:105A400088420DD190884FF6807101404FF68062F8
:105A5000914204BF00F07F00984201D101207047BD
:105A600000207047000000000123E3E70223E1E784
:105A70001CB500200190FFF762FF04000BD0052247
:105A8000FFF7D0FFFFF7BCFB01A9009104230FF241
:105A90000D02FFF740FE019816BD00000523C9E77F
:105AA000DFF800F055C0011038B50FF24100394C55
:105AB000394D00F0BDFB394800F0B5F923681B688B
:105AC0000122012128469847226852680121284670
:105AD000904700F001FD00F01DFDFFF756FAFEF7BC
:105AE0008CF9FFF7DDFF002032BD000070B52C4EB1
